{
  "transactions": [
    {
      "hash": "0x51c1d247c18f2ff97cb2e569946f171172ee51da97256c1ddcbb71d2fc6492b9",
      "transactionType": "CALL",
      "contractName": null,
      "contractAddress": "0x2632faf990511e9013830f96c6511c706d075317",
      "function": "createCampaign((address,string,string,string,string,uint256,uint256,uint256,uint256,uint256,uint256,uint256,uint256,uint256,uint256))",
      "arguments": [
        "(0xFF6bdef4fB646EE44e29FE8FC0862B02F0Ba8a33, Olive Demo Sepolia v4, OLIVE, Olive Yield, oYIELD, 144000000000000000, 347000000000000000000, 6944000000000000000000, 1780745460, 3600, 5000000000000000000, 1000000000000000000000, 50000000000000000000, 2027, 0)"
      ],
      "transaction": {
        "from": "0xff6bdef4fb646ee44e29fe8fc0862b02f0ba8a33",
        "to": "0x2632faf990511e9013830f96c6511c706d075317",
        "gas": "0x5142c8",
        "value": "0x0",
        "input": "0xdd6f93a10000000000000000000000000000000000000000000000000000000000000020000000000000000000000000ff6bdef4fb646ee44e29fe8fc0862b02f0ba8a3300000000000000000000000000000000000000000000000000000000000001e00000000000000000000000000000000000000000000000000000000000000220000000000000000000000000000000000000000000000000000000000000026000000000000000000000000000000000000000000000000000000000000002a000000000000000000000000000000000000000000000000001ff973cafa80000000000000000000000000000000000000000000000000012cf97a583e48c00000000000000000000000000000000000000000000000001786f5bc91c78800000000000000000000000000000000000000000000000000000000000006a2404f40000000000000000000000000000000000000000000000000000000000000e100000000000000000000000000000000000000000000000004563918244f4000000000000000000000000000000000000000000000000003635c9adc5dea00000000000000000000000000000000000000000000000000002b5e3af16b188000000000000000000000000000000000000000000000000000000000000000007eb000000000000000000000000000000000000000000000000000000000000000000000000000000000000000000000000000000000000000000000000000000154f6c6976652044656d6f205365706f6c6961207634000000000000000000000000000000000000000000000000000000000000000000000000000000000000054f4c495645000000000000000000000000000000000000000000000000000000000000000000000000000000000000000000000000000000000000000000000b4f6c697665205969656c6400000000000000000000000000000000000000000000000000000000000000000000000000000000000000000000000000000000066f5949454c440000000000000000000000000000000000000000000000000000",
        "nonce": "0x157",
        "chainId": "0x14a34"
      },
      "additionalContracts": [
        {
          "transactionType": "CREATE",
          "contractName": "TransparentUpgradeableProxy",
          "address": "0xa9dd11062a44870025c27f886c9697158cbc9d9c",
          "initCode": "0x604060a08152610aac8038038061001581610268565b9283398101906060818303126102645761002e8161028d565b60209161003c83820161028d565b8582015190916001600160401b039190828211610264570185601f82011215610264578051908282116101ef5761007b601f8301601f19168701610268565b968288528683830101116102645785905f5b8381106102505750505f918701015284511561023f57823b1561021f577f360894a13ba1a3210667c828492db98dca3e2076cc3735a920a3ca505d382bbc80546001600160a01b03199081166001600160a01b03868116918217909355885192979195907fbc7cd75a20ee27fd9adebab32041f755214dbc6bffa90cc0225b39da2e5c2d3b5f80a28151156102035761012692506102a1565b505b85519161048391828401908111848210176101ef57868492879461062985391681520301905ff080156101e557831691826080527f7e644d79422f17c01e4894b5f4f588d331ebfa28653d42ae832dc59e38c9798f857fb53127684a568b3173ae13b9f8a6016e243e63b6e8ee1178d6a717850b5d6103958587549483519286168352820152a182156101ce5716179055516102f69081610333823960805181600f0152f35b8451633173bdd160e11b81525f6004820152602490fd5b84513d5f823e3d90fd5b634e487b7160e01b5f52604160045260245ffd5b5050346102105750610128565b63b398979f60e01b8152600490fd5b8551634c9c8ce360e01b81526001600160a01b0384166004820152602490fd5b85516330a289cf60e21b8152600490fd5b81810183015189820184015287920161008d565b5f80fd5b6040519190601f01601f191682016001600160401b038111838210176101ef57604052565b51906001600160a01b038216820361026457565b905f8091602081519101845af4808061031f575b156102d55750506040513d81523d5f602083013e60203d82010160405290565b156102fc57604051639996b31560e01b81526001600160a01b039091166004820152602490fd5b3d1561030d576040513d5f823e3d90fd5b60405163d6bda27560e01b8152600490fd5b503d1515806102b55750813b15156102b556fe60806040526001600160a01b03337f000000000000000000000000000000000000000000000000000000000000000082160361006a575f356001600160e01b03191663278f794360e11b14610060576040516334ad5dbb60e21b8152600490fd5b6100686100be565b005b5f80917f360894a13ba1a3210667c828492db98dca3e2076cc3735a920a3ca505d382bbc5416368280378136915af43d5f803e156100a6573d5ff35b3d5ffd5b634e487b7160e01b5f52604160045260245ffd5b3660041161015f57604036600319011261015f576004356001600160a01b0381169081900361015f576024359067ffffffffffffffff9081831161015f573660238401121561015f5782600401358281116101635760405192601f8201601f19908116603f011684019081118482101761016357604052808352366024828601011161015f576020815f92602461015d97018387013784010152610168565b565b5f80fd5b6100aa565b90813b156101ff577f360894a13ba1a3210667c828492db98dca3e2076cc3735a920a3ca505d382bbc80546001600160a01b0319166001600160a01b0384169081179091557fbc7cd75a20ee27fd9adebab32041f755214dbc6bffa90cc0225b39da2e5c2d3b5f80a28051156101e4576101e191610220565b50565b5050346101ed57565b60405163b398979f60e01b8152600490fd5b604051634c9c8ce360e01b81526001600160a01b0383166004820152602490fd5b905f8091602081519101845af48080610289575b156102465750506102436102a7565b90565b1561026e57604051639996b31560e01b81526001600160a01b03919091166004820152602490fd5b3d15155f0361029c5760405163d6bda27560e01b8152600490fd5b503d1515806102345750813b1515610234565b6040513d5f823e3d90fd5b604051903d82523d5f602084013e60203d83010160405256fea2646970667358221220371437a14d55b0192ed17af74450cdb0b22bf1f3d480185986e4348c96e968d064736f6c634300081800336080346100b957601f61048338819003918201601f19168301916001600160401b038311848410176100bd578084926020946040528339810103126100b957516001600160a01b0390818116908190036100b95780156100a1575f80546001600160a01b03198116831782556040519316907f8be0079c531659141344cd1fd0a4f28419497f9722a3daafe3b4186f6b6457e09080a36103b190816100d28239f35b604051631e4fbdf760e01b81525f6004820152602490fd5b5f80fd5b634e487b7160e01b5f52604160045260245ffdfe604060808152600480361015610013575f80fd5b5f915f3560e01c8063715018a6146102bb5780638da5cb5b146102945780639623609d1461015c578063ad3cb1cc146100eb5763f2fde38b14610054575f80fd5b346100e75760203660031901126100e7576001600160a01b038235818116939192908490036100e357610085610350565b83156100cd5750505f54826bffffffffffffffffffffffff60a01b8216175f55167f8be0079c531659141344cd1fd0a4f28419497f9722a3daafe3b4186f6b6457e05f80a380f35b51631e4fbdf760e01b8152908101849052602490fd5b5f80fd5b8280fd5b5082346101595780600319360112610159575080519080820182811067ffffffffffffffff821117610146576101429350815260058252640352e302e360dc1b602083015251918291602083526020830190610312565b0390f35b604184634e487b7160e01b5f525260245ffd5b80fd5b5060603660031901126100e3576001600160a01b03823581811693908490036100e35760249182359081168091036100e35767ffffffffffffffff906044358281116100e357366023820112156100e3578084013583811161028257865191601f8201601f19908116603f0116830185811184821017610270578852818352368783830101116100e357815f92886020930183860137830101526101fe610350565b863b156100e357610230965f92875180998194829363278f794360e11b8452898401528a8a8401526044830190610312565b039134905af1801561026657610244578580f35b909192938095501161025557505052005b604190634e487b7160e01b5f52525ffd5b84513d5f823e3d90fd5b87604188634e487b7160e01b5f52525ffd5b85604186634e487b7160e01b5f52525ffd5b50346100e3575f3660031901126100e3575f5490516001600160a01b039091168152602090f35b346100e3575f3660031901126100e3576102d3610350565b5f80546001600160a01b0319811682556001600160a01b03167f8be0079c531659141344cd1fd0a4f28419497f9722a3daafe3b4186f6b6457e08280a3005b91908251928382525f5b84811061033c575050825f602080949584010152601f8019910116010190565b60208183018101518483018201520161031c565b5f546001600160a01b0316330361036357565b60405163118cdaa760e01b8152336004820152602490fdfea26469706673582212202992a71449476404159c12582e1f3d5c014ae92bc1369e2e03b37152567a3c7d64736f6c63430008180033000000000000000000000000d885fc2037a6eb201c2d0ffdce829ac0a0dbf340000000000000000000000000ff6bdef4fb646ee44e29fe8fc0862b02f0ba8a3300000000000000000000000000000000000000000000000000000000000000600000000000000000000000000000000000000000000000000000000000000204e1e228ab000000000000000000000000ff6bdef4fb646ee44e29fe8fc0862b02f0ba8a330000000000000000000000002632faf990511e9013830f96c6511c706d07531700000000000000000000000000000000000000000000000001ff973cafa80000000000000000000000000000000000000000000000000012cf97a583e48c00000000000000000000000000000000000000000000000001786f5bc91c78800000000000000000000000000000000000000000000000000000000000006a2404f40000000000000000000000000000000000000000000000000000000000000e1000000000000000000000000000000000000000000000000000000000000000c8000000000000000000000000000000000000000000000000000000000000012c00000000000000000000000000000000000000000000003635c9adc5dea00000000000000000000000000000000000000000000000000002b5e3af16b188000000000000000000000000000000000000000000000000000000000000000007eb0000000000000000000000000000000000000000000000000000000000000000000000000000000000000000e771ce539a297fc37094cba3ffc720a481cd5b4d0000000000000000000000000000000000000000000000000000000000000000000000000000000000000000baded9957eaa9a30ba26f787ac31dad4bb41b56d00000000000000000000000000000000000000000000000000000000"
        },
        {
          "transactionType": "CREATE",
          "contractName": "ProxyAdmin",
          "address": "0x1c76fb8ed983cab31c96f6dd781bb0d6e9166908",
          "initCode": "0x6080346100b957601f61048338819003918201601f19168301916001600160401b038311848410176100bd578084926020946040528339810103126100b957516001600160a01b0390818116908190036100b95780156100a1575f80546001600160a01b03198116831782556040519316907f8be0079c531659141344cd1fd0a4f28419497f9722a3daafe3b4186f6b6457e09080a36103b190816100d28239f35b604051631e4fbdf760e01b81525f6004820152602490fd5b5f80fd5b634e487b7160e01b5f52604160045260245ffdfe604060808152600480361015610013575f80fd5b5f915f3560e01c8063715018a6146102bb5780638da5cb5b146102945780639623609d1461015c578063ad3cb1cc146100eb5763f2fde38b14610054575f80fd5b346100e75760203660031901126100e7576001600160a01b038235818116939192908490036100e357610085610350565b83156100cd5750505f54826bffffffffffffffffffffffff60a01b8216175f55167f8be0079c531659141344cd1fd0a4f28419497f9722a3daafe3b4186f6b6457e05f80a380f35b51631e4fbdf760e01b8152908101849052602490fd5b5f80fd5b8280fd5b5082346101595780600319360112610159575080519080820182811067ffffffffffffffff821117610146576101429350815260058252640352e302e360dc1b602083015251918291602083526020830190610312565b0390f35b604184634e487b7160e01b5f525260245ffd5b80fd5b5060603660031901126100e3576001600160a01b03823581811693908490036100e35760249182359081168091036100e35767ffffffffffffffff906044358281116100e357366023820112156100e3578084013583811161028257865191601f8201601f19908116603f0116830185811184821017610270578852818352368783830101116100e357815f92886020930183860137830101526101fe610350565b863b156100e357610230965f92875180998194829363278f794360e11b8452898401528a8a8401526044830190610312565b039134905af1801561026657610244578580f35b909192938095501161025557505052005b604190634e487b7160e01b5f52525ffd5b84513d5f823e3d90fd5b87604188634e487b7160e01b5f52525ffd5b85604186634e487b7160e01b5f52525ffd5b50346100e3575f3660031901126100e3575f5490516001600160a01b039091168152602090f35b346100e3575f3660031901126100e3576102d3610350565b5f80546001600160a01b0319811682556001600160a01b03167f8be0079c531659141344cd1fd0a4f28419497f9722a3daafe3b4186f6b6457e08280a3005b91908251928382525f5b84811061033c575050825f602080949584010152601f8019910116010190565b60208183018101518483018201520161031c565b5f546001600160a01b0316330361036357565b60405163118cdaa760e01b8152336004820152602490fdfea26469706673582212202992a71449476404159c12582e1f3d5c014ae92bc1369e2e03b37152567a3c7d64736f6c63430008180033000000000000000000000000ff6bdef4fb646ee44e29fe8fc0862b02f0ba8a33"
        },
        {
          "transactionType": "CREATE",
          "contractName": "TransparentUpgradeableProxy",
          "address": "0xe5fafa3a398fb4e039b3daeeaed69b8c9815d320",
          "initCode": "0x604060a08152610aac8038038061001581610268565b9283398101906060818303126102645761002e8161028d565b60209161003c83820161028d565b8582015190916001600160401b039190828211610264570185601f82011215610264578051908282116101ef5761007b601f8301601f19168701610268565b968288528683830101116102645785905f5b8381106102505750505f918701015284511561023f57823b1561021f577f360894a13ba1a3210667c828492db98dca3e2076cc3735a920a3ca505d382bbc80546001600160a01b03199081166001600160a01b03868116918217909355885192979195907fbc7cd75a20ee27fd9adebab32041f755214dbc6bffa90cc0225b39da2e5c2d3b5f80a28151156102035761012692506102a1565b505b85519161048391828401908111848210176101ef57868492879461062985391681520301905ff080156101e557831691826080527f7e644d79422f17c01e4894b5f4f588d331ebfa28653d42ae832dc59e38c9798f857fb53127684a568b3173ae13b9f8a6016e243e63b6e8ee1178d6a717850b5d6103958587549483519286168352820152a182156101ce5716179055516102f69081610333823960805181600f0152f35b8451633173bdd160e11b81525f6004820152602490fd5b84513d5f823e3d90fd5b634e487b7160e01b5f52604160045260245ffd5b5050346102105750610128565b63b398979f60e01b8152600490fd5b8551634c9c8ce360e01b81526001600160a01b0384166004820152602490fd5b85516330a289cf60e21b8152600490fd5b81810183015189820184015287920161008d565b5f80fd5b6040519190601f01601f191682016001600160401b038111838210176101ef57604052565b51906001600160a01b038216820361026457565b905f8091602081519101845af4808061031f575b156102d55750506040513d81523d5f602083013e60203d82010160405290565b156102fc57604051639996b31560e01b81526001600160a01b039091166004820152602490fd5b3d1561030d576040513d5f823e3d90fd5b60405163d6bda27560e01b8152600490fd5b503d1515806102b55750813b15156102b556fe60806040526001600160a01b03337f000000000000000000000000000000000000000000000000000000000000000082160361006a575f356001600160e01b03191663278f794360e11b14610060576040516334ad5dbb60e21b8152600490fd5b6100686100be565b005b5f80917f360894a13ba1a3210667c828492db98dca3e2076cc3735a920a3ca505d382bbc5416368280378136915af43d5f803e156100a6573d5ff35b3d5ffd5b634e487b7160e01b5f52604160045260245ffd5b3660041161015f57604036600319011261015f576004356001600160a01b0381169081900361015f576024359067ffffffffffffffff9081831161015f573660238401121561015f5782600401358281116101635760405192601f8201601f19908116603f011684019081118482101761016357604052808352366024828601011161015f576020815f92602461015d97018387013784010152610168565b565b5f80fd5b6100aa565b90813b156101ff577f360894a13ba1a3210667c828492db98dca3e2076cc3735a920a3ca505d382bbc80546001600160a01b0319166001600160a01b0384169081179091557fbc7cd75a20ee27fd9adebab32041f755214dbc6bffa90cc0225b39da2e5c2d3b5f80a28051156101e4576101e191610220565b50565b5050346101ed57565b60405163b398979f60e01b8152600490fd5b604051634c9c8ce360e01b81526001600160a01b0383166004820152602490fd5b905f8091602081519101845af48080610289575b156102465750506102436102a7565b90565b1561026e57604051639996b31560e01b81526001600160a01b03919091166004820152602490fd5b3d15155f0361029c5760405163d6bda27560e01b8152600490fd5b503d1515806102345750813b1515610234565b6040513d5f823e3d90fd5b604051903d82523d5f602084013e60203d83010160405256fea2646970667358221220371437a14d55b0192ed17af74450cdb0b22bf1f3d480185986e4348c96e968d064736f6c634300081800336080346100b957601f61048338819003918201601f19168301916001600160401b038311848410176100bd578084926020946040528339810103126100b957516001600160a01b0390818116908190036100b95780156100a1575f80546001600160a01b03198116831782556040519316907f8be0079c531659141344cd1fd0a4f28419497f9722a3daafe3b4186f6b6457e09080a36103b190816100d28239f35b604051631e4fbdf760e01b81525f6004820152602490fd5b5f80fd5b634e487b7160e01b5f52604160045260245ffdfe604060808152600480361015610013575f80fd5b5f915f3560e01c8063715018a6146102bb5780638da5cb5b146102945780639623609d1461015c578063ad3cb1cc146100eb5763f2fde38b14610054575f80fd5b346100e75760203660031901126100e7576001600160a01b038235818116939192908490036100e357610085610350565b83156100cd5750505f54826bffffffffffffffffffffffff60a01b8216175f55167f8be0079c531659141344cd1fd0a4f28419497f9722a3daafe3b4186f6b6457e05f80a380f35b51631e4fbdf760e01b8152908101849052602490fd5b5f80fd5b8280fd5b5082346101595780600319360112610159575080519080820182811067ffffffffffffffff821117610146576101429350815260058252640352e302e360dc1b602083015251918291602083526020830190610312565b0390f35b604184634e487b7160e01b5f525260245ffd5b80fd5b5060603660031901126100e3576001600160a01b03823581811693908490036100e35760249182359081168091036100e35767ffffffffffffffff906044358281116100e357366023820112156100e3578084013583811161028257865191601f8201601f19908116603f0116830185811184821017610270578852818352368783830101116100e357815f92886020930183860137830101526101fe610350565b863b156100e357610230965f92875180998194829363278f794360e11b8452898401528a8a8401526044830190610312565b039134905af1801561026657610244578580f35b909192938095501161025557505052005b604190634e487b7160e01b5f52525ffd5b84513d5f823e3d90fd5b87604188634e487b7160e01b5f52525ffd5b85604186634e487b7160e01b5f52525ffd5b50346100e3575f3660031901126100e3575f5490516001600160a01b039091168152602090f35b346100e3575f3660031901126100e3576102d3610350565b5f80546001600160a01b0319811682556001600160a01b03167f8be0079c531659141344cd1fd0a4f28419497f9722a3daafe3b4186f6b6457e08280a3005b91908251928382525f5b84811061033c575050825f602080949584010152601f8019910116010190565b60208183018101518483018201520161031c565b5f546001600160a01b0316330361036357565b60405163118cdaa760e01b8152336004820152602490fdfea26469706673582212202992a71449476404159c12582e1f3d5c014ae92bc1369e2e03b37152567a3c7d64736f6c63430008180033000000000000000000000000da41b41476416f8c829f74460d57ee3f1ecfb0d0000000000000000000000000ff6bdef4fb646ee44e29fe8fc0862b02f0ba8a33000000000000000000000000000000000000000000000000000000000000006000000000000000000000000000000000000000000000000000000000000000e4077f224a000000000000000000000000000000000000000000000000000000000000006000000000000000000000000000000000000000000000000000000000000000a0000000000000000000000000a9dd11062a44870025c27f886c9697158cbc9d9c00000000000000000000000000000000000000000000000000000000000000154f6c6976652044656d6f205365706f6c6961207634000000000000000000000000000000000000000000000000000000000000000000000000000000000000054f4c49564500000000000000000000000000000000000000000000000000000000000000000000000000000000000000000000000000000000000000"
        },
        {
          "transactionType": "CREATE",
          "contractName": "ProxyAdmin",
          "address": "0x082c1d8e4cb26d272ddf97c4797f4570afa8f0c9",
          "initCode": "0x6080346100b957601f61048338819003918201601f19168301916001600160401b038311848410176100bd578084926020946040528339810103126100b957516001600160a01b0390818116908190036100b95780156100a1575f80546001600160a01b03198116831782556040519316907f8be0079c531659141344cd1fd0a4f28419497f9722a3daafe3b4186f6b6457e09080a36103b190816100d28239f35b604051631e4fbdf760e01b81525f6004820152602490fd5b5f80fd5b634e487b7160e01b5f52604160045260245ffdfe604060808152600480361015610013575f80fd5b5f915f3560e01c8063715018a6146102bb5780638da5cb5b146102945780639623609d1461015c578063ad3cb1cc146100eb5763f2fde38b14610054575f80fd5b346100e75760203660031901126100e7576001600160a01b038235818116939192908490036100e357610085610350565b83156100cd5750505f54826bffffffffffffffffffffffff60a01b8216175f55167f8be0079c531659141344cd1fd0a4f28419497f9722a3daafe3b4186f6b6457e05f80a380f35b51631e4fbdf760e01b8152908101849052602490fd5b5f80fd5b8280fd5b5082346101595780600319360112610159575080519080820182811067ffffffffffffffff821117610146576101429350815260058252640352e302e360dc1b602083015251918291602083526020830190610312565b0390f35b604184634e487b7160e01b5f525260245ffd5b80fd5b5060603660031901126100e3576001600160a01b03823581811693908490036100e35760249182359081168091036100e35767ffffffffffffffff906044358281116100e357366023820112156100e3578084013583811161028257865191601f8201601f19908116603f0116830185811184821017610270578852818352368783830101116100e357815f92886020930183860137830101526101fe610350565b863b156100e357610230965f92875180998194829363278f794360e11b8452898401528a8a8401526044830190610312565b039134905af1801561026657610244578580f35b909192938095501161025557505052005b604190634e487b7160e01b5f52525ffd5b84513d5f823e3d90fd5b87604188634e487b7160e01b5f52525ffd5b85604186634e487b7160e01b5f52525ffd5b50346100e3575f3660031901126100e3575f5490516001600160a01b039091168152602090f35b346100e3575f3660031901126100e3576102d3610350565b5f80546001600160a01b0319811682556001600160a01b03167f8be0079c531659141344cd1fd0a4f28419497f9722a3daafe3b4186f6b6457e08280a3005b91908251928382525f5b84811061033c575050825f602080949584010152601f8019910116010190565b60208183018101518483018201520161031c565b5f546001600160a01b0316330361036357565b60405163118cdaa760e01b8152336004820152602490fdfea26469706673582212202992a71449476404159c12582e1f3d5c014ae92bc1369e2e03b37152567a3c7d64736f6c63430008180033000000000000000000000000ff6bdef4fb646ee44e29fe8fc0862b02f0ba8a33"
        },
        {
          "transactionType": "CREATE",
          "contractName": "TransparentUpgradeableProxy",
          "address": "0xf4f5e77fa0d7628100f3b747b2de0968cd63806a",
          "initCode": "0x604060a08152610aac8038038061001581610268565b9283398101906060818303126102645761002e8161028d565b60209161003c83820161028d565b8582015190916001600160401b039190828211610264570185601f82011215610264578051908282116101ef5761007b601f8301601f19168701610268565b968288528683830101116102645785905f5b8381106102505750505f918701015284511561023f57823b1561021f577f360894a13ba1a3210667c828492db98dca3e2076cc3735a920a3ca505d382bbc80546001600160a01b03199081166001600160a01b03868116918217909355885192979195907fbc7cd75a20ee27fd9adebab32041f755214dbc6bffa90cc0225b39da2e5c2d3b5f80a28151156102035761012692506102a1565b505b85519161048391828401908111848210176101ef57868492879461062985391681520301905ff080156101e557831691826080527f7e644d79422f17c01e4894b5f4f588d331ebfa28653d42ae832dc59e38c9798f857fb53127684a568b3173ae13b9f8a6016e243e63b6e8ee1178d6a717850b5d6103958587549483519286168352820152a182156101ce5716179055516102f69081610333823960805181600f0152f35b8451633173bdd160e11b81525f6004820152602490fd5b84513d5f823e3d90fd5b634e487b7160e01b5f52604160045260245ffd5b5050346102105750610128565b63b398979f60e01b8152600490fd5b8551634c9c8ce360e01b81526001600160a01b0384166004820152602490fd5b85516330a289cf60e21b8152600490fd5b81810183015189820184015287920161008d565b5f80fd5b6040519190601f01601f191682016001600160401b038111838210176101ef57604052565b51906001600160a01b038216820361026457565b905f8091602081519101845af4808061031f575b156102d55750506040513d81523d5f602083013e60203d82010160405290565b156102fc57604051639996b31560e01b81526001600160a01b039091166004820152602490fd5b3d1561030d576040513d5f823e3d90fd5b60405163d6bda27560e01b8152600490fd5b503d1515806102b55750813b15156102b556fe60806040526001600160a01b03337f000000000000000000000000000000000000000000000000000000000000000082160361006a575f356001600160e01b03191663278f794360e11b14610060576040516334ad5dbb60e21b8152600490fd5b6100686100be565b005b5f80917f360894a13ba1a3210667c828492db98dca3e2076cc3735a920a3ca505d382bbc5416368280378136915af43d5f803e156100a6573d5ff35b3d5ffd5b634e487b7160e01b5f52604160045260245ffd5b3660041161015f57604036600319011261015f576004356001600160a01b0381169081900361015f576024359067ffffffffffffffff9081831161015f573660238401121561015f5782600401358281116101635760405192601f8201601f19908116603f011684019081118482101761016357604052808352366024828601011161015f576020815f92602461015d97018387013784010152610168565b565b5f80fd5b6100aa565b90813b156101ff577f360894a13ba1a3210667c828492db98dca3e2076cc3735a920a3ca505d382bbc80546001600160a01b0319166001600160a01b0384169081179091557fbc7cd75a20ee27fd9adebab32041f755214dbc6bffa90cc0225b39da2e5c2d3b5f80a28051156101e4576101e191610220565b50565b5050346101ed57565b60405163b398979f60e01b8152600490fd5b604051634c9c8ce360e01b81526001600160a01b0383166004820152602490fd5b905f8091602081519101845af48080610289575b156102465750506102436102a7565b90565b1561026e57604051639996b31560e01b81526001600160a01b03919091166004820152602490fd5b3d15155f0361029c5760405163d6bda27560e01b8152600490fd5b503d1515806102345750813b1515610234565b6040513d5f823e3d90fd5b604051903d82523d5f602084013e60203d83010160405256fea2646970667358221220371437a14d55b0192ed17af74450cdb0b22bf1f3d480185986e4348c96e968d064736f6c634300081800336080346100b957601f61048338819003918201601f19168301916001600160401b038311848410176100bd578084926020946040528339810103126100b957516001600160a01b0390818116908190036100b95780156100a1575f80546001600160a01b03198116831782556040519316907f8be0079c531659141344cd1fd0a4f28419497f9722a3daafe3b4186f6b6457e09080a36103b190816100d28239f35b604051631e4fbdf760e01b81525f6004820152602490fd5b5f80fd5b634e487b7160e01b5f52604160045260245ffdfe604060808152600480361015610013575f80fd5b5f915f3560e01c8063715018a6146102bb5780638da5cb5b146102945780639623609d1461015c578063ad3cb1cc146100eb5763f2fde38b14610054575f80fd5b346100e75760203660031901126100e7576001600160a01b038235818116939192908490036100e357610085610350565b83156100cd5750505f54826bffffffffffffffffffffffff60a01b8216175f55167f8be0079c531659141344cd1fd0a4f28419497f9722a3daafe3b4186f6b6457e05f80a380f35b51631e4fbdf760e01b8152908101849052602490fd5b5f80fd5b8280fd5b5082346101595780600319360112610159575080519080820182811067ffffffffffffffff821117610146576101429350815260058252640352e302e360dc1b602083015251918291602083526020830190610312565b0390f35b604184634e487b7160e01b5f525260245ffd5b80fd5b5060603660031901126100e3576001600160a01b03823581811693908490036100e35760249182359081168091036100e35767ffffffffffffffff906044358281116100e357366023820112156100e3578084013583811161028257865191601f8201601f19908116603f0116830185811184821017610270578852818352368783830101116100e357815f92886020930183860137830101526101fe610350565b863b156100e357610230965f92875180998194829363278f794360e11b8452898401528a8a8401526044830190610312565b039134905af1801561026657610244578580f35b909192938095501161025557505052005b604190634e487b7160e01b5f52525ffd5b84513d5f823e3d90fd5b87604188634e487b7160e01b5f52525ffd5b85604186634e487b7160e01b5f52525ffd5b50346100e3575f3660031901126100e3575f5490516001600160a01b039091168152602090f35b346100e3575f3660031901126100e3576102d3610350565b5f80546001600160a01b0319811682556001600160a01b03167f8be0079c531659141344cd1fd0a4f28419497f9722a3daafe3b4186f6b6457e08280a3005b91908251928382525f5b84811061033c575050825f602080949584010152601f8019910116010190565b60208183018101518483018201520161031c565b5f546001600160a01b0316330361036357565b60405163118cdaa760e01b8152336004820152602490fdfea26469706673582212202992a71449476404159c12582e1f3d5c014ae92bc1369e2e03b37152567a3c7d64736f6c63430008180033000000000000000000000000c8c5bc0a10bcb1bc4abfc8eb8a0408d502d2a8d4000000000000000000000000ff6bdef4fb646ee44e29fe8fc0862b02f0ba8a33000000000000000000000000000000000000000000000000000000000000006000000000000000000000000000000000000000000000000000000000000000a4a6b63eb8000000000000000000000000e5fafa3a398fb4e039b3daeeaed69b8c9815d320000000000000000000000000a9dd11062a44870025c27f886c9697158cbc9d9c0000000000000000000000002632faf990511e9013830f96c6511c706d0753170000000000000000000000000000000000000000000001786f5bc91c788000000000000000000000000000000000000000000000000000000000000000000e1000000000000000000000000000000000000000000000000000000000"
        },
        {
          "transactionType": "CREATE",
          "contractName": "ProxyAdmin",
          "address": "0x2f6a4ed96a31c9a1dd6b035e5afef524d7bd1984",
          "initCode": "0x6080346100b957601f61048338819003918201601f19168301916001600160401b038311848410176100bd578084926020946040528339810103126100b957516001600160a01b0390818116908190036100b95780156100a1575f80546001600160a01b03198116831782556040519316907f8be0079c531659141344cd1fd0a4f28419497f9722a3daafe3b4186f6b6457e09080a36103b190816100d28239f35b604051631e4fbdf760e01b81525f6004820152602490fd5b5f80fd5b634e487b7160e01b5f52604160045260245ffdfe604060808152600480361015610013575f80fd5b5f915f3560e01c8063715018a6146102bb5780638da5cb5b146102945780639623609d1461015c578063ad3cb1cc146100eb5763f2fde38b14610054575f80fd5b346100e75760203660031901126100e7576001600160a01b038235818116939192908490036100e357610085610350565b83156100cd5750505f54826bffffffffffffffffffffffff60a01b8216175f55167f8be0079c531659141344cd1fd0a4f28419497f9722a3daafe3b4186f6b6457e05f80a380f35b51631e4fbdf760e01b8152908101849052602490fd5b5f80fd5b8280fd5b5082346101595780600319360112610159575080519080820182811067ffffffffffffffff821117610146576101429350815260058252640352e302e360dc1b602083015251918291602083526020830190610312565b0390f35b604184634e487b7160e01b5f525260245ffd5b80fd5b5060603660031901126100e3576001600160a01b03823581811693908490036100e35760249182359081168091036100e35767ffffffffffffffff906044358281116100e357366023820112156100e3578084013583811161028257865191601f8201601f19908116603f0116830185811184821017610270578852818352368783830101116100e357815f92886020930183860137830101526101fe610350565b863b156100e357610230965f92875180998194829363278f794360e11b8452898401528a8a8401526044830190610312565b039134905af1801561026657610244578580f35b909192938095501161025557505052005b604190634e487b7160e01b5f52525ffd5b84513d5f823e3d90fd5b87604188634e487b7160e01b5f52525ffd5b85604186634e487b7160e01b5f52525ffd5b50346100e3575f3660031901126100e3575f5490516001600160a01b039091168152602090f35b346100e3575f3660031901126100e3576102d3610350565b5f80546001600160a01b0319811682556001600160a01b03167f8be0079c531659141344cd1fd0a4f28419497f9722a3daafe3b4186f6b6457e08280a3005b91908251928382525f5b84811061033c575050825f602080949584010152601f8019910116010190565b60208183018101518483018201520161031c565b5f546001600160a01b0316330361036357565b60405163118cdaa760e01b8152336004820152602490fdfea26469706673582212202992a71449476404159c12582e1f3d5c014ae92bc1369e2e03b37152567a3c7d64736f6c63430008180033000000000000000000000000ff6bdef4fb646ee44e29fe8fc0862b02f0ba8a33"
        },
        {
          "transactionType": "CREATE",
          "contractName": "TransparentUpgradeableProxy",
          "address": "0x0dbbda43fd4f4745b1118d338c50f78c5526fbf4",
          "initCode": "0x604060a08152610aac8038038061001581610268565b9283398101906060818303126102645761002e8161028d565b60209161003c83820161028d565b8582015190916001600160401b039190828211610264570185601f82011215610264578051908282116101ef5761007b601f8301601f19168701610268565b968288528683830101116102645785905f5b8381106102505750505f918701015284511561023f57823b1561021f577f360894a13ba1a3210667c828492db98dca3e2076cc3735a920a3ca505d382bbc80546001600160a01b03199081166001600160a01b03868116918217909355885192979195907fbc7cd75a20ee27fd9adebab32041f755214dbc6bffa90cc0225b39da2e5c2d3b5f80a28151156102035761012692506102a1565b505b85519161048391828401908111848210176101ef57868492879461062985391681520301905ff080156101e557831691826080527f7e644d79422f17c01e4894b5f4f588d331ebfa28653d42ae832dc59e38c9798f857fb53127684a568b3173ae13b9f8a6016e243e63b6e8ee1178d6a717850b5d6103958587549483519286168352820152a182156101ce5716179055516102f69081610333823960805181600f0152f35b8451633173bdd160e11b81525f6004820152602490fd5b84513d5f823e3d90fd5b634e487b7160e01b5f52604160045260245ffd5b5050346102105750610128565b63b398979f60e01b8152600490fd5b8551634c9c8ce360e01b81526001600160a01b0384166004820152602490fd5b85516330a289cf60e21b8152600490fd5b81810183015189820184015287920161008d565b5f80fd5b6040519190601f01601f191682016001600160401b038111838210176101ef57604052565b51906001600160a01b038216820361026457565b905f8091602081519101845af4808061031f575b156102d55750506040513d81523d5f602083013e60203d82010160405290565b156102fc57604051639996b31560e01b81526001600160a01b039091166004820152602490fd5b3d1561030d576040513d5f823e3d90fd5b60405163d6bda27560e01b8152600490fd5b503d1515806102b55750813b15156102b556fe60806040526001600160a01b03337f000000000000000000000000000000000000000000000000000000000000000082160361006a575f356001600160e01b03191663278f794360e11b14610060576040516334ad5dbb60e21b8152600490fd5b6100686100be565b005b5f80917f360894a13ba1a3210667c828492db98dca3e2076cc3735a920a3ca505d382bbc5416368280378136915af43d5f803e156100a6573d5ff35b3d5ffd5b634e487b7160e01b5f52604160045260245ffd5b3660041161015f57604036600319011261015f576004356001600160a01b0381169081900361015f576024359067ffffffffffffffff9081831161015f573660238401121561015f5782600401358281116101635760405192601f8201601f19908116603f011684019081118482101761016357604052808352366024828601011161015f576020815f92602461015d97018387013784010152610168565b565b5f80fd5b6100aa565b90813b156101ff577f360894a13ba1a3210667c828492db98dca3e2076cc3735a920a3ca505d382bbc80546001600160a01b0319166001600160a01b0384169081179091557fbc7cd75a20ee27fd9adebab32041f755214dbc6bffa90cc0225b39da2e5c2d3b5f80a28051156101e4576101e191610220565b50565b5050346101ed57565b60405163b398979f60e01b8152600490fd5b604051634c9c8ce360e01b81526001600160a01b0383166004820152602490fd5b905f8091602081519101845af48080610289575b156102465750506102436102a7565b90565b1561026e57604051639996b31560e01b81526001600160a01b03919091166004820152602490fd5b3d15155f0361029c5760405163d6bda27560e01b8152600490fd5b503d1515806102345750813b1515610234565b6040513d5f823e3d90fd5b604051903d82523d5f602084013e60203d83010160405256fea2646970667358221220371437a14d55b0192ed17af74450cdb0b22bf1f3d480185986e4348c96e968d064736f6c634300081800336080346100b957601f61048338819003918201601f19168301916001600160401b038311848410176100bd578084926020946040528339810103126100b957516001600160a01b0390818116908190036100b95780156100a1575f80546001600160a01b03198116831782556040519316907f8be0079c531659141344cd1fd0a4f28419497f9722a3daafe3b4186f6b6457e09080a36103b190816100d28239f35b604051631e4fbdf760e01b81525f6004820152602490fd5b5f80fd5b634e487b7160e01b5f52604160045260245ffdfe604060808152600480361015610013575f80fd5b5f915f3560e01c8063715018a6146102bb5780638da5cb5b146102945780639623609d1461015c578063ad3cb1cc146100eb5763f2fde38b14610054575f80fd5b346100e75760203660031901126100e7576001600160a01b038235818116939192908490036100e357610085610350565b83156100cd5750505f54826bffffffffffffffffffffffff60a01b8216175f55167f8be0079c531659141344cd1fd0a4f28419497f9722a3daafe3b4186f6b6457e05f80a380f35b51631e4fbdf760e01b8152908101849052602490fd5b5f80fd5b8280fd5b5082346101595780600319360112610159575080519080820182811067ffffffffffffffff821117610146576101429350815260058252640352e302e360dc1b602083015251918291602083526020830190610312565b0390f35b604184634e487b7160e01b5f525260245ffd5b80fd5b5060603660031901126100e3576001600160a01b03823581811693908490036100e35760249182359081168091036100e35767ffffffffffffffff906044358281116100e357366023820112156100e3578084013583811161028257865191601f8201601f19908116603f0116830185811184821017610270578852818352368783830101116100e357815f92886020930183860137830101526101fe610350565b863b156100e357610230965f92875180998194829363278f794360e11b8452898401528a8a8401526044830190610312565b039134905af1801561026657610244578580f35b909192938095501161025557505052005b604190634e487b7160e01b5f52525ffd5b84513d5f823e3d90fd5b87604188634e487b7160e01b5f52525ffd5b85604186634e487b7160e01b5f52525ffd5b50346100e3575f3660031901126100e3575f5490516001600160a01b039091168152602090f35b346100e3575f3660031901126100e3576102d3610350565b5f80546001600160a01b0319811682556001600160a01b03167f8be0079c531659141344cd1fd0a4f28419497f9722a3daafe3b4186f6b6457e08280a3005b91908251928382525f5b84811061033c575050825f602080949584010152601f8019910116010190565b60208183018101518483018201520161031c565b5f546001600160a01b0316330361036357565b60405163118cdaa760e01b8152336004820152602490fdfea26469706673582212202992a71449476404159c12582e1f3d5c014ae92bc1369e2e03b37152567a3c7d64736f6c6343000818003300000000000000000000000008b402ff1bfec423371b32a9466b50410f036e7c000000000000000000000000ff6bdef4fb646ee44e29fe8fc0862b02f0ba8a33000000000000000000000000000000000000000000000000000000000000006000000000000000000000000000000000000000000000000000000000000000c4d7c41c79000000000000000000000000baded9957eaa9a30ba26f787ac31dad4bb41b56d000000000000000000000000ff6bdef4fb646ee44e29fe8fc0862b02f0ba8a330000000000000000000000002632faf990511e9013830f96c6511c706d075317000000000000000000000000e771ce539a297fc37094cba3ffc720a481cd5b4d00000000000000000000000000000000000000000000000000000000000000c80000000000000000000000000000000000000000000000004563918244f4000000000000000000000000000000000000000000000000000000000000"
        },
        {
          "transactionType": "CREATE",
          "contractName": "ProxyAdmin",
          "address": "0x0901a8405eae90accf6bf47dcd073fd2bb2673bb",
          "initCode": "0x6080346100b957601f61048338819003918201601f19168301916001600160401b038311848410176100bd578084926020946040528339810103126100b957516001600160a01b0390818116908190036100b95780156100a1575f80546001600160a01b03198116831782556040519316907f8be0079c531659141344cd1fd0a4f28419497f9722a3daafe3b4186f6b6457e09080a36103b190816100d28239f35b604051631e4fbdf760e01b81525f6004820152602490fd5b5f80fd5b634e487b7160e01b5f52604160045260245ffdfe604060808152600480361015610013575f80fd5b5f915f3560e01c8063715018a6146102bb5780638da5cb5b146102945780639623609d1461015c578063ad3cb1cc146100eb5763f2fde38b14610054575f80fd5b346100e75760203660031901126100e7576001600160a01b038235818116939192908490036100e357610085610350565b83156100cd5750505f54826bffffffffffffffffffffffff60a01b8216175f55167f8be0079c531659141344cd1fd0a4f28419497f9722a3daafe3b4186f6b6457e05f80a380f35b51631e4fbdf760e01b8152908101849052602490fd5b5f80fd5b8280fd5b5082346101595780600319360112610159575080519080820182811067ffffffffffffffff821117610146576101429350815260058252640352e302e360dc1b602083015251918291602083526020830190610312565b0390f35b604184634e487b7160e01b5f525260245ffd5b80fd5b5060603660031901126100e3576001600160a01b03823581811693908490036100e35760249182359081168091036100e35767ffffffffffffffff906044358281116100e357366023820112156100e3578084013583811161028257865191601f8201601f19908116603f0116830185811184821017610270578852818352368783830101116100e357815f92886020930183860137830101526101fe610350565b863b156100e357610230965f92875180998194829363278f794360e11b8452898401528a8a8401526044830190610312565b039134905af1801561026657610244578580f35b909192938095501161025557505052005b604190634e487b7160e01b5f52525ffd5b84513d5f823e3d90fd5b87604188634e487b7160e01b5f52525ffd5b85604186634e487b7160e01b5f52525ffd5b50346100e3575f3660031901126100e3575f5490516001600160a01b039091168152602090f35b346100e3575f3660031901126100e3576102d3610350565b5f80546001600160a01b0319811682556001600160a01b03167f8be0079c531659141344cd1fd0a4f28419497f9722a3daafe3b4186f6b6457e08280a3005b91908251928382525f5b84811061033c575050825f602080949584010152601f8019910116010190565b60208183018101518483018201520161031c565b5f546001600160a01b0316330361036357565b60405163118cdaa760e01b8152336004820152602490fdfea26469706673582212202992a71449476404159c12582e1f3d5c014ae92bc1369e2e03b37152567a3c7d64736f6c63430008180033000000000000000000000000ff6bdef4fb646ee44e29fe8fc0862b02f0ba8a33"
        },
        {
          "transactionType": "CREATE",
          "contractName": "TransparentUpgradeableProxy",
          "address": "0x99ef43aae25cd8d4dc8ace1f6c0390c29ae0d349",
          "initCode": "0x604060a08152610aac8038038061001581610268565b9283398101906060818303126102645761002e8161028d565b60209161003c83820161028d565b8582015190916001600160401b039190828211610264570185601f82011215610264578051908282116101ef5761007b601f8301601f19168701610268565b968288528683830101116102645785905f5b8381106102505750505f918701015284511561023f57823b1561021f577f360894a13ba1a3210667c828492db98dca3e2076cc3735a920a3ca505d382bbc80546001600160a01b03199081166001600160a01b03868116918217909355885192979195907fbc7cd75a20ee27fd9adebab32041f755214dbc6bffa90cc0225b39da2e5c2d3b5f80a28151156102035761012692506102a1565b505b85519161048391828401908111848210176101ef57868492879461062985391681520301905ff080156101e557831691826080527f7e644d79422f17c01e4894b5f4f588d331ebfa28653d42ae832dc59e38c9798f857fb53127684a568b3173ae13b9f8a6016e243e63b6e8ee1178d6a717850b5d6103958587549483519286168352820152a182156101ce5716179055516102f69081610333823960805181600f0152f35b8451633173bdd160e11b81525f6004820152602490fd5b84513d5f823e3d90fd5b634e487b7160e01b5f52604160045260245ffd5b5050346102105750610128565b63b398979f60e01b8152600490fd5b8551634c9c8ce360e01b81526001600160a01b0384166004820152602490fd5b85516330a289cf60e21b8152600490fd5b81810183015189820184015287920161008d565b5f80fd5b6040519190601f01601f191682016001600160401b038111838210176101ef57604052565b51906001600160a01b038216820361026457565b905f8091602081519101845af4808061031f575b156102d55750506040513d81523d5f602083013e60203d82010160405290565b156102fc57604051639996b31560e01b81526001600160a01b039091166004820152602490fd5b3d1561030d576040513d5f823e3d90fd5b60405163d6bda27560e01b8152600490fd5b503d1515806102b55750813b15156102b556fe60806040526001600160a01b03337f000000000000000000000000000000000000000000000000000000000000000082160361006a575f356001600160e01b03191663278f794360e11b14610060576040516334ad5dbb60e21b8152600490fd5b6100686100be565b005b5f80917f360894a13ba1a3210667c828492db98dca3e2076cc3735a920a3ca505d382bbc5416368280378136915af43d5f803e156100a6573d5ff35b3d5ffd5b634e487b7160e01b5f52604160045260245ffd5b3660041161015f57604036600319011261015f576004356001600160a01b0381169081900361015f576024359067ffffffffffffffff9081831161015f573660238401121561015f5782600401358281116101635760405192601f8201601f19908116603f011684019081118482101761016357604052808352366024828601011161015f576020815f92602461015d97018387013784010152610168565b565b5f80fd5b6100aa565b90813b156101ff577f360894a13ba1a3210667c828492db98dca3e2076cc3735a920a3ca505d382bbc80546001600160a01b0319166001600160a01b0384169081179091557fbc7cd75a20ee27fd9adebab32041f755214dbc6bffa90cc0225b39da2e5c2d3b5f80a28051156101e4576101e191610220565b50565b5050346101ed57565b60405163b398979f60e01b8152600490fd5b604051634c9c8ce360e01b81526001600160a01b0383166004820152602490fd5b905f8091602081519101845af48080610289575b156102465750506102436102a7565b90565b1561026e57604051639996b31560e01b81526001600160a01b03919091166004820152602490fd5b3d15155f0361029c5760405163d6bda27560e01b8152600490fd5b503d1515806102345750813b1515610234565b6040513d5f823e3d90fd5b604051903d82523d5f602084013e60203d83010160405256fea2646970667358221220371437a14d55b0192ed17af74450cdb0b22bf1f3d480185986e4348c96e968d064736f6c634300081800336080346100b957601f61048338819003918201601f19168301916001600160401b038311848410176100bd578084926020946040528339810103126100b957516001600160a01b0390818116908190036100b95780156100a1575f80546001600160a01b03198116831782556040519316907f8be0079c531659141344cd1fd0a4f28419497f9722a3daafe3b4186f6b6457e09080a36103b190816100d28239f35b604051631e4fbdf760e01b81525f6004820152602490fd5b5f80fd5b634e487b7160e01b5f52604160045260245ffdfe604060808152600480361015610013575f80fd5b5f915f3560e01c8063715018a6146102bb5780638da5cb5b146102945780639623609d1461015c578063ad3cb1cc146100eb5763f2fde38b14610054575f80fd5b346100e75760203660031901126100e7576001600160a01b038235818116939192908490036100e357610085610350565b83156100cd5750505f54826bffffffffffffffffffffffff60a01b8216175f55167f8be0079c531659141344cd1fd0a4f28419497f9722a3daafe3b4186f6b6457e05f80a380f35b51631e4fbdf760e01b8152908101849052602490fd5b5f80fd5b8280fd5b5082346101595780600319360112610159575080519080820182811067ffffffffffffffff821117610146576101429350815260058252640352e302e360dc1b602083015251918291602083526020830190610312565b0390f35b604184634e487b7160e01b5f525260245ffd5b80fd5b5060603660031901126100e3576001600160a01b03823581811693908490036100e35760249182359081168091036100e35767ffffffffffffffff906044358281116100e357366023820112156100e3578084013583811161028257865191601f8201601f19908116603f0116830185811184821017610270578852818352368783830101116100e357815f92886020930183860137830101526101fe610350565b863b156100e357610230965f92875180998194829363278f794360e11b8452898401528a8a8401526044830190610312565b039134905af1801561026657610244578580f35b909192938095501161025557505052005b604190634e487b7160e01b5f52525ffd5b84513d5f823e3d90fd5b87604188634e487b7160e01b5f52525ffd5b85604186634e487b7160e01b5f52525ffd5b50346100e3575f3660031901126100e3575f5490516001600160a01b039091168152602090f35b346100e3575f3660031901126100e3576102d3610350565b5f80546001600160a01b0319811682556001600160a01b03167f8be0079c531659141344cd1fd0a4f28419497f9722a3daafe3b4186f6b6457e08280a3005b91908251928382525f5b84811061033c575050825f602080949584010152601f8019910116010190565b60208183018101518483018201520161031c565b5f546001600160a01b0316330361036357565b60405163118cdaa760e01b8152336004820152602490fdfea26469706673582212202992a71449476404159c12582e1f3d5c014ae92bc1369e2e03b37152567a3c7d64736f6c6343000818003300000000000000000000000051870a89c27cfc3ea1f0a87cda4ce98e6ecbf899000000000000000000000000ff6bdef4fb646ee44e29fe8fc0862b02f0ba8a33000000000000000000000000000000000000000000000000000000000000006000000000000000000000000000000000000000000000000000000000000001048f15b414000000000000000000000000000000000000000000000000000000000000008000000000000000000000000000000000000000000000000000000000000000c0000000000000000000000000f4f5e77fa0d7628100f3b747b2de0968cd63806a0000000000000000000000000dbbda43fd4f4745b1118d338c50f78c5526fbf4000000000000000000000000000000000000000000000000000000000000000b4f6c697665205969656c6400000000000000000000000000000000000000000000000000000000000000000000000000000000000000000000000000000000066f5949454c44000000000000000000000000000000000000000000000000000000000000000000000000000000000000000000000000000000000000"
        },
        {
          "transactionType": "CREATE",
          "contractName": "ProxyAdmin",
          "address": "0x9d8af116ca6c0288b2265186a5df194fa17ae2a4",
          "initCode": "0x6080346100b957601f61048338819003918201601f19168301916001600160401b038311848410176100bd578084926020946040528339810103126100b957516001600160a01b0390818116908190036100b95780156100a1575f80546001600160a01b03198116831782556040519316907f8be0079c531659141344cd1fd0a4f28419497f9722a3daafe3b4186f6b6457e09080a36103b190816100d28239f35b604051631e4fbdf760e01b81525f6004820152602490fd5b5f80fd5b634e487b7160e01b5f52604160045260245ffdfe604060808152600480361015610013575f80fd5b5f915f3560e01c8063715018a6146102bb5780638da5cb5b146102945780639623609d1461015c578063ad3cb1cc146100eb5763f2fde38b14610054575f80fd5b346100e75760203660031901126100e7576001600160a01b038235818116939192908490036100e357610085610350565b83156100cd5750505f54826bffffffffffffffffffffffff60a01b8216175f55167f8be0079c531659141344cd1fd0a4f28419497f9722a3daafe3b4186f6b6457e05f80a380f35b51631e4fbdf760e01b8152908101849052602490fd5b5f80fd5b8280fd5b5082346101595780600319360112610159575080519080820182811067ffffffffffffffff821117610146576101429350815260058252640352e302e360dc1b602083015251918291602083526020830190610312565b0390f35b604184634e487b7160e01b5f525260245ffd5b80fd5b5060603660031901126100e3576001600160a01b03823581811693908490036100e35760249182359081168091036100e35767ffffffffffffffff906044358281116100e357366023820112156100e3578084013583811161028257865191601f8201601f19908116603f0116830185811184821017610270578852818352368783830101116100e357815f92886020930183860137830101526101fe610350565b863b156100e357610230965f92875180998194829363278f794360e11b8452898401528a8a8401526044830190610312565b039134905af1801561026657610244578580f35b909192938095501161025557505052005b604190634e487b7160e01b5f52525ffd5b84513d5f823e3d90fd5b87604188634e487b7160e01b5f52525ffd5b85604186634e487b7160e01b5f52525ffd5b50346100e3575f3660031901126100e3575f5490516001600160a01b039091168152602090f35b346100e3575f3660031901126100e3576102d3610350565b5f80546001600160a01b0319811682556001600160a01b03167f8be0079c531659141344cd1fd0a4f28419497f9722a3daafe3b4186f6b6457e08280a3005b91908251928382525f5b84811061033c575050825f602080949584010152601f8019910116010190565b60208183018101518483018201520161031c565b5f546001600160a01b0316330361036357565b60405163118cdaa760e01b8152336004820152602490fdfea26469706673582212202992a71449476404159c12582e1f3d5c014ae92bc1369e2e03b37152567a3c7d64736f6c63430008180033000000000000000000000000ff6bdef4fb646ee44e29fe8fc0862b02f0ba8a33"
        }
      ],
      "isFixedGasLimit": false
    },
    {
      "hash": "0xbef8ba4b071a187c6bc3781372985e1809ef70f3222340108ab3491532c9cf40",
      "transactionType": "CALL",
      "contractName": "TransparentUpgradeableProxy",
      "contractAddress": "0xa9dd11062a44870025c27f886c9697158cbc9d9c",
      "function": null,
      "arguments": null,
      "transaction": {
        "from": "0xff6bdef4fb646ee44e29fe8fc0862b02f0ba8a33",
        "to": "0xa9dd11062a44870025c27f886c9697158cbc9d9c",
        "gas": "0x2adbe",
        "value": "0x0",
        "input": "0x666033e6000000000000000000000000baded9957eaa9a30ba26f787ac31dad4bb41b56d000000000000000000000000000000000000000000000000000000000000000000000000000000000000000000000000000000000000000000000000000232800000000000000000000000000000000000000000000000000000000000000000",
        "nonce": "0x158",
        "chainId": "0x14a34"
      },
      "additionalContracts": [],
      "isFixedGasLimit": false
    },
    {
      "hash": "0x6cd9f34613c22ca6b44ebcdad6af6c7ce4ef66ff3a5454f213306bc176cda97b",
      "transactionType": "CALL",
      "contractName": null,
      "contractAddress": "0x5fd7e887266f3f38d8442ad846aa1813e6679a6e",
      "function": "setMetadata(address,string)",
      "arguments": [
        "0xA9dd11062a44870025C27f886C9697158Cbc9d9c",
        "https://growfi-media.fra1.digitaloceanspaces.com/metadata/sepolia-olive-demo.json"
      ],
      "transaction": {
        "from": "0xff6bdef4fb646ee44e29fe8fc0862b02f0ba8a33",
        "to": "0x5fd7e887266f3f38d8442ad846aa1813e6679a6e",
        "gas": "0x35dfc",
        "value": "0x0",
        "input": "0x4fbffc93000000000000000000000000a9dd11062a44870025c27f886c9697158cbc9d9c0000000000000000000000000000000000000000000000000000000000000040000000000000000000000000000000000000000000000000000000000000005168747470733a2f2f67726f7766692d6d656469612e667261312e6469676974616c6f6365616e7370616365732e636f6d2f6d657461646174612f7365706f6c69612d6f6c6976652d64656d6f2e6a736f6e000000000000000000000000000000",
        "nonce": "0x159",
        "chainId": "0x14a34"
      },
      "additionalContracts": [],
      "isFixedGasLimit": false
    },
    {
      "hash": "0x139a82db965333c25f17b619ff4de6a3849031cd395c513f417efaf36cda9f75",
      "transactionType": "CALL",
      "contractName": null,
      "contractAddress": "0x2632faf990511e9013830f96c6511c706d075317",
      "function": "addGrowfiTreasuryTrackedCampaign(address)",
      "arguments": [
        "0xA9dd11062a44870025C27f886C9697158Cbc9d9c"
      ],
      "transaction": {
        "from": "0xff6bdef4fb646ee44e29fe8fc0862b02f0ba8a33",
        "to": "0x2632faf990511e9013830f96c6511c706d075317",
        "gas": "0x2505f",
        "value": "0x0",
        "input": "0x7a89cdd4000000000000000000000000a9dd11062a44870025c27f886c9697158cbc9d9c",
        "nonce": "0x15a",
        "chainId": "0x14a34"
      },
      "additionalContracts": [],
      "isFixedGasLimit": false
    },
    {
      "hash": "0xe9368c49b7c2320368fd3952bf136dff76de839adecaffd5b10916e16e31fc5b",
      "transactionType": "CALL",
      "contractName": null,
      "contractAddress": "0x2632faf990511e9013830f96c6511c706d075317",
      "function": "setGrowfiTreasuryAutomationEnabled(bool)",
      "arguments": [
        "true"
      ],
      "transaction": {
        "from": "0xff6bdef4fb646ee44e29fe8fc0862b02f0ba8a33",
        "to": "0x2632faf990511e9013830f96c6511c706d075317",
        "gas": "0x15acf",
        "value": "0x0",
        "input": "0x2c5243910000000000000000000000000000000000000000000000000000000000000001",
        "nonce": "0x15b",
        "chainId": "0x14a34"
      },
      "additionalContracts": [],
      "isFixedGasLimit": false
    },
    {
      "hash": "0x019bb85935e4736b79ad44cfdcc7479ea02c970f7a37fb5e472d2f9e44b819d8",
      "transactionType": "CALL",
      "contractName": "MockUSDC",
      "contractAddress": "0xbaded9957eaa9a30ba26f787ac31dad4bb41b56d",
      "function": "mint(address,uint256)",
      "arguments": [
        "0xFF6bdef4fB646EE44e29FE8FC0862B02F0Ba8a33",
        "200000000"
      ],
      "transaction": {
        "from": "0xff6bdef4fb646ee44e29fe8fc0862b02f0ba8a33",
        "to": "0xbaded9957eaa9a30ba26f787ac31dad4bb41b56d",
        "gas": "0xb6d1",
        "value": "0x0",
        "input": "0x40c10f19000000000000000000000000ff6bdef4fb646ee44e29fe8fc0862b02f0ba8a33000000000000000000000000000000000000000000000000000000000bebc200",
        "nonce": "0x15c",
        "chainId": "0x14a34"
      },
      "additionalContracts": [],
      "isFixedGasLimit": false
    },
    {
      "hash": "0x1d95b0b469dae616ad3b148e0678c5876b04b75328386dd7ed8435168b4eced1",
      "transactionType": "CALL",
      "contractName": "MockUSDC",
      "contractAddress": "0xbaded9957eaa9a30ba26f787ac31dad4bb41b56d",
      "function": "approve(address,uint256)",
      "arguments": [
        "0xA9dd11062a44870025C27f886C9697158Cbc9d9c",
        "200000000"
      ],
      "transaction": {
        "from": "0xff6bdef4fb646ee44e29fe8fc0862b02f0ba8a33",
        "to": "0xbaded9957eaa9a30ba26f787ac31dad4bb41b56d",
        "gas": "0x10659",
        "value": "0x0",
        "input": "0x095ea7b3000000000000000000000000a9dd11062a44870025c27f886c9697158cbc9d9c000000000000000000000000000000000000000000000000000000000bebc200",
        "nonce": "0x15d",
        "chainId": "0x14a34"
      },
      "additionalContracts": [],
      "isFixedGasLimit": false
    },
    {
      "hash": "0xadbb09d3bf7c8f1c847c7962026ec4f30f1b21543b903cdf08b679ece7c2c9e2",
      "transactionType": "CALL",
      "contractName": "TransparentUpgradeableProxy",
      "contractAddress": "0xa9dd11062a44870025c27f886c9697158cbc9d9c",
      "function": null,
      "arguments": null,
      "transaction": {
        "from": "0xff6bdef4fb646ee44e29fe8fc0862b02f0ba8a33",
        "to": "0xa9dd11062a44870025c27f886c9697158cbc9d9c",
        "gas": "0xa30f7",
        "value": "0x0",
        "input": "0xcce7ec13000000000000000000000000baded9957eaa9a30ba26f787ac31dad4bb41b56d0000000000000000000000000000000000000000000000000000000003938700",
        "nonce": "0x15e",
        "chainId": "0x14a34"
      },
      "additionalContracts": [],
      "isFixedGasLimit": false
    },
    {
      "hash": "0x9f468bc015343ac3a904dd478f9c932e5171cfb703f5bec6b7a5943ef23e761b",
      "transactionType": "CALL",
      "contractName": null,
      "contractAddress": "0x182627cb46e61f59645f6d7996f16ae1f9e112ee",
      "function": "claimEscrow(address)",
      "arguments": [
        "0xA9dd11062a44870025C27f886C9697158Cbc9d9c"
      ],
      "transaction": {
        "from": "0xff6bdef4fb646ee44e29fe8fc0862b02f0ba8a33",
        "to": "0x182627cb46e61f59645f6d7996f16ae1f9e112ee",
        "gas": "0x1caf4",
        "value": "0x0",
        "input": "0xf9b0631e000000000000000000000000a9dd11062a44870025c27f886c9697158cbc9d9c",
        "nonce": "0x15f",
        "chainId": "0x14a34"
      },
      "additionalContracts": [],
      "isFixedGasLimit": false
    },
    {
      "hash": "0x469a3dd7ed10699cb44b3b96be56c744b1df0fae7c98745a73bf7c4907e232b5",
      "transactionType": "CALL",
      "contractName": "MockUSDC",
      "contractAddress": "0xbaded9957eaa9a30ba26f787ac31dad4bb41b56d",
      "function": "mint(address,uint256)",
      "arguments": [
        "0x3D3a76F91DaeFDd7CF08E257924aEA452042cda7",
        "50000000"
      ],
      "transaction": {
        "from": "0xff6bdef4fb646ee44e29fe8fc0862b02f0ba8a33",
        "to": "0xbaded9957eaa9a30ba26f787ac31dad4bb41b56d",
        "gas": "0x11325",
        "value": "0x0",
        "input": "0x40c10f190000000000000000000000003d3a76f91daefdd7cf08e257924aea452042cda70000000000000000000000000000000000000000000000000000000002faf080",
        "nonce": "0x160",
        "chainId": "0x14a34"
      },
      "additionalContracts": [],
      "isFixedGasLimit": false
    },
    {
      "hash": "0xcd3ada84b00058d2b54118d22b39ee924f45cbf46b9ba3618ff6885781cc5a26",
      "transactionType": "CALL",
      "contractName": null,
      "contractAddress": "0x2632faf990511e9013830f96c6511c706d075317",
      "function": "allocateAcrossTrackedGrowfiTreasury(address,uint256)",
      "arguments": [
        "0xbadED9957EAa9A30bA26f787Ac31Dad4bB41b56D",
        "30000000"
      ],
      "transaction": {
        "from": "0xff6bdef4fb646ee44e29fe8fc0862b02f0ba8a33",
        "to": "0x2632faf990511e9013830f96c6511c706d075317",
        "gas": "0x6210b",
        "value": "0x0",
        "input": "0x0a13a341000000000000000000000000baded9957eaa9a30ba26f787ac31dad4bb41b56d0000000000000000000000000000000000000000000000000000000001c9c380",
        "nonce": "0x161",
        "chainId": "0x14a34"
      },
      "additionalContracts": [],
      "isFixedGasLimit": false
    },
    {
      "hash": "0x82d78ac0a57e57355c0d8eb2dcf38acfa8d0ad78bf13a604e80420134b087912",
      "transactionType": "CALL",
      "contractName": "MockUSDC",
      "contractAddress": "0xbaded9957eaa9a30ba26f787ac31dad4bb41b56d",
      "function": "approve(address,uint256)",
      "arguments": [
        "0xF1f61bf29CCeCce190427300874Dd66c417Fd84d",
        "25000000"
      ],
      "transaction": {
        "from": "0xff6bdef4fb646ee44e29fe8fc0862b02f0ba8a33",
        "to": "0xbaded9957eaa9a30ba26f787ac31dad4bb41b56d",
        "gas": "0xf7d6",
        "value": "0x0",
        "input": "0x095ea7b3000000000000000000000000f1f61bf29ccecce190427300874dd66c417fd84d00000000000000000000000000000000000000000000000000000000017d7840",
        "nonce": "0x162",
        "chainId": "0x14a34"
      },
      "additionalContracts": [],
      "isFixedGasLimit": false
    },
    {
      "hash": "0x813f53583753b762b3b0611faee293f05389ed4a03978cbde041a62fa1109ef7",
      "transactionType": "CALL",
      "contractName": null,
      "contractAddress": "0xf1f61bf29ccecce190427300874dd66c417fd84d",
      "function": "buy(address,uint256,uint256)",
      "arguments": [
        "0xbadED9957EAa9A30bA26f787Ac31Dad4bB41b56D",
        "25000000",
        "115792089237316195423570985008687907853269984665640564039457584007913129639935"
      ],
      "transaction": {
        "from": "0xff6bdef4fb646ee44e29fe8fc0862b02f0ba8a33",
        "to": "0xf1f61bf29ccecce190427300874dd66c417fd84d",
        "gas": "0x3e92c",
        "value": "0x0",
        "input": "0xa59ac6dd000000000000000000000000baded9957eaa9a30ba26f787ac31dad4bb41b56d00000000000000000000000000000000000000000000000000000000017d7840ffffffffffffffffffffffffffffffffffffffffffffffffffffffffffffffff",
        "nonce": "0x163",
        "chainId": "0x14a34"
      },
      "additionalContracts": [],
      "isFixedGasLimit": false
    },
    {
      "hash": "0xb591358de6c2d01638d04eace750e26bfc9ea5f4f4b5b3bbaac1589beacbc3cd",
      "transactionType": "CALL",
      "contractName": null,
      "contractAddress": "0xf1f61bf29ccecce190427300874dd66c417fd84d",
      "function": "approve(address,uint256)",
      "arguments": [
        "0x06eCa4677398fA720552272B3C4a6321c4FA072b",
        "100000000000000000000"
      ],
      "transaction": {
        "from": "0xff6bdef4fb646ee44e29fe8fc0862b02f0ba8a33",
        "to": "0xf1f61bf29ccecce190427300874dd66c417fd84d",
        "gas": "0x122b9",
        "value": "0x0",
        "input": "0x095ea7b300000000000000000000000006eca4677398fa720552272b3c4a6321c4fa072b0000000000000000000000000000000000000000000000056bc75e2d63100000",
        "nonce": "0x164",
        "chainId": "0x14a34"
      },
      "additionalContracts": [],
      "isFixedGasLimit": false
    },
    {
      "hash": "0x12819e0c4de971154ec0b933ffaf92a15bbd94f824cd6ad95de4b289bcf01aa4",
      "transactionType": "CALL",
      "contractName": "TransparentUpgradeableProxy",
      "contractAddress": "0x06eca4677398fa720552272b3c4a6321c4fa072b",
      "function": null,
      "arguments": null,
      "transaction": {
        "from": "0xff6bdef4fb646ee44e29fe8fc0862b02f0ba8a33",
        "to": "0x06eca4677398fa720552272b3c4a6321c4fa072b",
        "gas": "0x51330",
        "value": "0x0",
        "input": "0xa694fc3a0000000000000000000000000000000000000000000000056bc75e2d63100000",
        "nonce": "0x165",
        "chainId": "0x14a34"
      },
      "additionalContracts": [],
      "isFixedGasLimit": false
    }
  ],
  "receipts": [
    {
      "status": "0x1",
      "cumulativeGasUsed": "0x476b0e",
      "logs": [
        {
          "address": "0xa9dd11062a44870025c27f886c9697158cbc9d9c",
          "topics": [
            "0xbc7cd75a20ee27fd9adebab32041f755214dbc6bffa90cc0225b39da2e5c2d3b",
            "0x000000000000000000000000d885fc2037a6eb201c2d0ffdce829ac0a0dbf340"
          ],
          "data": "0x",
          "blockHash": "0x0000000000000000000000000000000000000000000000000000000000000000",
          "blockNumber": "0x2748caa",
          "blockTimestamp": "0x69fc7834",
          "transactionHash": "0x51c1d247c18f2ff97cb2e569946f171172ee51da97256c1ddcbb71d2fc6492b9",
          "transactionIndex": "0x3",
          "logIndex": "0x36",
          "removed": false
        },
        {
          "address": "0xa9dd11062a44870025c27f886c9697158cbc9d9c",
          "topics": [
            "0xc7f505b2f371ae2175ee4913f4499e1f2633a7b5936321eed1cdaeb6115181d2"
          ],
          "data": "0x0000000000000000000000000000000000000000000000000000000000000001",
          "blockHash": "0x0000000000000000000000000000000000000000000000000000000000000000",
          "blockNumber": "0x2748caa",
          "blockTimestamp": "0x69fc7834",
          "transactionHash": "0x51c1d247c18f2ff97cb2e569946f171172ee51da97256c1ddcbb71d2fc6492b9",
          "transactionIndex": "0x3",
          "logIndex": "0x37",
          "removed": false
        },
        {
          "address": "0x1c76fb8ed983cab31c96f6dd781bb0d6e9166908",
          "topics": [
            "0x8be0079c531659141344cd1fd0a4f28419497f9722a3daafe3b4186f6b6457e0",
            "0x0000000000000000000000000000000000000000000000000000000000000000",
            "0x000000000000000000000000ff6bdef4fb646ee44e29fe8fc0862b02f0ba8a33"
          ],
          "data": "0x",
          "blockHash": "0x0000000000000000000000000000000000000000000000000000000000000000",
          "blockNumber": "0x2748caa",
          "blockTimestamp": "0x69fc7834",
          "transactionHash": "0x51c1d247c18f2ff97cb2e569946f171172ee51da97256c1ddcbb71d2fc6492b9",
          "transactionIndex": "0x3",
          "logIndex": "0x38",
          "removed": false
        },
        {
          "address": "0xa9dd11062a44870025c27f886c9697158cbc9d9c",
          "topics": [
            "0x7e644d79422f17c01e4894b5f4f588d331ebfa28653d42ae832dc59e38c9798f"
          ],
          "data": "0x00000000000000000000000000000000000000000000000000000000000000000000000000000000000000001c76fb8ed983cab31c96f6dd781bb0d6e9166908",
          "blockHash": "0x0000000000000000000000000000000000000000000000000000000000000000",
          "blockNumber": "0x2748caa",
          "blockTimestamp": "0x69fc7834",
          "transactionHash": "0x51c1d247c18f2ff97cb2e569946f171172ee51da97256c1ddcbb71d2fc6492b9",
          "transactionIndex": "0x3",
          "logIndex": "0x39",
          "removed": false
        },
        {
          "address": "0xe5fafa3a398fb4e039b3daeeaed69b8c9815d320",
          "topics": [
            "0xbc7cd75a20ee27fd9adebab32041f755214dbc6bffa90cc0225b39da2e5c2d3b",
            "0x000000000000000000000000da41b41476416f8c829f74460d57ee3f1ecfb0d0"
          ],
          "data": "0x",
          "blockHash": "0x0000000000000000000000000000000000000000000000000000000000000000",
          "blockNumber": "0x2748caa",
          "blockTimestamp": "0x69fc7834",
          "transactionHash": "0x51c1d247c18f2ff97cb2e569946f171172ee51da97256c1ddcbb71d2fc6492b9",
          "transactionIndex": "0x3",
          "logIndex": "0x3a",
          "removed": false
        },
        {
          "address": "0xe5fafa3a398fb4e039b3daeeaed69b8c9815d320",
          "topics": [
            "0xc7f505b2f371ae2175ee4913f4499e1f2633a7b5936321eed1cdaeb6115181d2"
          ],
          "data": "0x0000000000000000000000000000000000000000000000000000000000000001",
          "blockHash": "0x0000000000000000000000000000000000000000000000000000000000000000",
          "blockNumber": "0x2748caa",
          "blockTimestamp": "0x69fc7834",
          "transactionHash": "0x51c1d247c18f2ff97cb2e569946f171172ee51da97256c1ddcbb71d2fc6492b9",
          "transactionIndex": "0x3",
          "logIndex": "0x3b",
          "removed": false
        },
        {
          "address": "0x082c1d8e4cb26d272ddf97c4797f4570afa8f0c9",
          "topics": [
            "0x8be0079c531659141344cd1fd0a4f28419497f9722a3daafe3b4186f6b6457e0",
            "0x0000000000000000000000000000000000000000000000000000000000000000",
            "0x000000000000000000000000ff6bdef4fb646ee44e29fe8fc0862b02f0ba8a33"
          ],
          "data": "0x",
          "blockHash": "0x0000000000000000000000000000000000000000000000000000000000000000",
          "blockNumber": "0x2748caa",
          "blockTimestamp": "0x69fc7834",
          "transactionHash": "0x51c1d247c18f2ff97cb2e569946f171172ee51da97256c1ddcbb71d2fc6492b9",
          "transactionIndex": "0x3",
          "logIndex": "0x3c",
          "removed": false
        },
        {
          "address": "0xe5fafa3a398fb4e039b3daeeaed69b8c9815d320",
          "topics": [
            "0x7e644d79422f17c01e4894b5f4f588d331ebfa28653d42ae832dc59e38c9798f"
          ],
          "data": "0x0000000000000000000000000000000000000000000000000000000000000000000000000000000000000000082c1d8e4cb26d272ddf97c4797f4570afa8f0c9",
          "blockHash": "0x0000000000000000000000000000000000000000000000000000000000000000",
          "blockNumber": "0x2748caa",
          "blockTimestamp": "0x69fc7834",
          "transactionHash": "0x51c1d247c18f2ff97cb2e569946f171172ee51da97256c1ddcbb71d2fc6492b9",
          "transactionIndex": "0x3",
          "logIndex": "0x3d",
          "removed": false
        },
        {
          "address": "0xf4f5e77fa0d7628100f3b747b2de0968cd63806a",
          "topics": [
            "0xbc7cd75a20ee27fd9adebab32041f755214dbc6bffa90cc0225b39da2e5c2d3b",
            "0x000000000000000000000000c8c5bc0a10bcb1bc4abfc8eb8a0408d502d2a8d4"
          ],
          "data": "0x",
          "blockHash": "0x0000000000000000000000000000000000000000000000000000000000000000",
          "blockNumber": "0x2748caa",
          "blockTimestamp": "0x69fc7834",
          "transactionHash": "0x51c1d247c18f2ff97cb2e569946f171172ee51da97256c1ddcbb71d2fc6492b9",
          "transactionIndex": "0x3",
          "logIndex": "0x3e",
          "removed": false
        },
        {
          "address": "0xf4f5e77fa0d7628100f3b747b2de0968cd63806a",
          "topics": [
            "0xc7f505b2f371ae2175ee4913f4499e1f2633a7b5936321eed1cdaeb6115181d2"
          ],
          "data": "0x0000000000000000000000000000000000000000000000000000000000000001",
          "blockHash": "0x0000000000000000000000000000000000000000000000000000000000000000",
          "blockNumber": "0x2748caa",
          "blockTimestamp": "0x69fc7834",
          "transactionHash": "0x51c1d247c18f2ff97cb2e569946f171172ee51da97256c1ddcbb71d2fc6492b9",
          "transactionIndex": "0x3",
          "logIndex": "0x3f",
          "removed": false
        },
        {
          "address": "0x2f6a4ed96a31c9a1dd6b035e5afef524d7bd1984",
          "topics": [
            "0x8be0079c531659141344cd1fd0a4f28419497f9722a3daafe3b4186f6b6457e0",
            "0x0000000000000000000000000000000000000000000000000000000000000000",
            "0x000000000000000000000000ff6bdef4fb646ee44e29fe8fc0862b02f0ba8a33"
          ],
          "data": "0x",
          "blockHash": "0x0000000000000000000000000000000000000000000000000000000000000000",
          "blockNumber": "0x2748caa",
          "blockTimestamp": "0x69fc7834",
          "transactionHash": "0x51c1d247c18f2ff97cb2e569946f171172ee51da97256c1ddcbb71d2fc6492b9",
          "transactionIndex": "0x3",
          "logIndex": "0x40",
          "removed": false
        },
        {
          "address": "0xf4f5e77fa0d7628100f3b747b2de0968cd63806a",
          "topics": [
            "0x7e644d79422f17c01e4894b5f4f588d331ebfa28653d42ae832dc59e38c9798f"
          ],
          "data": "0x00000000000000000000000000000000000000000000000000000000000000000000000000000000000000002f6a4ed96a31c9a1dd6b035e5afef524d7bd1984",
          "blockHash": "0x0000000000000000000000000000000000000000000000000000000000000000",
          "blockNumber": "0x2748caa",
          "blockTimestamp": "0x69fc7834",
          "transactionHash": "0x51c1d247c18f2ff97cb2e569946f171172ee51da97256c1ddcbb71d2fc6492b9",
          "transactionIndex": "0x3",
          "logIndex": "0x41",
          "removed": false
        },
        {
          "address": "0x0dbbda43fd4f4745b1118d338c50f78c5526fbf4",
          "topics": [
            "0xbc7cd75a20ee27fd9adebab32041f755214dbc6bffa90cc0225b39da2e5c2d3b",
            "0x00000000000000000000000008b402ff1bfec423371b32a9466b50410f036e7c"
          ],
          "data": "0x",
          "blockHash": "0x0000000000000000000000000000000000000000000000000000000000000000",
          "blockNumber": "0x2748caa",
          "blockTimestamp": "0x69fc7834",
          "transactionHash": "0x51c1d247c18f2ff97cb2e569946f171172ee51da97256c1ddcbb71d2fc6492b9",
          "transactionIndex": "0x3",
          "logIndex": "0x42",
          "removed": false
        },
        {
          "address": "0x0dbbda43fd4f4745b1118d338c50f78c5526fbf4",
          "topics": [
            "0xc7f505b2f371ae2175ee4913f4499e1f2633a7b5936321eed1cdaeb6115181d2"
          ],
          "data": "0x0000000000000000000000000000000000000000000000000000000000000001",
          "blockHash": "0x0000000000000000000000000000000000000000000000000000000000000000",
          "blockNumber": "0x2748caa",
          "blockTimestamp": "0x69fc7834",
          "transactionHash": "0x51c1d247c18f2ff97cb2e569946f171172ee51da97256c1ddcbb71d2fc6492b9",
          "transactionIndex": "0x3",
          "logIndex": "0x43",
          "removed": false
        },
        {
          "address": "0x0901a8405eae90accf6bf47dcd073fd2bb2673bb",
          "topics": [
            "0x8be0079c531659141344cd1fd0a4f28419497f9722a3daafe3b4186f6b6457e0",
            "0x0000000000000000000000000000000000000000000000000000000000000000",
            "0x000000000000000000000000ff6bdef4fb646ee44e29fe8fc0862b02f0ba8a33"
          ],
          "data": "0x",
          "blockHash": "0x0000000000000000000000000000000000000000000000000000000000000000",
          "blockNumber": "0x2748caa",
          "blockTimestamp": "0x69fc7834",
          "transactionHash": "0x51c1d247c18f2ff97cb2e569946f171172ee51da97256c1ddcbb71d2fc6492b9",
          "transactionIndex": "0x3",
          "logIndex": "0x44",
          "removed": false
        },
        {
          "address": "0x0dbbda43fd4f4745b1118d338c50f78c5526fbf4",
          "topics": [
            "0x7e644d79422f17c01e4894b5f4f588d331ebfa28653d42ae832dc59e38c9798f"
          ],
          "data": "0x00000000000000000000000000000000000000000000000000000000000000000000000000000000000000000901a8405eae90accf6bf47dcd073fd2bb2673bb",
          "blockHash": "0x0000000000000000000000000000000000000000000000000000000000000000",
          "blockNumber": "0x2748caa",
          "blockTimestamp": "0x69fc7834",
          "transactionHash": "0x51c1d247c18f2ff97cb2e569946f171172ee51da97256c1ddcbb71d2fc6492b9",
          "transactionIndex": "0x3",
          "logIndex": "0x45",
          "removed": false
        },
        {
          "address": "0x99ef43aae25cd8d4dc8ace1f6c0390c29ae0d349",
          "topics": [
            "0xbc7cd75a20ee27fd9adebab32041f755214dbc6bffa90cc0225b39da2e5c2d3b",
            "0x00000000000000000000000051870a89c27cfc3ea1f0a87cda4ce98e6ecbf899"
          ],
          "data": "0x",
          "blockHash": "0x0000000000000000000000000000000000000000000000000000000000000000",
          "blockNumber": "0x2748caa",
          "blockTimestamp": "0x69fc7834",
          "transactionHash": "0x51c1d247c18f2ff97cb2e569946f171172ee51da97256c1ddcbb71d2fc6492b9",
          "transactionIndex": "0x3",
          "logIndex": "0x46",
          "removed": false
        },
        {
          "address": "0x99ef43aae25cd8d4dc8ace1f6c0390c29ae0d349",
          "topics": [
            "0xc7f505b2f371ae2175ee4913f4499e1f2633a7b5936321eed1cdaeb6115181d2"
          ],
          "data": "0x0000000000000000000000000000000000000000000000000000000000000001",
          "blockHash": "0x0000000000000000000000000000000000000000000000000000000000000000",
          "blockNumber": "0x2748caa",
          "blockTimestamp": "0x69fc7834",
          "transactionHash": "0x51c1d247c18f2ff97cb2e569946f171172ee51da97256c1ddcbb71d2fc6492b9",
          "transactionIndex": "0x3",
          "logIndex": "0x47",
          "removed": false
        },
        {
          "address": "0x9d8af116ca6c0288b2265186a5df194fa17ae2a4",
          "topics": [
            "0x8be0079c531659141344cd1fd0a4f28419497f9722a3daafe3b4186f6b6457e0",
            "0x0000000000000000000000000000000000000000000000000000000000000000",
            "0x000000000000000000000000ff6bdef4fb646ee44e29fe8fc0862b02f0ba8a33"
          ],
          "data": "0x",
          "blockHash": "0x0000000000000000000000000000000000000000000000000000000000000000",
          "blockNumber": "0x2748caa",
          "blockTimestamp": "0x69fc7834",
          "transactionHash": "0x51c1d247c18f2ff97cb2e569946f171172ee51da97256c1ddcbb71d2fc6492b9",
          "transactionIndex": "0x3",
          "logIndex": "0x48",
          "removed": false
        },
        {
          "address": "0x99ef43aae25cd8d4dc8ace1f6c0390c29ae0d349",
          "topics": [
            "0x7e644d79422f17c01e4894b5f4f588d331ebfa28653d42ae832dc59e38c9798f"
          ],
          "data": "0x00000000000000000000000000000000000000000000000000000000000000000000000000000000000000009d8af116ca6c0288b2265186a5df194fa17ae2a4",
          "blockHash": "0x0000000000000000000000000000000000000000000000000000000000000000",
          "blockNumber": "0x2748caa",
          "blockTimestamp": "0x69fc7834",
          "transactionHash": "0x51c1d247c18f2ff97cb2e569946f171172ee51da97256c1ddcbb71d2fc6492b9",
          "transactionIndex": "0x3",
          "logIndex": "0x49",
          "removed": false
        },
        {
          "address": "0x182627cb46e61f59645f6d7996f16ae1f9e112ee",
          "topics": [
            "0xfcf599051bcc41e5a7b155a94bbdd6aaa68f954e694c5ab7bdecd3cfcf65ffad",
            "0x000000000000000000000000a9dd11062a44870025c27f886c9697158cbc9d9c"
          ],
          "data": "0x",
          "blockHash": "0x0000000000000000000000000000000000000000000000000000000000000000",
          "blockNumber": "0x2748caa",
          "blockTimestamp": "0x69fc7834",
          "transactionHash": "0x51c1d247c18f2ff97cb2e569946f171172ee51da97256c1ddcbb71d2fc6492b9",
          "transactionIndex": "0x3",
          "logIndex": "0x4a",
          "removed": false
        },
        {
          "address": "0x2632faf990511e9013830f96c6511c706d075317",
          "topics": [
            "0x3d0d0506c8fbb4fe692d4bb7a08d56876fec8ff877b533d59f460ce6e1658c69",
            "0x000000000000000000000000a9dd11062a44870025c27f886c9697158cbc9d9c",
            "0x000000000000000000000000ff6bdef4fb646ee44e29fe8fc0862b02f0ba8a33"
          ],
          "data": "0x000000000000000000000000e5fafa3a398fb4e039b3daeeaed69b8c9815d32000000000000000000000000099ef43aae25cd8d4dc8ace1f6c0390c29ae0d349000000000000000000000000f4f5e77fa0d7628100f3b747b2de0968cd63806a0000000000000000000000000dbbda43fd4f4745b1118d338c50f78c5526fbf400000000000000000000000000000000000000000000000001ff973cafa80000000000000000000000000000000000000000000000000012cf97a583e48c00000000000000000000000000000000000000000000000001786f5bc91c78800000000000000000000000000000000000000000000000000000000000006a2404f40000000000000000000000000000000000000000000000000000000000000e100000000000000000000000000000000000000000000000004563918244f400000000000000000000000000000000000000000000000000000000000069fc783400000000000000000000000000000000000000000000003635c9adc5dea00000000000000000000000000000000000000000000000000002b5e3af16b188000000000000000000000000000000000000000000000000000000000000000007eb0000000000000000000000000000000000000000000000000000000000000000",
          "blockHash": "0x0000000000000000000000000000000000000000000000000000000000000000",
          "blockNumber": "0x2748caa",
          "blockTimestamp": "0x69fc7834",
          "transactionHash": "0x51c1d247c18f2ff97cb2e569946f171172ee51da97256c1ddcbb71d2fc6492b9",
          "transactionIndex": "0x3",
          "logIndex": "0x4b",
          "removed": false
        }
      ],
      "logsBloom": "0x00000000000000042000100000000000400000000008000000800000000800000004100000030800000201000000000000000002000000000000000000000000001000080180000010810000000082000001000000000001010000000000000001000001020000000040002080400804000200820200000000000000040000410000008000000000000808080000000000000040000081000040008000800200000000000001000000000000000000200020000000000000000000020000001000800020000000080004000200010000000000000404008000000000000020000000004000000000800000400000000000000000000000200800000008000010",
      "type": "0x2",
      "transactionHash": "0x51c1d247c18f2ff97cb2e569946f171172ee51da97256c1ddcbb71d2fc6492b9",
      "transactionIndex": "0x3",
      "blockHash": "0x0000000000000000000000000000000000000000000000000000000000000000",
      "blockNumber": "0x2748caa",
      "gasUsed": "0x3ad4d7",
      "effectiveGasPrice": "0x5b8d80",
      "blobGasUsed": "0x9934",
      "from": "0xff6bdef4fb646ee44e29fe8fc0862b02f0ba8a33",
      "to": "0x2632faf990511e9013830f96c6511c706d075317",
      "contractAddress": null,
      "daFootprintGasScalar": "0x94",
      "l1BaseFeeScalar": "0x44d",
      "l1BlobBaseFee": "0xba40",
      "l1BlobBaseFeeScalar": "0xa118b",
      "l1Fee": "0x458a29",
      "l1GasPrice": "0xc3939",
      "l1GasUsed": "0x1093"
    },
    {
      "status": "0x1",
      "cumulativeGasUsed": "0xd04f0",
      "logs": [
        {
          "address": "0xa9dd11062a44870025c27f886c9697158cbc9d9c",
          "topics": [
            "0x1809803edc7f4d0a1c400a8f95cac12ace860d60e118b6c9b491082a623963df",
            "0x000000000000000000000000baded9957eaa9a30ba26f787ac31dad4bb41b56d"
          ],
          "data": "0x00000000000000000000000000000000000000000000000000000000000000800000000000000000000000000000000000000000000000000000000000000000000000000000000000000000000000000000000000000000000000000002328000000000000000000000000000000000000000000000000000000000000000000000000000000000000000000000000000000000000000000000000000000000",
          "blockHash": "0x0000000000000000000000000000000000000000000000000000000000000000",
          "blockNumber": "0x2748cab",
          "blockTimestamp": "0x69fc7836",
          "transactionHash": "0xbef8ba4b071a187c6bc3781372985e1809ef70f3222340108ab3491532c9cf40",
          "transactionIndex": "0x9",
          "logIndex": "0xe",
          "removed": false
        }
      ],
      "logsBloom": "0x00000000000000000000000000000000000000000000000400000000000800000004000000000000000000000000000000000000000000008000000000000000000000000000000000000000000000000000000000000000000000000000000000000000000000000000000000000000000000000000000000000000000000000000000000000000000000000000000000000000000000000000000000001000000000000000000000000000000000000000000000000000000000000000000000000000000000000000000200000000000000000000000000000000000000000000000000000000000000000004000000000000010002000000000000000000",
      "type": "0x2",
      "transactionHash": "0xbef8ba4b071a187c6bc3781372985e1809ef70f3222340108ab3491532c9cf40",
      "transactionIndex": "0x9",
      "blockHash": "0x0000000000000000000000000000000000000000000000000000000000000000",
      "blockNumber": "0x2748cab",
      "gasUsed": "0x1f078",
      "effectiveGasPrice": "0x5b8d80",
      "blobGasUsed": "0x39d0",
      "from": "0xff6bdef4fb646ee44e29fe8fc0862b02f0ba8a33",
      "to": "0xa9dd11062a44870025c27f886c9697158cbc9d9c",
      "contractAddress": null,
      "daFootprintGasScalar": "0x94",
      "l1BaseFeeScalar": "0x44d",
      "l1BlobBaseFee": "0xbba6",
      "l1BlobBaseFeeScalar": "0xa118b",
      "l1Fee": "0x44f3ee",
      "l1GasPrice": "0xbaf8f",
      "l1GasUsed": "0x640"
    },
    {
      "status": "0x1",
      "cumulativeGasUsed": "0x10f791",
      "logs": [
        {
          "address": "0x5fd7e887266f3f38d8442ad846aa1813e6679a6e",
          "topics": [
            "0x937333b6131c8de05afd22b0a0124c3a5337a7bbcccc5c81198eae037f3c4400",
            "0x000000000000000000000000a9dd11062a44870025c27f886c9697158cbc9d9c",
            "0x000000000000000000000000ff6bdef4fb646ee44e29fe8fc0862b02f0ba8a33",
            "0x0000000000000000000000000000000000000000000000000000000000000001"
          ],
          "data": "0x0000000000000000000000000000000000000000000000000000000000000020000000000000000000000000000000000000000000000000000000000000005168747470733a2f2f67726f7766692d6d656469612e667261312e6469676974616c6f6365616e7370616365732e636f6d2f6d657461646174612f7365706f6c69612d6f6c6976652d64656d6f2e6a736f6e000000000000000000000000000000",
          "blockHash": "0x0000000000000000000000000000000000000000000000000000000000000000",
          "blockNumber": "0x2748cac",
          "blockTimestamp": "0x69fc7838",
          "transactionHash": "0x6cd9f34613c22ca6b44ebcdad6af6c7ce4ef66ff3a5454f213306bc176cda97b",
          "transactionIndex": "0x6",
          "logIndex": "0xb",
          "removed": false
        }
      ],
      "logsBloom": "0x00000000000000000000100000000000000000000000000000000000000000000000000000000000000001000000000000000000000000000000000000040000000000200000000000000000000000000000000000040001000000200000000000000000000000000040000000000000000000000000000000000000040000000000000000000000000000000000000000000000800000000000000000000000000000020000000000000000000000000000000000000000000000000000000000000000000000000000000000010000000000000000000000000000000040000000000000008000200000000000000000000000000000000000000000000000",
      "type": "0x2",
      "transactionHash": "0x6cd9f34613c22ca6b44ebcdad6af6c7ce4ef66ff3a5454f213306bc176cda97b",
      "transactionIndex": "0x6",
      "blockHash": "0x0000000000000000000000000000000000000000000000000000000000000000",
      "blockNumber": "0x2748cac",
      "gasUsed": "0x27010",
      "effectiveGasPrice": "0x5b8d80",
      "blobGasUsed": "0x61b4",
      "from": "0xff6bdef4fb646ee44e29fe8fc0862b02f0ba8a33",
      "to": "0x5fd7e887266f3f38d8442ad846aa1813e6679a6e",
      "contractAddress": null,
      "daFootprintGasScalar": "0x94",
      "l1BaseFeeScalar": "0x44d",
      "l1BlobBaseFee": "0xbba6",
      "l1BlobBaseFeeScalar": "0xa118b",
      "l1Fee": "0x749064",
      "l1GasPrice": "0xbaf8f",
      "l1GasUsed": "0xa90"
    },
    {
      "status": "0x1",
      "cumulativeGasUsed": "0x1859e8",
      "logs": [
        {
          "address": "0x3d3a76f91daefdd7cf08e257924aea452042cda7",
          "topics": [
            "0xf06d825adfb713360b9703a6cd4510b7e21da224ee5ade3542128b322e0b2afd",
            "0x000000000000000000000000a9dd11062a44870025c27f886c9697158cbc9d9c"
          ],
          "data": "0x",
          "blockHash": "0x0000000000000000000000000000000000000000000000000000000000000000",
          "blockNumber": "0x2748cad",
          "blockTimestamp": "0x69fc783a",
          "transactionHash": "0x139a82db965333c25f17b619ff4de6a3849031cd395c513f417efaf36cda9f75",
          "transactionIndex": "0xa",
          "logIndex": "0xd",
          "removed": false
        }
      ],
      "logsBloom": "0x00000000000000000000000000000000000000000000000000000000000200000000000000000000000001000000000000000000000000000000000000000000000000040000000000000000000000000000000000000000000000000000000080000000000000000040000000000000000000000000000000000000040000000020100000000000000000000000000000000000000000000000000000000000000000000010000000000000000000000000000000000000000000000000000000000000000000000000000000000000000000000000000000000000000000000000000000000000000000000000000000000000000000000000000000000000",
      "type": "0x2",
      "transactionHash": "0x139a82db965333c25f17b619ff4de6a3849031cd395c513f417efaf36cda9f75",
      "transactionIndex": "0xa",
      "blockHash": "0x0000000000000000000000000000000000000000000000000000000000000000",
      "blockNumber": "0x2748cad",
      "gasUsed": "0x1acdf",
      "effectiveGasPrice": "0x5b8d80",
      "blobGasUsed": "0x39d0",
      "from": "0xff6bdef4fb646ee44e29fe8fc0862b02f0ba8a33",
      "to": "0x2632faf990511e9013830f96c6511c706d075317",
      "contractAddress": null,
      "daFootprintGasScalar": "0x94",
      "l1BaseFeeScalar": "0x44d",
      "l1BlobBaseFee": "0xbba6",
      "l1BlobBaseFeeScalar": "0xa118b",
      "l1Fee": "0x48ba5b",
      "l1GasPrice": "0xbaf8f",
      "l1GasUsed": "0x640"
    },
    {
      "status": "0x1",
      "cumulativeGasUsed": "0x7f683",
      "logs": [
        {
          "address": "0x3d3a76f91daefdd7cf08e257924aea452042cda7",
          "topics": [
            "0x27426d0caf993c76961c69adf4c344964fe68f17e45f02f8c00943d5ac44b210"
          ],
          "data": "0x0000000000000000000000000000000000000000000000000000000000000001",
          "blockHash": "0x0000000000000000000000000000000000000000000000000000000000000000",
          "blockNumber": "0x2748cae",
          "blockTimestamp": "0x69fc783c",
          "transactionHash": "0xe9368c49b7c2320368fd3952bf136dff76de839adecaffd5b10916e16e31fc5b",
          "transactionIndex": "0x4",
          "logIndex": "0x21",
          "removed": false
        }
      ],
      "logsBloom": "0x00000000000000000000000000000000000000000000000000000000000200000000000000000000000000000000000000000000000000000000000000000000000000040000000000000000000000000000000000000000000000000000000000000000000000000000000000000000000000000000000000000000000000000000100000000000000000000000000000000000000000000000000000000000000000000000000000000000000000000000000000000000000000000000000000000000000000000000000000000000000000000000040000000000000000000000000000000000000000000000000000000000000000000000000001000008",
      "type": "0x2",
      "transactionHash": "0xe9368c49b7c2320368fd3952bf136dff76de839adecaffd5b10916e16e31fc5b",
      "transactionIndex": "0x4",
      "blockHash": "0x0000000000000000000000000000000000000000000000000000000000000000",
      "blockNumber": "0x2748cae",
      "gasUsed": "0xfb16",
      "effectiveGasPrice": "0x5b8d80",
      "blobGasUsed": "0x39d0",
      "from": "0xff6bdef4fb646ee44e29fe8fc0862b02f0ba8a33",
      "to": "0x2632faf990511e9013830f96c6511c706d075317",
      "contractAddress": null,
      "daFootprintGasScalar": "0x94",
      "l1BaseFeeScalar": "0x44d",
      "l1BlobBaseFee": "0xbba6",
      "l1BlobBaseFeeScalar": "0xa118b",
      "l1Fee": "0x10fb880",
      "l1GasPrice": "0xbaf8f",
      "l1GasUsed": "0x640"
    },
    {
      "status": "0x1",
      "cumulativeGasUsed": "0xc526d",
      "logs": [
        {
          "address": "0xbaded9957eaa9a30ba26f787ac31dad4bb41b56d",
          "topics": [
            "0xddf252ad1be2c89b69c2b068fc378daa952ba7f163c4a11628f55a4df523b3ef",
            "0x0000000000000000000000000000000000000000000000000000000000000000",
            "0x000000000000000000000000ff6bdef4fb646ee44e29fe8fc0862b02f0ba8a33"
          ],
          "data": "0x000000000000000000000000000000000000000000000000000000000bebc200",
          "blockHash": "0x0000000000000000000000000000000000000000000000000000000000000000",
          "blockNumber": "0x2748caf",
          "blockTimestamp": "0x69fc783e",
          "transactionHash": "0x019bb85935e4736b79ad44cfdcc7479ea02c970f7a37fb5e472d2f9e44b819d8",
          "transactionIndex": "0x4",
          "logIndex": "0xf",
          "removed": false
        }
      ],
      "logsBloom": "0x00000000000000000000100000000000000000000000000000000000000000000000000000000000000000000000000000000000000000000000000000000000000000000000000000000008000000000000000000000001000000000000000000000000020000000000000000010800000000000000000000000010000000080000000000000000000000000000000000000000000000000000000000000000000000000000000000000000000000000000000000000000000000010000000000000002000000000000000000010000000000000000000000000000000020000000000000000000000000000000000000000000000000000000000000000000",
      "type": "0x2",
      "transactionHash": "0x019bb85935e4736b79ad44cfdcc7479ea02c970f7a37fb5e472d2f9e44b819d8",
      "transactionIndex": "0x4",
      "blockHash": "0x0000000000000000000000000000000000000000000000000000000000000000",
      "blockNumber": "0x2748caf",
      "gasUsed": "0x845c",
      "effectiveGasPrice": "0x5b8d80",
      "blobGasUsed": "0x39d0",
      "from": "0xff6bdef4fb646ee44e29fe8fc0862b02f0ba8a33",
      "to": "0xbaded9957eaa9a30ba26f787ac31dad4bb41b56d",
      "contractAddress": null,
      "daFootprintGasScalar": "0x94",
      "l1BaseFeeScalar": "0x44d",
      "l1BlobBaseFee": "0xbba6",
      "l1BlobBaseFeeScalar": "0xa118b",
      "l1Fee": "0x44f3ee",
      "l1GasPrice": "0xbaf8f",
      "l1GasUsed": "0x640"
    },
    {
      "status": "0x1",
      "cumulativeGasUsed": "0x9069a",
      "logs": [
        {
          "address": "0xbaded9957eaa9a30ba26f787ac31dad4bb41b56d",
          "topics": [
            "0x8c5be1e5ebec7d5bd14f71427d1e84f3dd0314c0f7b2291e5b200ac8c7c3b925",
            "0x000000000000000000000000ff6bdef4fb646ee44e29fe8fc0862b02f0ba8a33",
            "0x000000000000000000000000a9dd11062a44870025c27f886c9697158cbc9d9c"
          ],
          "data": "0x000000000000000000000000000000000000000000000000000000000bebc200",
          "blockHash": "0x0000000000000000000000000000000000000000000000000000000000000000",
          "blockNumber": "0x2748cb0",
          "blockTimestamp": "0x69fc7840",
          "transactionHash": "0x1d95b0b469dae616ad3b148e0678c5876b04b75328386dd7ed8435168b4eced1",
          "transactionIndex": "0x5",
          "logIndex": "0x13",
          "removed": false
        }
      ],
      "logsBloom": "0x00000000000000000000100000000000000000000000000000000000000000000000000000000000000001000000000000000000000000000000000000200000000000000000000000000000000000000000000000000001000000000000000000000000000000000040000000010000000000000000000000000000040000080000000000000000000000000000000000000000000000000000000000000000020000000000000000000000000000000000000000000000000000010000000000000000000000000000000000010000000000000000000000000000000000000010000000000000000000000000000000000000000000000000000000000000",
      "type": "0x2",
      "transactionHash": "0x1d95b0b469dae616ad3b148e0678c5876b04b75328386dd7ed8435168b4eced1",
      "transactionIndex": "0x5",
      "blockHash": "0x0000000000000000000000000000000000000000000000000000000000000000",
      "blockNumber": "0x2748cb0",
      "gasUsed": "0xb363",
      "effectiveGasPrice": "0x5b8d80",
      "blobGasUsed": "0x39d0",
      "from": "0xff6bdef4fb646ee44e29fe8fc0862b02f0ba8a33",
      "to": "0xbaded9957eaa9a30ba26f787ac31dad4bb41b56d",
      "contractAddress": null,
      "daFootprintGasScalar": "0x94",
      "l1BaseFeeScalar": "0x44d",
      "l1BlobBaseFee": "0xbba6",
      "l1BlobBaseFeeScalar": "0xa118b",
      "l1Fee": "0x44f3ee",
      "l1GasPrice": "0xbaf8f",
      "l1GasUsed": "0x640"
    },
    {
      "status": "0x1",
      "cumulativeGasUsed": "0x1f357e",
      "logs": [
        {
          "address": "0xbaded9957eaa9a30ba26f787ac31dad4bb41b56d",
          "topics": [
            "0xddf252ad1be2c89b69c2b068fc378daa952ba7f163c4a11628f55a4df523b3ef",
            "0x000000000000000000000000ff6bdef4fb646ee44e29fe8fc0862b02f0ba8a33",
            "0x000000000000000000000000a9dd11062a44870025c27f886c9697158cbc9d9c"
          ],
          "data": "0x0000000000000000000000000000000000000000000000000000000003938700",
          "blockHash": "0x0000000000000000000000000000000000000000000000000000000000000000",
          "blockNumber": "0x2748cb1",
          "blockTimestamp": "0x69fc7842",
          "transactionHash": "0xadbb09d3bf7c8f1c847c7962026ec4f30f1b21543b903cdf08b679ece7c2c9e2",
          "transactionIndex": "0x6",
          "logIndex": "0x3a",
          "removed": false
        },
        {
          "address": "0xbaded9957eaa9a30ba26f787ac31dad4bb41b56d",
          "topics": [
            "0xddf252ad1be2c89b69c2b068fc378daa952ba7f163c4a11628f55a4df523b3ef",
            "0x000000000000000000000000a9dd11062a44870025c27f886c9697158cbc9d9c",
            "0x000000000000000000000000e771ce539a297fc37094cba3ffc720a481cd5b4d"
          ],
          "data": "0x00000000000000000000000000000000000000000000000000000000001b7740",
          "blockHash": "0x0000000000000000000000000000000000000000000000000000000000000000",
          "blockNumber": "0x2748cb1",
          "blockTimestamp": "0x69fc7842",
          "transactionHash": "0xadbb09d3bf7c8f1c847c7962026ec4f30f1b21543b903cdf08b679ece7c2c9e2",
          "transactionIndex": "0x6",
          "logIndex": "0x3b",
          "removed": false
        },
        {
          "address": "0xa9dd11062a44870025c27f886c9697158cbc9d9c",
          "topics": [
            "0x4dd12c0ecba594b5bb7a4e3ec05ef19e1135fed23711a1fe4b1c9e6c9b40391b",
            "0x000000000000000000000000ff6bdef4fb646ee44e29fe8fc0862b02f0ba8a33",
            "0x000000000000000000000000baded9957eaa9a30ba26f787ac31dad4bb41b56d"
          ],
          "data": "0x00000000000000000000000000000000000000000000000000000000001b7740",
          "blockHash": "0x0000000000000000000000000000000000000000000000000000000000000000",
          "blockNumber": "0x2748cb1",
          "blockTimestamp": "0x69fc7842",
          "transactionHash": "0xadbb09d3bf7c8f1c847c7962026ec4f30f1b21543b903cdf08b679ece7c2c9e2",
          "transactionIndex": "0x6",
          "logIndex": "0x3c",
          "removed": false
        },
        {
          "address": "0xe5fafa3a398fb4e039b3daeeaed69b8c9815d320",
          "topics": [
            "0xddf252ad1be2c89b69c2b068fc378daa952ba7f163c4a11628f55a4df523b3ef",
            "0x0000000000000000000000000000000000000000000000000000000000000000",
            "0x000000000000000000000000ff6bdef4fb646ee44e29fe8fc0862b02f0ba8a33"
          ],
          "data": "0x00000000000000000000000000000000000000000000001696695dbd1cc2aaaa",
          "blockHash": "0x0000000000000000000000000000000000000000000000000000000000000000",
          "blockNumber": "0x2748cb1",
          "blockTimestamp": "0x69fc7842",
          "transactionHash": "0xadbb09d3bf7c8f1c847c7962026ec4f30f1b21543b903cdf08b679ece7c2c9e2",
          "transactionIndex": "0x6",
          "logIndex": "0x3d",
          "removed": false
        },
        {
          "address": "0xa9dd11062a44870025c27f886c9697158cbc9d9c",
          "topics": [
            "0x0b9c8304b83df3d2827b952a8e4c87faef3556dddcde57a47cb80f0c755606a5",
            "0x000000000000000000000000ff6bdef4fb646ee44e29fe8fc0862b02f0ba8a33",
            "0x000000000000000000000000baded9957eaa9a30ba26f787ac31dad4bb41b56d"
          ],
          "data": "0x000000000000000000000000000000000000000000000000000000000393870000000000000000000000000000000000000000000000001696695dbd1cc2aaaa000000000000000000000000000000000000000000000000000000000000000000000000000000000000000000000000000000000000001696695dbd1cc2aaaa",
          "blockHash": "0x0000000000000000000000000000000000000000000000000000000000000000",
          "blockNumber": "0x2748cb1",
          "blockTimestamp": "0x69fc7842",
          "transactionHash": "0xadbb09d3bf7c8f1c847c7962026ec4f30f1b21543b903cdf08b679ece7c2c9e2",
          "transactionIndex": "0x6",
          "logIndex": "0x3e",
          "removed": false
        },
        {
          "address": "0x182627cb46e61f59645f6d7996f16ae1f9e112ee",
          "topics": [
            "0x719e40e438f954166f47e9c151eedc7cf154fd5379ffbaad9796c3530ba668b4",
            "0x000000000000000000000000a9dd11062a44870025c27f886c9697158cbc9d9c",
            "0x000000000000000000000000ff6bdef4fb646ee44e29fe8fc0862b02f0ba8a33"
          ],
          "data": "0x00000000000000000000000000000000000000000000000316e692da176bffff",
          "blockHash": "0x0000000000000000000000000000000000000000000000000000000000000000",
          "blockNumber": "0x2748cb1",
          "blockTimestamp": "0x69fc7842",
          "transactionHash": "0xadbb09d3bf7c8f1c847c7962026ec4f30f1b21543b903cdf08b679ece7c2c9e2",
          "transactionIndex": "0x6",
          "logIndex": "0x3f",
          "removed": false
        },
        {
          "address": "0xbaded9957eaa9a30ba26f787ac31dad4bb41b56d",
          "topics": [
            "0xddf252ad1be2c89b69c2b068fc378daa952ba7f163c4a11628f55a4df523b3ef",
            "0x000000000000000000000000a9dd11062a44870025c27f886c9697158cbc9d9c",
            "0x000000000000000000000000ff6bdef4fb646ee44e29fe8fc0862b02f0ba8a33"
          ],
          "data": "0x0000000000000000000000000000000000000000000000000000000003780fc0",
          "blockHash": "0x0000000000000000000000000000000000000000000000000000000000000000",
          "blockNumber": "0x2748cb1",
          "blockTimestamp": "0x69fc7842",
          "transactionHash": "0xadbb09d3bf7c8f1c847c7962026ec4f30f1b21543b903cdf08b679ece7c2c9e2",
          "transactionIndex": "0x6",
          "logIndex": "0x40",
          "removed": false
        },
        {
          "address": "0x182627cb46e61f59645f6d7996f16ae1f9e112ee",
          "topics": [
            "0x127a0d60b64e68d983855c4d67e59aab432c3fded72f4317958b05a2eb1dbe0f",
            "0x000000000000000000000000a9dd11062a44870025c27f886c9697158cbc9d9c"
          ],
          "data": "0x00000000000000000000000000000000000000000000000316e692da176bffff",
          "blockHash": "0x0000000000000000000000000000000000000000000000000000000000000000",
          "blockNumber": "0x2748cb1",
          "blockTimestamp": "0x69fc7842",
          "transactionHash": "0xadbb09d3bf7c8f1c847c7962026ec4f30f1b21543b903cdf08b679ece7c2c9e2",
          "transactionIndex": "0x6",
          "logIndex": "0x41",
          "removed": false
        },
        {
          "address": "0xa9dd11062a44870025c27f886c9697158cbc9d9c",
          "topics": [
            "0x120bfc1de29621f7872a5b3129b6524ceb18df8c689a37496b8ee4007235dbc8"
          ],
          "data": "0x00000000000000000000000000000000000000000000000000000000000000000000000000000000000000000000000000000000000000000000000000000001",
          "blockHash": "0x0000000000000000000000000000000000000000000000000000000000000000",
          "blockNumber": "0x2748cb1",
          "blockTimestamp": "0x69fc7842",
          "transactionHash": "0xadbb09d3bf7c8f1c847c7962026ec4f30f1b21543b903cdf08b679ece7c2c9e2",
          "transactionIndex": "0x6",
          "logIndex": "0x42",
          "removed": false
        },
        {
          "address": "0xa9dd11062a44870025c27f886c9697158cbc9d9c",
          "topics": [
            "0xccb4518c7bb9cdee893961401854c0ac29fad869f3338dc3087c9215fa4ab9e1"
          ],
          "data": "0x000000000000000000000000000000000000000000000000000000000000000000000000000000000000000000000000000000000000001696695dbd1cc2aaaa",
          "blockHash": "0x0000000000000000000000000000000000000000000000000000000000000000",
          "blockNumber": "0x2748cb1",
          "blockTimestamp": "0x69fc7842",
          "transactionHash": "0xadbb09d3bf7c8f1c847c7962026ec4f30f1b21543b903cdf08b679ece7c2c9e2",
          "transactionIndex": "0x6",
          "logIndex": "0x43",
          "removed": false
        }
      ],
      "logsBloom": "0x00000000000000000000100000000000000000000000400080000000000848000004000000000800000001000000000000000002000000000000000000000000000000000100000000000008000010000000000000800001000000000000000000000000020000000040000000010800000000000200000000000010041000080000000000000000000008000000000000000040000000000000000000001000000000000000000000100020000000000000000000000000080002010000000000400002000000000000000230012000000000000000004000200000000020000002000002000000000000000004000000000800010000000000000000000000",
      "type": "0x2",
      "transactionHash": "0xadbb09d3bf7c8f1c847c7962026ec4f30f1b21543b903cdf08b679ece7c2c9e2",
      "transactionIndex": "0x6",
      "blockHash": "0x0000000000000000000000000000000000000000000000000000000000000000",
      "blockNumber": "0x2748cb1",
      "gasUsed": "0x6f7e9",
      "effectiveGasPrice": "0x5b8d80",
      "blobGasUsed": "0x39d0",
      "from": "0xff6bdef4fb646ee44e29fe8fc0862b02f0ba8a33",
      "to": "0xa9dd11062a44870025c27f886c9697158cbc9d9c",
      "contractAddress": null,
      "daFootprintGasScalar": "0x94",
      "l1BaseFeeScalar": "0x44d",
      "l1BlobBaseFee": "0xb77c",
      "l1BlobBaseFeeScalar": "0xa118b",
      "l1Fee": "0x443107",
      "l1GasPrice": "0xbdce5",
      "l1GasUsed": "0x640"
    },
    {
      "status": "0x1",
      "cumulativeGasUsed": "0x1381fb",
      "logs": [
        {
          "address": "0xf1f61bf29ccecce190427300874dd66c417fd84d",
          "topics": [
            "0xddf252ad1be2c89b69c2b068fc378daa952ba7f163c4a11628f55a4df523b3ef",
            "0x0000000000000000000000000000000000000000000000000000000000000000",
            "0x000000000000000000000000ff6bdef4fb646ee44e29fe8fc0862b02f0ba8a33"
          ],
          "data": "0x00000000000000000000000000000000000000000000000316e692da176bffff",
          "blockHash": "0x0000000000000000000000000000000000000000000000000000000000000000",
          "blockNumber": "0x2748cb2",
          "blockTimestamp": "0x69fc7844",
          "transactionHash": "0x9f468bc015343ac3a904dd478f9c932e5171cfb703f5bec6b7a5943ef23e761b",
          "transactionIndex": "0x7",
          "logIndex": "0x4a",
          "removed": false
        },
        {
          "address": "0x182627cb46e61f59645f6d7996f16ae1f9e112ee",
          "topics": [
            "0x2147b311a550660c3b0a5d43aebbb96900059c26555a628fc6b9b758a001dbbe",
            "0x000000000000000000000000a9dd11062a44870025c27f886c9697158cbc9d9c",
            "0x000000000000000000000000ff6bdef4fb646ee44e29fe8fc0862b02f0ba8a33"
          ],
          "data": "0x00000000000000000000000000000000000000000000000316e692da176bffff",
          "blockHash": "0x0000000000000000000000000000000000000000000000000000000000000000",
          "blockNumber": "0x2748cb2",
          "blockTimestamp": "0x69fc7844",
          "transactionHash": "0x9f468bc015343ac3a904dd478f9c932e5171cfb703f5bec6b7a5943ef23e761b",
          "transactionIndex": "0x7",
          "logIndex": "0x4b",
          "removed": false
        }
      ],
      "logsBloom": "0x00000000000000000000100000000000000000000000000000000000008000000000000000000800000001000000000000000002000000000000080000000000000000000000000000000008000000000000000000000001000000000000000000000000020000000440000000000800000000000200000000000010040000000008000000000000000000000000000000000000000000000000000000000000000000000000000000000002000000000000000000000000000000000000000000000002000000000000000000010000000000000000000000000000000020000000000000000000000000000000000000800000000000000000000000000000",
      "type": "0x2",
      "transactionHash": "0x9f468bc015343ac3a904dd478f9c932e5171cfb703f5bec6b7a5943ef23e761b",
      "transactionIndex": "0x7",
      "blockHash": "0x0000000000000000000000000000000000000000000000000000000000000000",
      "blockNumber": "0x2748cb2",
      "gasUsed": "0x139d1",
      "effectiveGasPrice": "0x5b8d80",
      "blobGasUsed": "0x39d0",
      "from": "0xff6bdef4fb646ee44e29fe8fc0862b02f0ba8a33",
      "to": "0x182627cb46e61f59645f6d7996f16ae1f9e112ee",
      "contractAddress": null,
      "daFootprintGasScalar": "0x94",
      "l1BaseFeeScalar": "0x44d",
      "l1BlobBaseFee": "0xb77c",
      "l1BlobBaseFeeScalar": "0xa118b",
      "l1Fee": "0x443107",
      "l1GasPrice": "0xbdce5",
      "l1GasUsed": "0x640"
    },
    {
      "status": "0x1",
      "cumulativeGasUsed": "0x2313a2",
      "logs": [
        {
          "address": "0xbaded9957eaa9a30ba26f787ac31dad4bb41b56d",
          "topics": [
            "0xddf252ad1be2c89b69c2b068fc378daa952ba7f163c4a11628f55a4df523b3ef",
            "0x0000000000000000000000000000000000000000000000000000000000000000",
            "0x0000000000000000000000003d3a76f91daefdd7cf08e257924aea452042cda7"
          ],
          "data": "0x0000000000000000000000000000000000000000000000000000000002faf080",
          "blockHash": "0x0000000000000000000000000000000000000000000000000000000000000000",
          "blockNumber": "0x2748cb3",
          "blockTimestamp": "0x69fc7846",
          "transactionHash": "0x469a3dd7ed10699cb44b3b96be56c744b1df0fae7c98745a73bf7c4907e232b5",
          "transactionIndex": "0x9",
          "logIndex": "0x40",
          "removed": false
        }
      ],
      "logsBloom": "0x00000000000000000000000000000000001000000000000000000000000000000000000000000000000000000000000000000000000000000000000000000000000000000000000000000008000000000000000000000000000000000000000000000000020000000000000000010800000000000000000000000010000000080000000000000000000000000000000000000000000000000000000000000000000000000000000000000000000000000000000000000000000000010000000000000002000000000000000000000000000000000000000000000000000020001000000000001000000000000000000000000000000000000000000000000000",
      "type": "0x2",
      "transactionHash": "0x469a3dd7ed10699cb44b3b96be56c744b1df0fae7c98745a73bf7c4907e232b5",
      "transactionIndex": "0x9",
      "blockHash": "0x0000000000000000000000000000000000000000000000000000000000000000",
      "blockNumber": "0x2748cb3",
      "gasUsed": "0xc734",
      "effectiveGasPrice": "0x5b8d80",
      "blobGasUsed": "0x39d0",
      "from": "0xff6bdef4fb646ee44e29fe8fc0862b02f0ba8a33",
      "to": "0xbaded9957eaa9a30ba26f787ac31dad4bb41b56d",
      "contractAddress": null,
      "daFootprintGasScalar": "0x94",
      "l1BaseFeeScalar": "0x44d",
      "l1BlobBaseFee": "0xb77c",
      "l1BlobBaseFeeScalar": "0xa118b",
      "l1Fee": "0x443107",
      "l1GasPrice": "0xbdce5",
      "l1GasUsed": "0x640"
    },
    {
      "status": "0x1",
      "cumulativeGasUsed": "0x647bc",
      "logs": [
        {
          "address": "0xbaded9957eaa9a30ba26f787ac31dad4bb41b56d",
          "topics": [
            "0x8c5be1e5ebec7d5bd14f71427d1e84f3dd0314c0f7b2291e5b200ac8c7c3b925",
            "0x0000000000000000000000003d3a76f91daefdd7cf08e257924aea452042cda7",
            "0x000000000000000000000000a9dd11062a44870025c27f886c9697158cbc9d9c"
          ],
          "data": "0x0000000000000000000000000000000000000000000000000000000001c9c380",
          "blockHash": "0x0000000000000000000000000000000000000000000000000000000000000000",
          "blockNumber": "0x2748cb4",
          "blockTimestamp": "0x69fc7848",
          "transactionHash": "0xcd3ada84b00058d2b54118d22b39ee924f45cbf46b9ba3618ff6885781cc5a26",
          "transactionIndex": "0x3",
          "logIndex": "0x2",
          "removed": false
        },
        {
          "address": "0xbaded9957eaa9a30ba26f787ac31dad4bb41b56d",
          "topics": [
            "0xddf252ad1be2c89b69c2b068fc378daa952ba7f163c4a11628f55a4df523b3ef",
            "0x0000000000000000000000003d3a76f91daefdd7cf08e257924aea452042cda7",
            "0x000000000000000000000000a9dd11062a44870025c27f886c9697158cbc9d9c"
          ],
          "data": "0x0000000000000000000000000000000000000000000000000000000001c9c380",
          "blockHash": "0x0000000000000000000000000000000000000000000000000000000000000000",
          "blockNumber": "0x2748cb4",
          "blockTimestamp": "0x69fc7848",
          "transactionHash": "0xcd3ada84b00058d2b54118d22b39ee924f45cbf46b9ba3618ff6885781cc5a26",
          "transactionIndex": "0x3",
          "logIndex": "0x3",
          "removed": false
        },
        {
          "address": "0xbaded9957eaa9a30ba26f787ac31dad4bb41b56d",
          "topics": [
            "0xddf252ad1be2c89b69c2b068fc378daa952ba7f163c4a11628f55a4df523b3ef",
            "0x000000000000000000000000a9dd11062a44870025c27f886c9697158cbc9d9c",
            "0x000000000000000000000000e771ce539a297fc37094cba3ffc720a481cd5b4d"
          ],
          "data": "0x00000000000000000000000000000000000000000000000000000000000dbba0",
          "blockHash": "0x0000000000000000000000000000000000000000000000000000000000000000",
          "blockNumber": "0x2748cb4",
          "blockTimestamp": "0x69fc7848",
          "transactionHash": "0xcd3ada84b00058d2b54118d22b39ee924f45cbf46b9ba3618ff6885781cc5a26",
          "transactionIndex": "0x3",
          "logIndex": "0x4",
          "removed": false
        },
        {
          "address": "0xa9dd11062a44870025c27f886c9697158cbc9d9c",
          "topics": [
            "0x4dd12c0ecba594b5bb7a4e3ec05ef19e1135fed23711a1fe4b1c9e6c9b40391b",
            "0x0000000000000000000000003d3a76f91daefdd7cf08e257924aea452042cda7",
            "0x000000000000000000000000baded9957eaa9a30ba26f787ac31dad4bb41b56d"
          ],
          "data": "0x00000000000000000000000000000000000000000000000000000000000dbba0",
          "blockHash": "0x0000000000000000000000000000000000000000000000000000000000000000",
          "blockNumber": "0x2748cb4",
          "blockTimestamp": "0x69fc7848",
          "transactionHash": "0xcd3ada84b00058d2b54118d22b39ee924f45cbf46b9ba3618ff6885781cc5a26",
          "transactionIndex": "0x3",
          "logIndex": "0x5",
          "removed": false
        },
        {
          "address": "0xbaded9957eaa9a30ba26f787ac31dad4bb41b56d",
          "topics": [
            "0xddf252ad1be2c89b69c2b068fc378daa952ba7f163c4a11628f55a4df523b3ef",
            "0x000000000000000000000000a9dd11062a44870025c27f886c9697158cbc9d9c",
            "0x000000000000000000000000ff6bdef4fb646ee44e29fe8fc0862b02f0ba8a33"
          ],
          "data": "0x0000000000000000000000000000000000000000000000000000000001bc07e0",
          "blockHash": "0x0000000000000000000000000000000000000000000000000000000000000000",
          "blockNumber": "0x2748cb4",
          "blockTimestamp": "0x69fc7848",
          "transactionHash": "0xcd3ada84b00058d2b54118d22b39ee924f45cbf46b9ba3618ff6885781cc5a26",
          "transactionIndex": "0x3",
          "logIndex": "0x6",
          "removed": false
        },
        {
          "address": "0xe5fafa3a398fb4e039b3daeeaed69b8c9815d320",
          "topics": [
            "0xddf252ad1be2c89b69c2b068fc378daa952ba7f163c4a11628f55a4df523b3ef",
            "0x0000000000000000000000000000000000000000000000000000000000000000",
            "0x0000000000000000000000003d3a76f91daefdd7cf08e257924aea452042cda7"
          ],
          "data": "0x00000000000000000000000000000000000000000000000b4b34aede8e615555",
          "blockHash": "0x0000000000000000000000000000000000000000000000000000000000000000",
          "blockNumber": "0x2748cb4",
          "blockTimestamp": "0x69fc7848",
          "transactionHash": "0xcd3ada84b00058d2b54118d22b39ee924f45cbf46b9ba3618ff6885781cc5a26",
          "transactionIndex": "0x3",
          "logIndex": "0x7",
          "removed": false
        },
        {
          "address": "0xa9dd11062a44870025c27f886c9697158cbc9d9c",
          "topics": [
            "0x0b9c8304b83df3d2827b952a8e4c87faef3556dddcde57a47cb80f0c755606a5",
            "0x0000000000000000000000003d3a76f91daefdd7cf08e257924aea452042cda7",
            "0x000000000000000000000000baded9957eaa9a30ba26f787ac31dad4bb41b56d"
          ],
          "data": "0x0000000000000000000000000000000000000000000000000000000001c9c38000000000000000000000000000000000000000000000000b4b34aede8e6155550000000000000000000000000000000000000000000000000000000000000000000000000000000000000000000000000000000000000021e19e0c9bab23ffff",
          "blockHash": "0x0000000000000000000000000000000000000000000000000000000000000000",
          "blockNumber": "0x2748cb4",
          "blockTimestamp": "0x69fc7848",
          "transactionHash": "0xcd3ada84b00058d2b54118d22b39ee924f45cbf46b9ba3618ff6885781cc5a26",
          "transactionIndex": "0x3",
          "logIndex": "0x8",
          "removed": false
        },
        {
          "address": "0x3d3a76f91daefdd7cf08e257924aea452042cda7",
          "topics": [
            "0x9781da678ddc7489bd088c5dae768340264a3f5b39b5e30043859b3d81111dec",
            "0x000000000000000000000000a9dd11062a44870025c27f886c9697158cbc9d9c",
            "0x000000000000000000000000baded9957eaa9a30ba26f787ac31dad4bb41b56d"
          ],
          "data": "0x0000000000000000000000000000000000000000000000000000000001c9c38000000000000000000000000000000000000000000000000b4b34aede8e615555",
          "blockHash": "0x0000000000000000000000000000000000000000000000000000000000000000",
          "blockNumber": "0x2748cb4",
          "blockTimestamp": "0x69fc7848",
          "transactionHash": "0xcd3ada84b00058d2b54118d22b39ee924f45cbf46b9ba3618ff6885781cc5a26",
          "transactionIndex": "0x3",
          "logIndex": "0x9",
          "removed": false
        },
        {
          "address": "0x3d3a76f91daefdd7cf08e257924aea452042cda7",
          "topics": [
            "0x68cf5787fecc5b9dac7aeb1ff68e2a7b85c27306b197b4cce1c4788b40533ac1",
            "0x000000000000000000000000baded9957eaa9a30ba26f787ac31dad4bb41b56d"
          ],
          "data": "0x0000000000000000000000000000000000000000000000000000000001c9c3800000000000000000000000000000000000000000000000000000000001c9c3800000000000000000000000000000000000000000000000000000000000000001",
          "blockHash": "0x0000000000000000000000000000000000000000000000000000000000000000",
          "blockNumber": "0x2748cb4",
          "blockTimestamp": "0x69fc7848",
          "transactionHash": "0xcd3ada84b00058d2b54118d22b39ee924f45cbf46b9ba3618ff6885781cc5a26",
          "transactionIndex": "0x3",
          "logIndex": "0xa",
          "removed": false
        }
      ],
      "logsBloom": "0x00000000000000000000100000000000001000000000000080000000000a00000004000000000000000001000000000000000000000000000000000000200000000000040100000000000008000010000000100000000001000000000000000000000000820004000040000000010800000000000000000000000010041000080000100000000000000008000000000000000040000000000000000000001000020000000000000000000000000000010000000000000000080000010000000000400002000000000000008230010000000000000000004000000000000020001010000002001000000000000004000000000000010000000000000000000000",
      "type": "0x2",
      "transactionHash": "0xcd3ada84b00058d2b54118d22b39ee924f45cbf46b9ba3618ff6885781cc5a26",
      "transactionIndex": "0x3",
      "blockHash": "0x0000000000000000000000000000000000000000000000000000000000000000",
      "blockNumber": "0x2748cb4",
      "gasUsed": "0x430da",
      "effectiveGasPrice": "0x5b8d80",
      "blobGasUsed": "0x39d0",
      "from": "0xff6bdef4fb646ee44e29fe8fc0862b02f0ba8a33",
      "to": "0x2632faf990511e9013830f96c6511c706d075317",
      "contractAddress": null,
      "daFootprintGasScalar": "0x94",
      "l1BaseFeeScalar": "0x44d",
      "l1BlobBaseFee": "0xb77c",
      "l1BlobBaseFeeScalar": "0xa118b",
      "l1Fee": "0x443107",
      "l1GasPrice": "0xbdce5",
      "l1GasUsed": "0x640"
    },
    {
      "status": "0x1",
      "cumulativeGasUsed": "0x1694be",
      "logs": [
        {
          "address": "0xbaded9957eaa9a30ba26f787ac31dad4bb41b56d",
          "topics": [
            "0x8c5be1e5ebec7d5bd14f71427d1e84f3dd0314c0f7b2291e5b200ac8c7c3b925",
            "0x000000000000000000000000ff6bdef4fb646ee44e29fe8fc0862b02f0ba8a33",
            "0x000000000000000000000000f1f61bf29ccecce190427300874dd66c417fd84d"
          ],
          "data": "0x00000000000000000000000000000000000000000000000000000000017d7840",
          "blockHash": "0x0000000000000000000000000000000000000000000000000000000000000000",
          "blockNumber": "0x2748cb5",
          "blockTimestamp": "0x69fc784a",
          "transactionHash": "0x82d78ac0a57e57355c0d8eb2dcf38acfa8d0ad78bf13a604e80420134b087912",
          "transactionIndex": "0x9",
          "logIndex": "0x11",
          "removed": false
        }
      ],
      "logsBloom": "0x00000000000000000000100000000000000000000000000000000000000000000000000000000000000002000000000000000000000000000000000000200000000000000000000000000000000000000000000000000001000000000000000000000000000000000000000000010000000000000000000000000000000000080000000000000000000000000000000000000000000000000000000000000000020000000000000000000000001000000000000000000000000000010000000000000000000000000000000000010000000000000000000000000000000000000010000000000000000000000008000000000000000000000000000000000000",
      "type": "0x2",
      "transactionHash": "0x82d78ac0a57e57355c0d8eb2dcf38acfa8d0ad78bf13a604e80420134b087912",
      "transactionIndex": "0x9",
      "blockHash": "0x0000000000000000000000000000000000000000000000000000000000000000",
      "blockNumber": "0x2748cb5",
      "gasUsed": "0xb36f",
      "effectiveGasPrice": "0x5b8d80",
      "blobGasUsed": "0x39d0",
      "from": "0xff6bdef4fb646ee44e29fe8fc0862b02f0ba8a33",
      "to": "0xbaded9957eaa9a30ba26f787ac31dad4bb41b56d",
      "contractAddress": null,
      "daFootprintGasScalar": "0x94",
      "l1BaseFeeScalar": "0x44d",
      "l1BlobBaseFee": "0xb77c",
      "l1BlobBaseFeeScalar": "0xa118b",
      "l1Fee": "0x443107",
      "l1GasPrice": "0xbdce5",
      "l1GasUsed": "0x640"
    },
    {
      "status": "0x1",
      "cumulativeGasUsed": "0x94a57",
      "logs": [
        {
          "address": "0xbaded9957eaa9a30ba26f787ac31dad4bb41b56d",
          "topics": [
            "0xddf252ad1be2c89b69c2b068fc378daa952ba7f163c4a11628f55a4df523b3ef",
            "0x000000000000000000000000ff6bdef4fb646ee44e29fe8fc0862b02f0ba8a33",
            "0x0000000000000000000000003d3a76f91daefdd7cf08e257924aea452042cda7"
          ],
          "data": "0x00000000000000000000000000000000000000000000000000000000017d7840",
          "blockHash": "0x0000000000000000000000000000000000000000000000000000000000000000",
          "blockNumber": "0x2748cb6",
          "blockTimestamp": "0x69fc784c",
          "transactionHash": "0x813f53583753b762b3b0611faee293f05389ed4a03978cbde041a62fa1109ef7",
          "transactionIndex": "0x6",
          "logIndex": "0x5",
          "removed": false
        },
        {
          "address": "0xf1f61bf29ccecce190427300874dd66c417fd84d",
          "topics": [
            "0xddf252ad1be2c89b69c2b068fc378daa952ba7f163c4a11628f55a4df523b3ef",
            "0x0000000000000000000000000000000000000000000000000000000000000000",
            "0x000000000000000000000000ff6bdef4fb646ee44e29fe8fc0862b02f0ba8a33"
          ],
          "data": "0x0000000000000000000000000000000000000000000060425cde1444ba504773",
          "blockHash": "0x0000000000000000000000000000000000000000000000000000000000000000",
          "blockNumber": "0x2748cb6",
          "blockTimestamp": "0x69fc784c",
          "transactionHash": "0x813f53583753b762b3b0611faee293f05389ed4a03978cbde041a62fa1109ef7",
          "transactionIndex": "0x6",
          "logIndex": "0x6",
          "removed": false
        },
        {
          "address": "0xf1f61bf29ccecce190427300874dd66c417fd84d",
          "topics": [
            "0x10a0bcbfbc2dceec1f16f422dd5f17d22caaf848abc2d100c13ea7ebf27a0b4b",
            "0x000000000000000000000000ff6bdef4fb646ee44e29fe8fc0862b02f0ba8a33",
            "0x000000000000000000000000baded9957eaa9a30ba26f787ac31dad4bb41b56d"
          ],
          "data": "0x00000000000000000000000000000000000000000000000000000000017d78400000000000000000000000000000000000000000000060425cde1444ba50477300000000000000000000000000000000000000000000000000003204f4a4ea80",
          "blockHash": "0x0000000000000000000000000000000000000000000000000000000000000000",
          "blockNumber": "0x2748cb6",
          "blockTimestamp": "0x69fc784c",
          "transactionHash": "0x813f53583753b762b3b0611faee293f05389ed4a03978cbde041a62fa1109ef7",
          "transactionIndex": "0x6",
          "logIndex": "0x7",
          "removed": false
        }
      ],
      "logsBloom": "0x00000000000000000000100000000000001000000000000000000000000000000000000000000000000000000000000000000000000000000000080000000000001000000000000000000008000000000000000000000001000000000000000000000000020000000000000000010800000000000000000000000010000000080008000000000000000000000000000000000000000000000000000000001000000000000000000000000002000000000000000000000000000000010000400000000002000000000000000000010000000000000000000000000000000020001000000000001000000000000004000000000000010000000000010000000000",
      "type": "0x2",
      "transactionHash": "0x813f53583753b762b3b0611faee293f05389ed4a03978cbde041a62fa1109ef7",
      "transactionIndex": "0x6",
      "blockHash": "0x0000000000000000000000000000000000000000000000000000000000000000",
      "blockNumber": "0x2748cb6",
      "gasUsed": "0x2d4d5",
      "effectiveGasPrice": "0x5b8d80",
      "blobGasUsed": "0x39d0",
      "from": "0xff6bdef4fb646ee44e29fe8fc0862b02f0ba8a33",
      "to": "0xf1f61bf29ccecce190427300874dd66c417fd84d",
      "contractAddress": null,
      "daFootprintGasScalar": "0x94",
      "l1BaseFeeScalar": "0x44d",
      "l1BlobBaseFee": "0xb77c",
      "l1BlobBaseFeeScalar": "0xa118b",
      "l1Fee": "0x443107",
      "l1GasPrice": "0xbdce5",
      "l1GasUsed": "0x640"
    },
    {
      "status": "0x1",
      "cumulativeGasUsed": "0x115b22",
      "logs": [
        {
          "address": "0xf1f61bf29ccecce190427300874dd66c417fd84d",
          "topics": [
            "0x8c5be1e5ebec7d5bd14f71427d1e84f3dd0314c0f7b2291e5b200ac8c7c3b925",
            "0x000000000000000000000000ff6bdef4fb646ee44e29fe8fc0862b02f0ba8a33",
            "0x00000000000000000000000006eca4677398fa720552272b3c4a6321c4fa072b"
          ],
          "data": "0x0000000000000000000000000000000000000000000000056bc75e2d63100000",
          "blockHash": "0x0000000000000000000000000000000000000000000000000000000000000000",
          "blockNumber": "0x2748cb7",
          "blockTimestamp": "0x69fc784e",
          "transactionHash": "0xb591358de6c2d01638d04eace750e26bfc9ea5f4f4b5b3bbaac1589beacbc3cd",
          "transactionIndex": "0x8",
          "logIndex": "0x3a",
          "removed": false
        }
      ],
      "logsBloom": "0x00000000000000000000100000000000000000000000000000000000000000000000000000000000000000000000000000000000000000000000080000200000000000000000000000000000000000001000000000000001000000000000000000000000000000000000000000000000000000000000000000000000000000000008000000000000000000000000000000000000000000000000000000000000020000000000000000000002000000000000000000000000000000000000000000000000000000000000000000010000000000000000000000000000000000000010000000000000000000000000000000001000000000000400000000000000",
      "type": "0x2",
      "transactionHash": "0xb591358de6c2d01638d04eace750e26bfc9ea5f4f4b5b3bbaac1589beacbc3cd",
      "transactionIndex": "0x8",
      "blockHash": "0x0000000000000000000000000000000000000000000000000000000000000000",
      "blockNumber": "0x2748cb7",
      "gasUsed": "0xc6c9",
      "effectiveGasPrice": "0x5b8d80",
      "blobGasUsed": "0x39d0",
      "from": "0xff6bdef4fb646ee44e29fe8fc0862b02f0ba8a33",
      "to": "0xf1f61bf29ccecce190427300874dd66c417fd84d",
      "contractAddress": null,
      "daFootprintGasScalar": "0x94",
      "l1BaseFeeScalar": "0x44d",
      "l1BlobBaseFee": "0xb98e",
      "l1BlobBaseFeeScalar": "0xa118b",
      "l1Fee": "0x43760d",
      "l1GasPrice": "0xb2535",
      "l1GasUsed": "0x640"
    },
    {
      "status": "0x1",
      "cumulativeGasUsed": "0x6a136",
      "logs": [
        {
          "address": "0x06eca4677398fa720552272b3c4a6321c4fa072b",
          "topics": [
            "0xff1ac146c82b18bb88303e9ff5879bafc1f888fadb2f7365974fddc30f15ff3d",
            "0x000000000000000000000000ff6bdef4fb646ee44e29fe8fc0862b02f0ba8a33"
          ],
          "data": "0x0000000000000000000000000000000000000000000000000000000069fc7850",
          "blockHash": "0x0000000000000000000000000000000000000000000000000000000000000000",
          "blockNumber": "0x2748cb8",
          "blockTimestamp": "0x69fc7850",
          "transactionHash": "0x12819e0c4de971154ec0b933ffaf92a15bbd94f824cd6ad95de4b289bcf01aa4",
          "transactionIndex": "0x5",
          "logIndex": "0x4",
          "removed": false
        },
        {
          "address": "0xf1f61bf29ccecce190427300874dd66c417fd84d",
          "topics": [
            "0xddf252ad1be2c89b69c2b068fc378daa952ba7f163c4a11628f55a4df523b3ef",
            "0x000000000000000000000000ff6bdef4fb646ee44e29fe8fc0862b02f0ba8a33",
            "0x00000000000000000000000006eca4677398fa720552272b3c4a6321c4fa072b"
          ],
          "data": "0x0000000000000000000000000000000000000000000000056bc75e2d63100000",
          "blockHash": "0x0000000000000000000000000000000000000000000000000000000000000000",
          "blockNumber": "0x2748cb8",
          "blockTimestamp": "0x69fc7850",
          "transactionHash": "0x12819e0c4de971154ec0b933ffaf92a15bbd94f824cd6ad95de4b289bcf01aa4",
          "transactionIndex": "0x5",
          "logIndex": "0x5",
          "removed": false
        },
        {
          "address": "0x06eca4677398fa720552272b3c4a6321c4fa072b",
          "topics": [
            "0x1449c6dd7851abc30abf37f57715f492010519147cc2652fbc38202c18a6ee90",
            "0x000000000000000000000000ff6bdef4fb646ee44e29fe8fc0862b02f0ba8a33"
          ],
          "data": "0x0000000000000000000000000000000000000000000000056bc75e2d631000000000000000000000000000000000000000000000000000056bc75e2d63100000",
          "blockHash": "0x0000000000000000000000000000000000000000000000000000000000000000",
          "blockNumber": "0x2748cb8",
          "blockTimestamp": "0x69fc7850",
          "transactionHash": "0x12819e0c4de971154ec0b933ffaf92a15bbd94f824cd6ad95de4b289bcf01aa4",
          "transactionIndex": "0x5",
          "logIndex": "0x6",
          "removed": false
        }
      ],
      "logsBloom": "0x00000000000000000000100000000000000000000000000000100000000200000000000000000000000000000000000000000000000000000000090000000000000004000000000008000008000000001000000001000001000000000000000000000000000000000000000000000000000000000000000000000010000000000008100000000020000000000000000000000000000000000000000000000000000000000000000000000002000000000000000000000000000000000000000000000002000000000000000000012000000000000000000000000000000000000000000000000000000000000000000000001000000000000400000000000000",
      "type": "0x2",
      "transactionHash": "0x12819e0c4de971154ec0b933ffaf92a15bbd94f824cd6ad95de4b289bcf01aa4",
      "transactionIndex": "0x5",
      "blockHash": "0x0000000000000000000000000000000000000000000000000000000000000000",
      "blockNumber": "0x2748cb8",
      "gasUsed": "0x3ac97",
      "effectiveGasPrice": "0x5b8d80",
      "blobGasUsed": "0x39d0",
      "from": "0xff6bdef4fb646ee44e29fe8fc0862b02f0ba8a33",
      "to": "0x06eca4677398fa720552272b3c4a6321c4fa072b",
      "contractAddress": null,
      "daFootprintGasScalar": "0x94",
      "l1BaseFeeScalar": "0x44d",
      "l1BlobBaseFee": "0xb98e",
      "l1BlobBaseFeeScalar": "0xa118b",
      "l1Fee": "0x43760d",
      "l1GasPrice": "0xb2535",
      "l1GasUsed": "0x640"
    }
  ],
  "libraries": [],
  "pending": [],
  "returns": {},
  "timestamp": 1778153550928,
  "chain": 84532,
  "commit": "03af0d2"
}