{
  "transactions": [
    {
      "hash": "0xfc8db2f3522900be2141e16bf464864d4ccbb9db4a72cd9a136e4ad7848834d7",
      "transactionType": "CREATE",
      "contractName": "MockStablecoin",
      "contractAddress": "0x7c47aa550061117f8440128c6b829da5bf88de06",
      "function": null,
      "arguments": [
        "Mock Tether USD",
        "mUSDT",
        "6"
      ],
      "transaction": {
        "from": "0xff6bdef4fb646ee44e29fe8fc0862b02f0ba8a33",
        "gas": "0xa5851",
        "value": "0x0",
        "input": "0x60a060405234620003885762000b77803803806200001d816200038c565b9283398101606082820312620003885781516001600160401b0391908281116200038857816200004f918501620003b2565b6020918285015184811162000388576040916200006e918701620003b2565b9401519260ff841684036200038857815181811162000293576003908154906001948583811c931680156200037d575b8784101462000369578190601f9384811162000316575b508790848311600114620002b3575f92620002a7575b50505f1982851b1c191690851b1782555b8651928311620002935760049485548581811c9116801562000288575b8282101462000275578281116200022d575b5080918411600114620001c4575082939495965f93620001b8575b505082841b925f19911b1c19161782555b46148015620001ac575b8015620001a1575b801562000195575b80156200018a575b6200017b575060805260405161075490816200042382396080518161031d0152f35b604051631295176d60e31b8152fd5b506089461462000159565b50612105461462000151565b50600a461462000149565b5061a4b1461462000141565b015191505f8062000126565b9190601f19841697865f52835f20935f905b8a821062000215575050848697989910620001fb575b50505050811b01825562000137565b01519060f8845f19921b161c191690555f808080620001ec565b808885978294968601518155019601930190620001d6565b865f52815f208380870160051c8201928488106200026b575b0160051c019086905b8281106200025f5750506200010b565b5f81550186906200024f565b9250819262000246565b602287634e487b7160e01b5f525260245ffd5b90607f1690620000f9565b634e487b7160e01b5f52604160045260245ffd5b015190505f80620000cb565b90879350601f19831691865f52895f20925f5b8b828210620002ff5750508411620002e7575b505050811b018255620000dc565b01515f1983871b60f8161c191690555f8080620002d9565b8385015186558b97909501949384019301620002c6565b909150845f52875f208480850160051c8201928a86106200035f575b918991869594930160051c01915b82811062000350575050620000b5565b5f815585945089910162000340565b9250819262000332565b634e487b7160e01b5f52602260045260245ffd5b92607f16926200009e565b5f80fd5b6040519190601f01601f191682016001600160401b038111838210176200029357604052565b919080601f84011215620003885782516001600160401b0381116200029357602090620003e8601f8201601f191683016200038c565b9281845282828701011162000388575f5b8181106200040e5750825f9394955001015290565b8581018301518482018401528201620003f956fe6080604090808252600480361015610015575f80fd5b5f3560e01c91826306fdde03146104f957508163095ea7b31461045157816318160ddd1461043357816323b872dd14610341578163313ce5671461030457816340c10f191461025f57816370a082311461022957816395d89b411461010a57508063a9059cbb146100da5763dd62ed3e1461008e575f80fd5b346100d657806003193601126100d6576020906100a9610618565b6100b161062e565b9060018060a01b038091165f5260018452825f2091165f528252805f20549051908152f35b5f80fd5b50346100d657806003193601126100d6576020906101036100f9610618565b6024359033610644565b5160018152f35b82346100d6575f3660031901126100d6578051905f835460018160011c906001831692831561021f575b602093848410811461020c578388529081156101f0575060011461019c575b505050829003601f01601f191682019267ffffffffffffffff84118385101761018957508291826101859252826105d1565b0390f35b604190634e487b7160e01b5f525260245ffd5b5f878152929350837f8a35acfbc15ff81a39ae7d344fd709f28e8600b4aa8c65c6b64bfe7fe36bd19b5b8385106101dc5750505050830101848080610153565b8054888601830152930192849082016101c6565b60ff1916878501525050151560051b8401019050848080610153565b602289634e487b7160e01b5f525260245ffd5b91607f1691610134565b82346100d65760203660031901126100d6576020906001600160a01b0361024e610618565b165f525f8252805f20549051908152f35b82346100d657806003193601126100d657610278610618565b6001600160a01b031691602435919083156102ef57600254908382018092116102dc57505f927fddf252ad1be2c89b69c2b068fc378daa952ba7f163c4a11628f55a4df523b3ef9260209260025585855284835280852082815401905551908152a3005b601190634e487b7160e01b5f525260245ffd5b5f602492519163ec442f0560e01b8352820152fd5b82346100d6575f3660031901126100d6576020905160ff7f0000000000000000000000000000000000000000000000000000000000000000168152f35b9050346100d65760603660031901126100d65761035c610618565b61036461062e565b906044359260018060a01b038216805f526001602052855f20335f52602052855f2054915f19831061039f575b602087610103888888610644565b8583106104075781156103f15733156103db57505f90815260016020908152868220338352815290869020918590039091558290610103610391565b6024905f885191634a1406b160e11b8352820152fd5b6024905f88519163e602df0560e01b8352820152fd5b8651637dc7a0d960e11b8152339181019182526020820193909352604081018690528291506060010390fd5b82346100d6575f3660031901126100d6576020906002549051908152f35b82346100d657806003193601126100d65761046a610618565b6024359033156104e3576001600160a01b03169081156104cd5760209350335f5260018452825f20825f52845280835f205582519081527f8c5be1e5ebec7d5bd14f71427d1e84f3dd0314c0f7b2291e5b200ac8c7c3b925843392a35160018152f35b8251634a1406b160e11b81525f81860152602490fd5b825163e602df0560e01b81525f81860152602490fd5b83346100d6575f3660031901126100d6575f60035460018160011c90600183169283156105c7575b602093848410811461020c578388529081156101f0575060011461057157505050829003601f01601f191682019267ffffffffffffffff84118385101761018957508291826101859252826105d1565b60035f908152929350837fc2575a0e9e593c00f959f8c92f12db2869c3395a3b0502d05e2516446f71f85b5b8385106105b35750505050830101848080610153565b80548886018301529301928490820161059d565b91607f1691610521565b602080825282518183018190529093925f5b82811061060457505060409293505f838284010152601f8019910116010190565b8181018601518482016040015285016105e3565b600435906001600160a01b03821682036100d657565b602435906001600160a01b03821682036100d657565b916001600160a01b0380841692831561070657169283156106ee57825f525f60205260405f2054908282106106bc5750817fddf252ad1be2c89b69c2b068fc378daa952ba7f163c4a11628f55a4df523b3ef92602092855f525f84520360405f2055845f5260405f20818154019055604051908152a3565b60405163391434e360e21b81526001600160a01b03919091166004820152602481019190915260448101829052606490fd5b60405163ec442f0560e01b81525f6004820152602490fd5b604051634b637e8f60e11b81525f6004820152602490fdfea264697066735822122021d8c7cd7f5fea384dfb0235901b03d38e598113efcb8b85ac303308e74e4d7164736f6c63430008180033000000000000000000000000000000000000000000000000000000000000006000000000000000000000000000000000000000000000000000000000000000a00000000000000000000000000000000000000000000000000000000000000006000000000000000000000000000000000000000000000000000000000000000f4d6f636b2054657468657220555344000000000000000000000000000000000000000000000000000000000000000000000000000000000000000000000000056d55534454000000000000000000000000000000000000000000000000000000",
        "nonce": "0x3e",
        "chainId": "0xaa36a7"
      },
      "additionalContracts": [],
      "isFixedGasLimit": false
    },
    {
      "hash": "0x14dfe912ffabc97f59619a81a489ffd9cdf4e4576968964c0652c39fe16e0c60",
      "transactionType": "CALL",
      "contractName": "MockStablecoin",
      "contractAddress": "0x7c47aa550061117f8440128c6b829da5bf88de06",
      "function": "mint(address,uint256)",
      "arguments": [
        "0xFF6bdef4fB646EE44e29FE8FC0862B02F0Ba8a33",
        "10000000000000"
      ],
      "transaction": {
        "from": "0xff6bdef4fb646ee44e29fe8fc0862b02f0ba8a33",
        "to": "0x7c47aa550061117f8440128c6b829da5bf88de06",
        "gas": "0x16f79",
        "value": "0x0",
        "input": "0x40c10f19000000000000000000000000ff6bdef4fb646ee44e29fe8fc0862b02f0ba8a33000000000000000000000000000000000000000000000000000009184e72a000",
        "nonce": "0x3f",
        "chainId": "0xaa36a7"
      },
      "additionalContracts": [],
      "isFixedGasLimit": false
    },
    {
      "hash": "0x3bb6af11484251bb6d5c80d393c0bfdb422bafa774f624314d44f18757d852c8",
      "transactionType": "CREATE",
      "contractName": "MockStablecoin",
      "contractAddress": "0x3540ea8a6fa084a31321e790b89a6fbe677ae00e",
      "function": null,
      "arguments": [
        "Mock Dai",
        "mDAI",
        "18"
      ],
      "transaction": {
        "from": "0xff6bdef4fb646ee44e29fe8fc0862b02f0ba8a33",
        "gas": "0xa57d4",
        "value": "0x0",
        "input": "0x60a060405234620003885762000b77803803806200001d816200038c565b9283398101606082820312620003885781516001600160401b0391908281116200038857816200004f918501620003b2565b6020918285015184811162000388576040916200006e918701620003b2565b9401519260ff841684036200038857815181811162000293576003908154906001948583811c931680156200037d575b8784101462000369578190601f9384811162000316575b508790848311600114620002b3575f92620002a7575b50505f1982851b1c191690851b1782555b8651928311620002935760049485548581811c9116801562000288575b8282101462000275578281116200022d575b5080918411600114620001c4575082939495965f93620001b8575b505082841b925f19911b1c19161782555b46148015620001ac575b8015620001a1575b801562000195575b80156200018a575b6200017b575060805260405161075490816200042382396080518161031d0152f35b604051631295176d60e31b8152fd5b506089461462000159565b50612105461462000151565b50600a461462000149565b5061a4b1461462000141565b015191505f8062000126565b9190601f19841697865f52835f20935f905b8a821062000215575050848697989910620001fb575b50505050811b01825562000137565b01519060f8845f19921b161c191690555f808080620001ec565b808885978294968601518155019601930190620001d6565b865f52815f208380870160051c8201928488106200026b575b0160051c019086905b8281106200025f5750506200010b565b5f81550186906200024f565b9250819262000246565b602287634e487b7160e01b5f525260245ffd5b90607f1690620000f9565b634e487b7160e01b5f52604160045260245ffd5b015190505f80620000cb565b90879350601f19831691865f52895f20925f5b8b828210620002ff5750508411620002e7575b505050811b018255620000dc565b01515f1983871b60f8161c191690555f8080620002d9565b8385015186558b97909501949384019301620002c6565b909150845f52875f208480850160051c8201928a86106200035f575b918991869594930160051c01915b82811062000350575050620000b5565b5f815585945089910162000340565b9250819262000332565b634e487b7160e01b5f52602260045260245ffd5b92607f16926200009e565b5f80fd5b6040519190601f01601f191682016001600160401b038111838210176200029357604052565b919080601f84011215620003885782516001600160401b0381116200029357602090620003e8601f8201601f191683016200038c565b9281845282828701011162000388575f5b8181106200040e5750825f9394955001015290565b8581018301518482018401528201620003f956fe6080604090808252600480361015610015575f80fd5b5f3560e01c91826306fdde03146104f957508163095ea7b31461045157816318160ddd1461043357816323b872dd14610341578163313ce5671461030457816340c10f191461025f57816370a082311461022957816395d89b411461010a57508063a9059cbb146100da5763dd62ed3e1461008e575f80fd5b346100d657806003193601126100d6576020906100a9610618565b6100b161062e565b9060018060a01b038091165f5260018452825f2091165f528252805f20549051908152f35b5f80fd5b50346100d657806003193601126100d6576020906101036100f9610618565b6024359033610644565b5160018152f35b82346100d6575f3660031901126100d6578051905f835460018160011c906001831692831561021f575b602093848410811461020c578388529081156101f0575060011461019c575b505050829003601f01601f191682019267ffffffffffffffff84118385101761018957508291826101859252826105d1565b0390f35b604190634e487b7160e01b5f525260245ffd5b5f878152929350837f8a35acfbc15ff81a39ae7d344fd709f28e8600b4aa8c65c6b64bfe7fe36bd19b5b8385106101dc5750505050830101848080610153565b8054888601830152930192849082016101c6565b60ff1916878501525050151560051b8401019050848080610153565b602289634e487b7160e01b5f525260245ffd5b91607f1691610134565b82346100d65760203660031901126100d6576020906001600160a01b0361024e610618565b165f525f8252805f20549051908152f35b82346100d657806003193601126100d657610278610618565b6001600160a01b031691602435919083156102ef57600254908382018092116102dc57505f927fddf252ad1be2c89b69c2b068fc378daa952ba7f163c4a11628f55a4df523b3ef9260209260025585855284835280852082815401905551908152a3005b601190634e487b7160e01b5f525260245ffd5b5f602492519163ec442f0560e01b8352820152fd5b82346100d6575f3660031901126100d6576020905160ff7f0000000000000000000000000000000000000000000000000000000000000000168152f35b9050346100d65760603660031901126100d65761035c610618565b61036461062e565b906044359260018060a01b038216805f526001602052855f20335f52602052855f2054915f19831061039f575b602087610103888888610644565b8583106104075781156103f15733156103db57505f90815260016020908152868220338352815290869020918590039091558290610103610391565b6024905f885191634a1406b160e11b8352820152fd5b6024905f88519163e602df0560e01b8352820152fd5b8651637dc7a0d960e11b8152339181019182526020820193909352604081018690528291506060010390fd5b82346100d6575f3660031901126100d6576020906002549051908152f35b82346100d657806003193601126100d65761046a610618565b6024359033156104e3576001600160a01b03169081156104cd5760209350335f5260018452825f20825f52845280835f205582519081527f8c5be1e5ebec7d5bd14f71427d1e84f3dd0314c0f7b2291e5b200ac8c7c3b925843392a35160018152f35b8251634a1406b160e11b81525f81860152602490fd5b825163e602df0560e01b81525f81860152602490fd5b83346100d6575f3660031901126100d6575f60035460018160011c90600183169283156105c7575b602093848410811461020c578388529081156101f0575060011461057157505050829003601f01601f191682019267ffffffffffffffff84118385101761018957508291826101859252826105d1565b60035f908152929350837fc2575a0e9e593c00f959f8c92f12db2869c3395a3b0502d05e2516446f71f85b5b8385106105b35750505050830101848080610153565b80548886018301529301928490820161059d565b91607f1691610521565b602080825282518183018190529093925f5b82811061060457505060409293505f838284010152601f8019910116010190565b8181018601518482016040015285016105e3565b600435906001600160a01b03821682036100d657565b602435906001600160a01b03821682036100d657565b916001600160a01b0380841692831561070657169283156106ee57825f525f60205260405f2054908282106106bc5750817fddf252ad1be2c89b69c2b068fc378daa952ba7f163c4a11628f55a4df523b3ef92602092855f525f84520360405f2055845f5260405f20818154019055604051908152a3565b60405163391434e360e21b81526001600160a01b03919091166004820152602481019190915260448101829052606490fd5b60405163ec442f0560e01b81525f6004820152602490fd5b604051634b637e8f60e11b81525f6004820152602490fdfea264697066735822122021d8c7cd7f5fea384dfb0235901b03d38e598113efcb8b85ac303308e74e4d7164736f6c63430008180033000000000000000000000000000000000000000000000000000000000000006000000000000000000000000000000000000000000000000000000000000000a0000000000000000000000000000000000000000000000000000000000000001200000000000000000000000000000000000000000000000000000000000000084d6f636b2044616900000000000000000000000000000000000000000000000000000000000000000000000000000000000000000000000000000000000000046d44414900000000000000000000000000000000000000000000000000000000",
        "nonce": "0x40",
        "chainId": "0xaa36a7"
      },
      "additionalContracts": [],
      "isFixedGasLimit": false
    },
    {
      "hash": "0xed0a267267f53bd53287e7d6139bfd0dc47d35c73fb9b21e58b95344da2f6c53",
      "transactionType": "CALL",
      "contractName": "MockStablecoin",
      "contractAddress": "0x3540ea8a6fa084a31321e790b89a6fbe677ae00e",
      "function": "mint(address,uint256)",
      "arguments": [
        "0xFF6bdef4fB646EE44e29FE8FC0862B02F0Ba8a33",
        "10000000000000000000000000"
      ],
      "transaction": {
        "from": "0xff6bdef4fb646ee44e29fe8fc0862b02f0ba8a33",
        "to": "0x3540ea8a6fa084a31321e790b89a6fbe677ae00e",
        "gas": "0x16fab",
        "value": "0x0",
        "input": "0x40c10f19000000000000000000000000ff6bdef4fb646ee44e29fe8fc0862b02f0ba8a33000000000000000000000000000000000000000000084595161401484a000000",
        "nonce": "0x41",
        "chainId": "0xaa36a7"
      },
      "additionalContracts": [],
      "isFixedGasLimit": false
    },
    {
      "hash": "0xeb63808ba2f94f63aa6c8eaae56d6370a77da7a663c32350ecade77602305f66",
      "transactionType": "CREATE",
      "contractName": "MockOracle",
      "contractAddress": "0xe06f38ca95a89b349fd7a5802fe986c1f7b5c9f8",
      "function": null,
      "arguments": [
        "100000000",
        "8"
      ],
      "transaction": {
        "from": "0xff6bdef4fb646ee44e29fe8fc0862b02f0ba8a33",
        "gas": "0x49563",
        "value": "0x0",
        "input": "0x60803461009057601f61023a38819003918201601f19168301916001600160401b0383118484101761009457808492604094855283398101031261009057602081519101519060ff821680920361009057600380546001600160a01b0319166a01000000000000000000011790555f556001805460ff19169190911790554260025560405161019190816100a98239f35b5f80fd5b634e487b7160e01b5f52604160045260245ffdfe6080806040526004361015610012575f80fd5b5f3560e01c9081631ecc7d8814610142578163313ce5671461012557508063b3d59861146100bd578063f7a30806146100a15763feaf968c14610053575f80fd5b3461009d575f36600319011261009d5760a060035469ffffffffffffffffffff5f54916002546040519383831685526020850152426040850152606084015260501c166080820152f35b5f80fd5b3461009d57602036600319011261009d576004355f5542600255005b3461009d57604036600319011261009d5760043569ffffffffffffffffffff9081811680910361009d57602435918216820361009d576003549169ffffffffffffffffffff60501b9060501b16916bffffffffffffffffffffffff60a01b1617176003555f80f35b3461009d575f36600319011261009d5760209060ff600154168152f35b3461009d57602036600319011261009d5760043560025500fea2646970667358221220028cda59eef60da6c1be526cc3599d16692de49e3b7101ded9f8482a9130b7af64736f6c634300081800330000000000000000000000000000000000000000000000000000000005f5e1000000000000000000000000000000000000000000000000000000000000000008",
        "nonce": "0x42",
        "chainId": "0xaa36a7"
      },
      "additionalContracts": [],
      "isFixedGasLimit": false
    },
    {
      "hash": "0x06d2357926cae45648374c4ec6df146ddb76609fa8ff807fb888b3a6c9a26c3b",
      "transactionType": "CREATE",
      "contractName": "MockOracle",
      "contractAddress": "0xcf8e383514a499add0ffc8ea463f7fe418a1b4a7",
      "function": null,
      "arguments": [
        "100000000",
        "8"
      ],
      "transaction": {
        "from": "0xff6bdef4fb646ee44e29fe8fc0862b02f0ba8a33",
        "gas": "0x49563",
        "value": "0x0",
        "input": "0x60803461009057601f61023a38819003918201601f19168301916001600160401b0383118484101761009457808492604094855283398101031261009057602081519101519060ff821680920361009057600380546001600160a01b0319166a01000000000000000000011790555f556001805460ff19169190911790554260025560405161019190816100a98239f35b5f80fd5b634e487b7160e01b5f52604160045260245ffdfe6080806040526004361015610012575f80fd5b5f3560e01c9081631ecc7d8814610142578163313ce5671461012557508063b3d59861146100bd578063f7a30806146100a15763feaf968c14610053575f80fd5b3461009d575f36600319011261009d5760a060035469ffffffffffffffffffff5f54916002546040519383831685526020850152426040850152606084015260501c166080820152f35b5f80fd5b3461009d57602036600319011261009d576004355f5542600255005b3461009d57604036600319011261009d5760043569ffffffffffffffffffff9081811680910361009d57602435918216820361009d576003549169ffffffffffffffffffff60501b9060501b16916bffffffffffffffffffffffff60a01b1617176003555f80f35b3461009d575f36600319011261009d5760209060ff600154168152f35b3461009d57602036600319011261009d5760043560025500fea2646970667358221220028cda59eef60da6c1be526cc3599d16692de49e3b7101ded9f8482a9130b7af64736f6c634300081800330000000000000000000000000000000000000000000000000000000005f5e1000000000000000000000000000000000000000000000000000000000000000008",
        "nonce": "0x43",
        "chainId": "0xaa36a7"
      },
      "additionalContracts": [],
      "isFixedGasLimit": false
    },
    {
      "hash": "0x2d96b52c82e9adc099d2da251a9df9aee27e7e985ebf8d5092f8258ce54c0a59",
      "transactionType": "CALL",
      "contractName": null,
      "contractAddress": "0xa4ded8ab35e89bcaf1f7dfeb7ab2c1ed533b3f05",
      "function": "addGrowfiTreasuryStablecoin(address,uint256,address,uint64,uint16,uint16)",
      "arguments": [
        "0x7c47aA550061117f8440128C6B829da5bF88dE06",
        "1000000000000",
        "0xe06f38ca95A89B349fD7a5802fe986c1f7b5C9f8",
        "86400",
        "9500",
        "10500"
      ],
      "transaction": {
        "from": "0xff6bdef4fb646ee44e29fe8fc0862b02f0ba8a33",
        "to": "0xa4ded8ab35e89bcaf1f7dfeb7ab2c1ed533b3f05",
        "gas": "0x2f4ea",
        "value": "0x0",
        "input": "0x71a4feae0000000000000000000000007c47aa550061117f8440128c6b829da5bf88de06000000000000000000000000000000000000000000000000000000e8d4a51000000000000000000000000000e06f38ca95a89b349fd7a5802fe986c1f7b5c9f80000000000000000000000000000000000000000000000000000000000015180000000000000000000000000000000000000000000000000000000000000251c0000000000000000000000000000000000000000000000000000000000002904",
        "nonce": "0x44",
        "chainId": "0xaa36a7"
      },
      "additionalContracts": [],
      "isFixedGasLimit": false
    },
    {
      "hash": "0x6c29580f5f8211157c010041275379f869ad3ad4a12a1f9549df85d733e80f43",
      "transactionType": "CALL",
      "contractName": null,
      "contractAddress": "0xa4ded8ab35e89bcaf1f7dfeb7ab2c1ed533b3f05",
      "function": "addGrowfiTreasuryStablecoin(address,uint256,address,uint64,uint16,uint16)",
      "arguments": [
        "0x3540ea8A6fA084a31321E790b89a6fbe677ae00e",
        "1",
        "0xcF8E383514A499Add0FFC8Ea463F7fe418A1b4a7",
        "86400",
        "9500",
        "10500"
      ],
      "transaction": {
        "from": "0xff6bdef4fb646ee44e29fe8fc0862b02f0ba8a33",
        "to": "0xa4ded8ab35e89bcaf1f7dfeb7ab2c1ed533b3f05",
        "gas": "0x2f4c9",
        "value": "0x0",
        "input": "0x71a4feae0000000000000000000000003540ea8a6fa084a31321e790b89a6fbe677ae00e0000000000000000000000000000000000000000000000000000000000000001000000000000000000000000cf8e383514a499add0ffc8ea463f7fe418a1b4a70000000000000000000000000000000000000000000000000000000000015180000000000000000000000000000000000000000000000000000000000000251c0000000000000000000000000000000000000000000000000000000000002904",
        "nonce": "0x45",
        "chainId": "0xaa36a7"
      },
      "additionalContracts": [],
      "isFixedGasLimit": false
    }
  ],
  "receipts": [
    {
      "status": "0x1",
      "cumulativeGasUsed": "0xe5c7e6",
      "logs": [],
      "logsBloom": "0x00000000000000000000000000000000000000000000000000000000000000000000000000000000000000000000000000000000000000000000000000000000000000000000000000000000000000000000000000000000000000000000000000000000000000000000000000000000000000000000000000000000000000000000000000000000000000000000000000000000000000000000000000000000000000000000000000000000000000000000000000000000000000000000000000000000000000000000000000000000000000000000000000000000000000000000000000000000000000000000000000000000000000000000000000000000",
      "type": "0x2",
      "transactionHash": "0xfc8db2f3522900be2141e16bf464864d4ccbb9db4a72cd9a136e4ad7848834d7",
      "transactionIndex": "0x64",
      "blockHash": "0xa5c8fb9be367a45a52e2ad7a2e5692c45e3fa857ee8f9a7aa017d024e6e0ad2c",
      "blockNumber": "0xa563ea",
      "gasUsed": "0x7f52b",
      "effectiveGasPrice": "0xf629b",
      "from": "0xff6bdef4fb646ee44e29fe8fc0862b02f0ba8a33",
      "to": null,
      "contractAddress": "0x7c47aa550061117f8440128c6b829da5bf88de06"
    },
    {
      "status": "0x1",
      "cumulativeGasUsed": "0x17a9a21",
      "logs": [
        {
          "address": "0x7c47aa550061117f8440128c6b829da5bf88de06",
          "topics": [
            "0xddf252ad1be2c89b69c2b068fc378daa952ba7f163c4a11628f55a4df523b3ef",
            "0x0000000000000000000000000000000000000000000000000000000000000000",
            "0x000000000000000000000000ff6bdef4fb646ee44e29fe8fc0862b02f0ba8a33"
          ],
          "data": "0x000000000000000000000000000000000000000000000000000009184e72a000",
          "blockHash": "0x34a18542086f4b91e43c305f2a8ff5a907203aac7417ad0977d143a12dbb6e64",
          "blockNumber": "0xa563eb",
          "blockTimestamp": "0x6a0323fc",
          "transactionHash": "0x14dfe912ffabc97f59619a81a489ffd9cdf4e4576968964c0652c39fe16e0c60",
          "transactionIndex": "0xb6",
          "logIndex": "0x24e",
          "removed": false
        }
      ],
      "logsBloom": "0x00000000000000000000100000000000000000000000000000000000000000000000000000000000000000000000000000000000000000000000000000000000000000000000000000000008000000000000000000000001000000000000000000000000020000000000000000000800000000000000000000000010000000000000000000000000000000000000000000000000000000000000000000000000000000000040000000000000000000000000000000000000000000000000000000000002000000000000000000010000000000000000000000000000000020000000000000000000000000000000000000000000000000000000200004000000",
      "type": "0x2",
      "transactionHash": "0x14dfe912ffabc97f59619a81a489ffd9cdf4e4576968964c0652c39fe16e0c60",
      "transactionIndex": "0xb6",
      "blockHash": "0x34a18542086f4b91e43c305f2a8ff5a907203aac7417ad0977d143a12dbb6e64",
      "blockNumber": "0xa563eb",
      "gasUsed": "0x10a0c",
      "effectiveGasPrice": "0xf61ec",
      "from": "0xff6bdef4fb646ee44e29fe8fc0862b02f0ba8a33",
      "to": "0x7c47aa550061117f8440128c6b829da5bf88de06",
      "contractAddress": null
    },
    {
      "status": "0x1",
      "cumulativeGasUsed": "0x1669f9c",
      "logs": [],
      "logsBloom": "0x00000000000000000000000000000000000000000000000000000000000000000000000000000000000000000000000000000000000000000000000000000000000000000000000000000000000000000000000000000000000000000000000000000000000000000000000000000000000000000000000000000000000000000000000000000000000000000000000000000000000000000000000000000000000000000000000000000000000000000000000000000000000000000000000000000000000000000000000000000000000000000000000000000000000000000000000000000000000000000000000000000000000000000000000000000000",
      "type": "0x2",
      "transactionHash": "0x3bb6af11484251bb6d5c80d393c0bfdb422bafa774f624314d44f18757d852c8",
      "transactionIndex": "0x9d",
      "blockHash": "0x423ef127554422c1d5a8a9cb296f77b803698fb8e4f580e8901eccc6b7f42878",
      "blockNumber": "0xa563ec",
      "gasUsed": "0x7f4cb",
      "effectiveGasPrice": "0xf6151",
      "from": "0xff6bdef4fb646ee44e29fe8fc0862b02f0ba8a33",
      "to": null,
      "contractAddress": "0x3540ea8a6fa084a31321e790b89a6fbe677ae00e"
    },
    {
      "status": "0x1",
      "cumulativeGasUsed": "0xa92381",
      "logs": [
        {
          "address": "0x3540ea8a6fa084a31321e790b89a6fbe677ae00e",
          "topics": [
            "0xddf252ad1be2c89b69c2b068fc378daa952ba7f163c4a11628f55a4df523b3ef",
            "0x0000000000000000000000000000000000000000000000000000000000000000",
            "0x000000000000000000000000ff6bdef4fb646ee44e29fe8fc0862b02f0ba8a33"
          ],
          "data": "0x000000000000000000000000000000000000000000084595161401484a000000",
          "blockHash": "0x344b2e793df47507a9b1609775ff4358836f01a02ca2fd28f726d2cfe71acecf",
          "blockNumber": "0xa563ed",
          "blockTimestamp": "0x6a032420",
          "transactionHash": "0xed0a267267f53bd53287e7d6139bfd0dc47d35c73fb9b21e58b95344da2f6c53",
          "transactionIndex": "0x4d",
          "logIndex": "0xd1",
          "removed": false
        }
      ],
      "logsBloom": "0x00000000000000000000100000000000000000000000000000000000000000000000000000000000002000000000000000000000000000000000000000000000000000000000000000000008000000000000000000000001000000000000000000000000020000000000000000000800000000000000000000000010000000000000000000000000000000000000000000000000000000000000000000000000000000000000000000000010002000000000000000000000000000000000000000000002000000000000000000010000000000000000000000000000000020000000000000000000000000000000000000000000000000000000000000000000",
      "type": "0x2",
      "transactionHash": "0xed0a267267f53bd53287e7d6139bfd0dc47d35c73fb9b21e58b95344da2f6c53",
      "transactionIndex": "0x4d",
      "blockHash": "0x344b2e793df47507a9b1609775ff4358836f01a02ca2fd28f726d2cfe71acecf",
      "blockNumber": "0xa563ed",
      "gasUsed": "0x10a30",
      "effectiveGasPrice": "0xf626c",
      "from": "0xff6bdef4fb646ee44e29fe8fc0862b02f0ba8a33",
      "to": "0x3540ea8a6fa084a31321e790b89a6fbe677ae00e",
      "contractAddress": null
    },
    {
      "status": "0x1",
      "cumulativeGasUsed": "0x1d344fb",
      "logs": [],
      "logsBloom": "0x00000000000000000000000000000000000000000000000000000000000000000000000000000000000000000000000000000000000000000000000000000000000000000000000000000000000000000000000000000000000000000000000000000000000000000000000000000000000000000000000000000000000000000000000000000000000000000000000000000000000000000000000000000000000000000000000000000000000000000000000000000000000000000000000000000000000000000000000000000000000000000000000000000000000000000000000000000000000000000000000000000000000000000000000000000000",
      "type": "0x2",
      "transactionHash": "0xeb63808ba2f94f63aa6c8eaae56d6370a77da7a663c32350ecade77602305f66",
      "transactionIndex": "0xba",
      "blockHash": "0xb5c63e623a632072223fc052539f95333b7d6bc6ee9ebe01269175c5bb8342ae",
      "blockNumber": "0xa563ee",
      "gasUsed": "0x3869b",
      "effectiveGasPrice": "0xf60dd",
      "from": "0xff6bdef4fb646ee44e29fe8fc0862b02f0ba8a33",
      "to": null,
      "contractAddress": "0xe06f38ca95a89b349fd7a5802fe986c1f7b5c9f8"
    },
    {
      "status": "0x1",
      "cumulativeGasUsed": "0xaf7b75",
      "logs": [],
      "logsBloom": "0x00000000000000000000000000000000000000000000000000000000000000000000000000000000000000000000000000000000000000000000000000000000000000000000000000000000000000000000000000000000000000000000000000000000000000000000000000000000000000000000000000000000000000000000000000000000000000000000000000000000000000000000000000000000000000000000000000000000000000000000000000000000000000000000000000000000000000000000000000000000000000000000000000000000000000000000000000000000000000000000000000000000000000000000000000000000",
      "type": "0x2",
      "transactionHash": "0x06d2357926cae45648374c4ec6df146ddb76609fa8ff807fb888b3a6c9a26c3b",
      "transactionIndex": "0x3a",
      "blockHash": "0xa1d65df92a89f815d73557cf054a02f466c9db53cfe252d10c22a8cd655a0bc3",
      "blockNumber": "0xa563ef",
      "gasUsed": "0x3869b",
      "effectiveGasPrice": "0xf634f",
      "from": "0xff6bdef4fb646ee44e29fe8fc0862b02f0ba8a33",
      "to": null,
      "contractAddress": "0xcf8e383514a499add0ffc8ea463f7fe418a1b4a7"
    },
    {
      "status": "0x1",
      "cumulativeGasUsed": "0xe9871a",
      "logs": [
        {
          "address": "0xb71d13f80ceaed17a179b4e0d9eb1e8410deaddd",
          "topics": [
            "0x1ede2949888e48efd264887343f6e295304305abe5ad230701157a0b160c3775",
            "0x0000000000000000000000007c47aa550061117f8440128c6b829da5bf88de06"
          ],
          "data": "0x000000000000000000000000000000000000000000000000000000e8d4a51000000000000000000000000000e06f38ca95a89b349fd7a5802fe986c1f7b5c9f80000000000000000000000000000000000000000000000000000000000015180000000000000000000000000000000000000000000000000000000000000251c0000000000000000000000000000000000000000000000000000000000002904",
          "blockHash": "0x4a559c436695df023006ec76bc676b37dec2bce3c061f6bc3faaddf4759dab8d",
          "blockNumber": "0xa563f0",
          "blockTimestamp": "0x6a032450",
          "transactionHash": "0x2d96b52c82e9adc099d2da251a9df9aee27e7e985ebf8d5092f8258ce54c0a59",
          "transactionIndex": "0x6c",
          "logIndex": "0x1e6",
          "removed": false
        }
      ],
      "logsBloom": "0x00000000000010000000000000000000000000000000000000000000000000020000000000000008000000000000000000000000000000000000000000000000000000000000000000000000000000000000000000000000000000000000000000000000000000000000000000000000000000000000000000000200000000000000020000000000000000000000000000000000000000000000000200000000000000000000000000000000000000000000008000000000000000000000000000000000000000000000000000000000000000000000000010000000000000000000000000000000000000000000000000000000004000000000000000000000",
      "type": "0x2",
      "transactionHash": "0x2d96b52c82e9adc099d2da251a9df9aee27e7e985ebf8d5092f8258ce54c0a59",
      "transactionIndex": "0x6c",
      "blockHash": "0x4a559c436695df023006ec76bc676b37dec2bce3c061f6bc3faaddf4759dab8d",
      "blockNumber": "0xa563f0",
      "gasUsed": "0x223ff",
      "effectiveGasPrice": "0xf6207",
      "from": "0xff6bdef4fb646ee44e29fe8fc0862b02f0ba8a33",
      "to": "0xa4ded8ab35e89bcaf1f7dfeb7ab2c1ed533b3f05",
      "contractAddress": null
    },
    {
      "status": "0x1",
      "cumulativeGasUsed": "0x1744af3",
      "logs": [
        {
          "address": "0xb71d13f80ceaed17a179b4e0d9eb1e8410deaddd",
          "topics": [
            "0x1ede2949888e48efd264887343f6e295304305abe5ad230701157a0b160c3775",
            "0x0000000000000000000000003540ea8a6fa084a31321e790b89a6fbe677ae00e"
          ],
          "data": "0x0000000000000000000000000000000000000000000000000000000000000001000000000000000000000000cf8e383514a499add0ffc8ea463f7fe418a1b4a70000000000000000000000000000000000000000000000000000000000015180000000000000000000000000000000000000000000000000000000000000251c0000000000000000000000000000000000000000000000000000000000002904",
          "blockHash": "0x5aec73c9738f07359f9681dedf685f18f497f0a75db95b08888cf13e2880ec48",
          "blockNumber": "0xa563f1",
          "blockTimestamp": "0x6a03245c",
          "transactionHash": "0x6c29580f5f8211157c010041275379f869ad3ad4a12a1f9549df85d733e80f43",
          "transactionIndex": "0x7d",
          "logIndex": "0x30a",
          "removed": false
        }
      ],
      "logsBloom": "0x00000000000000000000000000000000000000000000000000000000000000020000000000000000000000000000000000000000000000000000000000000000000000000000000000000000000000000000000000000000000000000000000000000000000000000000000020000000000000000000000000000200000000000000020000000000000000000000000000000000000000000000000200000000000000000020000000000000000000000000008000000000000000000000000000000000000000000000000000000000000000000000000010000000000000000000000001000000000000000000000000000000000000000000000000000000",
      "type": "0x2",
      "transactionHash": "0x6c29580f5f8211157c010041275379f869ad3ad4a12a1f9549df85d733e80f43",
      "transactionIndex": "0x7d",
      "blockHash": "0x5aec73c9738f07359f9681dedf685f18f497f0a75db95b08888cf13e2880ec48",
      "blockNumber": "0xa563f1",
      "gasUsed": "0x223e7",
      "effectiveGasPrice": "0xf6108",
      "from": "0xff6bdef4fb646ee44e29fe8fc0862b02f0ba8a33",
      "to": "0xa4ded8ab35e89bcaf1f7dfeb7ab2c1ed533b3f05",
      "contractAddress": null
    }
  ],
  "libraries": [],
  "pending": [],
  "returns": {},
  "timestamp": 1778590812601,
  "chain": 11155111,
  "commit": "00fe15d"
}