{
  "transactions": [
    {
      "hash": "0x798d48ebc02da537fc1770cea319e97afcd1c60d3067648f6586618b9664d6ad",
      "transactionType": "CALL",
      "contractName": null,
      "contractAddress": "0x73d677db3425edee764bf47c66dbb15217eefff6",
      "function": "setMinSeasonDuration(uint256)",
      "arguments": [
        "1800"
      ],
      "transaction": {
        "from": "0xff6bdef4fb646ee44e29fe8fc0862b02f0ba8a33",
        "to": "0x73d677db3425edee764bf47c66dbb15217eefff6",
        "gas": "0xbc5e",
        "value": "0x0",
        "input": "0x4cd9c82d0000000000000000000000000000000000000000000000000000000000000708",
        "nonce": "0x100",
        "chainId": "0x14a34"
      },
      "additionalContracts": [],
      "isFixedGasLimit": false
    },
    {
      "hash": "0x3f46eb787c30d07b32879e2c5677d9ea9683e6ca5c6b34410369abc887863d4b",
      "transactionType": "CALL",
      "contractName": null,
      "contractAddress": "0x73d677db3425edee764bf47c66dbb15217eefff6",
      "function": "createCampaign((address,string,string,string,string,uint256,uint256,uint256,uint256,uint256,uint256,uint256,uint256,uint256,uint256))",
      "arguments": [
        "(0xFF6bdef4fB646EE44e29FE8FC0862B02F0Ba8a33, Olive IGP Sicily, OLIVE, Olive Yield, oYIELD, 144000000000000000, 100000000000000000000000, 350000000000000000000000, 1777478512, 1800, 1000000000000000000, 5000000000000000000000, 250000000000000000000, 2030, 3)"
      ],
      "transaction": {
        "from": "0xff6bdef4fb646ee44e29fe8fc0862b02f0ba8a33",
        "to": "0x73d677db3425edee764bf47c66dbb15217eefff6",
        "gas": "0x55256f",
        "value": "0x0",
        "input": "0xdd6f93a10000000000000000000000000000000000000000000000000000000000000020000000000000000000000000ff6bdef4fb646ee44e29fe8fc0862b02f0ba8a3300000000000000000000000000000000000000000000000000000000000001e00000000000000000000000000000000000000000000000000000000000000220000000000000000000000000000000000000000000000000000000000000026000000000000000000000000000000000000000000000000000000000000002a000000000000000000000000000000000000000000000000001ff973cafa8000000000000000000000000000000000000000000000000152d02c7e14af6800000000000000000000000000000000000000000000000004a1d89bb94865ec000000000000000000000000000000000000000000000000000000000000069f22b7000000000000000000000000000000000000000000000000000000000000007080000000000000000000000000000000000000000000000000de0b6b3a764000000000000000000000000000000000000000000000000010f0cf064dd5920000000000000000000000000000000000000000000000000000d8d726b7177a8000000000000000000000000000000000000000000000000000000000000000007ee000000000000000000000000000000000000000000000000000000000000000300000000000000000000000000000000000000000000000000000000000000104f6c6976652049475020536963696c790000000000000000000000000000000000000000000000000000000000000000000000000000000000000000000000054f4c495645000000000000000000000000000000000000000000000000000000000000000000000000000000000000000000000000000000000000000000000b4f6c697665205969656c6400000000000000000000000000000000000000000000000000000000000000000000000000000000000000000000000000000000066f5949454c440000000000000000000000000000000000000000000000000000",
        "nonce": "0x101",
        "chainId": "0x14a34"
      },
      "additionalContracts": [
        {
          "transactionType": "CREATE",
          "contractName": "TransparentUpgradeableProxy",
          "address": "0x97bf2400d8c6d6e2c32fa0bb2c87269b62d677d2",
          "initCode": "0x604060a08152610aac8038038061001581610268565b9283398101906060818303126102645761002e8161028d565b60209161003c83820161028d565b8582015190916001600160401b039190828211610264570185601f82011215610264578051908282116101ef5761007b601f8301601f19168701610268565b968288528683830101116102645785905f5b8381106102505750505f918701015284511561023f57823b1561021f577f360894a13ba1a3210667c828492db98dca3e2076cc3735a920a3ca505d382bbc80546001600160a01b03199081166001600160a01b03868116918217909355885192979195907fbc7cd75a20ee27fd9adebab32041f755214dbc6bffa90cc0225b39da2e5c2d3b5f80a28151156102035761012692506102a1565b505b85519161048391828401908111848210176101ef57868492879461062985391681520301905ff080156101e557831691826080527f7e644d79422f17c01e4894b5f4f588d331ebfa28653d42ae832dc59e38c9798f857fb53127684a568b3173ae13b9f8a6016e243e63b6e8ee1178d6a717850b5d6103958587549483519286168352820152a182156101ce5716179055516102f69081610333823960805181600f0152f35b8451633173bdd160e11b81525f6004820152602490fd5b84513d5f823e3d90fd5b634e487b7160e01b5f52604160045260245ffd5b5050346102105750610128565b63b398979f60e01b8152600490fd5b8551634c9c8ce360e01b81526001600160a01b0384166004820152602490fd5b85516330a289cf60e21b8152600490fd5b81810183015189820184015287920161008d565b5f80fd5b6040519190601f01601f191682016001600160401b038111838210176101ef57604052565b51906001600160a01b038216820361026457565b905f8091602081519101845af4808061031f575b156102d55750506040513d81523d5f602083013e60203d82010160405290565b156102fc57604051639996b31560e01b81526001600160a01b039091166004820152602490fd5b3d1561030d576040513d5f823e3d90fd5b60405163d6bda27560e01b8152600490fd5b503d1515806102b55750813b15156102b556fe60806040526001600160a01b03337f000000000000000000000000000000000000000000000000000000000000000082160361006a575f356001600160e01b03191663278f794360e11b14610060576040516334ad5dbb60e21b8152600490fd5b6100686100be565b005b5f80917f360894a13ba1a3210667c828492db98dca3e2076cc3735a920a3ca505d382bbc5416368280378136915af43d5f803e156100a6573d5ff35b3d5ffd5b634e487b7160e01b5f52604160045260245ffd5b3660041161015f57604036600319011261015f576004356001600160a01b0381169081900361015f576024359067ffffffffffffffff9081831161015f573660238401121561015f5782600401358281116101635760405192601f8201601f19908116603f011684019081118482101761016357604052808352366024828601011161015f576020815f92602461015d97018387013784010152610168565b565b5f80fd5b6100aa565b90813b156101ff577f360894a13ba1a3210667c828492db98dca3e2076cc3735a920a3ca505d382bbc80546001600160a01b0319166001600160a01b0384169081179091557fbc7cd75a20ee27fd9adebab32041f755214dbc6bffa90cc0225b39da2e5c2d3b5f80a28051156101e4576101e191610220565b50565b5050346101ed57565b60405163b398979f60e01b8152600490fd5b604051634c9c8ce360e01b81526001600160a01b0383166004820152602490fd5b905f8091602081519101845af48080610289575b156102465750506102436102a7565b90565b1561026e57604051639996b31560e01b81526001600160a01b03919091166004820152602490fd5b3d15155f0361029c5760405163d6bda27560e01b8152600490fd5b503d1515806102345750813b1515610234565b6040513d5f823e3d90fd5b604051903d82523d5f602084013e60203d83010160405256fea2646970667358221220371437a14d55b0192ed17af74450cdb0b22bf1f3d480185986e4348c96e968d064736f6c634300081800336080346100b957601f61048338819003918201601f19168301916001600160401b038311848410176100bd578084926020946040528339810103126100b957516001600160a01b0390818116908190036100b95780156100a1575f80546001600160a01b03198116831782556040519316907f8be0079c531659141344cd1fd0a4f28419497f9722a3daafe3b4186f6b6457e09080a36103b190816100d28239f35b604051631e4fbdf760e01b81525f6004820152602490fd5b5f80fd5b634e487b7160e01b5f52604160045260245ffdfe604060808152600480361015610013575f80fd5b5f915f3560e01c8063715018a6146102bb5780638da5cb5b146102945780639623609d1461015c578063ad3cb1cc146100eb5763f2fde38b14610054575f80fd5b346100e75760203660031901126100e7576001600160a01b038235818116939192908490036100e357610085610350565b83156100cd5750505f54826bffffffffffffffffffffffff60a01b8216175f55167f8be0079c531659141344cd1fd0a4f28419497f9722a3daafe3b4186f6b6457e05f80a380f35b51631e4fbdf760e01b8152908101849052602490fd5b5f80fd5b8280fd5b5082346101595780600319360112610159575080519080820182811067ffffffffffffffff821117610146576101429350815260058252640352e302e360dc1b602083015251918291602083526020830190610312565b0390f35b604184634e487b7160e01b5f525260245ffd5b80fd5b5060603660031901126100e3576001600160a01b03823581811693908490036100e35760249182359081168091036100e35767ffffffffffffffff906044358281116100e357366023820112156100e3578084013583811161028257865191601f8201601f19908116603f0116830185811184821017610270578852818352368783830101116100e357815f92886020930183860137830101526101fe610350565b863b156100e357610230965f92875180998194829363278f794360e11b8452898401528a8a8401526044830190610312565b039134905af1801561026657610244578580f35b909192938095501161025557505052005b604190634e487b7160e01b5f52525ffd5b84513d5f823e3d90fd5b87604188634e487b7160e01b5f52525ffd5b85604186634e487b7160e01b5f52525ffd5b50346100e3575f3660031901126100e3575f5490516001600160a01b039091168152602090f35b346100e3575f3660031901126100e3576102d3610350565b5f80546001600160a01b0319811682556001600160a01b03167f8be0079c531659141344cd1fd0a4f28419497f9722a3daafe3b4186f6b6457e08280a3005b91908251928382525f5b84811061033c575050825f602080949584010152601f8019910116010190565b60208183018101518483018201520161031c565b5f546001600160a01b0316330361036357565b60405163118cdaa760e01b8152336004820152602490fdfea26469706673582212202992a71449476404159c12582e1f3d5c014ae92bc1369e2e03b37152567a3c7d64736f6c634300081800330000000000000000000000002cc441de7f38c34057b822dc486f3dd9061fea73000000000000000000000000ff6bdef4fb646ee44e29fe8fc0862b02f0ba8a3300000000000000000000000000000000000000000000000000000000000000600000000000000000000000000000000000000000000000000000000000000204e1e228ab000000000000000000000000ff6bdef4fb646ee44e29fe8fc0862b02f0ba8a3300000000000000000000000073d677db3425edee764bf47c66dbb15217eefff600000000000000000000000000000000000000000000000001ff973cafa8000000000000000000000000000000000000000000000000152d02c7e14af6800000000000000000000000000000000000000000000000004a1d89bb94865ec000000000000000000000000000000000000000000000000000000000000069f22b70000000000000000000000000000000000000000000000000000000000000070800000000000000000000000000000000000000000000000000000000000000c8000000000000000000000000000000000000000000000000000000000000012c00000000000000000000000000000000000000000000010f0cf064dd5920000000000000000000000000000000000000000000000000000d8d726b7177a8000000000000000000000000000000000000000000000000000000000000000007ee0000000000000000000000000000000000000000000000000000000000000003000000000000000000000000ff6bdef4fb646ee44e29fe8fc0862b02f0ba8a330000000000000000000000000000000000000000000000000000000000000000000000000000000000000000a07e3dbb5bc40f11723213e3a236b408b862c1ff00000000000000000000000000000000000000000000000000000000"
        },
        {
          "transactionType": "CREATE",
          "contractName": "ProxyAdmin",
          "address": "0xa1ad432198d031a193dfe66249727bad8e3e5bdc",
          "initCode": "0x6080346100b957601f61048338819003918201601f19168301916001600160401b038311848410176100bd578084926020946040528339810103126100b957516001600160a01b0390818116908190036100b95780156100a1575f80546001600160a01b03198116831782556040519316907f8be0079c531659141344cd1fd0a4f28419497f9722a3daafe3b4186f6b6457e09080a36103b190816100d28239f35b604051631e4fbdf760e01b81525f6004820152602490fd5b5f80fd5b634e487b7160e01b5f52604160045260245ffdfe604060808152600480361015610013575f80fd5b5f915f3560e01c8063715018a6146102bb5780638da5cb5b146102945780639623609d1461015c578063ad3cb1cc146100eb5763f2fde38b14610054575f80fd5b346100e75760203660031901126100e7576001600160a01b038235818116939192908490036100e357610085610350565b83156100cd5750505f54826bffffffffffffffffffffffff60a01b8216175f55167f8be0079c531659141344cd1fd0a4f28419497f9722a3daafe3b4186f6b6457e05f80a380f35b51631e4fbdf760e01b8152908101849052602490fd5b5f80fd5b8280fd5b5082346101595780600319360112610159575080519080820182811067ffffffffffffffff821117610146576101429350815260058252640352e302e360dc1b602083015251918291602083526020830190610312565b0390f35b604184634e487b7160e01b5f525260245ffd5b80fd5b5060603660031901126100e3576001600160a01b03823581811693908490036100e35760249182359081168091036100e35767ffffffffffffffff906044358281116100e357366023820112156100e3578084013583811161028257865191601f8201601f19908116603f0116830185811184821017610270578852818352368783830101116100e357815f92886020930183860137830101526101fe610350565b863b156100e357610230965f92875180998194829363278f794360e11b8452898401528a8a8401526044830190610312565b039134905af1801561026657610244578580f35b909192938095501161025557505052005b604190634e487b7160e01b5f52525ffd5b84513d5f823e3d90fd5b87604188634e487b7160e01b5f52525ffd5b85604186634e487b7160e01b5f52525ffd5b50346100e3575f3660031901126100e3575f5490516001600160a01b039091168152602090f35b346100e3575f3660031901126100e3576102d3610350565b5f80546001600160a01b0319811682556001600160a01b03167f8be0079c531659141344cd1fd0a4f28419497f9722a3daafe3b4186f6b6457e08280a3005b91908251928382525f5b84811061033c575050825f602080949584010152601f8019910116010190565b60208183018101518483018201520161031c565b5f546001600160a01b0316330361036357565b60405163118cdaa760e01b8152336004820152602490fdfea26469706673582212202992a71449476404159c12582e1f3d5c014ae92bc1369e2e03b37152567a3c7d64736f6c63430008180033000000000000000000000000ff6bdef4fb646ee44e29fe8fc0862b02f0ba8a33"
        },
        {
          "transactionType": "CREATE",
          "contractName": "TransparentUpgradeableProxy",
          "address": "0x69639ea733ca22f87628df5b48e7c943c30c4371",
          "initCode": "0x604060a08152610aac8038038061001581610268565b9283398101906060818303126102645761002e8161028d565b60209161003c83820161028d565b8582015190916001600160401b039190828211610264570185601f82011215610264578051908282116101ef5761007b601f8301601f19168701610268565b968288528683830101116102645785905f5b8381106102505750505f918701015284511561023f57823b1561021f577f360894a13ba1a3210667c828492db98dca3e2076cc3735a920a3ca505d382bbc80546001600160a01b03199081166001600160a01b03868116918217909355885192979195907fbc7cd75a20ee27fd9adebab32041f755214dbc6bffa90cc0225b39da2e5c2d3b5f80a28151156102035761012692506102a1565b505b85519161048391828401908111848210176101ef57868492879461062985391681520301905ff080156101e557831691826080527f7e644d79422f17c01e4894b5f4f588d331ebfa28653d42ae832dc59e38c9798f857fb53127684a568b3173ae13b9f8a6016e243e63b6e8ee1178d6a717850b5d6103958587549483519286168352820152a182156101ce5716179055516102f69081610333823960805181600f0152f35b8451633173bdd160e11b81525f6004820152602490fd5b84513d5f823e3d90fd5b634e487b7160e01b5f52604160045260245ffd5b5050346102105750610128565b63b398979f60e01b8152600490fd5b8551634c9c8ce360e01b81526001600160a01b0384166004820152602490fd5b85516330a289cf60e21b8152600490fd5b81810183015189820184015287920161008d565b5f80fd5b6040519190601f01601f191682016001600160401b038111838210176101ef57604052565b51906001600160a01b038216820361026457565b905f8091602081519101845af4808061031f575b156102d55750506040513d81523d5f602083013e60203d82010160405290565b156102fc57604051639996b31560e01b81526001600160a01b039091166004820152602490fd5b3d1561030d576040513d5f823e3d90fd5b60405163d6bda27560e01b8152600490fd5b503d1515806102b55750813b15156102b556fe60806040526001600160a01b03337f000000000000000000000000000000000000000000000000000000000000000082160361006a575f356001600160e01b03191663278f794360e11b14610060576040516334ad5dbb60e21b8152600490fd5b6100686100be565b005b5f80917f360894a13ba1a3210667c828492db98dca3e2076cc3735a920a3ca505d382bbc5416368280378136915af43d5f803e156100a6573d5ff35b3d5ffd5b634e487b7160e01b5f52604160045260245ffd5b3660041161015f57604036600319011261015f576004356001600160a01b0381169081900361015f576024359067ffffffffffffffff9081831161015f573660238401121561015f5782600401358281116101635760405192601f8201601f19908116603f011684019081118482101761016357604052808352366024828601011161015f576020815f92602461015d97018387013784010152610168565b565b5f80fd5b6100aa565b90813b156101ff577f360894a13ba1a3210667c828492db98dca3e2076cc3735a920a3ca505d382bbc80546001600160a01b0319166001600160a01b0384169081179091557fbc7cd75a20ee27fd9adebab32041f755214dbc6bffa90cc0225b39da2e5c2d3b5f80a28051156101e4576101e191610220565b50565b5050346101ed57565b60405163b398979f60e01b8152600490fd5b604051634c9c8ce360e01b81526001600160a01b0383166004820152602490fd5b905f8091602081519101845af48080610289575b156102465750506102436102a7565b90565b1561026e57604051639996b31560e01b81526001600160a01b03919091166004820152602490fd5b3d15155f0361029c5760405163d6bda27560e01b8152600490fd5b503d1515806102345750813b1515610234565b6040513d5f823e3d90fd5b604051903d82523d5f602084013e60203d83010160405256fea2646970667358221220371437a14d55b0192ed17af74450cdb0b22bf1f3d480185986e4348c96e968d064736f6c634300081800336080346100b957601f61048338819003918201601f19168301916001600160401b038311848410176100bd578084926020946040528339810103126100b957516001600160a01b0390818116908190036100b95780156100a1575f80546001600160a01b03198116831782556040519316907f8be0079c531659141344cd1fd0a4f28419497f9722a3daafe3b4186f6b6457e09080a36103b190816100d28239f35b604051631e4fbdf760e01b81525f6004820152602490fd5b5f80fd5b634e487b7160e01b5f52604160045260245ffdfe604060808152600480361015610013575f80fd5b5f915f3560e01c8063715018a6146102bb5780638da5cb5b146102945780639623609d1461015c578063ad3cb1cc146100eb5763f2fde38b14610054575f80fd5b346100e75760203660031901126100e7576001600160a01b038235818116939192908490036100e357610085610350565b83156100cd5750505f54826bffffffffffffffffffffffff60a01b8216175f55167f8be0079c531659141344cd1fd0a4f28419497f9722a3daafe3b4186f6b6457e05f80a380f35b51631e4fbdf760e01b8152908101849052602490fd5b5f80fd5b8280fd5b5082346101595780600319360112610159575080519080820182811067ffffffffffffffff821117610146576101429350815260058252640352e302e360dc1b602083015251918291602083526020830190610312565b0390f35b604184634e487b7160e01b5f525260245ffd5b80fd5b5060603660031901126100e3576001600160a01b03823581811693908490036100e35760249182359081168091036100e35767ffffffffffffffff906044358281116100e357366023820112156100e3578084013583811161028257865191601f8201601f19908116603f0116830185811184821017610270578852818352368783830101116100e357815f92886020930183860137830101526101fe610350565b863b156100e357610230965f92875180998194829363278f794360e11b8452898401528a8a8401526044830190610312565b039134905af1801561026657610244578580f35b909192938095501161025557505052005b604190634e487b7160e01b5f52525ffd5b84513d5f823e3d90fd5b87604188634e487b7160e01b5f52525ffd5b85604186634e487b7160e01b5f52525ffd5b50346100e3575f3660031901126100e3575f5490516001600160a01b039091168152602090f35b346100e3575f3660031901126100e3576102d3610350565b5f80546001600160a01b0319811682556001600160a01b03167f8be0079c531659141344cd1fd0a4f28419497f9722a3daafe3b4186f6b6457e08280a3005b91908251928382525f5b84811061033c575050825f602080949584010152601f8019910116010190565b60208183018101518483018201520161031c565b5f546001600160a01b0316330361036357565b60405163118cdaa760e01b8152336004820152602490fdfea26469706673582212202992a71449476404159c12582e1f3d5c014ae92bc1369e2e03b37152567a3c7d64736f6c6343000818003300000000000000000000000096ee1b53a5489fc2e5f3fa31cd74a295ccbf1457000000000000000000000000ff6bdef4fb646ee44e29fe8fc0862b02f0ba8a33000000000000000000000000000000000000000000000000000000000000006000000000000000000000000000000000000000000000000000000000000000e4077f224a000000000000000000000000000000000000000000000000000000000000006000000000000000000000000000000000000000000000000000000000000000a000000000000000000000000097bf2400d8c6d6e2c32fa0bb2c87269b62d677d200000000000000000000000000000000000000000000000000000000000000104f6c6976652049475020536963696c790000000000000000000000000000000000000000000000000000000000000000000000000000000000000000000000054f4c49564500000000000000000000000000000000000000000000000000000000000000000000000000000000000000000000000000000000000000"
        },
        {
          "transactionType": "CREATE",
          "contractName": "ProxyAdmin",
          "address": "0x69af672d96bef622e02019a9ce161089dc210a82",
          "initCode": "0x6080346100b957601f61048338819003918201601f19168301916001600160401b038311848410176100bd578084926020946040528339810103126100b957516001600160a01b0390818116908190036100b95780156100a1575f80546001600160a01b03198116831782556040519316907f8be0079c531659141344cd1fd0a4f28419497f9722a3daafe3b4186f6b6457e09080a36103b190816100d28239f35b604051631e4fbdf760e01b81525f6004820152602490fd5b5f80fd5b634e487b7160e01b5f52604160045260245ffdfe604060808152600480361015610013575f80fd5b5f915f3560e01c8063715018a6146102bb5780638da5cb5b146102945780639623609d1461015c578063ad3cb1cc146100eb5763f2fde38b14610054575f80fd5b346100e75760203660031901126100e7576001600160a01b038235818116939192908490036100e357610085610350565b83156100cd5750505f54826bffffffffffffffffffffffff60a01b8216175f55167f8be0079c531659141344cd1fd0a4f28419497f9722a3daafe3b4186f6b6457e05f80a380f35b51631e4fbdf760e01b8152908101849052602490fd5b5f80fd5b8280fd5b5082346101595780600319360112610159575080519080820182811067ffffffffffffffff821117610146576101429350815260058252640352e302e360dc1b602083015251918291602083526020830190610312565b0390f35b604184634e487b7160e01b5f525260245ffd5b80fd5b5060603660031901126100e3576001600160a01b03823581811693908490036100e35760249182359081168091036100e35767ffffffffffffffff906044358281116100e357366023820112156100e3578084013583811161028257865191601f8201601f19908116603f0116830185811184821017610270578852818352368783830101116100e357815f92886020930183860137830101526101fe610350565b863b156100e357610230965f92875180998194829363278f794360e11b8452898401528a8a8401526044830190610312565b039134905af1801561026657610244578580f35b909192938095501161025557505052005b604190634e487b7160e01b5f52525ffd5b84513d5f823e3d90fd5b87604188634e487b7160e01b5f52525ffd5b85604186634e487b7160e01b5f52525ffd5b50346100e3575f3660031901126100e3575f5490516001600160a01b039091168152602090f35b346100e3575f3660031901126100e3576102d3610350565b5f80546001600160a01b0319811682556001600160a01b03167f8be0079c531659141344cd1fd0a4f28419497f9722a3daafe3b4186f6b6457e08280a3005b91908251928382525f5b84811061033c575050825f602080949584010152601f8019910116010190565b60208183018101518483018201520161031c565b5f546001600160a01b0316330361036357565b60405163118cdaa760e01b8152336004820152602490fdfea26469706673582212202992a71449476404159c12582e1f3d5c014ae92bc1369e2e03b37152567a3c7d64736f6c63430008180033000000000000000000000000ff6bdef4fb646ee44e29fe8fc0862b02f0ba8a33"
        },
        {
          "transactionType": "CREATE",
          "contractName": "TransparentUpgradeableProxy",
          "address": "0xde0b0c3026b0169dde281adc868bb1edeadc234e",
          "initCode": "0x604060a08152610aac8038038061001581610268565b9283398101906060818303126102645761002e8161028d565b60209161003c83820161028d565b8582015190916001600160401b039190828211610264570185601f82011215610264578051908282116101ef5761007b601f8301601f19168701610268565b968288528683830101116102645785905f5b8381106102505750505f918701015284511561023f57823b1561021f577f360894a13ba1a3210667c828492db98dca3e2076cc3735a920a3ca505d382bbc80546001600160a01b03199081166001600160a01b03868116918217909355885192979195907fbc7cd75a20ee27fd9adebab32041f755214dbc6bffa90cc0225b39da2e5c2d3b5f80a28151156102035761012692506102a1565b505b85519161048391828401908111848210176101ef57868492879461062985391681520301905ff080156101e557831691826080527f7e644d79422f17c01e4894b5f4f588d331ebfa28653d42ae832dc59e38c9798f857fb53127684a568b3173ae13b9f8a6016e243e63b6e8ee1178d6a717850b5d6103958587549483519286168352820152a182156101ce5716179055516102f69081610333823960805181600f0152f35b8451633173bdd160e11b81525f6004820152602490fd5b84513d5f823e3d90fd5b634e487b7160e01b5f52604160045260245ffd5b5050346102105750610128565b63b398979f60e01b8152600490fd5b8551634c9c8ce360e01b81526001600160a01b0384166004820152602490fd5b85516330a289cf60e21b8152600490fd5b81810183015189820184015287920161008d565b5f80fd5b6040519190601f01601f191682016001600160401b038111838210176101ef57604052565b51906001600160a01b038216820361026457565b905f8091602081519101845af4808061031f575b156102d55750506040513d81523d5f602083013e60203d82010160405290565b156102fc57604051639996b31560e01b81526001600160a01b039091166004820152602490fd5b3d1561030d576040513d5f823e3d90fd5b60405163d6bda27560e01b8152600490fd5b503d1515806102b55750813b15156102b556fe60806040526001600160a01b03337f000000000000000000000000000000000000000000000000000000000000000082160361006a575f356001600160e01b03191663278f794360e11b14610060576040516334ad5dbb60e21b8152600490fd5b6100686100be565b005b5f80917f360894a13ba1a3210667c828492db98dca3e2076cc3735a920a3ca505d382bbc5416368280378136915af43d5f803e156100a6573d5ff35b3d5ffd5b634e487b7160e01b5f52604160045260245ffd5b3660041161015f57604036600319011261015f576004356001600160a01b0381169081900361015f576024359067ffffffffffffffff9081831161015f573660238401121561015f5782600401358281116101635760405192601f8201601f19908116603f011684019081118482101761016357604052808352366024828601011161015f576020815f92602461015d97018387013784010152610168565b565b5f80fd5b6100aa565b90813b156101ff577f360894a13ba1a3210667c828492db98dca3e2076cc3735a920a3ca505d382bbc80546001600160a01b0319166001600160a01b0384169081179091557fbc7cd75a20ee27fd9adebab32041f755214dbc6bffa90cc0225b39da2e5c2d3b5f80a28051156101e4576101e191610220565b50565b5050346101ed57565b60405163b398979f60e01b8152600490fd5b604051634c9c8ce360e01b81526001600160a01b0383166004820152602490fd5b905f8091602081519101845af48080610289575b156102465750506102436102a7565b90565b1561026e57604051639996b31560e01b81526001600160a01b03919091166004820152602490fd5b3d15155f0361029c5760405163d6bda27560e01b8152600490fd5b503d1515806102345750813b1515610234565b6040513d5f823e3d90fd5b604051903d82523d5f602084013e60203d83010160405256fea2646970667358221220371437a14d55b0192ed17af74450cdb0b22bf1f3d480185986e4348c96e968d064736f6c634300081800336080346100b957601f61048338819003918201601f19168301916001600160401b038311848410176100bd578084926020946040528339810103126100b957516001600160a01b0390818116908190036100b95780156100a1575f80546001600160a01b03198116831782556040519316907f8be0079c531659141344cd1fd0a4f28419497f9722a3daafe3b4186f6b6457e09080a36103b190816100d28239f35b604051631e4fbdf760e01b81525f6004820152602490fd5b5f80fd5b634e487b7160e01b5f52604160045260245ffdfe604060808152600480361015610013575f80fd5b5f915f3560e01c8063715018a6146102bb5780638da5cb5b146102945780639623609d1461015c578063ad3cb1cc146100eb5763f2fde38b14610054575f80fd5b346100e75760203660031901126100e7576001600160a01b038235818116939192908490036100e357610085610350565b83156100cd5750505f54826bffffffffffffffffffffffff60a01b8216175f55167f8be0079c531659141344cd1fd0a4f28419497f9722a3daafe3b4186f6b6457e05f80a380f35b51631e4fbdf760e01b8152908101849052602490fd5b5f80fd5b8280fd5b5082346101595780600319360112610159575080519080820182811067ffffffffffffffff821117610146576101429350815260058252640352e302e360dc1b602083015251918291602083526020830190610312565b0390f35b604184634e487b7160e01b5f525260245ffd5b80fd5b5060603660031901126100e3576001600160a01b03823581811693908490036100e35760249182359081168091036100e35767ffffffffffffffff906044358281116100e357366023820112156100e3578084013583811161028257865191601f8201601f19908116603f0116830185811184821017610270578852818352368783830101116100e357815f92886020930183860137830101526101fe610350565b863b156100e357610230965f92875180998194829363278f794360e11b8452898401528a8a8401526044830190610312565b039134905af1801561026657610244578580f35b909192938095501161025557505052005b604190634e487b7160e01b5f52525ffd5b84513d5f823e3d90fd5b87604188634e487b7160e01b5f52525ffd5b85604186634e487b7160e01b5f52525ffd5b50346100e3575f3660031901126100e3575f5490516001600160a01b039091168152602090f35b346100e3575f3660031901126100e3576102d3610350565b5f80546001600160a01b0319811682556001600160a01b03167f8be0079c531659141344cd1fd0a4f28419497f9722a3daafe3b4186f6b6457e08280a3005b91908251928382525f5b84811061033c575050825f602080949584010152601f8019910116010190565b60208183018101518483018201520161031c565b5f546001600160a01b0316330361036357565b60405163118cdaa760e01b8152336004820152602490fdfea26469706673582212202992a71449476404159c12582e1f3d5c014ae92bc1369e2e03b37152567a3c7d64736f6c63430008180033000000000000000000000000274a2f81cd09063fe63b5e748f0c0d345d058169000000000000000000000000ff6bdef4fb646ee44e29fe8fc0862b02f0ba8a33000000000000000000000000000000000000000000000000000000000000006000000000000000000000000000000000000000000000000000000000000000a4a6b63eb800000000000000000000000069639ea733ca22f87628df5b48e7c943c30c437100000000000000000000000097bf2400d8c6d6e2c32fa0bb2c87269b62d677d200000000000000000000000073d677db3425edee764bf47c66dbb15217eefff6000000000000000000000000000000000000000000004a1d89bb94865ec00000000000000000000000000000000000000000000000000000000000000000070800000000000000000000000000000000000000000000000000000000"
        },
        {
          "transactionType": "CREATE",
          "contractName": "ProxyAdmin",
          "address": "0x5d9414b0cd3ff866fa6092dda3147a6cc7066e5e",
          "initCode": "0x6080346100b957601f61048338819003918201601f19168301916001600160401b038311848410176100bd578084926020946040528339810103126100b957516001600160a01b0390818116908190036100b95780156100a1575f80546001600160a01b03198116831782556040519316907f8be0079c531659141344cd1fd0a4f28419497f9722a3daafe3b4186f6b6457e09080a36103b190816100d28239f35b604051631e4fbdf760e01b81525f6004820152602490fd5b5f80fd5b634e487b7160e01b5f52604160045260245ffdfe604060808152600480361015610013575f80fd5b5f915f3560e01c8063715018a6146102bb5780638da5cb5b146102945780639623609d1461015c578063ad3cb1cc146100eb5763f2fde38b14610054575f80fd5b346100e75760203660031901126100e7576001600160a01b038235818116939192908490036100e357610085610350565b83156100cd5750505f54826bffffffffffffffffffffffff60a01b8216175f55167f8be0079c531659141344cd1fd0a4f28419497f9722a3daafe3b4186f6b6457e05f80a380f35b51631e4fbdf760e01b8152908101849052602490fd5b5f80fd5b8280fd5b5082346101595780600319360112610159575080519080820182811067ffffffffffffffff821117610146576101429350815260058252640352e302e360dc1b602083015251918291602083526020830190610312565b0390f35b604184634e487b7160e01b5f525260245ffd5b80fd5b5060603660031901126100e3576001600160a01b03823581811693908490036100e35760249182359081168091036100e35767ffffffffffffffff906044358281116100e357366023820112156100e3578084013583811161028257865191601f8201601f19908116603f0116830185811184821017610270578852818352368783830101116100e357815f92886020930183860137830101526101fe610350565b863b156100e357610230965f92875180998194829363278f794360e11b8452898401528a8a8401526044830190610312565b039134905af1801561026657610244578580f35b909192938095501161025557505052005b604190634e487b7160e01b5f52525ffd5b84513d5f823e3d90fd5b87604188634e487b7160e01b5f52525ffd5b85604186634e487b7160e01b5f52525ffd5b50346100e3575f3660031901126100e3575f5490516001600160a01b039091168152602090f35b346100e3575f3660031901126100e3576102d3610350565b5f80546001600160a01b0319811682556001600160a01b03167f8be0079c531659141344cd1fd0a4f28419497f9722a3daafe3b4186f6b6457e08280a3005b91908251928382525f5b84811061033c575050825f602080949584010152601f8019910116010190565b60208183018101518483018201520161031c565b5f546001600160a01b0316330361036357565b60405163118cdaa760e01b8152336004820152602490fdfea26469706673582212202992a71449476404159c12582e1f3d5c014ae92bc1369e2e03b37152567a3c7d64736f6c63430008180033000000000000000000000000ff6bdef4fb646ee44e29fe8fc0862b02f0ba8a33"
        },
        {
          "transactionType": "CREATE",
          "contractName": "TransparentUpgradeableProxy",
          "address": "0x66e27807a191add8cd8dd302fd23f53f18d04e7d",
          "initCode": "0x604060a08152610aac8038038061001581610268565b9283398101906060818303126102645761002e8161028d565b60209161003c83820161028d565b8582015190916001600160401b039190828211610264570185601f82011215610264578051908282116101ef5761007b601f8301601f19168701610268565b968288528683830101116102645785905f5b8381106102505750505f918701015284511561023f57823b1561021f577f360894a13ba1a3210667c828492db98dca3e2076cc3735a920a3ca505d382bbc80546001600160a01b03199081166001600160a01b03868116918217909355885192979195907fbc7cd75a20ee27fd9adebab32041f755214dbc6bffa90cc0225b39da2e5c2d3b5f80a28151156102035761012692506102a1565b505b85519161048391828401908111848210176101ef57868492879461062985391681520301905ff080156101e557831691826080527f7e644d79422f17c01e4894b5f4f588d331ebfa28653d42ae832dc59e38c9798f857fb53127684a568b3173ae13b9f8a6016e243e63b6e8ee1178d6a717850b5d6103958587549483519286168352820152a182156101ce5716179055516102f69081610333823960805181600f0152f35b8451633173bdd160e11b81525f6004820152602490fd5b84513d5f823e3d90fd5b634e487b7160e01b5f52604160045260245ffd5b5050346102105750610128565b63b398979f60e01b8152600490fd5b8551634c9c8ce360e01b81526001600160a01b0384166004820152602490fd5b85516330a289cf60e21b8152600490fd5b81810183015189820184015287920161008d565b5f80fd5b6040519190601f01601f191682016001600160401b038111838210176101ef57604052565b51906001600160a01b038216820361026457565b905f8091602081519101845af4808061031f575b156102d55750506040513d81523d5f602083013e60203d82010160405290565b156102fc57604051639996b31560e01b81526001600160a01b039091166004820152602490fd5b3d1561030d576040513d5f823e3d90fd5b60405163d6bda27560e01b8152600490fd5b503d1515806102b55750813b15156102b556fe60806040526001600160a01b03337f000000000000000000000000000000000000000000000000000000000000000082160361006a575f356001600160e01b03191663278f794360e11b14610060576040516334ad5dbb60e21b8152600490fd5b6100686100be565b005b5f80917f360894a13ba1a3210667c828492db98dca3e2076cc3735a920a3ca505d382bbc5416368280378136915af43d5f803e156100a6573d5ff35b3d5ffd5b634e487b7160e01b5f52604160045260245ffd5b3660041161015f57604036600319011261015f576004356001600160a01b0381169081900361015f576024359067ffffffffffffffff9081831161015f573660238401121561015f5782600401358281116101635760405192601f8201601f19908116603f011684019081118482101761016357604052808352366024828601011161015f576020815f92602461015d97018387013784010152610168565b565b5f80fd5b6100aa565b90813b156101ff577f360894a13ba1a3210667c828492db98dca3e2076cc3735a920a3ca505d382bbc80546001600160a01b0319166001600160a01b0384169081179091557fbc7cd75a20ee27fd9adebab32041f755214dbc6bffa90cc0225b39da2e5c2d3b5f80a28051156101e4576101e191610220565b50565b5050346101ed57565b60405163b398979f60e01b8152600490fd5b604051634c9c8ce360e01b81526001600160a01b0383166004820152602490fd5b905f8091602081519101845af48080610289575b156102465750506102436102a7565b90565b1561026e57604051639996b31560e01b81526001600160a01b03919091166004820152602490fd5b3d15155f0361029c5760405163d6bda27560e01b8152600490fd5b503d1515806102345750813b1515610234565b6040513d5f823e3d90fd5b604051903d82523d5f602084013e60203d83010160405256fea2646970667358221220371437a14d55b0192ed17af74450cdb0b22bf1f3d480185986e4348c96e968d064736f6c634300081800336080346100b957601f61048338819003918201601f19168301916001600160401b038311848410176100bd578084926020946040528339810103126100b957516001600160a01b0390818116908190036100b95780156100a1575f80546001600160a01b03198116831782556040519316907f8be0079c531659141344cd1fd0a4f28419497f9722a3daafe3b4186f6b6457e09080a36103b190816100d28239f35b604051631e4fbdf760e01b81525f6004820152602490fd5b5f80fd5b634e487b7160e01b5f52604160045260245ffdfe604060808152600480361015610013575f80fd5b5f915f3560e01c8063715018a6146102bb5780638da5cb5b146102945780639623609d1461015c578063ad3cb1cc146100eb5763f2fde38b14610054575f80fd5b346100e75760203660031901126100e7576001600160a01b038235818116939192908490036100e357610085610350565b83156100cd5750505f54826bffffffffffffffffffffffff60a01b8216175f55167f8be0079c531659141344cd1fd0a4f28419497f9722a3daafe3b4186f6b6457e05f80a380f35b51631e4fbdf760e01b8152908101849052602490fd5b5f80fd5b8280fd5b5082346101595780600319360112610159575080519080820182811067ffffffffffffffff821117610146576101429350815260058252640352e302e360dc1b602083015251918291602083526020830190610312565b0390f35b604184634e487b7160e01b5f525260245ffd5b80fd5b5060603660031901126100e3576001600160a01b03823581811693908490036100e35760249182359081168091036100e35767ffffffffffffffff906044358281116100e357366023820112156100e3578084013583811161028257865191601f8201601f19908116603f0116830185811184821017610270578852818352368783830101116100e357815f92886020930183860137830101526101fe610350565b863b156100e357610230965f92875180998194829363278f794360e11b8452898401528a8a8401526044830190610312565b039134905af1801561026657610244578580f35b909192938095501161025557505052005b604190634e487b7160e01b5f52525ffd5b84513d5f823e3d90fd5b87604188634e487b7160e01b5f52525ffd5b85604186634e487b7160e01b5f52525ffd5b50346100e3575f3660031901126100e3575f5490516001600160a01b039091168152602090f35b346100e3575f3660031901126100e3576102d3610350565b5f80546001600160a01b0319811682556001600160a01b03167f8be0079c531659141344cd1fd0a4f28419497f9722a3daafe3b4186f6b6457e08280a3005b91908251928382525f5b84811061033c575050825f602080949584010152601f8019910116010190565b60208183018101518483018201520161031c565b5f546001600160a01b0316330361036357565b60405163118cdaa760e01b8152336004820152602490fdfea26469706673582212202992a71449476404159c12582e1f3d5c014ae92bc1369e2e03b37152567a3c7d64736f6c634300081800330000000000000000000000005ed362a99bd45db191e9b03ec7c696310db8c602000000000000000000000000ff6bdef4fb646ee44e29fe8fc0862b02f0ba8a33000000000000000000000000000000000000000000000000000000000000006000000000000000000000000000000000000000000000000000000000000000c4d7c41c79000000000000000000000000a07e3dbb5bc40f11723213e3a236b408b862c1ff000000000000000000000000ff6bdef4fb646ee44e29fe8fc0862b02f0ba8a3300000000000000000000000073d677db3425edee764bf47c66dbb15217eefff6000000000000000000000000ff6bdef4fb646ee44e29fe8fc0862b02f0ba8a3300000000000000000000000000000000000000000000000000000000000000c80000000000000000000000000000000000000000000000000de0b6b3a764000000000000000000000000000000000000000000000000000000000000"
        },
        {
          "transactionType": "CREATE",
          "contractName": "ProxyAdmin",
          "address": "0x56f3ba286be24c395575a54b1823cb8492398124",
          "initCode": "0x6080346100b957601f61048338819003918201601f19168301916001600160401b038311848410176100bd578084926020946040528339810103126100b957516001600160a01b0390818116908190036100b95780156100a1575f80546001600160a01b03198116831782556040519316907f8be0079c531659141344cd1fd0a4f28419497f9722a3daafe3b4186f6b6457e09080a36103b190816100d28239f35b604051631e4fbdf760e01b81525f6004820152602490fd5b5f80fd5b634e487b7160e01b5f52604160045260245ffdfe604060808152600480361015610013575f80fd5b5f915f3560e01c8063715018a6146102bb5780638da5cb5b146102945780639623609d1461015c578063ad3cb1cc146100eb5763f2fde38b14610054575f80fd5b346100e75760203660031901126100e7576001600160a01b038235818116939192908490036100e357610085610350565b83156100cd5750505f54826bffffffffffffffffffffffff60a01b8216175f55167f8be0079c531659141344cd1fd0a4f28419497f9722a3daafe3b4186f6b6457e05f80a380f35b51631e4fbdf760e01b8152908101849052602490fd5b5f80fd5b8280fd5b5082346101595780600319360112610159575080519080820182811067ffffffffffffffff821117610146576101429350815260058252640352e302e360dc1b602083015251918291602083526020830190610312565b0390f35b604184634e487b7160e01b5f525260245ffd5b80fd5b5060603660031901126100e3576001600160a01b03823581811693908490036100e35760249182359081168091036100e35767ffffffffffffffff906044358281116100e357366023820112156100e3578084013583811161028257865191601f8201601f19908116603f0116830185811184821017610270578852818352368783830101116100e357815f92886020930183860137830101526101fe610350565b863b156100e357610230965f92875180998194829363278f794360e11b8452898401528a8a8401526044830190610312565b039134905af1801561026657610244578580f35b909192938095501161025557505052005b604190634e487b7160e01b5f52525ffd5b84513d5f823e3d90fd5b87604188634e487b7160e01b5f52525ffd5b85604186634e487b7160e01b5f52525ffd5b50346100e3575f3660031901126100e3575f5490516001600160a01b039091168152602090f35b346100e3575f3660031901126100e3576102d3610350565b5f80546001600160a01b0319811682556001600160a01b03167f8be0079c531659141344cd1fd0a4f28419497f9722a3daafe3b4186f6b6457e08280a3005b91908251928382525f5b84811061033c575050825f602080949584010152601f8019910116010190565b60208183018101518483018201520161031c565b5f546001600160a01b0316330361036357565b60405163118cdaa760e01b8152336004820152602490fdfea26469706673582212202992a71449476404159c12582e1f3d5c014ae92bc1369e2e03b37152567a3c7d64736f6c63430008180033000000000000000000000000ff6bdef4fb646ee44e29fe8fc0862b02f0ba8a33"
        },
        {
          "transactionType": "CREATE",
          "contractName": "TransparentUpgradeableProxy",
          "address": "0x39df5be15d31c491a913b70d8f2d5ed8832e647f",
          "initCode": "0x604060a08152610aac8038038061001581610268565b9283398101906060818303126102645761002e8161028d565b60209161003c83820161028d565b8582015190916001600160401b039190828211610264570185601f82011215610264578051908282116101ef5761007b601f8301601f19168701610268565b968288528683830101116102645785905f5b8381106102505750505f918701015284511561023f57823b1561021f577f360894a13ba1a3210667c828492db98dca3e2076cc3735a920a3ca505d382bbc80546001600160a01b03199081166001600160a01b03868116918217909355885192979195907fbc7cd75a20ee27fd9adebab32041f755214dbc6bffa90cc0225b39da2e5c2d3b5f80a28151156102035761012692506102a1565b505b85519161048391828401908111848210176101ef57868492879461062985391681520301905ff080156101e557831691826080527f7e644d79422f17c01e4894b5f4f588d331ebfa28653d42ae832dc59e38c9798f857fb53127684a568b3173ae13b9f8a6016e243e63b6e8ee1178d6a717850b5d6103958587549483519286168352820152a182156101ce5716179055516102f69081610333823960805181600f0152f35b8451633173bdd160e11b81525f6004820152602490fd5b84513d5f823e3d90fd5b634e487b7160e01b5f52604160045260245ffd5b5050346102105750610128565b63b398979f60e01b8152600490fd5b8551634c9c8ce360e01b81526001600160a01b0384166004820152602490fd5b85516330a289cf60e21b8152600490fd5b81810183015189820184015287920161008d565b5f80fd5b6040519190601f01601f191682016001600160401b038111838210176101ef57604052565b51906001600160a01b038216820361026457565b905f8091602081519101845af4808061031f575b156102d55750506040513d81523d5f602083013e60203d82010160405290565b156102fc57604051639996b31560e01b81526001600160a01b039091166004820152602490fd5b3d1561030d576040513d5f823e3d90fd5b60405163d6bda27560e01b8152600490fd5b503d1515806102b55750813b15156102b556fe60806040526001600160a01b03337f000000000000000000000000000000000000000000000000000000000000000082160361006a575f356001600160e01b03191663278f794360e11b14610060576040516334ad5dbb60e21b8152600490fd5b6100686100be565b005b5f80917f360894a13ba1a3210667c828492db98dca3e2076cc3735a920a3ca505d382bbc5416368280378136915af43d5f803e156100a6573d5ff35b3d5ffd5b634e487b7160e01b5f52604160045260245ffd5b3660041161015f57604036600319011261015f576004356001600160a01b0381169081900361015f576024359067ffffffffffffffff9081831161015f573660238401121561015f5782600401358281116101635760405192601f8201601f19908116603f011684019081118482101761016357604052808352366024828601011161015f576020815f92602461015d97018387013784010152610168565b565b5f80fd5b6100aa565b90813b156101ff577f360894a13ba1a3210667c828492db98dca3e2076cc3735a920a3ca505d382bbc80546001600160a01b0319166001600160a01b0384169081179091557fbc7cd75a20ee27fd9adebab32041f755214dbc6bffa90cc0225b39da2e5c2d3b5f80a28051156101e4576101e191610220565b50565b5050346101ed57565b60405163b398979f60e01b8152600490fd5b604051634c9c8ce360e01b81526001600160a01b0383166004820152602490fd5b905f8091602081519101845af48080610289575b156102465750506102436102a7565b90565b1561026e57604051639996b31560e01b81526001600160a01b03919091166004820152602490fd5b3d15155f0361029c5760405163d6bda27560e01b8152600490fd5b503d1515806102345750813b1515610234565b6040513d5f823e3d90fd5b604051903d82523d5f602084013e60203d83010160405256fea2646970667358221220371437a14d55b0192ed17af74450cdb0b22bf1f3d480185986e4348c96e968d064736f6c634300081800336080346100b957601f61048338819003918201601f19168301916001600160401b038311848410176100bd578084926020946040528339810103126100b957516001600160a01b0390818116908190036100b95780156100a1575f80546001600160a01b03198116831782556040519316907f8be0079c531659141344cd1fd0a4f28419497f9722a3daafe3b4186f6b6457e09080a36103b190816100d28239f35b604051631e4fbdf760e01b81525f6004820152602490fd5b5f80fd5b634e487b7160e01b5f52604160045260245ffdfe604060808152600480361015610013575f80fd5b5f915f3560e01c8063715018a6146102bb5780638da5cb5b146102945780639623609d1461015c578063ad3cb1cc146100eb5763f2fde38b14610054575f80fd5b346100e75760203660031901126100e7576001600160a01b038235818116939192908490036100e357610085610350565b83156100cd5750505f54826bffffffffffffffffffffffff60a01b8216175f55167f8be0079c531659141344cd1fd0a4f28419497f9722a3daafe3b4186f6b6457e05f80a380f35b51631e4fbdf760e01b8152908101849052602490fd5b5f80fd5b8280fd5b5082346101595780600319360112610159575080519080820182811067ffffffffffffffff821117610146576101429350815260058252640352e302e360dc1b602083015251918291602083526020830190610312565b0390f35b604184634e487b7160e01b5f525260245ffd5b80fd5b5060603660031901126100e3576001600160a01b03823581811693908490036100e35760249182359081168091036100e35767ffffffffffffffff906044358281116100e357366023820112156100e3578084013583811161028257865191601f8201601f19908116603f0116830185811184821017610270578852818352368783830101116100e357815f92886020930183860137830101526101fe610350565b863b156100e357610230965f92875180998194829363278f794360e11b8452898401528a8a8401526044830190610312565b039134905af1801561026657610244578580f35b909192938095501161025557505052005b604190634e487b7160e01b5f52525ffd5b84513d5f823e3d90fd5b87604188634e487b7160e01b5f52525ffd5b85604186634e487b7160e01b5f52525ffd5b50346100e3575f3660031901126100e3575f5490516001600160a01b039091168152602090f35b346100e3575f3660031901126100e3576102d3610350565b5f80546001600160a01b0319811682556001600160a01b03167f8be0079c531659141344cd1fd0a4f28419497f9722a3daafe3b4186f6b6457e08280a3005b91908251928382525f5b84811061033c575050825f602080949584010152601f8019910116010190565b60208183018101518483018201520161031c565b5f546001600160a01b0316330361036357565b60405163118cdaa760e01b8152336004820152602490fdfea26469706673582212202992a71449476404159c12582e1f3d5c014ae92bc1369e2e03b37152567a3c7d64736f6c63430008180033000000000000000000000000ccd1ff1748e3873b0e56b5cceb67f0e0b7f69f87000000000000000000000000ff6bdef4fb646ee44e29fe8fc0862b02f0ba8a33000000000000000000000000000000000000000000000000000000000000006000000000000000000000000000000000000000000000000000000000000001048f15b414000000000000000000000000000000000000000000000000000000000000008000000000000000000000000000000000000000000000000000000000000000c0000000000000000000000000de0b0c3026b0169dde281adc868bb1edeadc234e00000000000000000000000066e27807a191add8cd8dd302fd23f53f18d04e7d000000000000000000000000000000000000000000000000000000000000000b4f6c697665205969656c6400000000000000000000000000000000000000000000000000000000000000000000000000000000000000000000000000000000066f5949454c44000000000000000000000000000000000000000000000000000000000000000000000000000000000000000000000000000000000000"
        },
        {
          "transactionType": "CREATE",
          "contractName": "ProxyAdmin",
          "address": "0xcac535241bfae7cf34d16916d79e3256f106cf61",
          "initCode": "0x6080346100b957601f61048338819003918201601f19168301916001600160401b038311848410176100bd578084926020946040528339810103126100b957516001600160a01b0390818116908190036100b95780156100a1575f80546001600160a01b03198116831782556040519316907f8be0079c531659141344cd1fd0a4f28419497f9722a3daafe3b4186f6b6457e09080a36103b190816100d28239f35b604051631e4fbdf760e01b81525f6004820152602490fd5b5f80fd5b634e487b7160e01b5f52604160045260245ffdfe604060808152600480361015610013575f80fd5b5f915f3560e01c8063715018a6146102bb5780638da5cb5b146102945780639623609d1461015c578063ad3cb1cc146100eb5763f2fde38b14610054575f80fd5b346100e75760203660031901126100e7576001600160a01b038235818116939192908490036100e357610085610350565b83156100cd5750505f54826bffffffffffffffffffffffff60a01b8216175f55167f8be0079c531659141344cd1fd0a4f28419497f9722a3daafe3b4186f6b6457e05f80a380f35b51631e4fbdf760e01b8152908101849052602490fd5b5f80fd5b8280fd5b5082346101595780600319360112610159575080519080820182811067ffffffffffffffff821117610146576101429350815260058252640352e302e360dc1b602083015251918291602083526020830190610312565b0390f35b604184634e487b7160e01b5f525260245ffd5b80fd5b5060603660031901126100e3576001600160a01b03823581811693908490036100e35760249182359081168091036100e35767ffffffffffffffff906044358281116100e357366023820112156100e3578084013583811161028257865191601f8201601f19908116603f0116830185811184821017610270578852818352368783830101116100e357815f92886020930183860137830101526101fe610350565b863b156100e357610230965f92875180998194829363278f794360e11b8452898401528a8a8401526044830190610312565b039134905af1801561026657610244578580f35b909192938095501161025557505052005b604190634e487b7160e01b5f52525ffd5b84513d5f823e3d90fd5b87604188634e487b7160e01b5f52525ffd5b85604186634e487b7160e01b5f52525ffd5b50346100e3575f3660031901126100e3575f5490516001600160a01b039091168152602090f35b346100e3575f3660031901126100e3576102d3610350565b5f80546001600160a01b0319811682556001600160a01b03167f8be0079c531659141344cd1fd0a4f28419497f9722a3daafe3b4186f6b6457e08280a3005b91908251928382525f5b84811061033c575050825f602080949584010152601f8019910116010190565b60208183018101518483018201520161031c565b5f546001600160a01b0316330361036357565b60405163118cdaa760e01b8152336004820152602490fdfea26469706673582212202992a71449476404159c12582e1f3d5c014ae92bc1369e2e03b37152567a3c7d64736f6c63430008180033000000000000000000000000ff6bdef4fb646ee44e29fe8fc0862b02f0ba8a33"
        }
      ],
      "isFixedGasLimit": false
    },
    {
      "hash": "0x8f8dc4ff91b2e59f4cd42253d679180758d21cfc63eeaba071cb61399cd733e0",
      "transactionType": "CALL",
      "contractName": "TransparentUpgradeableProxy",
      "contractAddress": "0x97bf2400d8c6d6e2c32fa0bb2c87269b62d677d2",
      "function": null,
      "arguments": null,
      "transaction": {
        "from": "0xff6bdef4fb646ee44e29fe8fc0862b02f0ba8a33",
        "to": "0x97bf2400d8c6d6e2c32fa0bb2c87269b62d677d2",
        "gas": "0x2adbe",
        "value": "0x0",
        "input": "0x666033e6000000000000000000000000a07e3dbb5bc40f11723213e3a236b408b862c1ff000000000000000000000000000000000000000000000000000000000000000000000000000000000000000000000000000000000000000000000000000232800000000000000000000000000000000000000000000000000000000000000000",
        "nonce": "0x102",
        "chainId": "0x14a34"
      },
      "additionalContracts": [],
      "isFixedGasLimit": false
    },
    {
      "hash": "0xf5443c46dfbb84b6d8fe766e377c6232a75ece65e695d8cb268c9cebaf7c0391",
      "transactionType": "CALL",
      "contractName": null,
      "contractAddress": "0xa07e3dbb5bc40f11723213e3a236b408b862c1ff",
      "function": "approve(address,uint256)",
      "arguments": [
        "0x97bf2400d8C6D6e2C32Fa0Bb2C87269b62D677d2",
        "115792089237316195423570985008687907853269984665640564039457584007913129639935"
      ],
      "transaction": {
        "from": "0xff6bdef4fb646ee44e29fe8fc0862b02f0ba8a33",
        "to": "0xa07e3dbb5bc40f11723213e3a236b408b862c1ff",
        "gas": "0xf9a6",
        "value": "0x0",
        "input": "0x095ea7b300000000000000000000000097bf2400d8c6d6e2c32fa0bb2c87269b62d677d2ffffffffffffffffffffffffffffffffffffffffffffffffffffffffffffffff",
        "nonce": "0x103",
        "chainId": "0x14a34"
      },
      "additionalContracts": [],
      "isFixedGasLimit": false
    },
    {
      "hash": "0x9d2e7ae5a5333d7635ba597f601fec49866b344d7937b5f79b9e0553d29aad57",
      "transactionType": "CALL",
      "contractName": "TransparentUpgradeableProxy",
      "contractAddress": "0x97bf2400d8c6d6e2c32fa0bb2c87269b62d677d2",
      "function": null,
      "arguments": null,
      "transaction": {
        "from": "0xff6bdef4fb646ee44e29fe8fc0862b02f0ba8a33",
        "to": "0x97bf2400d8c6d6e2c32fa0bb2c87269b62d677d2",
        "gas": "0x6b485",
        "value": "0x0",
        "input": "0xcce7ec13000000000000000000000000a07e3dbb5bc40f11723213e3a236b408b862c1ff0000000000000000000000000000000000000000000000000000000405f7e000",
        "nonce": "0x104",
        "chainId": "0x14a34"
      },
      "additionalContracts": [],
      "isFixedGasLimit": false
    },
    {
      "hash": "0x958af21c89feaa9d6f136b6ccd1da16789493a585b93ee11c0531794c9b45557",
      "transactionType": "CALL",
      "contractName": "TransparentUpgradeableProxy",
      "contractAddress": "0x97bf2400d8c6d6e2c32fa0bb2c87269b62d677d2",
      "function": null,
      "arguments": null,
      "transaction": {
        "from": "0xff6bdef4fb646ee44e29fe8fc0862b02f0ba8a33",
        "to": "0x97bf2400d8c6d6e2c32fa0bb2c87269b62d677d2",
        "gas": "0x22aa9",
        "value": "0x0",
        "input": "0xe2233cbd000000000000000000000000000000000000000000000000000000037e11d600",
        "nonce": "0x105",
        "chainId": "0x14a34"
      },
      "additionalContracts": [],
      "isFixedGasLimit": false
    },
    {
      "hash": "0x855a093a065a0987bf606a895d5180491affe1211db576ae90b4a38639b28bda",
      "transactionType": "CALL",
      "contractName": "TransparentUpgradeableProxy",
      "contractAddress": "0x97bf2400d8c6d6e2c32fa0bb2c87269b62d677d2",
      "function": null,
      "arguments": null,
      "transaction": {
        "from": "0xff6bdef4fb646ee44e29fe8fc0862b02f0ba8a33",
        "to": "0x97bf2400d8c6d6e2c32fa0bb2c87269b62d677d2",
        "gas": "0x3584d",
        "value": "0x0",
        "input": "0x703dbfe40000000000000000000000000000000000000000000000000000000000000001",
        "nonce": "0x106",
        "chainId": "0x14a34"
      },
      "additionalContracts": [],
      "isFixedGasLimit": false
    },
    {
      "hash": "0x40927b31404e33f7b2a5e6b17dade6d9ae32e46aab12b3350c7d7c130a46f3f3",
      "transactionType": "CALL",
      "contractName": "TransparentUpgradeableProxy",
      "contractAddress": "0x69639ea733ca22f87628df5b48e7c943c30c4371",
      "function": null,
      "arguments": null,
      "transaction": {
        "from": "0xff6bdef4fb646ee44e29fe8fc0862b02f0ba8a33",
        "to": "0x69639ea733ca22f87628df5b48e7c943c30c4371",
        "gas": "0x124de",
        "value": "0x0",
        "input": "0x095ea7b3000000000000000000000000de0b0c3026b0169dde281adc868bb1edeadc234effffffffffffffffffffffffffffffffffffffffffffffffffffffffffffffff",
        "nonce": "0x107",
        "chainId": "0x14a34"
      },
      "additionalContracts": [],
      "isFixedGasLimit": false
    },
    {
      "hash": "0x05cf89fb80a1445f898cccd582cbc4ca72b2dbe0cb34de5ce0230f5ee324361c",
      "transactionType": "CALL",
      "contractName": "TransparentUpgradeableProxy",
      "contractAddress": "0xde0b0c3026b0169dde281adc868bb1edeadc234e",
      "function": null,
      "arguments": null,
      "transaction": {
        "from": "0xff6bdef4fb646ee44e29fe8fc0862b02f0ba8a33",
        "to": "0xde0b0c3026b0169dde281adc868bb1edeadc234e",
        "gas": "0x67ff8",
        "value": "0x0",
        "input": "0xa694fc3a000000000000000000000000000000000000000000001969368974c05b000000",
        "nonce": "0x108",
        "chainId": "0x14a34"
      },
      "additionalContracts": [],
      "isFixedGasLimit": false
    },
    {
      "hash": "0x19180a7906b92f00376cb6ad7b33b5c23b17c84541fc20965c4b122d3f6cc400",
      "transactionType": "CALL",
      "contractName": null,
      "contractAddress": "0xa07e3dbb5bc40f11723213e3a236b408b862c1ff",
      "function": "mint(address,uint256)",
      "arguments": [
        "0x455aB6723CCab4cb62983710C33f6311cc85Bc97",
        "10000000000"
      ],
      "transaction": {
        "from": "0xff6bdef4fb646ee44e29fe8fc0862b02f0ba8a33",
        "to": "0xa07e3dbb5bc40f11723213e3a236b408b862c1ff",
        "gas": "0x11325",
        "value": "0x0",
        "input": "0x40c10f19000000000000000000000000455ab6723ccab4cb62983710c33f6311cc85bc9700000000000000000000000000000000000000000000000000000002540be400",
        "nonce": "0x109",
        "chainId": "0x14a34"
      },
      "additionalContracts": [],
      "isFixedGasLimit": false
    },
    {
      "hash": "0x493ad1acfb4e9629947936f1b39dcdc230c3c7b29613a8a6cf14bf9e1339d612",
      "transactionType": "CALL",
      "contractName": null,
      "contractAddress": "0xa07e3dbb5bc40f11723213e3a236b408b862c1ff",
      "function": "approve(address,uint256)",
      "arguments": [
        "0x97bf2400d8C6D6e2C32Fa0Bb2C87269b62D677d2",
        "115792089237316195423570985008687907853269984665640564039457584007913129639935"
      ],
      "transaction": {
        "from": "0x455ab6723ccab4cb62983710c33f6311cc85bc97",
        "to": "0xa07e3dbb5bc40f11723213e3a236b408b862c1ff",
        "gas": "0xf9a6",
        "value": "0x0",
        "input": "0x095ea7b300000000000000000000000097bf2400d8c6d6e2c32fa0bb2c87269b62d677d2ffffffffffffffffffffffffffffffffffffffffffffffffffffffffffffffff",
        "nonce": "0x20",
        "chainId": "0x14a34"
      },
      "additionalContracts": [],
      "isFixedGasLimit": false
    },
    {
      "hash": "0xcccfe1ac7679e431256b37dc43172ed429974fe48faa3573e00c06249d61708b",
      "transactionType": "CALL",
      "contractName": "TransparentUpgradeableProxy",
      "contractAddress": "0x97bf2400d8c6d6e2c32fa0bb2c87269b62d677d2",
      "function": null,
      "arguments": null,
      "transaction": {
        "from": "0x455ab6723ccab4cb62983710c33f6311cc85bc97",
        "to": "0x97bf2400d8c6d6e2c32fa0bb2c87269b62d677d2",
        "gas": "0x34216",
        "value": "0x0",
        "input": "0xcce7ec13000000000000000000000000a07e3dbb5bc40f11723213e3a236b408b862c1ff00000000000000000000000000000000000000000000000000000001ad274800",
        "nonce": "0x21",
        "chainId": "0x14a34"
      },
      "additionalContracts": [],
      "isFixedGasLimit": false
    },
    {
      "hash": "0x111d3508f78299669fbe741312748d08ae7076a2d10fd1b97809b358a7590d09",
      "transactionType": "CALL",
      "contractName": "TransparentUpgradeableProxy",
      "contractAddress": "0x69639ea733ca22f87628df5b48e7c943c30c4371",
      "function": null,
      "arguments": null,
      "transaction": {
        "from": "0x455ab6723ccab4cb62983710c33f6311cc85bc97",
        "to": "0x69639ea733ca22f87628df5b48e7c943c30c4371",
        "gas": "0x124de",
        "value": "0x0",
        "input": "0x095ea7b3000000000000000000000000de0b0c3026b0169dde281adc868bb1edeadc234effffffffffffffffffffffffffffffffffffffffffffffffffffffffffffffff",
        "nonce": "0x22",
        "chainId": "0x14a34"
      },
      "additionalContracts": [],
      "isFixedGasLimit": false
    },
    {
      "hash": "0xd7c556057357dba10b5e2aeb192c0ad962fff1d8d7875d8316ac2ddf09183809",
      "transactionType": "CALL",
      "contractName": "TransparentUpgradeableProxy",
      "contractAddress": "0xde0b0c3026b0169dde281adc868bb1edeadc234e",
      "function": null,
      "arguments": null,
      "transaction": {
        "from": "0x455ab6723ccab4cb62983710c33f6311cc85bc97",
        "to": "0xde0b0c3026b0169dde281adc868bb1edeadc234e",
        "gas": "0x5149c",
        "value": "0x0",
        "input": "0xa694fc3a000000000000000000000000000000000000000000000a968163f0a57b400000",
        "nonce": "0x23",
        "chainId": "0x14a34"
      },
      "additionalContracts": [],
      "isFixedGasLimit": false
    }
  ],
  "receipts": [
    {
      "status": "0x1",
      "cumulativeGasUsed": "0x26088c",
      "logs": [
        {
          "address": "0x73d677db3425edee764bf47c66dbb15217eefff6",
          "topics": [
            "0xa53bb861f8980ad56ca8ad0ba10cc5ef7a8a6af7fa4ca26f876580318c82f719"
          ],
          "data": "0x0000000000000000000000000000000000000000000000000000000000278d000000000000000000000000000000000000000000000000000000000000000708",
          "blockHash": "0x72096723869141b136c9a627c6e7640191c3ed9ac415577e58b3a35272c16557",
          "blockNumber": "0x26ebd90",
          "blockTimestamp": "0x69f0da00",
          "transactionHash": "0x798d48ebc02da537fc1770cea319e97afcd1c60d3067648f6586618b9664d6ad",
          "transactionIndex": "0xb",
          "logIndex": "0x5e",
          "removed": false
        }
      ],
      "logsBloom": "0x00000000000000000000000000000000000000000000000000000000000000000000000000000000000000000000000000000000000200000000000000000000000000000000000000000000000000000000000000000001000000000000000000000000000000000000000000000000000000000000000000000000000010000000000000000000000010000000000000000000000000000000000000000000000000000000000000100000004000000000000000000000000000000000000000000000000000000000000000000000000000000000000000000000000000000000000000000000000000000000000000000000000000000000000000000000",
      "type": "0x2",
      "transactionHash": "0x798d48ebc02da537fc1770cea319e97afcd1c60d3067648f6586618b9664d6ad",
      "transactionIndex": "0xb",
      "blockHash": "0x72096723869141b136c9a627c6e7640191c3ed9ac415577e58b3a35272c16557",
      "blockNumber": "0x26ebd90",
      "gasUsed": "0x8860",
      "effectiveGasPrice": "0x5b8d80",
      "blobGasUsed": "0x39d0",
      "from": "0xff6bdef4fb646ee44e29fe8fc0862b02f0ba8a33",
      "to": "0x73d677db3425edee764bf47c66dbb15217eefff6",
      "contractAddress": null,
      "daFootprintGasScalar": "0x94",
      "l1BaseFeeScalar": "0x44d",
      "l1BlobBaseFee": "0x1da6dd",
      "l1BlobBaseFeeScalar": "0xa118b",
      "l1Fee": "0xb7dab84",
      "l1GasPrice": "0x22f3405",
      "l1GasUsed": "0x640"
    },
    {
      "status": "0x1",
      "cumulativeGasUsed": "0x80c2ad",
      "logs": [
        {
          "address": "0x97bf2400d8c6d6e2c32fa0bb2c87269b62d677d2",
          "topics": [
            "0xbc7cd75a20ee27fd9adebab32041f755214dbc6bffa90cc0225b39da2e5c2d3b",
            "0x0000000000000000000000002cc441de7f38c34057b822dc486f3dd9061fea73"
          ],
          "data": "0x",
          "blockHash": "0xd9bf72b86cd788516449b5253461ca686acafaa385703fbf75542062199f25be",
          "blockNumber": "0x26ebd91",
          "blockTimestamp": "0x69f0da02",
          "transactionHash": "0x3f46eb787c30d07b32879e2c5677d9ea9683e6ca5c6b34410369abc887863d4b",
          "transactionIndex": "0x12",
          "logIndex": "0x7d",
          "removed": false
        },
        {
          "address": "0x97bf2400d8c6d6e2c32fa0bb2c87269b62d677d2",
          "topics": [
            "0xc7f505b2f371ae2175ee4913f4499e1f2633a7b5936321eed1cdaeb6115181d2"
          ],
          "data": "0x0000000000000000000000000000000000000000000000000000000000000001",
          "blockHash": "0xd9bf72b86cd788516449b5253461ca686acafaa385703fbf75542062199f25be",
          "blockNumber": "0x26ebd91",
          "blockTimestamp": "0x69f0da02",
          "transactionHash": "0x3f46eb787c30d07b32879e2c5677d9ea9683e6ca5c6b34410369abc887863d4b",
          "transactionIndex": "0x12",
          "logIndex": "0x7e",
          "removed": false
        },
        {
          "address": "0xa1ad432198d031a193dfe66249727bad8e3e5bdc",
          "topics": [
            "0x8be0079c531659141344cd1fd0a4f28419497f9722a3daafe3b4186f6b6457e0",
            "0x0000000000000000000000000000000000000000000000000000000000000000",
            "0x000000000000000000000000ff6bdef4fb646ee44e29fe8fc0862b02f0ba8a33"
          ],
          "data": "0x",
          "blockHash": "0xd9bf72b86cd788516449b5253461ca686acafaa385703fbf75542062199f25be",
          "blockNumber": "0x26ebd91",
          "blockTimestamp": "0x69f0da02",
          "transactionHash": "0x3f46eb787c30d07b32879e2c5677d9ea9683e6ca5c6b34410369abc887863d4b",
          "transactionIndex": "0x12",
          "logIndex": "0x7f",
          "removed": false
        },
        {
          "address": "0x97bf2400d8c6d6e2c32fa0bb2c87269b62d677d2",
          "topics": [
            "0x7e644d79422f17c01e4894b5f4f588d331ebfa28653d42ae832dc59e38c9798f"
          ],
          "data": "0x0000000000000000000000000000000000000000000000000000000000000000000000000000000000000000a1ad432198d031a193dfe66249727bad8e3e5bdc",
          "blockHash": "0xd9bf72b86cd788516449b5253461ca686acafaa385703fbf75542062199f25be",
          "blockNumber": "0x26ebd91",
          "blockTimestamp": "0x69f0da02",
          "transactionHash": "0x3f46eb787c30d07b32879e2c5677d9ea9683e6ca5c6b34410369abc887863d4b",
          "transactionIndex": "0x12",
          "logIndex": "0x80",
          "removed": false
        },
        {
          "address": "0x69639ea733ca22f87628df5b48e7c943c30c4371",
          "topics": [
            "0xbc7cd75a20ee27fd9adebab32041f755214dbc6bffa90cc0225b39da2e5c2d3b",
            "0x00000000000000000000000096ee1b53a5489fc2e5f3fa31cd74a295ccbf1457"
          ],
          "data": "0x",
          "blockHash": "0xd9bf72b86cd788516449b5253461ca686acafaa385703fbf75542062199f25be",
          "blockNumber": "0x26ebd91",
          "blockTimestamp": "0x69f0da02",
          "transactionHash": "0x3f46eb787c30d07b32879e2c5677d9ea9683e6ca5c6b34410369abc887863d4b",
          "transactionIndex": "0x12",
          "logIndex": "0x81",
          "removed": false
        },
        {
          "address": "0x69639ea733ca22f87628df5b48e7c943c30c4371",
          "topics": [
            "0xc7f505b2f371ae2175ee4913f4499e1f2633a7b5936321eed1cdaeb6115181d2"
          ],
          "data": "0x0000000000000000000000000000000000000000000000000000000000000001",
          "blockHash": "0xd9bf72b86cd788516449b5253461ca686acafaa385703fbf75542062199f25be",
          "blockNumber": "0x26ebd91",
          "blockTimestamp": "0x69f0da02",
          "transactionHash": "0x3f46eb787c30d07b32879e2c5677d9ea9683e6ca5c6b34410369abc887863d4b",
          "transactionIndex": "0x12",
          "logIndex": "0x82",
          "removed": false
        },
        {
          "address": "0x69af672d96bef622e02019a9ce161089dc210a82",
          "topics": [
            "0x8be0079c531659141344cd1fd0a4f28419497f9722a3daafe3b4186f6b6457e0",
            "0x0000000000000000000000000000000000000000000000000000000000000000",
            "0x000000000000000000000000ff6bdef4fb646ee44e29fe8fc0862b02f0ba8a33"
          ],
          "data": "0x",
          "blockHash": "0xd9bf72b86cd788516449b5253461ca686acafaa385703fbf75542062199f25be",
          "blockNumber": "0x26ebd91",
          "blockTimestamp": "0x69f0da02",
          "transactionHash": "0x3f46eb787c30d07b32879e2c5677d9ea9683e6ca5c6b34410369abc887863d4b",
          "transactionIndex": "0x12",
          "logIndex": "0x83",
          "removed": false
        },
        {
          "address": "0x69639ea733ca22f87628df5b48e7c943c30c4371",
          "topics": [
            "0x7e644d79422f17c01e4894b5f4f588d331ebfa28653d42ae832dc59e38c9798f"
          ],
          "data": "0x000000000000000000000000000000000000000000000000000000000000000000000000000000000000000069af672d96bef622e02019a9ce161089dc210a82",
          "blockHash": "0xd9bf72b86cd788516449b5253461ca686acafaa385703fbf75542062199f25be",
          "blockNumber": "0x26ebd91",
          "blockTimestamp": "0x69f0da02",
          "transactionHash": "0x3f46eb787c30d07b32879e2c5677d9ea9683e6ca5c6b34410369abc887863d4b",
          "transactionIndex": "0x12",
          "logIndex": "0x84",
          "removed": false
        },
        {
          "address": "0xde0b0c3026b0169dde281adc868bb1edeadc234e",
          "topics": [
            "0xbc7cd75a20ee27fd9adebab32041f755214dbc6bffa90cc0225b39da2e5c2d3b",
            "0x000000000000000000000000274a2f81cd09063fe63b5e748f0c0d345d058169"
          ],
          "data": "0x",
          "blockHash": "0xd9bf72b86cd788516449b5253461ca686acafaa385703fbf75542062199f25be",
          "blockNumber": "0x26ebd91",
          "blockTimestamp": "0x69f0da02",
          "transactionHash": "0x3f46eb787c30d07b32879e2c5677d9ea9683e6ca5c6b34410369abc887863d4b",
          "transactionIndex": "0x12",
          "logIndex": "0x85",
          "removed": false
        },
        {
          "address": "0xde0b0c3026b0169dde281adc868bb1edeadc234e",
          "topics": [
            "0xc7f505b2f371ae2175ee4913f4499e1f2633a7b5936321eed1cdaeb6115181d2"
          ],
          "data": "0x0000000000000000000000000000000000000000000000000000000000000001",
          "blockHash": "0xd9bf72b86cd788516449b5253461ca686acafaa385703fbf75542062199f25be",
          "blockNumber": "0x26ebd91",
          "blockTimestamp": "0x69f0da02",
          "transactionHash": "0x3f46eb787c30d07b32879e2c5677d9ea9683e6ca5c6b34410369abc887863d4b",
          "transactionIndex": "0x12",
          "logIndex": "0x86",
          "removed": false
        },
        {
          "address": "0x5d9414b0cd3ff866fa6092dda3147a6cc7066e5e",
          "topics": [
            "0x8be0079c531659141344cd1fd0a4f28419497f9722a3daafe3b4186f6b6457e0",
            "0x0000000000000000000000000000000000000000000000000000000000000000",
            "0x000000000000000000000000ff6bdef4fb646ee44e29fe8fc0862b02f0ba8a33"
          ],
          "data": "0x",
          "blockHash": "0xd9bf72b86cd788516449b5253461ca686acafaa385703fbf75542062199f25be",
          "blockNumber": "0x26ebd91",
          "blockTimestamp": "0x69f0da02",
          "transactionHash": "0x3f46eb787c30d07b32879e2c5677d9ea9683e6ca5c6b34410369abc887863d4b",
          "transactionIndex": "0x12",
          "logIndex": "0x87",
          "removed": false
        },
        {
          "address": "0xde0b0c3026b0169dde281adc868bb1edeadc234e",
          "topics": [
            "0x7e644d79422f17c01e4894b5f4f588d331ebfa28653d42ae832dc59e38c9798f"
          ],
          "data": "0x00000000000000000000000000000000000000000000000000000000000000000000000000000000000000005d9414b0cd3ff866fa6092dda3147a6cc7066e5e",
          "blockHash": "0xd9bf72b86cd788516449b5253461ca686acafaa385703fbf75542062199f25be",
          "blockNumber": "0x26ebd91",
          "blockTimestamp": "0x69f0da02",
          "transactionHash": "0x3f46eb787c30d07b32879e2c5677d9ea9683e6ca5c6b34410369abc887863d4b",
          "transactionIndex": "0x12",
          "logIndex": "0x88",
          "removed": false
        },
        {
          "address": "0x66e27807a191add8cd8dd302fd23f53f18d04e7d",
          "topics": [
            "0xbc7cd75a20ee27fd9adebab32041f755214dbc6bffa90cc0225b39da2e5c2d3b",
            "0x0000000000000000000000005ed362a99bd45db191e9b03ec7c696310db8c602"
          ],
          "data": "0x",
          "blockHash": "0xd9bf72b86cd788516449b5253461ca686acafaa385703fbf75542062199f25be",
          "blockNumber": "0x26ebd91",
          "blockTimestamp": "0x69f0da02",
          "transactionHash": "0x3f46eb787c30d07b32879e2c5677d9ea9683e6ca5c6b34410369abc887863d4b",
          "transactionIndex": "0x12",
          "logIndex": "0x89",
          "removed": false
        },
        {
          "address": "0x66e27807a191add8cd8dd302fd23f53f18d04e7d",
          "topics": [
            "0xc7f505b2f371ae2175ee4913f4499e1f2633a7b5936321eed1cdaeb6115181d2"
          ],
          "data": "0x0000000000000000000000000000000000000000000000000000000000000001",
          "blockHash": "0xd9bf72b86cd788516449b5253461ca686acafaa385703fbf75542062199f25be",
          "blockNumber": "0x26ebd91",
          "blockTimestamp": "0x69f0da02",
          "transactionHash": "0x3f46eb787c30d07b32879e2c5677d9ea9683e6ca5c6b34410369abc887863d4b",
          "transactionIndex": "0x12",
          "logIndex": "0x8a",
          "removed": false
        },
        {
          "address": "0x56f3ba286be24c395575a54b1823cb8492398124",
          "topics": [
            "0x8be0079c531659141344cd1fd0a4f28419497f9722a3daafe3b4186f6b6457e0",
            "0x0000000000000000000000000000000000000000000000000000000000000000",
            "0x000000000000000000000000ff6bdef4fb646ee44e29fe8fc0862b02f0ba8a33"
          ],
          "data": "0x",
          "blockHash": "0xd9bf72b86cd788516449b5253461ca686acafaa385703fbf75542062199f25be",
          "blockNumber": "0x26ebd91",
          "blockTimestamp": "0x69f0da02",
          "transactionHash": "0x3f46eb787c30d07b32879e2c5677d9ea9683e6ca5c6b34410369abc887863d4b",
          "transactionIndex": "0x12",
          "logIndex": "0x8b",
          "removed": false
        },
        {
          "address": "0x66e27807a191add8cd8dd302fd23f53f18d04e7d",
          "topics": [
            "0x7e644d79422f17c01e4894b5f4f588d331ebfa28653d42ae832dc59e38c9798f"
          ],
          "data": "0x000000000000000000000000000000000000000000000000000000000000000000000000000000000000000056f3ba286be24c395575a54b1823cb8492398124",
          "blockHash": "0xd9bf72b86cd788516449b5253461ca686acafaa385703fbf75542062199f25be",
          "blockNumber": "0x26ebd91",
          "blockTimestamp": "0x69f0da02",
          "transactionHash": "0x3f46eb787c30d07b32879e2c5677d9ea9683e6ca5c6b34410369abc887863d4b",
          "transactionIndex": "0x12",
          "logIndex": "0x8c",
          "removed": false
        },
        {
          "address": "0x39df5be15d31c491a913b70d8f2d5ed8832e647f",
          "topics": [
            "0xbc7cd75a20ee27fd9adebab32041f755214dbc6bffa90cc0225b39da2e5c2d3b",
            "0x000000000000000000000000ccd1ff1748e3873b0e56b5cceb67f0e0b7f69f87"
          ],
          "data": "0x",
          "blockHash": "0xd9bf72b86cd788516449b5253461ca686acafaa385703fbf75542062199f25be",
          "blockNumber": "0x26ebd91",
          "blockTimestamp": "0x69f0da02",
          "transactionHash": "0x3f46eb787c30d07b32879e2c5677d9ea9683e6ca5c6b34410369abc887863d4b",
          "transactionIndex": "0x12",
          "logIndex": "0x8d",
          "removed": false
        },
        {
          "address": "0x39df5be15d31c491a913b70d8f2d5ed8832e647f",
          "topics": [
            "0xc7f505b2f371ae2175ee4913f4499e1f2633a7b5936321eed1cdaeb6115181d2"
          ],
          "data": "0x0000000000000000000000000000000000000000000000000000000000000001",
          "blockHash": "0xd9bf72b86cd788516449b5253461ca686acafaa385703fbf75542062199f25be",
          "blockNumber": "0x26ebd91",
          "blockTimestamp": "0x69f0da02",
          "transactionHash": "0x3f46eb787c30d07b32879e2c5677d9ea9683e6ca5c6b34410369abc887863d4b",
          "transactionIndex": "0x12",
          "logIndex": "0x8e",
          "removed": false
        },
        {
          "address": "0xcac535241bfae7cf34d16916d79e3256f106cf61",
          "topics": [
            "0x8be0079c531659141344cd1fd0a4f28419497f9722a3daafe3b4186f6b6457e0",
            "0x0000000000000000000000000000000000000000000000000000000000000000",
            "0x000000000000000000000000ff6bdef4fb646ee44e29fe8fc0862b02f0ba8a33"
          ],
          "data": "0x",
          "blockHash": "0xd9bf72b86cd788516449b5253461ca686acafaa385703fbf75542062199f25be",
          "blockNumber": "0x26ebd91",
          "blockTimestamp": "0x69f0da02",
          "transactionHash": "0x3f46eb787c30d07b32879e2c5677d9ea9683e6ca5c6b34410369abc887863d4b",
          "transactionIndex": "0x12",
          "logIndex": "0x8f",
          "removed": false
        },
        {
          "address": "0x39df5be15d31c491a913b70d8f2d5ed8832e647f",
          "topics": [
            "0x7e644d79422f17c01e4894b5f4f588d331ebfa28653d42ae832dc59e38c9798f"
          ],
          "data": "0x0000000000000000000000000000000000000000000000000000000000000000000000000000000000000000cac535241bfae7cf34d16916d79e3256f106cf61",
          "blockHash": "0xd9bf72b86cd788516449b5253461ca686acafaa385703fbf75542062199f25be",
          "blockNumber": "0x26ebd91",
          "blockTimestamp": "0x69f0da02",
          "transactionHash": "0x3f46eb787c30d07b32879e2c5677d9ea9683e6ca5c6b34410369abc887863d4b",
          "transactionIndex": "0x12",
          "logIndex": "0x90",
          "removed": false
        },
        {
          "address": "0x73d677db3425edee764bf47c66dbb15217eefff6",
          "topics": [
            "0x3d0d0506c8fbb4fe692d4bb7a08d56876fec8ff877b533d59f460ce6e1658c69",
            "0x00000000000000000000000097bf2400d8c6d6e2c32fa0bb2c87269b62d677d2",
            "0x000000000000000000000000ff6bdef4fb646ee44e29fe8fc0862b02f0ba8a33"
          ],
          "data": "0x00000000000000000000000069639ea733ca22f87628df5b48e7c943c30c437100000000000000000000000039df5be15d31c491a913b70d8f2d5ed8832e647f000000000000000000000000de0b0c3026b0169dde281adc868bb1edeadc234e00000000000000000000000066e27807a191add8cd8dd302fd23f53f18d04e7d00000000000000000000000000000000000000000000000001ff973cafa8000000000000000000000000000000000000000000000000152d02c7e14af6800000000000000000000000000000000000000000000000004a1d89bb94865ec000000000000000000000000000000000000000000000000000000000000069f22b7000000000000000000000000000000000000000000000000000000000000007080000000000000000000000000000000000000000000000000de0b6b3a76400000000000000000000000000000000000000000000000000000000000069f0da0200000000000000000000000000000000000000000000010f0cf064dd5920000000000000000000000000000000000000000000000000000d8d726b7177a8000000000000000000000000000000000000000000000000000000000000000007ee0000000000000000000000000000000000000000000000000000000000000003",
          "blockHash": "0xd9bf72b86cd788516449b5253461ca686acafaa385703fbf75542062199f25be",
          "blockNumber": "0x26ebd91",
          "blockTimestamp": "0x69f0da02",
          "transactionHash": "0x3f46eb787c30d07b32879e2c5677d9ea9683e6ca5c6b34410369abc887863d4b",
          "transactionIndex": "0x12",
          "logIndex": "0x91",
          "removed": false
        }
      ],
      "logsBloom": "0x80000000000080000000100000000000400000000000000000880000000000001004000000008002000080000000000008000000000240010000002000000004005000080000000000800000000002000001000000000001040020040000000400000000020000000000000000200800900000800000000000000011000010400020000002000000000810000004000010400000010080000000000000800000000000410020000000000000004000000000000000080000000100200000000000000020010000000000000008010000010000000404000000400000000020204000010400000000000000000000010000200000000002000000000004000000",
      "type": "0x2",
      "transactionHash": "0x3f46eb787c30d07b32879e2c5677d9ea9683e6ca5c6b34410369abc887863d4b",
      "transactionIndex": "0x12",
      "blockHash": "0xd9bf72b86cd788516449b5253461ca686acafaa385703fbf75542062199f25be",
      "blockNumber": "0x26ebd91",
      "gasUsed": "0x3a383b",
      "effectiveGasPrice": "0x5b8d80",
      "blobGasUsed": "0x9af0",
      "from": "0xff6bdef4fb646ee44e29fe8fc0862b02f0ba8a33",
      "to": "0x73d677db3425edee764bf47c66dbb15217eefff6",
      "contractAddress": null,
      "daFootprintGasScalar": "0x94",
      "l1BaseFeeScalar": "0x44d",
      "l1BlobBaseFee": "0x1da6dd",
      "l1BlobBaseFeeScalar": "0xa118b",
      "l1Fee": "0x1edd1a1d",
      "l1GasPrice": "0x22f3405",
      "l1GasUsed": "0x10c9"
    },
    {
      "status": "0x1",
      "cumulativeGasUsed": "0x93603c",
      "logs": [
        {
          "address": "0x97bf2400d8c6d6e2c32fa0bb2c87269b62d677d2",
          "topics": [
            "0x1809803edc7f4d0a1c400a8f95cac12ace860d60e118b6c9b491082a623963df",
            "0x000000000000000000000000a07e3dbb5bc40f11723213e3a236b408b862c1ff"
          ],
          "data": "0x00000000000000000000000000000000000000000000000000000000000000800000000000000000000000000000000000000000000000000000000000000000000000000000000000000000000000000000000000000000000000000002328000000000000000000000000000000000000000000000000000000000000000000000000000000000000000000000000000000000000000000000000000000000",
          "blockHash": "0xbab054d5669aeb1ffebf9ec4eb9be2edaa210d011a444238c1d245b516f23b70",
          "blockNumber": "0x26ebd92",
          "blockTimestamp": "0x69f0da04",
          "transactionHash": "0x8f8dc4ff91b2e59f4cd42253d679180758d21cfc63eeaba071cb61399cd733e0",
          "transactionIndex": "0x1e",
          "logIndex": "0x13b",
          "removed": false
        }
      ],
      "logsBloom": "0x00000000000000000000800000000000000000000000000400000000000000000000000000000000000000000000000000000000000000008000000000000000000000000000000000000000000000000000000000000000000000000000000400000000000000000000000000000000000000000000010000000001000000000000000000000000000000000000000000000000000000000000000000000000000000000000000000000000000000000000000000000000000100000000000000000000000000000010000000000000000000000000000000000000000000000000000000000000000000000000000000000000000002000000000000000000",
      "type": "0x2",
      "transactionHash": "0x8f8dc4ff91b2e59f4cd42253d679180758d21cfc63eeaba071cb61399cd733e0",
      "transactionIndex": "0x1e",
      "blockHash": "0xbab054d5669aeb1ffebf9ec4eb9be2edaa210d011a444238c1d245b516f23b70",
      "blockNumber": "0x26ebd92",
      "gasUsed": "0x1f078",
      "effectiveGasPrice": "0x5b8d80",
      "blobGasUsed": "0x39d0",
      "from": "0xff6bdef4fb646ee44e29fe8fc0862b02f0ba8a33",
      "to": "0x97bf2400d8c6d6e2c32fa0bb2c87269b62d677d2",
      "contractAddress": null,
      "daFootprintGasScalar": "0x94",
      "l1BaseFeeScalar": "0x44d",
      "l1BlobBaseFee": "0x1da6dd",
      "l1BlobBaseFeeScalar": "0xa118b",
      "l1Fee": "0xb7dab84",
      "l1GasPrice": "0x22f3405",
      "l1GasUsed": "0x640"
    },
    {
      "status": "0x1",
      "cumulativeGasUsed": "0x565b31",
      "logs": [
        {
          "address": "0xa07e3dbb5bc40f11723213e3a236b408b862c1ff",
          "topics": [
            "0x8c5be1e5ebec7d5bd14f71427d1e84f3dd0314c0f7b2291e5b200ac8c7c3b925",
            "0x000000000000000000000000ff6bdef4fb646ee44e29fe8fc0862b02f0ba8a33",
            "0x00000000000000000000000097bf2400d8c6d6e2c32fa0bb2c87269b62d677d2"
          ],
          "data": "0xffffffffffffffffffffffffffffffffffffffffffffffffffffffffffffffff",
          "blockHash": "0xeedceec8ca6ace620f06d004698b9e3d9a8405bb68a78d2f0e5eb3422dcfbf3b",
          "blockNumber": "0x26ebd93",
          "blockTimestamp": "0x69f0da06",
          "transactionHash": "0xf5443c46dfbb84b6d8fe766e377c6232a75ece65e695d8cb268c9cebaf7c0391",
          "transactionIndex": "0x1a",
          "logIndex": "0x68",
          "removed": false
        }
      ],
      "logsBloom": "0x80000000000080000000100000000000000000000000000000000000000000000000000000000000000000000000000000000000000000000000000000a00000000000000000000000000000000000000000000000000001000000000000000000000000000000000000000000000000000000000000040200000000000000000000000000000000000000000000000000000000000000000000000000000000020000000000000000000000000000000000000000000000000000000000000000000000000000000000000000010000000000000000000000000000000000000010000000000000000000000000000000000000000000000000000004000000",
      "type": "0x2",
      "transactionHash": "0xf5443c46dfbb84b6d8fe766e377c6232a75ece65e695d8cb268c9cebaf7c0391",
      "transactionIndex": "0x1a",
      "blockHash": "0xeedceec8ca6ace620f06d004698b9e3d9a8405bb68a78d2f0e5eb3422dcfbf3b",
      "blockNumber": "0x26ebd93",
      "gasUsed": "0xb4bf",
      "effectiveGasPrice": "0x5b8d80",
      "blobGasUsed": "0x39d0",
      "from": "0xff6bdef4fb646ee44e29fe8fc0862b02f0ba8a33",
      "to": "0xa07e3dbb5bc40f11723213e3a236b408b862c1ff",
      "contractAddress": null,
      "daFootprintGasScalar": "0x94",
      "l1BaseFeeScalar": "0x44d",
      "l1BlobBaseFee": "0x1da6dd",
      "l1BlobBaseFeeScalar": "0xa118b",
      "l1Fee": "0xb7dab84",
      "l1GasPrice": "0x22f3405",
      "l1GasUsed": "0x640"
    },
    {
      "status": "0x1",
      "cumulativeGasUsed": "0x420a3a",
      "logs": [
        {
          "address": "0xa07e3dbb5bc40f11723213e3a236b408b862c1ff",
          "topics": [
            "0xddf252ad1be2c89b69c2b068fc378daa952ba7f163c4a11628f55a4df523b3ef",
            "0x000000000000000000000000ff6bdef4fb646ee44e29fe8fc0862b02f0ba8a33",
            "0x00000000000000000000000097bf2400d8c6d6e2c32fa0bb2c87269b62d677d2"
          ],
          "data": "0x0000000000000000000000000000000000000000000000000000000405f7e000",
          "blockHash": "0xb64cfcbf8fa80ddc470bd5d91dc647a450af9173e519431451044c5c966735db",
          "blockNumber": "0x26ebd94",
          "blockTimestamp": "0x69f0da08",
          "transactionHash": "0x9d2e7ae5a5333d7635ba597f601fec49866b344d7937b5f79b9e0553d29aad57",
          "transactionIndex": "0x16",
          "logIndex": "0xa9",
          "removed": false
        },
        {
          "address": "0xa07e3dbb5bc40f11723213e3a236b408b862c1ff",
          "topics": [
            "0xddf252ad1be2c89b69c2b068fc378daa952ba7f163c4a11628f55a4df523b3ef",
            "0x00000000000000000000000097bf2400d8c6d6e2c32fa0bb2c87269b62d677d2",
            "0x000000000000000000000000ff6bdef4fb646ee44e29fe8fc0862b02f0ba8a33"
          ],
          "data": "0x000000000000000000000000000000000000000000000000000000001ee62800",
          "blockHash": "0xb64cfcbf8fa80ddc470bd5d91dc647a450af9173e519431451044c5c966735db",
          "blockNumber": "0x26ebd94",
          "blockTimestamp": "0x69f0da08",
          "transactionHash": "0x9d2e7ae5a5333d7635ba597f601fec49866b344d7937b5f79b9e0553d29aad57",
          "transactionIndex": "0x16",
          "logIndex": "0xaa",
          "removed": false
        },
        {
          "address": "0x97bf2400d8c6d6e2c32fa0bb2c87269b62d677d2",
          "topics": [
            "0x4dd12c0ecba594b5bb7a4e3ec05ef19e1135fed23711a1fe4b1c9e6c9b40391b",
            "0x000000000000000000000000ff6bdef4fb646ee44e29fe8fc0862b02f0ba8a33",
            "0x000000000000000000000000a07e3dbb5bc40f11723213e3a236b408b862c1ff"
          ],
          "data": "0x000000000000000000000000000000000000000000000000000000001ee62800",
          "blockHash": "0xb64cfcbf8fa80ddc470bd5d91dc647a450af9173e519431451044c5c966735db",
          "blockNumber": "0x26ebd94",
          "blockTimestamp": "0x69f0da08",
          "transactionHash": "0x9d2e7ae5a5333d7635ba597f601fec49866b344d7937b5f79b9e0553d29aad57",
          "transactionIndex": "0x16",
          "logIndex": "0xab",
          "removed": false
        },
        {
          "address": "0x69639ea733ca22f87628df5b48e7c943c30c4371",
          "topics": [
            "0xddf252ad1be2c89b69c2b068fc378daa952ba7f163c4a11628f55a4df523b3ef",
            "0x0000000000000000000000000000000000000000000000000000000000000000",
            "0x000000000000000000000000ff6bdef4fb646ee44e29fe8fc0862b02f0ba8a33"
          ],
          "data": "0x000000000000000000000000000000000000000000001969368974c05b000000",
          "blockHash": "0xb64cfcbf8fa80ddc470bd5d91dc647a450af9173e519431451044c5c966735db",
          "blockNumber": "0x26ebd94",
          "blockTimestamp": "0x69f0da08",
          "transactionHash": "0x9d2e7ae5a5333d7635ba597f601fec49866b344d7937b5f79b9e0553d29aad57",
          "transactionIndex": "0x16",
          "logIndex": "0xac",
          "removed": false
        },
        {
          "address": "0x97bf2400d8c6d6e2c32fa0bb2c87269b62d677d2",
          "topics": [
            "0x0b9c8304b83df3d2827b952a8e4c87faef3556dddcde57a47cb80f0c755606a5",
            "0x000000000000000000000000ff6bdef4fb646ee44e29fe8fc0862b02f0ba8a33",
            "0x000000000000000000000000a07e3dbb5bc40f11723213e3a236b408b862c1ff"
          ],
          "data": "0x0000000000000000000000000000000000000000000000000000000405f7e000000000000000000000000000000000000000000000001969368974c05b0000000000000000000000000000000000000000000000000000000000000000000000000000000000000000000000000000000000000000001969368974c05b000000",
          "blockHash": "0xb64cfcbf8fa80ddc470bd5d91dc647a450af9173e519431451044c5c966735db",
          "blockNumber": "0x26ebd94",
          "blockTimestamp": "0x69f0da08",
          "transactionHash": "0x9d2e7ae5a5333d7635ba597f601fec49866b344d7937b5f79b9e0553d29aad57",
          "transactionIndex": "0x16",
          "logIndex": "0xad",
          "removed": false
        },
        {
          "address": "0xa07e3dbb5bc40f11723213e3a236b408b862c1ff",
          "topics": [
            "0xddf252ad1be2c89b69c2b068fc378daa952ba7f163c4a11628f55a4df523b3ef",
            "0x00000000000000000000000097bf2400d8c6d6e2c32fa0bb2c87269b62d677d2",
            "0x000000000000000000000000ff6bdef4fb646ee44e29fe8fc0862b02f0ba8a33"
          ],
          "data": "0x00000000000000000000000000000000000000000000000000000003e711b800",
          "blockHash": "0xb64cfcbf8fa80ddc470bd5d91dc647a450af9173e519431451044c5c966735db",
          "blockNumber": "0x26ebd94",
          "blockTimestamp": "0x69f0da08",
          "transactionHash": "0x9d2e7ae5a5333d7635ba597f601fec49866b344d7937b5f79b9e0553d29aad57",
          "transactionIndex": "0x16",
          "logIndex": "0xae",
          "removed": false
        },
        {
          "address": "0x97bf2400d8c6d6e2c32fa0bb2c87269b62d677d2",
          "topics": [
            "0x120bfc1de29621f7872a5b3129b6524ceb18df8c689a37496b8ee4007235dbc8"
          ],
          "data": "0x00000000000000000000000000000000000000000000000000000000000000000000000000000000000000000000000000000000000000000000000000000001",
          "blockHash": "0xb64cfcbf8fa80ddc470bd5d91dc647a450af9173e519431451044c5c966735db",
          "blockNumber": "0x26ebd94",
          "blockTimestamp": "0x69f0da08",
          "transactionHash": "0x9d2e7ae5a5333d7635ba597f601fec49866b344d7937b5f79b9e0553d29aad57",
          "transactionIndex": "0x16",
          "logIndex": "0xaf",
          "removed": false
        },
        {
          "address": "0x97bf2400d8c6d6e2c32fa0bb2c87269b62d677d2",
          "topics": [
            "0xccb4518c7bb9cdee893961401854c0ac29fad869f3338dc3087c9215fa4ab9e1"
          ],
          "data": "0x0000000000000000000000000000000000000000000000000000000000000000000000000000000000000000000000000000000000001969368974c05b000000",
          "blockHash": "0xb64cfcbf8fa80ddc470bd5d91dc647a450af9173e519431451044c5c966735db",
          "blockNumber": "0x26ebd94",
          "blockTimestamp": "0x69f0da08",
          "transactionHash": "0x9d2e7ae5a5333d7635ba597f601fec49866b344d7937b5f79b9e0553d29aad57",
          "transactionIndex": "0x16",
          "logIndex": "0xb0",
          "removed": false
        }
      ],
      "logsBloom": "0x80000000000080000000900000000000000000000000400080000000000008000000000000000000000000000000000000000000000000000000000000800000000000000000000000000008000010000000000000800001000000000000000400000000020000000000000000000800100000000000050200000011001000000000000000000000000000000000000000000000000000000000000000000000000000010000000000100020000000000000000000000000000100000000000000400002000000000010000000012000000000000000004000000000000020000000000002000000000000000000010000000000000000000000000004000000",
      "type": "0x2",
      "transactionHash": "0x9d2e7ae5a5333d7635ba597f601fec49866b344d7937b5f79b9e0553d29aad57",
      "transactionIndex": "0x16",
      "blockHash": "0xb64cfcbf8fa80ddc470bd5d91dc647a450af9173e519431451044c5c966735db",
      "blockNumber": "0x26ebd94",
      "gasUsed": "0x495b1",
      "effectiveGasPrice": "0x5b8d80",
      "blobGasUsed": "0x39d0",
      "from": "0xff6bdef4fb646ee44e29fe8fc0862b02f0ba8a33",
      "to": "0x97bf2400d8c6d6e2c32fa0bb2c87269b62d677d2",
      "contractAddress": null,
      "daFootprintGasScalar": "0x94",
      "l1BaseFeeScalar": "0x44d",
      "l1BlobBaseFee": "0x1da6dd",
      "l1BlobBaseFeeScalar": "0xa118b",
      "l1Fee": "0xb7dab84",
      "l1GasPrice": "0x22f3405",
      "l1GasUsed": "0x640"
    },
    {
      "status": "0x1",
      "cumulativeGasUsed": "0x253e28",
      "logs": [
        {
          "address": "0xa07e3dbb5bc40f11723213e3a236b408b862c1ff",
          "topics": [
            "0xddf252ad1be2c89b69c2b068fc378daa952ba7f163c4a11628f55a4df523b3ef",
            "0x000000000000000000000000ff6bdef4fb646ee44e29fe8fc0862b02f0ba8a33",
            "0x00000000000000000000000097bf2400d8c6d6e2c32fa0bb2c87269b62d677d2"
          ],
          "data": "0x000000000000000000000000000000000000000000000000000000037e11d600",
          "blockHash": "0x81fb276f4b0ecd6fd5a99dc602b4f9d42418933f4e97dd279b62719772cb24ee",
          "blockNumber": "0x26ebd96",
          "blockTimestamp": "0x69f0da0c",
          "transactionHash": "0x958af21c89feaa9d6f136b6ccd1da16789493a585b93ee11c0531794c9b45557",
          "transactionIndex": "0x5",
          "logIndex": "0xa2",
          "removed": false
        },
        {
          "address": "0x97bf2400d8c6d6e2c32fa0bb2c87269b62d677d2",
          "topics": [
            "0xaff82f4178df227ea409be11c927e414a908fb01481236913cec80ea866b2468",
            "0x000000000000000000000000ff6bdef4fb646ee44e29fe8fc0862b02f0ba8a33"
          ],
          "data": "0x000000000000000000000000000000000000000000000000000000037e11d600000000000000000000000000000000000000000000000000000000037e11d600",
          "blockHash": "0x81fb276f4b0ecd6fd5a99dc602b4f9d42418933f4e97dd279b62719772cb24ee",
          "blockNumber": "0x26ebd96",
          "blockTimestamp": "0x69f0da0c",
          "transactionHash": "0x958af21c89feaa9d6f136b6ccd1da16789493a585b93ee11c0531794c9b45557",
          "transactionIndex": "0x5",
          "logIndex": "0xa3",
          "removed": false
        }
      ],
      "logsBloom": "0x80000000000080000000100000000000000000000000000000000000000000000000000000000000000000000000000000000000000000000000000000800000000000000000000000000008000000000000000000000001000000000000000400000000000000000000000000000000000000000000040200000011000000000000000000000002000000000000000000000000000000000000000000000000000000000000000000000000000000000000000000000000000100000000000001008002000000000000000000010000000000000000000000000000000000000000000000000000000000000000000000000000000000000000000004000000",
      "type": "0x2",
      "transactionHash": "0x958af21c89feaa9d6f136b6ccd1da16789493a585b93ee11c0531794c9b45557",
      "transactionIndex": "0x5",
      "blockHash": "0x81fb276f4b0ecd6fd5a99dc602b4f9d42418933f4e97dd279b62719772cb24ee",
      "blockNumber": "0x26ebd96",
      "gasUsed": "0x17b42",
      "effectiveGasPrice": "0x5b8d80",
      "blobGasUsed": "0x39d0",
      "from": "0xff6bdef4fb646ee44e29fe8fc0862b02f0ba8a33",
      "to": "0x97bf2400d8c6d6e2c32fa0bb2c87269b62d677d2",
      "contractAddress": null,
      "daFootprintGasScalar": "0x94",
      "l1BaseFeeScalar": "0x44d",
      "l1BlobBaseFee": "0x1e5316",
      "l1BlobBaseFeeScalar": "0xa118b",
      "l1Fee": "0xc05d4dc",
      "l1GasPrice": "0x2634c50",
      "l1GasUsed": "0x640"
    },
    {
      "status": "0x1",
      "cumulativeGasUsed": "0x36973a",
      "logs": [
        {
          "address": "0xde0b0c3026b0169dde281adc868bb1edeadc234e",
          "topics": [
            "0x8d160eff266df162107c57259a1f1e71787bd4ab800800826bd189d6f2f3e83c",
            "0x0000000000000000000000000000000000000000000000000000000000000001"
          ],
          "data": "0x0000000000000000000000000000000000000000000000000000000069f0da0e",
          "blockHash": "0x502e8062b8c2d2c1d1c20b758d78d8b6bdc96310fb56a1d14e31d39f09b8ccca",
          "blockNumber": "0x26ebd97",
          "blockTimestamp": "0x69f0da0e",
          "transactionHash": "0x855a093a065a0987bf606a895d5180491affe1211db576ae90b4a38639b28bda",
          "transactionIndex": "0x13",
          "logIndex": "0x77",
          "removed": false
        }
      ],
      "logsBloom": "0x00000000800000000000000000000000000000000000000000080000000000000000000000000000000000000000000000000000000000000000000000040000004000000000000000000000000000000000000000040000000000000000000000000000000000000000000000000000000000000000000000000000000000000000000000000000000000000000000000000000000000000000000000000000000000400000000000000000080000000000000000000000000000000000000000000000000000000000000000000000000000000000000000000000000040000000000200000000000000000000000000000000000000000000000000000000",
      "type": "0x2",
      "transactionHash": "0x855a093a065a0987bf606a895d5180491affe1211db576ae90b4a38639b28bda",
      "transactionIndex": "0x13",
      "blockHash": "0x502e8062b8c2d2c1d1c20b758d78d8b6bdc96310fb56a1d14e31d39f09b8ccca",
      "blockNumber": "0x26ebd97",
      "gasUsed": "0x24982",
      "effectiveGasPrice": "0x5b8d80",
      "blobGasUsed": "0x39d0",
      "from": "0xff6bdef4fb646ee44e29fe8fc0862b02f0ba8a33",
      "to": "0x97bf2400d8c6d6e2c32fa0bb2c87269b62d677d2",
      "contractAddress": null,
      "daFootprintGasScalar": "0x94",
      "l1BaseFeeScalar": "0x44d",
      "l1BlobBaseFee": "0x1e5316",
      "l1BlobBaseFeeScalar": "0xa118b",
      "l1Fee": "0xc05d4dc",
      "l1GasPrice": "0x2634c50",
      "l1GasUsed": "0x640"
    },
    {
      "status": "0x1",
      "cumulativeGasUsed": "0xc536d",
      "logs": [
        {
          "address": "0x69639ea733ca22f87628df5b48e7c943c30c4371",
          "topics": [
            "0x8c5be1e5ebec7d5bd14f71427d1e84f3dd0314c0f7b2291e5b200ac8c7c3b925",
            "0x000000000000000000000000ff6bdef4fb646ee44e29fe8fc0862b02f0ba8a33",
            "0x000000000000000000000000de0b0c3026b0169dde281adc868bb1edeadc234e"
          ],
          "data": "0xffffffffffffffffffffffffffffffffffffffffffffffffffffffffffffffff",
          "blockHash": "0x5eecf55930f2adf81c6a17c847eec4a87c88b5df8fcacf61ed5a9302ba2efa9f",
          "blockNumber": "0x26ebd99",
          "blockTimestamp": "0x69f0da12",
          "transactionHash": "0x40927b31404e33f7b2a5e6b17dade6d9ae32e46aab12b3350c7d7c130a46f3f3",
          "transactionIndex": "0x7",
          "logIndex": "0xf",
          "removed": false
        }
      ],
      "logsBloom": "0x00000000000000000000100000000000000000000000000000000000000000000000000000000000000000000000000000000080000000000000000000200000000000000000000000000000000000040000000000000001000000000000000000000000000000000000000000000000100000000000000000000000000000000000000000000000000000000000000000000000000000000000000000000000020000010000000000000000000000000000000000000000000000000000000000000000000000000000000000010000400000000000000000000000000000000010000000000000000000000000010000000000000000000000000000000000",
      "type": "0x2",
      "transactionHash": "0x40927b31404e33f7b2a5e6b17dade6d9ae32e46aab12b3350c7d7c130a46f3f3",
      "transactionIndex": "0x7",
      "blockHash": "0x5eecf55930f2adf81c6a17c847eec4a87c88b5df8fcacf61ed5a9302ba2efa9f",
      "blockNumber": "0x26ebd99",
      "gasUsed": "0xc841",
      "effectiveGasPrice": "0x5b8d80",
      "blobGasUsed": "0x39d0",
      "from": "0xff6bdef4fb646ee44e29fe8fc0862b02f0ba8a33",
      "to": "0x69639ea733ca22f87628df5b48e7c943c30c4371",
      "contractAddress": null,
      "daFootprintGasScalar": "0x94",
      "l1BaseFeeScalar": "0x44d",
      "l1BlobBaseFee": "0x1e5316",
      "l1BlobBaseFeeScalar": "0xa118b",
      "l1Fee": "0xc05d4dc",
      "l1GasPrice": "0x2634c50",
      "l1GasUsed": "0x640"
    },
    {
      "status": "0x1",
      "cumulativeGasUsed": "0x247e8f",
      "logs": [
        {
          "address": "0x69639ea733ca22f87628df5b48e7c943c30c4371",
          "topics": [
            "0xddf252ad1be2c89b69c2b068fc378daa952ba7f163c4a11628f55a4df523b3ef",
            "0x000000000000000000000000ff6bdef4fb646ee44e29fe8fc0862b02f0ba8a33",
            "0x000000000000000000000000de0b0c3026b0169dde281adc868bb1edeadc234e"
          ],
          "data": "0x000000000000000000000000000000000000000000001969368974c05b000000",
          "blockHash": "0x8cd98dac65d58fa7f8b221a770d42c957df5dd21341595c85d56be68b9b7db0f",
          "blockNumber": "0x26ebd9a",
          "blockTimestamp": "0x69f0da14",
          "transactionHash": "0x05cf89fb80a1445f898cccd582cbc4ca72b2dbe0cb34de5ce0230f5ee324361c",
          "transactionIndex": "0xe",
          "logIndex": "0x2a",
          "removed": false
        },
        {
          "address": "0xde0b0c3026b0169dde281adc868bb1edeadc234e",
          "topics": [
            "0x9cfd25589d1eb8ad71e342a86a8524e83522e3936c0803048c08f6d9ad974f40",
            "0x000000000000000000000000ff6bdef4fb646ee44e29fe8fc0862b02f0ba8a33",
            "0x0000000000000000000000000000000000000000000000000000000000000000"
          ],
          "data": "0x000000000000000000000000000000000000000000001969368974c05b000000000000000000000000000000000000000000000000001969368974c05b000000000000000000000000000000000000000000000000000000325b467d4221b6dc",
          "blockHash": "0x8cd98dac65d58fa7f8b221a770d42c957df5dd21341595c85d56be68b9b7db0f",
          "blockNumber": "0x26ebd9a",
          "blockTimestamp": "0x69f0da14",
          "transactionHash": "0x05cf89fb80a1445f898cccd582cbc4ca72b2dbe0cb34de5ce0230f5ee324361c",
          "transactionIndex": "0xe",
          "logIndex": "0x2b",
          "removed": false
        },
        {
          "address": "0xde0b0c3026b0169dde281adc868bb1edeadc234e",
          "topics": [
            "0x875894a489de1b1b13bf2e6c03981e3ddabcf1794b4b94dc5ba5d8e855a1e2f9"
          ],
          "data": "0x000000000000000000000000000000000000000000000000325b467d4221b6dc000000000000000000000000000000000000000000001969368974c05b000000000000000000000000000000000000000000000000004a1d89bb94865ec00000",
          "blockHash": "0x8cd98dac65d58fa7f8b221a770d42c957df5dd21341595c85d56be68b9b7db0f",
          "blockNumber": "0x26ebd9a",
          "blockTimestamp": "0x69f0da14",
          "transactionHash": "0x05cf89fb80a1445f898cccd582cbc4ca72b2dbe0cb34de5ce0230f5ee324361c",
          "transactionIndex": "0xe",
          "logIndex": "0x2c",
          "removed": false
        }
      ],
      "logsBloom": "0x00000000000000000000100000000000000000000000000000080000000000000000000000000000000000000000000000000080000000000008000000000000004000000000000000000008000000040000000000000001000000000000000000000000020000000000000000000800100000000000000000000010000000000000000000000000000000000000000000000000000000000000000000000000000000410000000000000010000000000000000000000000000000000000200000800002000000000000000000010000400000000000000000000000000020000000000000800000000000000000010000000000000000000000000000100000",
      "type": "0x2",
      "transactionHash": "0x05cf89fb80a1445f898cccd582cbc4ca72b2dbe0cb34de5ce0230f5ee324361c",
      "transactionIndex": "0xe",
      "blockHash": "0x8cd98dac65d58fa7f8b221a770d42c957df5dd21341595c85d56be68b9b7db0f",
      "blockNumber": "0x26ebd9a",
      "gasUsed": "0x47cb2",
      "effectiveGasPrice": "0x5b8d80",
      "blobGasUsed": "0x39d0",
      "from": "0xff6bdef4fb646ee44e29fe8fc0862b02f0ba8a33",
      "to": "0xde0b0c3026b0169dde281adc868bb1edeadc234e",
      "contractAddress": null,
      "daFootprintGasScalar": "0x94",
      "l1BaseFeeScalar": "0x44d",
      "l1BlobBaseFee": "0x1e5316",
      "l1BlobBaseFeeScalar": "0xa118b",
      "l1Fee": "0xc05d4dc",
      "l1GasPrice": "0x2634c50",
      "l1GasUsed": "0x640"
    },
    {
      "status": "0x1",
      "cumulativeGasUsed": "0x5c9a51",
      "logs": [
        {
          "address": "0xa07e3dbb5bc40f11723213e3a236b408b862c1ff",
          "topics": [
            "0xddf252ad1be2c89b69c2b068fc378daa952ba7f163c4a11628f55a4df523b3ef",
            "0x0000000000000000000000000000000000000000000000000000000000000000",
            "0x000000000000000000000000455ab6723ccab4cb62983710c33f6311cc85bc97"
          ],
          "data": "0x00000000000000000000000000000000000000000000000000000002540be400",
          "blockHash": "0x85664134a9e9fa89573dde8977c6add85c324a253c255448db6c38af5e1b0aba",
          "blockNumber": "0x26ebd9b",
          "blockTimestamp": "0x69f0da16",
          "transactionHash": "0x19180a7906b92f00376cb6ad7b33b5c23b17c84541fc20965c4b122d3f6cc400",
          "transactionIndex": "0x1a",
          "logIndex": "0xcd",
          "removed": false
        }
      ],
      "logsBloom": "0x00000000000000000000000000000000000000000000000000000000000000000000000000000000000000000000000000000000000000000000000000800000000000000000000000000008000000000000000000000000000000000000000000000000020000000000000000000800000000000000040200000010000100000000000000000000000000000002000000000000000000000000000000000000000000000000000000000000000000000000000000000000000000000000000000000002000000000000000000000000000000000000000000000000000020000000000000000000000000000000000000000000000000008000000000000000",
      "type": "0x2",
      "transactionHash": "0x19180a7906b92f00376cb6ad7b33b5c23b17c84541fc20965c4b122d3f6cc400",
      "transactionIndex": "0x1a",
      "blockHash": "0x85664134a9e9fa89573dde8977c6add85c324a253c255448db6c38af5e1b0aba",
      "blockNumber": "0x26ebd9b",
      "gasUsed": "0xc734",
      "effectiveGasPrice": "0x5b8d80",
      "blobGasUsed": "0x39d0",
      "from": "0xff6bdef4fb646ee44e29fe8fc0862b02f0ba8a33",
      "to": "0xa07e3dbb5bc40f11723213e3a236b408b862c1ff",
      "contractAddress": null,
      "daFootprintGasScalar": "0x94",
      "l1BaseFeeScalar": "0x44d",
      "l1BlobBaseFee": "0x1ff44b",
      "l1BlobBaseFeeScalar": "0xa118b",
      "l1Fee": "0xc72db44",
      "l1GasPrice": "0x2642492",
      "l1GasUsed": "0x640"
    },
    {
      "status": "0x1",
      "cumulativeGasUsed": "0x74a9cc",
      "logs": [
        {
          "address": "0xa07e3dbb5bc40f11723213e3a236b408b862c1ff",
          "topics": [
            "0x8c5be1e5ebec7d5bd14f71427d1e84f3dd0314c0f7b2291e5b200ac8c7c3b925",
            "0x000000000000000000000000455ab6723ccab4cb62983710c33f6311cc85bc97",
            "0x00000000000000000000000097bf2400d8c6d6e2c32fa0bb2c87269b62d677d2"
          ],
          "data": "0xffffffffffffffffffffffffffffffffffffffffffffffffffffffffffffffff",
          "blockHash": "0xacf2cf1d58cce49c8f8539288089bd0fb90e521d9fbfe5820d918fddeefb5a37",
          "blockNumber": "0x26ebd9c",
          "blockTimestamp": "0x69f0da18",
          "transactionHash": "0x493ad1acfb4e9629947936f1b39dcdc230c3c7b29613a8a6cf14bf9e1339d612",
          "transactionIndex": "0x16",
          "logIndex": "0x65",
          "removed": false
        }
      ],
      "logsBloom": "0x80000000000080000000000000000000000000000000000000000000000000000000000000000000000000000000000000000000000000000000000000a00000000000000000000000000000000000000000000000000000000000000000000000000000000000000000000000000000000000000000040200000000000100000000000000000000000000000002000000000000000000000000000000000000020000000000000000000000000000000000000000000000000000000000000000000000000000000000000000000000000000000000000000000000000000000010000000000000000000000000000000000000000000008000000004000000",
      "type": "0x2",
      "transactionHash": "0x493ad1acfb4e9629947936f1b39dcdc230c3c7b29613a8a6cf14bf9e1339d612",
      "transactionIndex": "0x16",
      "blockHash": "0xacf2cf1d58cce49c8f8539288089bd0fb90e521d9fbfe5820d918fddeefb5a37",
      "blockNumber": "0x26ebd9c",
      "gasUsed": "0xb4bf",
      "effectiveGasPrice": "0x5b8d80",
      "blobGasUsed": "0x39d0",
      "from": "0x455ab6723ccab4cb62983710c33f6311cc85bc97",
      "to": "0xa07e3dbb5bc40f11723213e3a236b408b862c1ff",
      "contractAddress": null,
      "daFootprintGasScalar": "0x94",
      "l1BaseFeeScalar": "0x44d",
      "l1BlobBaseFee": "0x1ff44b",
      "l1BlobBaseFeeScalar": "0xa118b",
      "l1Fee": "0xc72db44",
      "l1GasPrice": "0x2642492",
      "l1GasUsed": "0x640"
    },
    {
      "status": "0x1",
      "cumulativeGasUsed": "0x103f27",
      "logs": [
        {
          "address": "0xa07e3dbb5bc40f11723213e3a236b408b862c1ff",
          "topics": [
            "0xddf252ad1be2c89b69c2b068fc378daa952ba7f163c4a11628f55a4df523b3ef",
            "0x000000000000000000000000455ab6723ccab4cb62983710c33f6311cc85bc97",
            "0x00000000000000000000000097bf2400d8c6d6e2c32fa0bb2c87269b62d677d2"
          ],
          "data": "0x00000000000000000000000000000000000000000000000000000001ad274800",
          "blockHash": "0x4b4c914b0738b293cd12132dda7885f4b83fe91ade6582fb8aa2296aee4107d5",
          "blockNumber": "0x26ebd9e",
          "blockTimestamp": "0x69f0da1c",
          "transactionHash": "0xcccfe1ac7679e431256b37dc43172ed429974fe48faa3573e00c06249d61708b",
          "transactionIndex": "0x9",
          "logIndex": "0x12",
          "removed": false
        },
        {
          "address": "0xa07e3dbb5bc40f11723213e3a236b408b862c1ff",
          "topics": [
            "0xddf252ad1be2c89b69c2b068fc378daa952ba7f163c4a11628f55a4df523b3ef",
            "0x00000000000000000000000097bf2400d8c6d6e2c32fa0bb2c87269b62d677d2",
            "0x000000000000000000000000ff6bdef4fb646ee44e29fe8fc0862b02f0ba8a33"
          ],
          "data": "0x000000000000000000000000000000000000000000000000000000000cdfe600",
          "blockHash": "0x4b4c914b0738b293cd12132dda7885f4b83fe91ade6582fb8aa2296aee4107d5",
          "blockNumber": "0x26ebd9e",
          "blockTimestamp": "0x69f0da1c",
          "transactionHash": "0xcccfe1ac7679e431256b37dc43172ed429974fe48faa3573e00c06249d61708b",
          "transactionIndex": "0x9",
          "logIndex": "0x13",
          "removed": false
        },
        {
          "address": "0x97bf2400d8c6d6e2c32fa0bb2c87269b62d677d2",
          "topics": [
            "0x4dd12c0ecba594b5bb7a4e3ec05ef19e1135fed23711a1fe4b1c9e6c9b40391b",
            "0x000000000000000000000000455ab6723ccab4cb62983710c33f6311cc85bc97",
            "0x000000000000000000000000a07e3dbb5bc40f11723213e3a236b408b862c1ff"
          ],
          "data": "0x000000000000000000000000000000000000000000000000000000000cdfe600",
          "blockHash": "0x4b4c914b0738b293cd12132dda7885f4b83fe91ade6582fb8aa2296aee4107d5",
          "blockNumber": "0x26ebd9e",
          "blockTimestamp": "0x69f0da1c",
          "transactionHash": "0xcccfe1ac7679e431256b37dc43172ed429974fe48faa3573e00c06249d61708b",
          "transactionIndex": "0x9",
          "logIndex": "0x14",
          "removed": false
        },
        {
          "address": "0xa07e3dbb5bc40f11723213e3a236b408b862c1ff",
          "topics": [
            "0xddf252ad1be2c89b69c2b068fc378daa952ba7f163c4a11628f55a4df523b3ef",
            "0x00000000000000000000000097bf2400d8c6d6e2c32fa0bb2c87269b62d677d2",
            "0x000000000000000000000000ff6bdef4fb646ee44e29fe8fc0862b02f0ba8a33"
          ],
          "data": "0x00000000000000000000000000000000000000000000000000000001a0476200",
          "blockHash": "0x4b4c914b0738b293cd12132dda7885f4b83fe91ade6582fb8aa2296aee4107d5",
          "blockNumber": "0x26ebd9e",
          "blockTimestamp": "0x69f0da1c",
          "transactionHash": "0xcccfe1ac7679e431256b37dc43172ed429974fe48faa3573e00c06249d61708b",
          "transactionIndex": "0x9",
          "logIndex": "0x15",
          "removed": false
        },
        {
          "address": "0x69639ea733ca22f87628df5b48e7c943c30c4371",
          "topics": [
            "0xddf252ad1be2c89b69c2b068fc378daa952ba7f163c4a11628f55a4df523b3ef",
            "0x0000000000000000000000000000000000000000000000000000000000000000",
            "0x000000000000000000000000455ab6723ccab4cb62983710c33f6311cc85bc97"
          ],
          "data": "0x000000000000000000000000000000000000000000000a968163f0a57b400000",
          "blockHash": "0x4b4c914b0738b293cd12132dda7885f4b83fe91ade6582fb8aa2296aee4107d5",
          "blockNumber": "0x26ebd9e",
          "blockTimestamp": "0x69f0da1c",
          "transactionHash": "0xcccfe1ac7679e431256b37dc43172ed429974fe48faa3573e00c06249d61708b",
          "transactionIndex": "0x9",
          "logIndex": "0x16",
          "removed": false
        },
        {
          "address": "0x97bf2400d8c6d6e2c32fa0bb2c87269b62d677d2",
          "topics": [
            "0x0b9c8304b83df3d2827b952a8e4c87faef3556dddcde57a47cb80f0c755606a5",
            "0x000000000000000000000000455ab6723ccab4cb62983710c33f6311cc85bc97",
            "0x000000000000000000000000a07e3dbb5bc40f11723213e3a236b408b862c1ff"
          ],
          "data": "0x00000000000000000000000000000000000000000000000000000001ad274800000000000000000000000000000000000000000000000a968163f0a57b40000000000000000000000000000000000000000000000000000000000000000000000000000000000000000000000000000000000000000023ffb7ed6565d6400000",
          "blockHash": "0x4b4c914b0738b293cd12132dda7885f4b83fe91ade6582fb8aa2296aee4107d5",
          "blockNumber": "0x26ebd9e",
          "blockTimestamp": "0x69f0da1c",
          "transactionHash": "0xcccfe1ac7679e431256b37dc43172ed429974fe48faa3573e00c06249d61708b",
          "transactionIndex": "0x9",
          "logIndex": "0x17",
          "removed": false
        }
      ],
      "logsBloom": "0x80000000000080000000900000000000000000000000000080000000000000000000000000000000000000000000000000000000000000000000000000800000000000000000000000000008000010000000000000000001000000000000000400000000020000000000000000000800100000000000050200000011001100000000000000000000000000000002000000000000000000000000000000000000000000010000000000000000000000000000000000000000000100000000000000400002000000000010000000010000000000000000004000000000000020000000000002000000000000000000010000000000000000008000000004000000",
      "type": "0x2",
      "transactionHash": "0xcccfe1ac7679e431256b37dc43172ed429974fe48faa3573e00c06249d61708b",
      "transactionIndex": "0x9",
      "blockHash": "0x4b4c914b0738b293cd12132dda7885f4b83fe91ade6582fb8aa2296aee4107d5",
      "blockNumber": "0x26ebd9e",
      "gasUsed": "0x29225",
      "effectiveGasPrice": "0x5b8d80",
      "blobGasUsed": "0x39d0",
      "from": "0x455ab6723ccab4cb62983710c33f6311cc85bc97",
      "to": "0x97bf2400d8c6d6e2c32fa0bb2c87269b62d677d2",
      "contractAddress": null,
      "daFootprintGasScalar": "0x94",
      "l1BaseFeeScalar": "0x44d",
      "l1BlobBaseFee": "0x1ff44b",
      "l1BlobBaseFeeScalar": "0xa118b",
      "l1Fee": "0xc72db44",
      "l1GasPrice": "0x2642492",
      "l1GasUsed": "0x640"
    },
    {
      "status": "0x1",
      "cumulativeGasUsed": "0x39452e",
      "logs": [
        {
          "address": "0x69639ea733ca22f87628df5b48e7c943c30c4371",
          "topics": [
            "0x8c5be1e5ebec7d5bd14f71427d1e84f3dd0314c0f7b2291e5b200ac8c7c3b925",
            "0x000000000000000000000000455ab6723ccab4cb62983710c33f6311cc85bc97",
            "0x000000000000000000000000de0b0c3026b0169dde281adc868bb1edeadc234e"
          ],
          "data": "0xffffffffffffffffffffffffffffffffffffffffffffffffffffffffffffffff",
          "blockHash": "0x4a861955f1a6c73f9837f972938d77379966586fbd6a2c73ad848d1cfaf3bfe9",
          "blockNumber": "0x26ebd9f",
          "blockTimestamp": "0x69f0da1e",
          "transactionHash": "0x111d3508f78299669fbe741312748d08ae7076a2d10fd1b97809b358a7590d09",
          "transactionIndex": "0x16",
          "logIndex": "0x68",
          "removed": false
        }
      ],
      "logsBloom": "0x00000000000000000000000000000000000000000000000000000000000000000000000000000000000000000000000000000080000000000000000000200000000000000000000000000000000000040000000000000000000000000000000000000000000000000000000000000000100000000000000000000000000100000000000000000000000000000002000000000000000000000000000000000000020000010000000000000000000000000000000000000000000000000000000000000000000000000000000000000000400000000000000000000000000000000010000000000000000000000000010000000000000000008000000000000000",
      "type": "0x2",
      "transactionHash": "0x111d3508f78299669fbe741312748d08ae7076a2d10fd1b97809b358a7590d09",
      "transactionIndex": "0x16",
      "blockHash": "0x4a861955f1a6c73f9837f972938d77379966586fbd6a2c73ad848d1cfaf3bfe9",
      "blockNumber": "0x26ebd9f",
      "gasUsed": "0xc841",
      "effectiveGasPrice": "0x5b8d80",
      "blobGasUsed": "0x39d0",
      "from": "0x455ab6723ccab4cb62983710c33f6311cc85bc97",
      "to": "0x69639ea733ca22f87628df5b48e7c943c30c4371",
      "contractAddress": null,
      "daFootprintGasScalar": "0x94",
      "l1BaseFeeScalar": "0x44d",
      "l1BlobBaseFee": "0x1ff44b",
      "l1BlobBaseFeeScalar": "0xa118b",
      "l1Fee": "0xc72db44",
      "l1GasPrice": "0x2642492",
      "l1GasUsed": "0x640"
    },
    {
      "status": "0x1",
      "cumulativeGasUsed": "0x2d7546",
      "logs": [
        {
          "address": "0x69639ea733ca22f87628df5b48e7c943c30c4371",
          "topics": [
            "0xddf252ad1be2c89b69c2b068fc378daa952ba7f163c4a11628f55a4df523b3ef",
            "0x000000000000000000000000455ab6723ccab4cb62983710c33f6311cc85bc97",
            "0x000000000000000000000000de0b0c3026b0169dde281adc868bb1edeadc234e"
          ],
          "data": "0x000000000000000000000000000000000000000000000a968163f0a57b400000",
          "blockHash": "0x3e9423f6062f3c9d00488b4f635dff9ba2d935a80589f9ab514c38f34347a223",
          "blockNumber": "0x26ebda0",
          "blockTimestamp": "0x69f0da20",
          "transactionHash": "0xd7c556057357dba10b5e2aeb192c0ad962fff1d8d7875d8316ac2ddf09183809",
          "transactionIndex": "0x13",
          "logIndex": "0x43",
          "removed": false
        },
        {
          "address": "0xde0b0c3026b0169dde281adc868bb1edeadc234e",
          "topics": [
            "0x9cfd25589d1eb8ad71e342a86a8524e83522e3936c0803048c08f6d9ad974f40",
            "0x000000000000000000000000455ab6723ccab4cb62983710c33f6311cc85bc97",
            "0x0000000000000000000000000000000000000000000000000000000000000001"
          ],
          "data": "0x000000000000000000000000000000000000000000000a968163f0a57b4000000000000000000000000000000000000000000000000023ffb7ed6565d64000000000000000000000000000000000000000000000000000002a6d273b2b9f6db8",
          "blockHash": "0x3e9423f6062f3c9d00488b4f635dff9ba2d935a80589f9ab514c38f34347a223",
          "blockNumber": "0x26ebda0",
          "blockTimestamp": "0x69f0da20",
          "transactionHash": "0xd7c556057357dba10b5e2aeb192c0ad962fff1d8d7875d8316ac2ddf09183809",
          "transactionIndex": "0x13",
          "logIndex": "0x44",
          "removed": false
        },
        {
          "address": "0xde0b0c3026b0169dde281adc868bb1edeadc234e",
          "topics": [
            "0x875894a489de1b1b13bf2e6c03981e3ddabcf1794b4b94dc5ba5d8e855a1e2f9"
          ],
          "data": "0x0000000000000000000000000000000000000000000000002a6d273b2b9f6db80000000000000000000000000000000000000000000023ffb7ed6565d6400000000000000000000000000000000000000000000000004a1d89bb94865ec00000",
          "blockHash": "0x3e9423f6062f3c9d00488b4f635dff9ba2d935a80589f9ab514c38f34347a223",
          "blockNumber": "0x26ebda0",
          "blockTimestamp": "0x69f0da20",
          "transactionHash": "0xd7c556057357dba10b5e2aeb192c0ad962fff1d8d7875d8316ac2ddf09183809",
          "transactionIndex": "0x13",
          "logIndex": "0x45",
          "removed": false
        }
      ],
      "logsBloom": "0x00000000000000000000000000000000000000000000000000080000000000000000000000000000000000000000000000000080000000000008000000040000004000000000000000000008000000040000000000040000000000000000000000000000000000000000000000000000100000000000000000000010000100000000000000000000000000000002000000000000000000000000000000000000000000410000000000000010000000000000000000000000000000000000200000800002000000000000000000000000400000000000000000000000000040000000000000800000000000000000010000000000000000008000000000100000",
      "type": "0x2",
      "transactionHash": "0xd7c556057357dba10b5e2aeb192c0ad962fff1d8d7875d8316ac2ddf09183809",
      "transactionIndex": "0x13",
      "blockHash": "0x3e9423f6062f3c9d00488b4f635dff9ba2d935a80589f9ab514c38f34347a223",
      "blockNumber": "0x26ebda0",
      "gasUsed": "0x4adf5",
      "effectiveGasPrice": "0x5b8d80",
      "blobGasUsed": "0x39d0",
      "from": "0x455ab6723ccab4cb62983710c33f6311cc85bc97",
      "to": "0xde0b0c3026b0169dde281adc868bb1edeadc234e",
      "contractAddress": null,
      "daFootprintGasScalar": "0x94",
      "l1BaseFeeScalar": "0x44d",
      "l1BlobBaseFee": "0x1ff44b",
      "l1BlobBaseFeeScalar": "0xa118b",
      "l1Fee": "0xc72db44",
      "l1GasPrice": "0x2642492",
      "l1GasUsed": "0x640"
    }
  ],
  "libraries": [],
  "pending": [],
  "returns": {},
  "timestamp": 1777392160569,
  "chain": 84532,
  "commit": "263e162"
}