{
  "transactions": [
    {
      "hash": "0x3d213de2c9c8e687fa2e0393e52fdbf9bdb119073bdccdc25a28c814067b027b",
      "transactionType": "CALL",
      "contractName": null,
      "contractAddress": "0x0d8be3da6232a51ea9218ef47c6ab085b8940684",
      "function": "setMinSeasonDuration(uint256)",
      "arguments": [
        "1800"
      ],
      "transaction": {
        "from": "0xff6bdef4fb646ee44e29fe8fc0862b02f0ba8a33",
        "to": "0x0d8be3da6232a51ea9218ef47c6ab085b8940684",
        "gas": "0xbc5e",
        "value": "0x0",
        "input": "0x4cd9c82d0000000000000000000000000000000000000000000000000000000000000708",
        "nonce": "0xb7",
        "chainId": "0x14a34"
      },
      "additionalContracts": [],
      "isFixedGasLimit": false
    },
    {
      "hash": "0xb8148ea8d7d323c4fed147d1f1b543c087568c9a01b939b3330712f28c6ee03e",
      "transactionType": "CALL",
      "contractName": null,
      "contractAddress": "0x0d8be3da6232a51ea9218ef47c6ab085b8940684",
      "function": "createCampaign((address,string,string,string,string,uint256,uint256,uint256,uint256,uint256,uint256,uint256,uint256,uint256))",
      "arguments": [
        "(0xFF6bdef4fB646EE44e29FE8FC0862B02F0Ba8a33, Olive IGP Sicily, OLIVE, Olive Yield, oYIELD, 144000000000000000, 100000000000000000000000, 350000000000000000000000, 1777456868, 1800, 1000000000000000000, 5000000000000000000000, 2030, 3)"
      ],
      "transaction": {
        "from": "0xff6bdef4fb646ee44e29fe8fc0862b02f0ba8a33",
        "to": "0x0d8be3da6232a51ea9218ef47c6ab085b8940684",
        "gas": "0x541ba0",
        "value": "0x0",
        "input": "0x8480fd830000000000000000000000000000000000000000000000000000000000000020000000000000000000000000ff6bdef4fb646ee44e29fe8fc0862b02f0ba8a3300000000000000000000000000000000000000000000000000000000000001c000000000000000000000000000000000000000000000000000000000000002000000000000000000000000000000000000000000000000000000000000000240000000000000000000000000000000000000000000000000000000000000028000000000000000000000000000000000000000000000000001ff973cafa8000000000000000000000000000000000000000000000000152d02c7e14af6800000000000000000000000000000000000000000000000004a1d89bb94865ec000000000000000000000000000000000000000000000000000000000000069f1d6e400000000000000000000000000000000000000000000000000000000000007080000000000000000000000000000000000000000000000000de0b6b3a764000000000000000000000000000000000000000000000000010f0cf064dd5920000000000000000000000000000000000000000000000000000000000000000007ee000000000000000000000000000000000000000000000000000000000000000300000000000000000000000000000000000000000000000000000000000000104f6c6976652049475020536963696c790000000000000000000000000000000000000000000000000000000000000000000000000000000000000000000000054f4c495645000000000000000000000000000000000000000000000000000000000000000000000000000000000000000000000000000000000000000000000b4f6c697665205969656c6400000000000000000000000000000000000000000000000000000000000000000000000000000000000000000000000000000000066f5949454c440000000000000000000000000000000000000000000000000000",
        "nonce": "0xb8",
        "chainId": "0x14a34"
      },
      "additionalContracts": [
        {
          "transactionType": "CREATE",
          "contractName": "TransparentUpgradeableProxy",
          "address": "0x8714b91da03c8df7c1cc26464b306d3ee6286f7b",
          "initCode": "0x604060a08152610aac8038038061001581610268565b9283398101906060818303126102645761002e8161028d565b60209161003c83820161028d565b8582015190916001600160401b039190828211610264570185601f82011215610264578051908282116101ef5761007b601f8301601f19168701610268565b968288528683830101116102645785905f5b8381106102505750505f918701015284511561023f57823b1561021f577f360894a13ba1a3210667c828492db98dca3e2076cc3735a920a3ca505d382bbc80546001600160a01b03199081166001600160a01b03868116918217909355885192979195907fbc7cd75a20ee27fd9adebab32041f755214dbc6bffa90cc0225b39da2e5c2d3b5f80a28151156102035761012692506102a1565b505b85519161048391828401908111848210176101ef57868492879461062985391681520301905ff080156101e557831691826080527f7e644d79422f17c01e4894b5f4f588d331ebfa28653d42ae832dc59e38c9798f857fb53127684a568b3173ae13b9f8a6016e243e63b6e8ee1178d6a717850b5d6103958587549483519286168352820152a182156101ce5716179055516102f69081610333823960805181600f0152f35b8451633173bdd160e11b81525f6004820152602490fd5b84513d5f823e3d90fd5b634e487b7160e01b5f52604160045260245ffd5b5050346102105750610128565b63b398979f60e01b8152600490fd5b8551634c9c8ce360e01b81526001600160a01b0384166004820152602490fd5b85516330a289cf60e21b8152600490fd5b81810183015189820184015287920161008d565b5f80fd5b6040519190601f01601f191682016001600160401b038111838210176101ef57604052565b51906001600160a01b038216820361026457565b905f8091602081519101845af4808061031f575b156102d55750506040513d81523d5f602083013e60203d82010160405290565b156102fc57604051639996b31560e01b81526001600160a01b039091166004820152602490fd5b3d1561030d576040513d5f823e3d90fd5b60405163d6bda27560e01b8152600490fd5b503d1515806102b55750813b15156102b556fe60806040526001600160a01b03337f000000000000000000000000000000000000000000000000000000000000000082160361006a575f356001600160e01b03191663278f794360e11b14610060576040516334ad5dbb60e21b8152600490fd5b6100686100be565b005b5f80917f360894a13ba1a3210667c828492db98dca3e2076cc3735a920a3ca505d382bbc5416368280378136915af43d5f803e156100a6573d5ff35b3d5ffd5b634e487b7160e01b5f52604160045260245ffd5b3660041161015f57604036600319011261015f576004356001600160a01b0381169081900361015f576024359067ffffffffffffffff9081831161015f573660238401121561015f5782600401358281116101635760405192601f8201601f19908116603f011684019081118482101761016357604052808352366024828601011161015f576020815f92602461015d97018387013784010152610168565b565b5f80fd5b6100aa565b90813b156101ff577f360894a13ba1a3210667c828492db98dca3e2076cc3735a920a3ca505d382bbc80546001600160a01b0319166001600160a01b0384169081179091557fbc7cd75a20ee27fd9adebab32041f755214dbc6bffa90cc0225b39da2e5c2d3b5f80a28051156101e4576101e191610220565b50565b5050346101ed57565b60405163b398979f60e01b8152600490fd5b604051634c9c8ce360e01b81526001600160a01b0383166004820152602490fd5b905f8091602081519101845af48080610289575b156102465750506102436102a7565b90565b1561026e57604051639996b31560e01b81526001600160a01b03919091166004820152602490fd5b3d15155f0361029c5760405163d6bda27560e01b8152600490fd5b503d1515806102345750813b1515610234565b6040513d5f823e3d90fd5b604051903d82523d5f602084013e60203d83010160405256fea2646970667358221220371437a14d55b0192ed17af74450cdb0b22bf1f3d480185986e4348c96e968d064736f6c634300081800336080346100b957601f61048338819003918201601f19168301916001600160401b038311848410176100bd578084926020946040528339810103126100b957516001600160a01b0390818116908190036100b95780156100a1575f80546001600160a01b03198116831782556040519316907f8be0079c531659141344cd1fd0a4f28419497f9722a3daafe3b4186f6b6457e09080a36103b190816100d28239f35b604051631e4fbdf760e01b81525f6004820152602490fd5b5f80fd5b634e487b7160e01b5f52604160045260245ffdfe604060808152600480361015610013575f80fd5b5f915f3560e01c8063715018a6146102bb5780638da5cb5b146102945780639623609d1461015c578063ad3cb1cc146100eb5763f2fde38b14610054575f80fd5b346100e75760203660031901126100e7576001600160a01b038235818116939192908490036100e357610085610350565b83156100cd5750505f54826bffffffffffffffffffffffff60a01b8216175f55167f8be0079c531659141344cd1fd0a4f28419497f9722a3daafe3b4186f6b6457e05f80a380f35b51631e4fbdf760e01b8152908101849052602490fd5b5f80fd5b8280fd5b5082346101595780600319360112610159575080519080820182811067ffffffffffffffff821117610146576101429350815260058252640352e302e360dc1b602083015251918291602083526020830190610312565b0390f35b604184634e487b7160e01b5f525260245ffd5b80fd5b5060603660031901126100e3576001600160a01b03823581811693908490036100e35760249182359081168091036100e35767ffffffffffffffff906044358281116100e357366023820112156100e3578084013583811161028257865191601f8201601f19908116603f0116830185811184821017610270578852818352368783830101116100e357815f92886020930183860137830101526101fe610350565b863b156100e357610230965f92875180998194829363278f794360e11b8452898401528a8a8401526044830190610312565b039134905af1801561026657610244578580f35b909192938095501161025557505052005b604190634e487b7160e01b5f52525ffd5b84513d5f823e3d90fd5b87604188634e487b7160e01b5f52525ffd5b85604186634e487b7160e01b5f52525ffd5b50346100e3575f3660031901126100e3575f5490516001600160a01b039091168152602090f35b346100e3575f3660031901126100e3576102d3610350565b5f80546001600160a01b0319811682556001600160a01b03167f8be0079c531659141344cd1fd0a4f28419497f9722a3daafe3b4186f6b6457e08280a3005b91908251928382525f5b84811061033c575050825f602080949584010152601f8019910116010190565b60208183018101518483018201520161031c565b5f546001600160a01b0316330361036357565b60405163118cdaa760e01b8152336004820152602490fdfea26469706673582212202992a71449476404159c12582e1f3d5c014ae92bc1369e2e03b37152567a3c7d64736f6c63430008180033000000000000000000000000fcd9ca1a50d16656283a7c5a94b8d4b6afff5c45000000000000000000000000ff6bdef4fb646ee44e29fe8fc0862b02f0ba8a33000000000000000000000000000000000000000000000000000000000000006000000000000000000000000000000000000000000000000000000000000001e47c34725f000000000000000000000000ff6bdef4fb646ee44e29fe8fc0862b02f0ba8a330000000000000000000000000d8be3da6232a51ea9218ef47c6ab085b894068400000000000000000000000000000000000000000000000001ff973cafa8000000000000000000000000000000000000000000000000152d02c7e14af6800000000000000000000000000000000000000000000000004a1d89bb94865ec000000000000000000000000000000000000000000000000000000000000069f1d6e4000000000000000000000000000000000000000000000000000000000000070800000000000000000000000000000000000000000000000000000000000000c8000000000000000000000000000000000000000000000000000000000000012c00000000000000000000000000000000000000000000010f0cf064dd5920000000000000000000000000000000000000000000000000000000000000000007ee0000000000000000000000000000000000000000000000000000000000000003000000000000000000000000ff6bdef4fb646ee44e29fe8fc0862b02f0ba8a330000000000000000000000000000000000000000000000000000000000000000000000000000000000000000be08bbb2b048dfb58be5e6f34a841a37f65aedd000000000000000000000000000000000000000000000000000000000"
        },
        {
          "transactionType": "CREATE",
          "contractName": "ProxyAdmin",
          "address": "0x80e89d50fedc08c489b9c23eae6fc22f479b96d5",
          "initCode": "0x6080346100b957601f61048338819003918201601f19168301916001600160401b038311848410176100bd578084926020946040528339810103126100b957516001600160a01b0390818116908190036100b95780156100a1575f80546001600160a01b03198116831782556040519316907f8be0079c531659141344cd1fd0a4f28419497f9722a3daafe3b4186f6b6457e09080a36103b190816100d28239f35b604051631e4fbdf760e01b81525f6004820152602490fd5b5f80fd5b634e487b7160e01b5f52604160045260245ffdfe604060808152600480361015610013575f80fd5b5f915f3560e01c8063715018a6146102bb5780638da5cb5b146102945780639623609d1461015c578063ad3cb1cc146100eb5763f2fde38b14610054575f80fd5b346100e75760203660031901126100e7576001600160a01b038235818116939192908490036100e357610085610350565b83156100cd5750505f54826bffffffffffffffffffffffff60a01b8216175f55167f8be0079c531659141344cd1fd0a4f28419497f9722a3daafe3b4186f6b6457e05f80a380f35b51631e4fbdf760e01b8152908101849052602490fd5b5f80fd5b8280fd5b5082346101595780600319360112610159575080519080820182811067ffffffffffffffff821117610146576101429350815260058252640352e302e360dc1b602083015251918291602083526020830190610312565b0390f35b604184634e487b7160e01b5f525260245ffd5b80fd5b5060603660031901126100e3576001600160a01b03823581811693908490036100e35760249182359081168091036100e35767ffffffffffffffff906044358281116100e357366023820112156100e3578084013583811161028257865191601f8201601f19908116603f0116830185811184821017610270578852818352368783830101116100e357815f92886020930183860137830101526101fe610350565b863b156100e357610230965f92875180998194829363278f794360e11b8452898401528a8a8401526044830190610312565b039134905af1801561026657610244578580f35b909192938095501161025557505052005b604190634e487b7160e01b5f52525ffd5b84513d5f823e3d90fd5b87604188634e487b7160e01b5f52525ffd5b85604186634e487b7160e01b5f52525ffd5b50346100e3575f3660031901126100e3575f5490516001600160a01b039091168152602090f35b346100e3575f3660031901126100e3576102d3610350565b5f80546001600160a01b0319811682556001600160a01b03167f8be0079c531659141344cd1fd0a4f28419497f9722a3daafe3b4186f6b6457e08280a3005b91908251928382525f5b84811061033c575050825f602080949584010152601f8019910116010190565b60208183018101518483018201520161031c565b5f546001600160a01b0316330361036357565b60405163118cdaa760e01b8152336004820152602490fdfea26469706673582212202992a71449476404159c12582e1f3d5c014ae92bc1369e2e03b37152567a3c7d64736f6c63430008180033000000000000000000000000ff6bdef4fb646ee44e29fe8fc0862b02f0ba8a33"
        },
        {
          "transactionType": "CREATE",
          "contractName": "TransparentUpgradeableProxy",
          "address": "0x4419ae7b501161e71f7b754a201e1b8928cdb568",
          "initCode": "0x604060a08152610aac8038038061001581610268565b9283398101906060818303126102645761002e8161028d565b60209161003c83820161028d565b8582015190916001600160401b039190828211610264570185601f82011215610264578051908282116101ef5761007b601f8301601f19168701610268565b968288528683830101116102645785905f5b8381106102505750505f918701015284511561023f57823b1561021f577f360894a13ba1a3210667c828492db98dca3e2076cc3735a920a3ca505d382bbc80546001600160a01b03199081166001600160a01b03868116918217909355885192979195907fbc7cd75a20ee27fd9adebab32041f755214dbc6bffa90cc0225b39da2e5c2d3b5f80a28151156102035761012692506102a1565b505b85519161048391828401908111848210176101ef57868492879461062985391681520301905ff080156101e557831691826080527f7e644d79422f17c01e4894b5f4f588d331ebfa28653d42ae832dc59e38c9798f857fb53127684a568b3173ae13b9f8a6016e243e63b6e8ee1178d6a717850b5d6103958587549483519286168352820152a182156101ce5716179055516102f69081610333823960805181600f0152f35b8451633173bdd160e11b81525f6004820152602490fd5b84513d5f823e3d90fd5b634e487b7160e01b5f52604160045260245ffd5b5050346102105750610128565b63b398979f60e01b8152600490fd5b8551634c9c8ce360e01b81526001600160a01b0384166004820152602490fd5b85516330a289cf60e21b8152600490fd5b81810183015189820184015287920161008d565b5f80fd5b6040519190601f01601f191682016001600160401b038111838210176101ef57604052565b51906001600160a01b038216820361026457565b905f8091602081519101845af4808061031f575b156102d55750506040513d81523d5f602083013e60203d82010160405290565b156102fc57604051639996b31560e01b81526001600160a01b039091166004820152602490fd5b3d1561030d576040513d5f823e3d90fd5b60405163d6bda27560e01b8152600490fd5b503d1515806102b55750813b15156102b556fe60806040526001600160a01b03337f000000000000000000000000000000000000000000000000000000000000000082160361006a575f356001600160e01b03191663278f794360e11b14610060576040516334ad5dbb60e21b8152600490fd5b6100686100be565b005b5f80917f360894a13ba1a3210667c828492db98dca3e2076cc3735a920a3ca505d382bbc5416368280378136915af43d5f803e156100a6573d5ff35b3d5ffd5b634e487b7160e01b5f52604160045260245ffd5b3660041161015f57604036600319011261015f576004356001600160a01b0381169081900361015f576024359067ffffffffffffffff9081831161015f573660238401121561015f5782600401358281116101635760405192601f8201601f19908116603f011684019081118482101761016357604052808352366024828601011161015f576020815f92602461015d97018387013784010152610168565b565b5f80fd5b6100aa565b90813b156101ff577f360894a13ba1a3210667c828492db98dca3e2076cc3735a920a3ca505d382bbc80546001600160a01b0319166001600160a01b0384169081179091557fbc7cd75a20ee27fd9adebab32041f755214dbc6bffa90cc0225b39da2e5c2d3b5f80a28051156101e4576101e191610220565b50565b5050346101ed57565b60405163b398979f60e01b8152600490fd5b604051634c9c8ce360e01b81526001600160a01b0383166004820152602490fd5b905f8091602081519101845af48080610289575b156102465750506102436102a7565b90565b1561026e57604051639996b31560e01b81526001600160a01b03919091166004820152602490fd5b3d15155f0361029c5760405163d6bda27560e01b8152600490fd5b503d1515806102345750813b1515610234565b6040513d5f823e3d90fd5b604051903d82523d5f602084013e60203d83010160405256fea2646970667358221220371437a14d55b0192ed17af74450cdb0b22bf1f3d480185986e4348c96e968d064736f6c634300081800336080346100b957601f61048338819003918201601f19168301916001600160401b038311848410176100bd578084926020946040528339810103126100b957516001600160a01b0390818116908190036100b95780156100a1575f80546001600160a01b03198116831782556040519316907f8be0079c531659141344cd1fd0a4f28419497f9722a3daafe3b4186f6b6457e09080a36103b190816100d28239f35b604051631e4fbdf760e01b81525f6004820152602490fd5b5f80fd5b634e487b7160e01b5f52604160045260245ffdfe604060808152600480361015610013575f80fd5b5f915f3560e01c8063715018a6146102bb5780638da5cb5b146102945780639623609d1461015c578063ad3cb1cc146100eb5763f2fde38b14610054575f80fd5b346100e75760203660031901126100e7576001600160a01b038235818116939192908490036100e357610085610350565b83156100cd5750505f54826bffffffffffffffffffffffff60a01b8216175f55167f8be0079c531659141344cd1fd0a4f28419497f9722a3daafe3b4186f6b6457e05f80a380f35b51631e4fbdf760e01b8152908101849052602490fd5b5f80fd5b8280fd5b5082346101595780600319360112610159575080519080820182811067ffffffffffffffff821117610146576101429350815260058252640352e302e360dc1b602083015251918291602083526020830190610312565b0390f35b604184634e487b7160e01b5f525260245ffd5b80fd5b5060603660031901126100e3576001600160a01b03823581811693908490036100e35760249182359081168091036100e35767ffffffffffffffff906044358281116100e357366023820112156100e3578084013583811161028257865191601f8201601f19908116603f0116830185811184821017610270578852818352368783830101116100e357815f92886020930183860137830101526101fe610350565b863b156100e357610230965f92875180998194829363278f794360e11b8452898401528a8a8401526044830190610312565b039134905af1801561026657610244578580f35b909192938095501161025557505052005b604190634e487b7160e01b5f52525ffd5b84513d5f823e3d90fd5b87604188634e487b7160e01b5f52525ffd5b85604186634e487b7160e01b5f52525ffd5b50346100e3575f3660031901126100e3575f5490516001600160a01b039091168152602090f35b346100e3575f3660031901126100e3576102d3610350565b5f80546001600160a01b0319811682556001600160a01b03167f8be0079c531659141344cd1fd0a4f28419497f9722a3daafe3b4186f6b6457e08280a3005b91908251928382525f5b84811061033c575050825f602080949584010152601f8019910116010190565b60208183018101518483018201520161031c565b5f546001600160a01b0316330361036357565b60405163118cdaa760e01b8152336004820152602490fdfea26469706673582212202992a71449476404159c12582e1f3d5c014ae92bc1369e2e03b37152567a3c7d64736f6c63430008180033000000000000000000000000f7fbed13519f0a564f00f72b9575143542118e30000000000000000000000000ff6bdef4fb646ee44e29fe8fc0862b02f0ba8a33000000000000000000000000000000000000000000000000000000000000006000000000000000000000000000000000000000000000000000000000000000e4077f224a000000000000000000000000000000000000000000000000000000000000006000000000000000000000000000000000000000000000000000000000000000a00000000000000000000000008714b91da03c8df7c1cc26464b306d3ee6286f7b00000000000000000000000000000000000000000000000000000000000000104f6c6976652049475020536963696c790000000000000000000000000000000000000000000000000000000000000000000000000000000000000000000000054f4c49564500000000000000000000000000000000000000000000000000000000000000000000000000000000000000000000000000000000000000"
        },
        {
          "transactionType": "CREATE",
          "contractName": "ProxyAdmin",
          "address": "0x91b20147d565f9dde8f2084ee15b932c6b6d477a",
          "initCode": "0x6080346100b957601f61048338819003918201601f19168301916001600160401b038311848410176100bd578084926020946040528339810103126100b957516001600160a01b0390818116908190036100b95780156100a1575f80546001600160a01b03198116831782556040519316907f8be0079c531659141344cd1fd0a4f28419497f9722a3daafe3b4186f6b6457e09080a36103b190816100d28239f35b604051631e4fbdf760e01b81525f6004820152602490fd5b5f80fd5b634e487b7160e01b5f52604160045260245ffdfe604060808152600480361015610013575f80fd5b5f915f3560e01c8063715018a6146102bb5780638da5cb5b146102945780639623609d1461015c578063ad3cb1cc146100eb5763f2fde38b14610054575f80fd5b346100e75760203660031901126100e7576001600160a01b038235818116939192908490036100e357610085610350565b83156100cd5750505f54826bffffffffffffffffffffffff60a01b8216175f55167f8be0079c531659141344cd1fd0a4f28419497f9722a3daafe3b4186f6b6457e05f80a380f35b51631e4fbdf760e01b8152908101849052602490fd5b5f80fd5b8280fd5b5082346101595780600319360112610159575080519080820182811067ffffffffffffffff821117610146576101429350815260058252640352e302e360dc1b602083015251918291602083526020830190610312565b0390f35b604184634e487b7160e01b5f525260245ffd5b80fd5b5060603660031901126100e3576001600160a01b03823581811693908490036100e35760249182359081168091036100e35767ffffffffffffffff906044358281116100e357366023820112156100e3578084013583811161028257865191601f8201601f19908116603f0116830185811184821017610270578852818352368783830101116100e357815f92886020930183860137830101526101fe610350565b863b156100e357610230965f92875180998194829363278f794360e11b8452898401528a8a8401526044830190610312565b039134905af1801561026657610244578580f35b909192938095501161025557505052005b604190634e487b7160e01b5f52525ffd5b84513d5f823e3d90fd5b87604188634e487b7160e01b5f52525ffd5b85604186634e487b7160e01b5f52525ffd5b50346100e3575f3660031901126100e3575f5490516001600160a01b039091168152602090f35b346100e3575f3660031901126100e3576102d3610350565b5f80546001600160a01b0319811682556001600160a01b03167f8be0079c531659141344cd1fd0a4f28419497f9722a3daafe3b4186f6b6457e08280a3005b91908251928382525f5b84811061033c575050825f602080949584010152601f8019910116010190565b60208183018101518483018201520161031c565b5f546001600160a01b0316330361036357565b60405163118cdaa760e01b8152336004820152602490fdfea26469706673582212202992a71449476404159c12582e1f3d5c014ae92bc1369e2e03b37152567a3c7d64736f6c63430008180033000000000000000000000000ff6bdef4fb646ee44e29fe8fc0862b02f0ba8a33"
        },
        {
          "transactionType": "CREATE",
          "contractName": "TransparentUpgradeableProxy",
          "address": "0x198a064f315e48165eb2b6f3dce795b90cfa14fc",
          "initCode": "0x604060a08152610aac8038038061001581610268565b9283398101906060818303126102645761002e8161028d565b60209161003c83820161028d565b8582015190916001600160401b039190828211610264570185601f82011215610264578051908282116101ef5761007b601f8301601f19168701610268565b968288528683830101116102645785905f5b8381106102505750505f918701015284511561023f57823b1561021f577f360894a13ba1a3210667c828492db98dca3e2076cc3735a920a3ca505d382bbc80546001600160a01b03199081166001600160a01b03868116918217909355885192979195907fbc7cd75a20ee27fd9adebab32041f755214dbc6bffa90cc0225b39da2e5c2d3b5f80a28151156102035761012692506102a1565b505b85519161048391828401908111848210176101ef57868492879461062985391681520301905ff080156101e557831691826080527f7e644d79422f17c01e4894b5f4f588d331ebfa28653d42ae832dc59e38c9798f857fb53127684a568b3173ae13b9f8a6016e243e63b6e8ee1178d6a717850b5d6103958587549483519286168352820152a182156101ce5716179055516102f69081610333823960805181600f0152f35b8451633173bdd160e11b81525f6004820152602490fd5b84513d5f823e3d90fd5b634e487b7160e01b5f52604160045260245ffd5b5050346102105750610128565b63b398979f60e01b8152600490fd5b8551634c9c8ce360e01b81526001600160a01b0384166004820152602490fd5b85516330a289cf60e21b8152600490fd5b81810183015189820184015287920161008d565b5f80fd5b6040519190601f01601f191682016001600160401b038111838210176101ef57604052565b51906001600160a01b038216820361026457565b905f8091602081519101845af4808061031f575b156102d55750506040513d81523d5f602083013e60203d82010160405290565b156102fc57604051639996b31560e01b81526001600160a01b039091166004820152602490fd5b3d1561030d576040513d5f823e3d90fd5b60405163d6bda27560e01b8152600490fd5b503d1515806102b55750813b15156102b556fe60806040526001600160a01b03337f000000000000000000000000000000000000000000000000000000000000000082160361006a575f356001600160e01b03191663278f794360e11b14610060576040516334ad5dbb60e21b8152600490fd5b6100686100be565b005b5f80917f360894a13ba1a3210667c828492db98dca3e2076cc3735a920a3ca505d382bbc5416368280378136915af43d5f803e156100a6573d5ff35b3d5ffd5b634e487b7160e01b5f52604160045260245ffd5b3660041161015f57604036600319011261015f576004356001600160a01b0381169081900361015f576024359067ffffffffffffffff9081831161015f573660238401121561015f5782600401358281116101635760405192601f8201601f19908116603f011684019081118482101761016357604052808352366024828601011161015f576020815f92602461015d97018387013784010152610168565b565b5f80fd5b6100aa565b90813b156101ff577f360894a13ba1a3210667c828492db98dca3e2076cc3735a920a3ca505d382bbc80546001600160a01b0319166001600160a01b0384169081179091557fbc7cd75a20ee27fd9adebab32041f755214dbc6bffa90cc0225b39da2e5c2d3b5f80a28051156101e4576101e191610220565b50565b5050346101ed57565b60405163b398979f60e01b8152600490fd5b604051634c9c8ce360e01b81526001600160a01b0383166004820152602490fd5b905f8091602081519101845af48080610289575b156102465750506102436102a7565b90565b1561026e57604051639996b31560e01b81526001600160a01b03919091166004820152602490fd5b3d15155f0361029c5760405163d6bda27560e01b8152600490fd5b503d1515806102345750813b1515610234565b6040513d5f823e3d90fd5b604051903d82523d5f602084013e60203d83010160405256fea2646970667358221220371437a14d55b0192ed17af74450cdb0b22bf1f3d480185986e4348c96e968d064736f6c634300081800336080346100b957601f61048338819003918201601f19168301916001600160401b038311848410176100bd578084926020946040528339810103126100b957516001600160a01b0390818116908190036100b95780156100a1575f80546001600160a01b03198116831782556040519316907f8be0079c531659141344cd1fd0a4f28419497f9722a3daafe3b4186f6b6457e09080a36103b190816100d28239f35b604051631e4fbdf760e01b81525f6004820152602490fd5b5f80fd5b634e487b7160e01b5f52604160045260245ffdfe604060808152600480361015610013575f80fd5b5f915f3560e01c8063715018a6146102bb5780638da5cb5b146102945780639623609d1461015c578063ad3cb1cc146100eb5763f2fde38b14610054575f80fd5b346100e75760203660031901126100e7576001600160a01b038235818116939192908490036100e357610085610350565b83156100cd5750505f54826bffffffffffffffffffffffff60a01b8216175f55167f8be0079c531659141344cd1fd0a4f28419497f9722a3daafe3b4186f6b6457e05f80a380f35b51631e4fbdf760e01b8152908101849052602490fd5b5f80fd5b8280fd5b5082346101595780600319360112610159575080519080820182811067ffffffffffffffff821117610146576101429350815260058252640352e302e360dc1b602083015251918291602083526020830190610312565b0390f35b604184634e487b7160e01b5f525260245ffd5b80fd5b5060603660031901126100e3576001600160a01b03823581811693908490036100e35760249182359081168091036100e35767ffffffffffffffff906044358281116100e357366023820112156100e3578084013583811161028257865191601f8201601f19908116603f0116830185811184821017610270578852818352368783830101116100e357815f92886020930183860137830101526101fe610350565b863b156100e357610230965f92875180998194829363278f794360e11b8452898401528a8a8401526044830190610312565b039134905af1801561026657610244578580f35b909192938095501161025557505052005b604190634e487b7160e01b5f52525ffd5b84513d5f823e3d90fd5b87604188634e487b7160e01b5f52525ffd5b85604186634e487b7160e01b5f52525ffd5b50346100e3575f3660031901126100e3575f5490516001600160a01b039091168152602090f35b346100e3575f3660031901126100e3576102d3610350565b5f80546001600160a01b0319811682556001600160a01b03167f8be0079c531659141344cd1fd0a4f28419497f9722a3daafe3b4186f6b6457e08280a3005b91908251928382525f5b84811061033c575050825f602080949584010152601f8019910116010190565b60208183018101518483018201520161031c565b5f546001600160a01b0316330361036357565b60405163118cdaa760e01b8152336004820152602490fdfea26469706673582212202992a71449476404159c12582e1f3d5c014ae92bc1369e2e03b37152567a3c7d64736f6c6343000818003300000000000000000000000038adf652a7ec946578ff6db8e923af26eaab8023000000000000000000000000ff6bdef4fb646ee44e29fe8fc0862b02f0ba8a33000000000000000000000000000000000000000000000000000000000000006000000000000000000000000000000000000000000000000000000000000000a4a6b63eb80000000000000000000000004419ae7b501161e71f7b754a201e1b8928cdb5680000000000000000000000008714b91da03c8df7c1cc26464b306d3ee6286f7b0000000000000000000000000d8be3da6232a51ea9218ef47c6ab085b8940684000000000000000000000000000000000000000000004a1d89bb94865ec00000000000000000000000000000000000000000000000000000000000000000070800000000000000000000000000000000000000000000000000000000"
        },
        {
          "transactionType": "CREATE",
          "contractName": "ProxyAdmin",
          "address": "0x3a29e47464d8873a943a9c2a076cad3b232e3d60",
          "initCode": "0x6080346100b957601f61048338819003918201601f19168301916001600160401b038311848410176100bd578084926020946040528339810103126100b957516001600160a01b0390818116908190036100b95780156100a1575f80546001600160a01b03198116831782556040519316907f8be0079c531659141344cd1fd0a4f28419497f9722a3daafe3b4186f6b6457e09080a36103b190816100d28239f35b604051631e4fbdf760e01b81525f6004820152602490fd5b5f80fd5b634e487b7160e01b5f52604160045260245ffdfe604060808152600480361015610013575f80fd5b5f915f3560e01c8063715018a6146102bb5780638da5cb5b146102945780639623609d1461015c578063ad3cb1cc146100eb5763f2fde38b14610054575f80fd5b346100e75760203660031901126100e7576001600160a01b038235818116939192908490036100e357610085610350565b83156100cd5750505f54826bffffffffffffffffffffffff60a01b8216175f55167f8be0079c531659141344cd1fd0a4f28419497f9722a3daafe3b4186f6b6457e05f80a380f35b51631e4fbdf760e01b8152908101849052602490fd5b5f80fd5b8280fd5b5082346101595780600319360112610159575080519080820182811067ffffffffffffffff821117610146576101429350815260058252640352e302e360dc1b602083015251918291602083526020830190610312565b0390f35b604184634e487b7160e01b5f525260245ffd5b80fd5b5060603660031901126100e3576001600160a01b03823581811693908490036100e35760249182359081168091036100e35767ffffffffffffffff906044358281116100e357366023820112156100e3578084013583811161028257865191601f8201601f19908116603f0116830185811184821017610270578852818352368783830101116100e357815f92886020930183860137830101526101fe610350565b863b156100e357610230965f92875180998194829363278f794360e11b8452898401528a8a8401526044830190610312565b039134905af1801561026657610244578580f35b909192938095501161025557505052005b604190634e487b7160e01b5f52525ffd5b84513d5f823e3d90fd5b87604188634e487b7160e01b5f52525ffd5b85604186634e487b7160e01b5f52525ffd5b50346100e3575f3660031901126100e3575f5490516001600160a01b039091168152602090f35b346100e3575f3660031901126100e3576102d3610350565b5f80546001600160a01b0319811682556001600160a01b03167f8be0079c531659141344cd1fd0a4f28419497f9722a3daafe3b4186f6b6457e08280a3005b91908251928382525f5b84811061033c575050825f602080949584010152601f8019910116010190565b60208183018101518483018201520161031c565b5f546001600160a01b0316330361036357565b60405163118cdaa760e01b8152336004820152602490fdfea26469706673582212202992a71449476404159c12582e1f3d5c014ae92bc1369e2e03b37152567a3c7d64736f6c63430008180033000000000000000000000000ff6bdef4fb646ee44e29fe8fc0862b02f0ba8a33"
        },
        {
          "transactionType": "CREATE",
          "contractName": "TransparentUpgradeableProxy",
          "address": "0x60f7411c68f518d31996bee60060309ce71130b9",
          "initCode": "0x604060a08152610aac8038038061001581610268565b9283398101906060818303126102645761002e8161028d565b60209161003c83820161028d565b8582015190916001600160401b039190828211610264570185601f82011215610264578051908282116101ef5761007b601f8301601f19168701610268565b968288528683830101116102645785905f5b8381106102505750505f918701015284511561023f57823b1561021f577f360894a13ba1a3210667c828492db98dca3e2076cc3735a920a3ca505d382bbc80546001600160a01b03199081166001600160a01b03868116918217909355885192979195907fbc7cd75a20ee27fd9adebab32041f755214dbc6bffa90cc0225b39da2e5c2d3b5f80a28151156102035761012692506102a1565b505b85519161048391828401908111848210176101ef57868492879461062985391681520301905ff080156101e557831691826080527f7e644d79422f17c01e4894b5f4f588d331ebfa28653d42ae832dc59e38c9798f857fb53127684a568b3173ae13b9f8a6016e243e63b6e8ee1178d6a717850b5d6103958587549483519286168352820152a182156101ce5716179055516102f69081610333823960805181600f0152f35b8451633173bdd160e11b81525f6004820152602490fd5b84513d5f823e3d90fd5b634e487b7160e01b5f52604160045260245ffd5b5050346102105750610128565b63b398979f60e01b8152600490fd5b8551634c9c8ce360e01b81526001600160a01b0384166004820152602490fd5b85516330a289cf60e21b8152600490fd5b81810183015189820184015287920161008d565b5f80fd5b6040519190601f01601f191682016001600160401b038111838210176101ef57604052565b51906001600160a01b038216820361026457565b905f8091602081519101845af4808061031f575b156102d55750506040513d81523d5f602083013e60203d82010160405290565b156102fc57604051639996b31560e01b81526001600160a01b039091166004820152602490fd5b3d1561030d576040513d5f823e3d90fd5b60405163d6bda27560e01b8152600490fd5b503d1515806102b55750813b15156102b556fe60806040526001600160a01b03337f000000000000000000000000000000000000000000000000000000000000000082160361006a575f356001600160e01b03191663278f794360e11b14610060576040516334ad5dbb60e21b8152600490fd5b6100686100be565b005b5f80917f360894a13ba1a3210667c828492db98dca3e2076cc3735a920a3ca505d382bbc5416368280378136915af43d5f803e156100a6573d5ff35b3d5ffd5b634e487b7160e01b5f52604160045260245ffd5b3660041161015f57604036600319011261015f576004356001600160a01b0381169081900361015f576024359067ffffffffffffffff9081831161015f573660238401121561015f5782600401358281116101635760405192601f8201601f19908116603f011684019081118482101761016357604052808352366024828601011161015f576020815f92602461015d97018387013784010152610168565b565b5f80fd5b6100aa565b90813b156101ff577f360894a13ba1a3210667c828492db98dca3e2076cc3735a920a3ca505d382bbc80546001600160a01b0319166001600160a01b0384169081179091557fbc7cd75a20ee27fd9adebab32041f755214dbc6bffa90cc0225b39da2e5c2d3b5f80a28051156101e4576101e191610220565b50565b5050346101ed57565b60405163b398979f60e01b8152600490fd5b604051634c9c8ce360e01b81526001600160a01b0383166004820152602490fd5b905f8091602081519101845af48080610289575b156102465750506102436102a7565b90565b1561026e57604051639996b31560e01b81526001600160a01b03919091166004820152602490fd5b3d15155f0361029c5760405163d6bda27560e01b8152600490fd5b503d1515806102345750813b1515610234565b6040513d5f823e3d90fd5b604051903d82523d5f602084013e60203d83010160405256fea2646970667358221220371437a14d55b0192ed17af74450cdb0b22bf1f3d480185986e4348c96e968d064736f6c634300081800336080346100b957601f61048338819003918201601f19168301916001600160401b038311848410176100bd578084926020946040528339810103126100b957516001600160a01b0390818116908190036100b95780156100a1575f80546001600160a01b03198116831782556040519316907f8be0079c531659141344cd1fd0a4f28419497f9722a3daafe3b4186f6b6457e09080a36103b190816100d28239f35b604051631e4fbdf760e01b81525f6004820152602490fd5b5f80fd5b634e487b7160e01b5f52604160045260245ffdfe604060808152600480361015610013575f80fd5b5f915f3560e01c8063715018a6146102bb5780638da5cb5b146102945780639623609d1461015c578063ad3cb1cc146100eb5763f2fde38b14610054575f80fd5b346100e75760203660031901126100e7576001600160a01b038235818116939192908490036100e357610085610350565b83156100cd5750505f54826bffffffffffffffffffffffff60a01b8216175f55167f8be0079c531659141344cd1fd0a4f28419497f9722a3daafe3b4186f6b6457e05f80a380f35b51631e4fbdf760e01b8152908101849052602490fd5b5f80fd5b8280fd5b5082346101595780600319360112610159575080519080820182811067ffffffffffffffff821117610146576101429350815260058252640352e302e360dc1b602083015251918291602083526020830190610312565b0390f35b604184634e487b7160e01b5f525260245ffd5b80fd5b5060603660031901126100e3576001600160a01b03823581811693908490036100e35760249182359081168091036100e35767ffffffffffffffff906044358281116100e357366023820112156100e3578084013583811161028257865191601f8201601f19908116603f0116830185811184821017610270578852818352368783830101116100e357815f92886020930183860137830101526101fe610350565b863b156100e357610230965f92875180998194829363278f794360e11b8452898401528a8a8401526044830190610312565b039134905af1801561026657610244578580f35b909192938095501161025557505052005b604190634e487b7160e01b5f52525ffd5b84513d5f823e3d90fd5b87604188634e487b7160e01b5f52525ffd5b85604186634e487b7160e01b5f52525ffd5b50346100e3575f3660031901126100e3575f5490516001600160a01b039091168152602090f35b346100e3575f3660031901126100e3576102d3610350565b5f80546001600160a01b0319811682556001600160a01b03167f8be0079c531659141344cd1fd0a4f28419497f9722a3daafe3b4186f6b6457e08280a3005b91908251928382525f5b84811061033c575050825f602080949584010152601f8019910116010190565b60208183018101518483018201520161031c565b5f546001600160a01b0316330361036357565b60405163118cdaa760e01b8152336004820152602490fdfea26469706673582212202992a71449476404159c12582e1f3d5c014ae92bc1369e2e03b37152567a3c7d64736f6c6343000818003300000000000000000000000013abbcd397f32c4b993820bb7acf0b2f548099a1000000000000000000000000ff6bdef4fb646ee44e29fe8fc0862b02f0ba8a33000000000000000000000000000000000000000000000000000000000000006000000000000000000000000000000000000000000000000000000000000000c4d7c41c79000000000000000000000000be08bbb2b048dfb58be5e6f34a841a37f65aedd0000000000000000000000000ff6bdef4fb646ee44e29fe8fc0862b02f0ba8a330000000000000000000000000d8be3da6232a51ea9218ef47c6ab085b8940684000000000000000000000000ff6bdef4fb646ee44e29fe8fc0862b02f0ba8a3300000000000000000000000000000000000000000000000000000000000000c80000000000000000000000000000000000000000000000000de0b6b3a764000000000000000000000000000000000000000000000000000000000000"
        },
        {
          "transactionType": "CREATE",
          "contractName": "ProxyAdmin",
          "address": "0x6fb8ba38ce7fc10e8affcc3888bff988097551ac",
          "initCode": "0x6080346100b957601f61048338819003918201601f19168301916001600160401b038311848410176100bd578084926020946040528339810103126100b957516001600160a01b0390818116908190036100b95780156100a1575f80546001600160a01b03198116831782556040519316907f8be0079c531659141344cd1fd0a4f28419497f9722a3daafe3b4186f6b6457e09080a36103b190816100d28239f35b604051631e4fbdf760e01b81525f6004820152602490fd5b5f80fd5b634e487b7160e01b5f52604160045260245ffdfe604060808152600480361015610013575f80fd5b5f915f3560e01c8063715018a6146102bb5780638da5cb5b146102945780639623609d1461015c578063ad3cb1cc146100eb5763f2fde38b14610054575f80fd5b346100e75760203660031901126100e7576001600160a01b038235818116939192908490036100e357610085610350565b83156100cd5750505f54826bffffffffffffffffffffffff60a01b8216175f55167f8be0079c531659141344cd1fd0a4f28419497f9722a3daafe3b4186f6b6457e05f80a380f35b51631e4fbdf760e01b8152908101849052602490fd5b5f80fd5b8280fd5b5082346101595780600319360112610159575080519080820182811067ffffffffffffffff821117610146576101429350815260058252640352e302e360dc1b602083015251918291602083526020830190610312565b0390f35b604184634e487b7160e01b5f525260245ffd5b80fd5b5060603660031901126100e3576001600160a01b03823581811693908490036100e35760249182359081168091036100e35767ffffffffffffffff906044358281116100e357366023820112156100e3578084013583811161028257865191601f8201601f19908116603f0116830185811184821017610270578852818352368783830101116100e357815f92886020930183860137830101526101fe610350565b863b156100e357610230965f92875180998194829363278f794360e11b8452898401528a8a8401526044830190610312565b039134905af1801561026657610244578580f35b909192938095501161025557505052005b604190634e487b7160e01b5f52525ffd5b84513d5f823e3d90fd5b87604188634e487b7160e01b5f52525ffd5b85604186634e487b7160e01b5f52525ffd5b50346100e3575f3660031901126100e3575f5490516001600160a01b039091168152602090f35b346100e3575f3660031901126100e3576102d3610350565b5f80546001600160a01b0319811682556001600160a01b03167f8be0079c531659141344cd1fd0a4f28419497f9722a3daafe3b4186f6b6457e08280a3005b91908251928382525f5b84811061033c575050825f602080949584010152601f8019910116010190565b60208183018101518483018201520161031c565b5f546001600160a01b0316330361036357565b60405163118cdaa760e01b8152336004820152602490fdfea26469706673582212202992a71449476404159c12582e1f3d5c014ae92bc1369e2e03b37152567a3c7d64736f6c63430008180033000000000000000000000000ff6bdef4fb646ee44e29fe8fc0862b02f0ba8a33"
        },
        {
          "transactionType": "CREATE",
          "contractName": "TransparentUpgradeableProxy",
          "address": "0x820a8f79d7fd798ef353a42e994af9b9bf50c137",
          "initCode": "0x604060a08152610aac8038038061001581610268565b9283398101906060818303126102645761002e8161028d565b60209161003c83820161028d565b8582015190916001600160401b039190828211610264570185601f82011215610264578051908282116101ef5761007b601f8301601f19168701610268565b968288528683830101116102645785905f5b8381106102505750505f918701015284511561023f57823b1561021f577f360894a13ba1a3210667c828492db98dca3e2076cc3735a920a3ca505d382bbc80546001600160a01b03199081166001600160a01b03868116918217909355885192979195907fbc7cd75a20ee27fd9adebab32041f755214dbc6bffa90cc0225b39da2e5c2d3b5f80a28151156102035761012692506102a1565b505b85519161048391828401908111848210176101ef57868492879461062985391681520301905ff080156101e557831691826080527f7e644d79422f17c01e4894b5f4f588d331ebfa28653d42ae832dc59e38c9798f857fb53127684a568b3173ae13b9f8a6016e243e63b6e8ee1178d6a717850b5d6103958587549483519286168352820152a182156101ce5716179055516102f69081610333823960805181600f0152f35b8451633173bdd160e11b81525f6004820152602490fd5b84513d5f823e3d90fd5b634e487b7160e01b5f52604160045260245ffd5b5050346102105750610128565b63b398979f60e01b8152600490fd5b8551634c9c8ce360e01b81526001600160a01b0384166004820152602490fd5b85516330a289cf60e21b8152600490fd5b81810183015189820184015287920161008d565b5f80fd5b6040519190601f01601f191682016001600160401b038111838210176101ef57604052565b51906001600160a01b038216820361026457565b905f8091602081519101845af4808061031f575b156102d55750506040513d81523d5f602083013e60203d82010160405290565b156102fc57604051639996b31560e01b81526001600160a01b039091166004820152602490fd5b3d1561030d576040513d5f823e3d90fd5b60405163d6bda27560e01b8152600490fd5b503d1515806102b55750813b15156102b556fe60806040526001600160a01b03337f000000000000000000000000000000000000000000000000000000000000000082160361006a575f356001600160e01b03191663278f794360e11b14610060576040516334ad5dbb60e21b8152600490fd5b6100686100be565b005b5f80917f360894a13ba1a3210667c828492db98dca3e2076cc3735a920a3ca505d382bbc5416368280378136915af43d5f803e156100a6573d5ff35b3d5ffd5b634e487b7160e01b5f52604160045260245ffd5b3660041161015f57604036600319011261015f576004356001600160a01b0381169081900361015f576024359067ffffffffffffffff9081831161015f573660238401121561015f5782600401358281116101635760405192601f8201601f19908116603f011684019081118482101761016357604052808352366024828601011161015f576020815f92602461015d97018387013784010152610168565b565b5f80fd5b6100aa565b90813b156101ff577f360894a13ba1a3210667c828492db98dca3e2076cc3735a920a3ca505d382bbc80546001600160a01b0319166001600160a01b0384169081179091557fbc7cd75a20ee27fd9adebab32041f755214dbc6bffa90cc0225b39da2e5c2d3b5f80a28051156101e4576101e191610220565b50565b5050346101ed57565b60405163b398979f60e01b8152600490fd5b604051634c9c8ce360e01b81526001600160a01b0383166004820152602490fd5b905f8091602081519101845af48080610289575b156102465750506102436102a7565b90565b1561026e57604051639996b31560e01b81526001600160a01b03919091166004820152602490fd5b3d15155f0361029c5760405163d6bda27560e01b8152600490fd5b503d1515806102345750813b1515610234565b6040513d5f823e3d90fd5b604051903d82523d5f602084013e60203d83010160405256fea2646970667358221220371437a14d55b0192ed17af74450cdb0b22bf1f3d480185986e4348c96e968d064736f6c634300081800336080346100b957601f61048338819003918201601f19168301916001600160401b038311848410176100bd578084926020946040528339810103126100b957516001600160a01b0390818116908190036100b95780156100a1575f80546001600160a01b03198116831782556040519316907f8be0079c531659141344cd1fd0a4f28419497f9722a3daafe3b4186f6b6457e09080a36103b190816100d28239f35b604051631e4fbdf760e01b81525f6004820152602490fd5b5f80fd5b634e487b7160e01b5f52604160045260245ffdfe604060808152600480361015610013575f80fd5b5f915f3560e01c8063715018a6146102bb5780638da5cb5b146102945780639623609d1461015c578063ad3cb1cc146100eb5763f2fde38b14610054575f80fd5b346100e75760203660031901126100e7576001600160a01b038235818116939192908490036100e357610085610350565b83156100cd5750505f54826bffffffffffffffffffffffff60a01b8216175f55167f8be0079c531659141344cd1fd0a4f28419497f9722a3daafe3b4186f6b6457e05f80a380f35b51631e4fbdf760e01b8152908101849052602490fd5b5f80fd5b8280fd5b5082346101595780600319360112610159575080519080820182811067ffffffffffffffff821117610146576101429350815260058252640352e302e360dc1b602083015251918291602083526020830190610312565b0390f35b604184634e487b7160e01b5f525260245ffd5b80fd5b5060603660031901126100e3576001600160a01b03823581811693908490036100e35760249182359081168091036100e35767ffffffffffffffff906044358281116100e357366023820112156100e3578084013583811161028257865191601f8201601f19908116603f0116830185811184821017610270578852818352368783830101116100e357815f92886020930183860137830101526101fe610350565b863b156100e357610230965f92875180998194829363278f794360e11b8452898401528a8a8401526044830190610312565b039134905af1801561026657610244578580f35b909192938095501161025557505052005b604190634e487b7160e01b5f52525ffd5b84513d5f823e3d90fd5b87604188634e487b7160e01b5f52525ffd5b85604186634e487b7160e01b5f52525ffd5b50346100e3575f3660031901126100e3575f5490516001600160a01b039091168152602090f35b346100e3575f3660031901126100e3576102d3610350565b5f80546001600160a01b0319811682556001600160a01b03167f8be0079c531659141344cd1fd0a4f28419497f9722a3daafe3b4186f6b6457e08280a3005b91908251928382525f5b84811061033c575050825f602080949584010152601f8019910116010190565b60208183018101518483018201520161031c565b5f546001600160a01b0316330361036357565b60405163118cdaa760e01b8152336004820152602490fdfea26469706673582212202992a71449476404159c12582e1f3d5c014ae92bc1369e2e03b37152567a3c7d64736f6c6343000818003300000000000000000000000010a99be78f9dccecfc8ac6953fc5bdcd993f7f4f000000000000000000000000ff6bdef4fb646ee44e29fe8fc0862b02f0ba8a33000000000000000000000000000000000000000000000000000000000000006000000000000000000000000000000000000000000000000000000000000001048f15b414000000000000000000000000000000000000000000000000000000000000008000000000000000000000000000000000000000000000000000000000000000c0000000000000000000000000198a064f315e48165eb2b6f3dce795b90cfa14fc00000000000000000000000060f7411c68f518d31996bee60060309ce71130b9000000000000000000000000000000000000000000000000000000000000000b4f6c697665205969656c6400000000000000000000000000000000000000000000000000000000000000000000000000000000000000000000000000000000066f5949454c44000000000000000000000000000000000000000000000000000000000000000000000000000000000000000000000000000000000000"
        },
        {
          "transactionType": "CREATE",
          "contractName": "ProxyAdmin",
          "address": "0x3a54a9a6eded93a580eed8806257dc5ae682ec3e",
          "initCode": "0x6080346100b957601f61048338819003918201601f19168301916001600160401b038311848410176100bd578084926020946040528339810103126100b957516001600160a01b0390818116908190036100b95780156100a1575f80546001600160a01b03198116831782556040519316907f8be0079c531659141344cd1fd0a4f28419497f9722a3daafe3b4186f6b6457e09080a36103b190816100d28239f35b604051631e4fbdf760e01b81525f6004820152602490fd5b5f80fd5b634e487b7160e01b5f52604160045260245ffdfe604060808152600480361015610013575f80fd5b5f915f3560e01c8063715018a6146102bb5780638da5cb5b146102945780639623609d1461015c578063ad3cb1cc146100eb5763f2fde38b14610054575f80fd5b346100e75760203660031901126100e7576001600160a01b038235818116939192908490036100e357610085610350565b83156100cd5750505f54826bffffffffffffffffffffffff60a01b8216175f55167f8be0079c531659141344cd1fd0a4f28419497f9722a3daafe3b4186f6b6457e05f80a380f35b51631e4fbdf760e01b8152908101849052602490fd5b5f80fd5b8280fd5b5082346101595780600319360112610159575080519080820182811067ffffffffffffffff821117610146576101429350815260058252640352e302e360dc1b602083015251918291602083526020830190610312565b0390f35b604184634e487b7160e01b5f525260245ffd5b80fd5b5060603660031901126100e3576001600160a01b03823581811693908490036100e35760249182359081168091036100e35767ffffffffffffffff906044358281116100e357366023820112156100e3578084013583811161028257865191601f8201601f19908116603f0116830185811184821017610270578852818352368783830101116100e357815f92886020930183860137830101526101fe610350565b863b156100e357610230965f92875180998194829363278f794360e11b8452898401528a8a8401526044830190610312565b039134905af1801561026657610244578580f35b909192938095501161025557505052005b604190634e487b7160e01b5f52525ffd5b84513d5f823e3d90fd5b87604188634e487b7160e01b5f52525ffd5b85604186634e487b7160e01b5f52525ffd5b50346100e3575f3660031901126100e3575f5490516001600160a01b039091168152602090f35b346100e3575f3660031901126100e3576102d3610350565b5f80546001600160a01b0319811682556001600160a01b03167f8be0079c531659141344cd1fd0a4f28419497f9722a3daafe3b4186f6b6457e08280a3005b91908251928382525f5b84811061033c575050825f602080949584010152601f8019910116010190565b60208183018101518483018201520161031c565b5f546001600160a01b0316330361036357565b60405163118cdaa760e01b8152336004820152602490fdfea26469706673582212202992a71449476404159c12582e1f3d5c014ae92bc1369e2e03b37152567a3c7d64736f6c63430008180033000000000000000000000000ff6bdef4fb646ee44e29fe8fc0862b02f0ba8a33"
        }
      ],
      "isFixedGasLimit": false
    },
    {
      "hash": "0xc38d02557a670f66a12937818336cd8da7caa20c6090aa264a4170a2af3a9880",
      "transactionType": "CALL",
      "contractName": "TransparentUpgradeableProxy",
      "contractAddress": "0x8714b91da03c8df7c1cc26464b306d3ee6286f7b",
      "function": null,
      "arguments": null,
      "transaction": {
        "from": "0xff6bdef4fb646ee44e29fe8fc0862b02f0ba8a33",
        "to": "0x8714b91da03c8df7c1cc26464b306d3ee6286f7b",
        "gas": "0x2adfd",
        "value": "0x0",
        "input": "0x666033e6000000000000000000000000be08bbb2b048dfb58be5e6f34a841a37f65aedd0000000000000000000000000000000000000000000000000000000000000000000000000000000000000000000000000000000000000000000000000000232800000000000000000000000000000000000000000000000000000000000000000",
        "nonce": "0xb9",
        "chainId": "0x14a34"
      },
      "additionalContracts": [],
      "isFixedGasLimit": false
    },
    {
      "hash": "0x6748f4e9ade04ad69bce260fab3a15ba95719b4fa160d13626a6f2afb731fd5a",
      "transactionType": "CALL",
      "contractName": null,
      "contractAddress": "0xbe08bbb2b048dfb58be5e6f34a841a37f65aedd0",
      "function": "approve(address,uint256)",
      "arguments": [
        "0x8714B91da03c8Df7C1cC26464B306d3ee6286F7B",
        "115792089237316195423570985008687907853269984665640564039457584007913129639935"
      ],
      "transaction": {
        "from": "0xff6bdef4fb646ee44e29fe8fc0862b02f0ba8a33",
        "to": "0xbe08bbb2b048dfb58be5e6f34a841a37f65aedd0",
        "gas": "0x10868",
        "value": "0x0",
        "input": "0x095ea7b30000000000000000000000008714b91da03c8df7c1cc26464b306d3ee6286f7bffffffffffffffffffffffffffffffffffffffffffffffffffffffffffffffff",
        "nonce": "0xba",
        "chainId": "0x14a34"
      },
      "additionalContracts": [],
      "isFixedGasLimit": false
    },
    {
      "hash": "0xc6e51127eeb1a702022e4c1021c5b9a123d65ca0069f549641d69c131426c490",
      "transactionType": "CALL",
      "contractName": "TransparentUpgradeableProxy",
      "contractAddress": "0x8714b91da03c8df7c1cc26464b306d3ee6286f7b",
      "function": null,
      "arguments": null,
      "transaction": {
        "from": "0xff6bdef4fb646ee44e29fe8fc0862b02f0ba8a33",
        "to": "0x8714b91da03c8df7c1cc26464b306d3ee6286f7b",
        "gas": "0x65547",
        "value": "0x0",
        "input": "0xcce7ec13000000000000000000000000be08bbb2b048dfb58be5e6f34a841a37f65aedd00000000000000000000000000000000000000000000000000000000405f7e000",
        "nonce": "0xbb",
        "chainId": "0x14a34"
      },
      "additionalContracts": [],
      "isFixedGasLimit": false
    },
    {
      "hash": "0x0a1da729845084511774258ecb2aed28a3f5a43d360d3c0f7187f548914cf681",
      "transactionType": "CALL",
      "contractName": "TransparentUpgradeableProxy",
      "contractAddress": "0x8714b91da03c8df7c1cc26464b306d3ee6286f7b",
      "function": null,
      "arguments": null,
      "transaction": {
        "from": "0xff6bdef4fb646ee44e29fe8fc0862b02f0ba8a33",
        "to": "0x8714b91da03c8df7c1cc26464b306d3ee6286f7b",
        "gas": "0x20bba",
        "value": "0x0",
        "input": "0xe2233cbd000000000000000000000000000000000000000000000000000000037e11d600",
        "nonce": "0xbc",
        "chainId": "0x14a34"
      },
      "additionalContracts": [],
      "isFixedGasLimit": false
    },
    {
      "hash": "0x022df5fd18f3d4fe1791d81d8fb9678e94895276b4ef51abb5326c48754e6f29",
      "transactionType": "CALL",
      "contractName": "TransparentUpgradeableProxy",
      "contractAddress": "0x8714b91da03c8df7c1cc26464b306d3ee6286f7b",
      "function": null,
      "arguments": null,
      "transaction": {
        "from": "0xff6bdef4fb646ee44e29fe8fc0862b02f0ba8a33",
        "to": "0x8714b91da03c8df7c1cc26464b306d3ee6286f7b",
        "gas": "0x3584d",
        "value": "0x0",
        "input": "0x703dbfe40000000000000000000000000000000000000000000000000000000000000001",
        "nonce": "0xbd",
        "chainId": "0x14a34"
      },
      "additionalContracts": [],
      "isFixedGasLimit": false
    },
    {
      "hash": "0xb4e37a9122e11b5fb6a7f8030aac73fa7ad0e8aef184d6cb963072479418f4db",
      "transactionType": "CALL",
      "contractName": "TransparentUpgradeableProxy",
      "contractAddress": "0x4419ae7b501161e71f7b754a201e1b8928cdb568",
      "function": null,
      "arguments": null,
      "transaction": {
        "from": "0xff6bdef4fb646ee44e29fe8fc0862b02f0ba8a33",
        "to": "0x4419ae7b501161e71f7b754a201e1b8928cdb568",
        "gas": "0x124de",
        "value": "0x0",
        "input": "0x095ea7b3000000000000000000000000198a064f315e48165eb2b6f3dce795b90cfa14fcffffffffffffffffffffffffffffffffffffffffffffffffffffffffffffffff",
        "nonce": "0xbe",
        "chainId": "0x14a34"
      },
      "additionalContracts": [],
      "isFixedGasLimit": false
    },
    {
      "hash": "0x20639aa997fe6c91d594cf9806ef3a2ad7a27373ed197a3050d8a4b640f021a7",
      "transactionType": "CALL",
      "contractName": "TransparentUpgradeableProxy",
      "contractAddress": "0x198a064f315e48165eb2b6f3dce795b90cfa14fc",
      "function": null,
      "arguments": null,
      "transaction": {
        "from": "0xff6bdef4fb646ee44e29fe8fc0862b02f0ba8a33",
        "to": "0x198a064f315e48165eb2b6f3dce795b90cfa14fc",
        "gas": "0x67ff8",
        "value": "0x0",
        "input": "0xa694fc3a000000000000000000000000000000000000000000001969368974c05b000000",
        "nonce": "0xbf",
        "chainId": "0x14a34"
      },
      "additionalContracts": [],
      "isFixedGasLimit": false
    },
    {
      "hash": "0xb5725a9983d3c7280bc9beea3b0e85dc52211ae620cb66b34904d3694dc27462",
      "transactionType": "CALL",
      "contractName": null,
      "contractAddress": "0xbe08bbb2b048dfb58be5e6f34a841a37f65aedd0",
      "function": "mint(address,uint256)",
      "arguments": [
        "0x455aB6723CCab4cb62983710C33f6311cc85Bc97",
        "10000000000"
      ],
      "transaction": {
        "from": "0xff6bdef4fb646ee44e29fe8fc0862b02f0ba8a33",
        "to": "0xbe08bbb2b048dfb58be5e6f34a841a37f65aedd0",
        "gas": "0x11325",
        "value": "0x0",
        "input": "0x40c10f19000000000000000000000000455ab6723ccab4cb62983710c33f6311cc85bc9700000000000000000000000000000000000000000000000000000002540be400",
        "nonce": "0xc0",
        "chainId": "0x14a34"
      },
      "additionalContracts": [],
      "isFixedGasLimit": false
    },
    {
      "hash": "0xe9c9d60f07ada2a947ed7472d79dea89aa893393479447f28a50a50b907e5c18",
      "transactionType": "CALL",
      "contractName": null,
      "contractAddress": "0xbe08bbb2b048dfb58be5e6f34a841a37f65aedd0",
      "function": "approve(address,uint256)",
      "arguments": [
        "0x8714B91da03c8Df7C1cC26464B306d3ee6286F7B",
        "115792089237316195423570985008687907853269984665640564039457584007913129639935"
      ],
      "transaction": {
        "from": "0x455ab6723ccab4cb62983710c33f6311cc85bc97",
        "to": "0xbe08bbb2b048dfb58be5e6f34a841a37f65aedd0",
        "gas": "0x10868",
        "value": "0x0",
        "input": "0x095ea7b30000000000000000000000008714b91da03c8df7c1cc26464b306d3ee6286f7bffffffffffffffffffffffffffffffffffffffffffffffffffffffffffffffff",
        "nonce": "0x14",
        "chainId": "0x14a34"
      },
      "additionalContracts": [],
      "isFixedGasLimit": false
    },
    {
      "hash": "0x5a2583c8cb22fc8dbba1596b8f706d566e2c098907acf3b8711324780881278b",
      "transactionType": "CALL",
      "contractName": "TransparentUpgradeableProxy",
      "contractAddress": "0x8714b91da03c8df7c1cc26464b306d3ee6286f7b",
      "function": null,
      "arguments": null,
      "transaction": {
        "from": "0x455ab6723ccab4cb62983710c33f6311cc85bc97",
        "to": "0x8714b91da03c8df7c1cc26464b306d3ee6286f7b",
        "gas": "0x313dd",
        "value": "0x0",
        "input": "0xcce7ec13000000000000000000000000be08bbb2b048dfb58be5e6f34a841a37f65aedd000000000000000000000000000000000000000000000000000000001ad274800",
        "nonce": "0x15",
        "chainId": "0x14a34"
      },
      "additionalContracts": [],
      "isFixedGasLimit": false
    },
    {
      "hash": "0x7b91aa67d3be0e6c24cd4fefcef7168aabe184939af0b89ae067b9402e9b6964",
      "transactionType": "CALL",
      "contractName": "TransparentUpgradeableProxy",
      "contractAddress": "0x4419ae7b501161e71f7b754a201e1b8928cdb568",
      "function": null,
      "arguments": null,
      "transaction": {
        "from": "0x455ab6723ccab4cb62983710c33f6311cc85bc97",
        "to": "0x4419ae7b501161e71f7b754a201e1b8928cdb568",
        "gas": "0x124de",
        "value": "0x0",
        "input": "0x095ea7b3000000000000000000000000198a064f315e48165eb2b6f3dce795b90cfa14fcffffffffffffffffffffffffffffffffffffffffffffffffffffffffffffffff",
        "nonce": "0x16",
        "chainId": "0x14a34"
      },
      "additionalContracts": [],
      "isFixedGasLimit": false
    },
    {
      "hash": "0x87f2e4725fe7c9abf5fcd1717d90fe7113b68183755a015cc5d6c5413e2c1bb6",
      "transactionType": "CALL",
      "contractName": "TransparentUpgradeableProxy",
      "contractAddress": "0x198a064f315e48165eb2b6f3dce795b90cfa14fc",
      "function": null,
      "arguments": null,
      "transaction": {
        "from": "0x455ab6723ccab4cb62983710c33f6311cc85bc97",
        "to": "0x198a064f315e48165eb2b6f3dce795b90cfa14fc",
        "gas": "0x5149c",
        "value": "0x0",
        "input": "0xa694fc3a000000000000000000000000000000000000000000000a968163f0a57b400000",
        "nonce": "0x17",
        "chainId": "0x14a34"
      },
      "additionalContracts": [],
      "isFixedGasLimit": false
    }
  ],
  "receipts": [
    {
      "status": "0x1",
      "cumulativeGasUsed": "0x33d796",
      "logs": [
        {
          "address": "0x0d8be3da6232a51ea9218ef47c6ab085b8940684",
          "topics": [
            "0xa53bb861f8980ad56ca8ad0ba10cc5ef7a8a6af7fa4ca26f876580318c82f719"
          ],
          "data": "0x0000000000000000000000000000000000000000000000000000000000000e100000000000000000000000000000000000000000000000000000000000000708",
          "blockHash": "0x0000000000000000000000000000000000000000000000000000000000000000",
          "blockNumber": "0x26e934f",
          "blockTimestamp": "0x69f0857e",
          "transactionHash": "0x3d213de2c9c8e687fa2e0393e52fdbf9bdb119073bdccdc25a28c814067b027b",
          "transactionIndex": "0x17",
          "logIndex": "0x5c",
          "removed": false
        }
      ],
      "logsBloom": "0x00000000400000000000000000000000000000000000000000000000000000000000000000000000000000000000000000000000000000000000000000000000000000000000000000000000000000000000000000000001000000000000000000000000000000000000000000000000000000000000000000000000000010000000000000000000000000000000000000000004000000000000000000000000000000000000000000100000000000000000000000000000000000000000000000000000000000000000000000000000000000000000000000000000000000000800000000000000000000000000000000000000000000000000000000000000",
      "type": "0x2",
      "transactionHash": "0x3d213de2c9c8e687fa2e0393e52fdbf9bdb119073bdccdc25a28c814067b027b",
      "transactionIndex": "0x17",
      "blockHash": "0x0000000000000000000000000000000000000000000000000000000000000000",
      "blockNumber": "0x26e934f",
      "gasUsed": "0x8860",
      "effectiveGasPrice": "0x5b8d80",
      "blobGasUsed": "0x39d0",
      "from": "0xff6bdef4fb646ee44e29fe8fc0862b02f0ba8a33",
      "to": "0x0d8be3da6232a51ea9218ef47c6ab085b8940684",
      "contractAddress": null,
      "daFootprintGasScalar": "0x94",
      "l1BaseFeeScalar": "0x44d",
      "l1BlobBaseFee": "0x418323",
      "l1BlobBaseFeeScalar": "0xa118b",
      "l1Fee": "0x185746e4",
      "l1GasPrice": "0x43b5bc8",
      "l1GasUsed": "0x640"
    },
    {
      "status": "0x1",
      "cumulativeGasUsed": "0x3feecf",
      "logs": [
        {
          "address": "0x8714b91da03c8df7c1cc26464b306d3ee6286f7b",
          "topics": [
            "0xbc7cd75a20ee27fd9adebab32041f755214dbc6bffa90cc0225b39da2e5c2d3b",
            "0x000000000000000000000000fcd9ca1a50d16656283a7c5a94b8d4b6afff5c45"
          ],
          "data": "0x",
          "blockHash": "0x0000000000000000000000000000000000000000000000000000000000000000",
          "blockNumber": "0x26e9351",
          "blockTimestamp": "0x69f08582",
          "transactionHash": "0xb8148ea8d7d323c4fed147d1f1b543c087568c9a01b939b3330712f28c6ee03e",
          "transactionIndex": "0x2",
          "logIndex": "0xb",
          "removed": false
        },
        {
          "address": "0x8714b91da03c8df7c1cc26464b306d3ee6286f7b",
          "topics": [
            "0xc7f505b2f371ae2175ee4913f4499e1f2633a7b5936321eed1cdaeb6115181d2"
          ],
          "data": "0x0000000000000000000000000000000000000000000000000000000000000001",
          "blockHash": "0x0000000000000000000000000000000000000000000000000000000000000000",
          "blockNumber": "0x26e9351",
          "blockTimestamp": "0x69f08582",
          "transactionHash": "0xb8148ea8d7d323c4fed147d1f1b543c087568c9a01b939b3330712f28c6ee03e",
          "transactionIndex": "0x2",
          "logIndex": "0xc",
          "removed": false
        },
        {
          "address": "0x80e89d50fedc08c489b9c23eae6fc22f479b96d5",
          "topics": [
            "0x8be0079c531659141344cd1fd0a4f28419497f9722a3daafe3b4186f6b6457e0",
            "0x0000000000000000000000000000000000000000000000000000000000000000",
            "0x000000000000000000000000ff6bdef4fb646ee44e29fe8fc0862b02f0ba8a33"
          ],
          "data": "0x",
          "blockHash": "0x0000000000000000000000000000000000000000000000000000000000000000",
          "blockNumber": "0x26e9351",
          "blockTimestamp": "0x69f08582",
          "transactionHash": "0xb8148ea8d7d323c4fed147d1f1b543c087568c9a01b939b3330712f28c6ee03e",
          "transactionIndex": "0x2",
          "logIndex": "0xd",
          "removed": false
        },
        {
          "address": "0x8714b91da03c8df7c1cc26464b306d3ee6286f7b",
          "topics": [
            "0x7e644d79422f17c01e4894b5f4f588d331ebfa28653d42ae832dc59e38c9798f"
          ],
          "data": "0x000000000000000000000000000000000000000000000000000000000000000000000000000000000000000080e89d50fedc08c489b9c23eae6fc22f479b96d5",
          "blockHash": "0x0000000000000000000000000000000000000000000000000000000000000000",
          "blockNumber": "0x26e9351",
          "blockTimestamp": "0x69f08582",
          "transactionHash": "0xb8148ea8d7d323c4fed147d1f1b543c087568c9a01b939b3330712f28c6ee03e",
          "transactionIndex": "0x2",
          "logIndex": "0xe",
          "removed": false
        },
        {
          "address": "0x4419ae7b501161e71f7b754a201e1b8928cdb568",
          "topics": [
            "0xbc7cd75a20ee27fd9adebab32041f755214dbc6bffa90cc0225b39da2e5c2d3b",
            "0x000000000000000000000000f7fbed13519f0a564f00f72b9575143542118e30"
          ],
          "data": "0x",
          "blockHash": "0x0000000000000000000000000000000000000000000000000000000000000000",
          "blockNumber": "0x26e9351",
          "blockTimestamp": "0x69f08582",
          "transactionHash": "0xb8148ea8d7d323c4fed147d1f1b543c087568c9a01b939b3330712f28c6ee03e",
          "transactionIndex": "0x2",
          "logIndex": "0xf",
          "removed": false
        },
        {
          "address": "0x4419ae7b501161e71f7b754a201e1b8928cdb568",
          "topics": [
            "0xc7f505b2f371ae2175ee4913f4499e1f2633a7b5936321eed1cdaeb6115181d2"
          ],
          "data": "0x0000000000000000000000000000000000000000000000000000000000000001",
          "blockHash": "0x0000000000000000000000000000000000000000000000000000000000000000",
          "blockNumber": "0x26e9351",
          "blockTimestamp": "0x69f08582",
          "transactionHash": "0xb8148ea8d7d323c4fed147d1f1b543c087568c9a01b939b3330712f28c6ee03e",
          "transactionIndex": "0x2",
          "logIndex": "0x10",
          "removed": false
        },
        {
          "address": "0x91b20147d565f9dde8f2084ee15b932c6b6d477a",
          "topics": [
            "0x8be0079c531659141344cd1fd0a4f28419497f9722a3daafe3b4186f6b6457e0",
            "0x0000000000000000000000000000000000000000000000000000000000000000",
            "0x000000000000000000000000ff6bdef4fb646ee44e29fe8fc0862b02f0ba8a33"
          ],
          "data": "0x",
          "blockHash": "0x0000000000000000000000000000000000000000000000000000000000000000",
          "blockNumber": "0x26e9351",
          "blockTimestamp": "0x69f08582",
          "transactionHash": "0xb8148ea8d7d323c4fed147d1f1b543c087568c9a01b939b3330712f28c6ee03e",
          "transactionIndex": "0x2",
          "logIndex": "0x11",
          "removed": false
        },
        {
          "address": "0x4419ae7b501161e71f7b754a201e1b8928cdb568",
          "topics": [
            "0x7e644d79422f17c01e4894b5f4f588d331ebfa28653d42ae832dc59e38c9798f"
          ],
          "data": "0x000000000000000000000000000000000000000000000000000000000000000000000000000000000000000091b20147d565f9dde8f2084ee15b932c6b6d477a",
          "blockHash": "0x0000000000000000000000000000000000000000000000000000000000000000",
          "blockNumber": "0x26e9351",
          "blockTimestamp": "0x69f08582",
          "transactionHash": "0xb8148ea8d7d323c4fed147d1f1b543c087568c9a01b939b3330712f28c6ee03e",
          "transactionIndex": "0x2",
          "logIndex": "0x12",
          "removed": false
        },
        {
          "address": "0x198a064f315e48165eb2b6f3dce795b90cfa14fc",
          "topics": [
            "0xbc7cd75a20ee27fd9adebab32041f755214dbc6bffa90cc0225b39da2e5c2d3b",
            "0x00000000000000000000000038adf652a7ec946578ff6db8e923af26eaab8023"
          ],
          "data": "0x",
          "blockHash": "0x0000000000000000000000000000000000000000000000000000000000000000",
          "blockNumber": "0x26e9351",
          "blockTimestamp": "0x69f08582",
          "transactionHash": "0xb8148ea8d7d323c4fed147d1f1b543c087568c9a01b939b3330712f28c6ee03e",
          "transactionIndex": "0x2",
          "logIndex": "0x13",
          "removed": false
        },
        {
          "address": "0x198a064f315e48165eb2b6f3dce795b90cfa14fc",
          "topics": [
            "0xc7f505b2f371ae2175ee4913f4499e1f2633a7b5936321eed1cdaeb6115181d2"
          ],
          "data": "0x0000000000000000000000000000000000000000000000000000000000000001",
          "blockHash": "0x0000000000000000000000000000000000000000000000000000000000000000",
          "blockNumber": "0x26e9351",
          "blockTimestamp": "0x69f08582",
          "transactionHash": "0xb8148ea8d7d323c4fed147d1f1b543c087568c9a01b939b3330712f28c6ee03e",
          "transactionIndex": "0x2",
          "logIndex": "0x14",
          "removed": false
        },
        {
          "address": "0x3a29e47464d8873a943a9c2a076cad3b232e3d60",
          "topics": [
            "0x8be0079c531659141344cd1fd0a4f28419497f9722a3daafe3b4186f6b6457e0",
            "0x0000000000000000000000000000000000000000000000000000000000000000",
            "0x000000000000000000000000ff6bdef4fb646ee44e29fe8fc0862b02f0ba8a33"
          ],
          "data": "0x",
          "blockHash": "0x0000000000000000000000000000000000000000000000000000000000000000",
          "blockNumber": "0x26e9351",
          "blockTimestamp": "0x69f08582",
          "transactionHash": "0xb8148ea8d7d323c4fed147d1f1b543c087568c9a01b939b3330712f28c6ee03e",
          "transactionIndex": "0x2",
          "logIndex": "0x15",
          "removed": false
        },
        {
          "address": "0x198a064f315e48165eb2b6f3dce795b90cfa14fc",
          "topics": [
            "0x7e644d79422f17c01e4894b5f4f588d331ebfa28653d42ae832dc59e38c9798f"
          ],
          "data": "0x00000000000000000000000000000000000000000000000000000000000000000000000000000000000000003a29e47464d8873a943a9c2a076cad3b232e3d60",
          "blockHash": "0x0000000000000000000000000000000000000000000000000000000000000000",
          "blockNumber": "0x26e9351",
          "blockTimestamp": "0x69f08582",
          "transactionHash": "0xb8148ea8d7d323c4fed147d1f1b543c087568c9a01b939b3330712f28c6ee03e",
          "transactionIndex": "0x2",
          "logIndex": "0x16",
          "removed": false
        },
        {
          "address": "0x60f7411c68f518d31996bee60060309ce71130b9",
          "topics": [
            "0xbc7cd75a20ee27fd9adebab32041f755214dbc6bffa90cc0225b39da2e5c2d3b",
            "0x00000000000000000000000013abbcd397f32c4b993820bb7acf0b2f548099a1"
          ],
          "data": "0x",
          "blockHash": "0x0000000000000000000000000000000000000000000000000000000000000000",
          "blockNumber": "0x26e9351",
          "blockTimestamp": "0x69f08582",
          "transactionHash": "0xb8148ea8d7d323c4fed147d1f1b543c087568c9a01b939b3330712f28c6ee03e",
          "transactionIndex": "0x2",
          "logIndex": "0x17",
          "removed": false
        },
        {
          "address": "0x60f7411c68f518d31996bee60060309ce71130b9",
          "topics": [
            "0xc7f505b2f371ae2175ee4913f4499e1f2633a7b5936321eed1cdaeb6115181d2"
          ],
          "data": "0x0000000000000000000000000000000000000000000000000000000000000001",
          "blockHash": "0x0000000000000000000000000000000000000000000000000000000000000000",
          "blockNumber": "0x26e9351",
          "blockTimestamp": "0x69f08582",
          "transactionHash": "0xb8148ea8d7d323c4fed147d1f1b543c087568c9a01b939b3330712f28c6ee03e",
          "transactionIndex": "0x2",
          "logIndex": "0x18",
          "removed": false
        },
        {
          "address": "0x6fb8ba38ce7fc10e8affcc3888bff988097551ac",
          "topics": [
            "0x8be0079c531659141344cd1fd0a4f28419497f9722a3daafe3b4186f6b6457e0",
            "0x0000000000000000000000000000000000000000000000000000000000000000",
            "0x000000000000000000000000ff6bdef4fb646ee44e29fe8fc0862b02f0ba8a33"
          ],
          "data": "0x",
          "blockHash": "0x0000000000000000000000000000000000000000000000000000000000000000",
          "blockNumber": "0x26e9351",
          "blockTimestamp": "0x69f08582",
          "transactionHash": "0xb8148ea8d7d323c4fed147d1f1b543c087568c9a01b939b3330712f28c6ee03e",
          "transactionIndex": "0x2",
          "logIndex": "0x19",
          "removed": false
        },
        {
          "address": "0x60f7411c68f518d31996bee60060309ce71130b9",
          "topics": [
            "0x7e644d79422f17c01e4894b5f4f588d331ebfa28653d42ae832dc59e38c9798f"
          ],
          "data": "0x00000000000000000000000000000000000000000000000000000000000000000000000000000000000000006fb8ba38ce7fc10e8affcc3888bff988097551ac",
          "blockHash": "0x0000000000000000000000000000000000000000000000000000000000000000",
          "blockNumber": "0x26e9351",
          "blockTimestamp": "0x69f08582",
          "transactionHash": "0xb8148ea8d7d323c4fed147d1f1b543c087568c9a01b939b3330712f28c6ee03e",
          "transactionIndex": "0x2",
          "logIndex": "0x1a",
          "removed": false
        },
        {
          "address": "0x820a8f79d7fd798ef353a42e994af9b9bf50c137",
          "topics": [
            "0xbc7cd75a20ee27fd9adebab32041f755214dbc6bffa90cc0225b39da2e5c2d3b",
            "0x00000000000000000000000010a99be78f9dccecfc8ac6953fc5bdcd993f7f4f"
          ],
          "data": "0x",
          "blockHash": "0x0000000000000000000000000000000000000000000000000000000000000000",
          "blockNumber": "0x26e9351",
          "blockTimestamp": "0x69f08582",
          "transactionHash": "0xb8148ea8d7d323c4fed147d1f1b543c087568c9a01b939b3330712f28c6ee03e",
          "transactionIndex": "0x2",
          "logIndex": "0x1b",
          "removed": false
        },
        {
          "address": "0x820a8f79d7fd798ef353a42e994af9b9bf50c137",
          "topics": [
            "0xc7f505b2f371ae2175ee4913f4499e1f2633a7b5936321eed1cdaeb6115181d2"
          ],
          "data": "0x0000000000000000000000000000000000000000000000000000000000000001",
          "blockHash": "0x0000000000000000000000000000000000000000000000000000000000000000",
          "blockNumber": "0x26e9351",
          "blockTimestamp": "0x69f08582",
          "transactionHash": "0xb8148ea8d7d323c4fed147d1f1b543c087568c9a01b939b3330712f28c6ee03e",
          "transactionIndex": "0x2",
          "logIndex": "0x1c",
          "removed": false
        },
        {
          "address": "0x3a54a9a6eded93a580eed8806257dc5ae682ec3e",
          "topics": [
            "0x8be0079c531659141344cd1fd0a4f28419497f9722a3daafe3b4186f6b6457e0",
            "0x0000000000000000000000000000000000000000000000000000000000000000",
            "0x000000000000000000000000ff6bdef4fb646ee44e29fe8fc0862b02f0ba8a33"
          ],
          "data": "0x",
          "blockHash": "0x0000000000000000000000000000000000000000000000000000000000000000",
          "blockNumber": "0x26e9351",
          "blockTimestamp": "0x69f08582",
          "transactionHash": "0xb8148ea8d7d323c4fed147d1f1b543c087568c9a01b939b3330712f28c6ee03e",
          "transactionIndex": "0x2",
          "logIndex": "0x1d",
          "removed": false
        },
        {
          "address": "0x820a8f79d7fd798ef353a42e994af9b9bf50c137",
          "topics": [
            "0x7e644d79422f17c01e4894b5f4f588d331ebfa28653d42ae832dc59e38c9798f"
          ],
          "data": "0x00000000000000000000000000000000000000000000000000000000000000000000000000000000000000003a54a9a6eded93a580eed8806257dc5ae682ec3e",
          "blockHash": "0x0000000000000000000000000000000000000000000000000000000000000000",
          "blockNumber": "0x26e9351",
          "blockTimestamp": "0x69f08582",
          "transactionHash": "0xb8148ea8d7d323c4fed147d1f1b543c087568c9a01b939b3330712f28c6ee03e",
          "transactionIndex": "0x2",
          "logIndex": "0x1e",
          "removed": false
        },
        {
          "address": "0x0d8be3da6232a51ea9218ef47c6ab085b8940684",
          "topics": [
            "0x02e5501cd9c125c7ea37808e14d6fc604df3b0ed9d369ac30a1c1393e72dc300",
            "0x0000000000000000000000008714b91da03c8df7c1cc26464b306d3ee6286f7b",
            "0x000000000000000000000000ff6bdef4fb646ee44e29fe8fc0862b02f0ba8a33"
          ],
          "data": "0x0000000000000000000000004419ae7b501161e71f7b754a201e1b8928cdb568000000000000000000000000820a8f79d7fd798ef353a42e994af9b9bf50c137000000000000000000000000198a064f315e48165eb2b6f3dce795b90cfa14fc00000000000000000000000060f7411c68f518d31996bee60060309ce71130b900000000000000000000000000000000000000000000000001ff973cafa8000000000000000000000000000000000000000000000000152d02c7e14af6800000000000000000000000000000000000000000000000004a1d89bb94865ec000000000000000000000000000000000000000000000000000000000000069f1d6e400000000000000000000000000000000000000000000000000000000000007080000000000000000000000000000000000000000000000000de0b6b3a76400000000000000000000000000000000000000000000000000000000000069f0858200000000000000000000000000000000000000000000010f0cf064dd5920000000000000000000000000000000000000000000000000000000000000000007ee0000000000000000000000000000000000000000000000000000000000000003",
          "blockHash": "0x0000000000000000000000000000000000000000000000000000000000000000",
          "blockNumber": "0x26e9351",
          "blockTimestamp": "0x69f08582",
          "transactionHash": "0xb8148ea8d7d323c4fed147d1f1b543c087568c9a01b939b3330712f28c6ee03e",
          "transactionIndex": "0x2",
          "logIndex": "0x1f",
          "removed": false
        }
      ],
      "logsBloom": "0x00016000400000000000100000000000410200000000000000808000000000000000000000000000000000000000000000000000000000000000000000040000000000000200000000000000000002000045000000000001000000000000040000000002020000000040000004000808000000800400000000000100040014400002000000080000000800000000000000000004000080000000000000804000000000000000000000228000000200000081000000000000010000000002000000008020000000800000100000010000000840080404000080000000400820000a08002000000000000000000022000000000000030000000000000400000001",
      "type": "0x2",
      "transactionHash": "0xb8148ea8d7d323c4fed147d1f1b543c087568c9a01b939b3330712f28c6ee03e",
      "transactionIndex": "0x2",
      "blockHash": "0x0000000000000000000000000000000000000000000000000000000000000000",
      "blockNumber": "0x26e9351",
      "gasUsed": "0x39827b",
      "effectiveGasPrice": "0x5b8d80",
      "blobGasUsed": "0x92d8",
      "from": "0xff6bdef4fb646ee44e29fe8fc0862b02f0ba8a33",
      "to": "0x0d8be3da6232a51ea9218ef47c6ab085b8940684",
      "contractAddress": null,
      "daFootprintGasScalar": "0x94",
      "l1BaseFeeScalar": "0x44d",
      "l1BlobBaseFee": "0x418323",
      "l1BlobBaseFeeScalar": "0xa118b",
      "l1Fee": "0x83c15db8",
      "l1GasPrice": "0x43b5bc8",
      "l1GasUsed": "0xfe5"
    },
    {
      "status": "0x1",
      "cumulativeGasUsed": "0x2b2053",
      "logs": [
        {
          "address": "0x8714b91da03c8df7c1cc26464b306d3ee6286f7b",
          "topics": [
            "0x1809803edc7f4d0a1c400a8f95cac12ace860d60e118b6c9b491082a623963df",
            "0x000000000000000000000000be08bbb2b048dfb58be5e6f34a841a37f65aedd0"
          ],
          "data": "0x00000000000000000000000000000000000000000000000000000000000000800000000000000000000000000000000000000000000000000000000000000000000000000000000000000000000000000000000000000000000000000002328000000000000000000000000000000000000000000000000000000000000000000000000000000000000000000000000000000000000000000000000000000000",
          "blockHash": "0x0000000000000000000000000000000000000000000000000000000000000000",
          "blockNumber": "0x26e9352",
          "blockTimestamp": "0x69f08584",
          "transactionHash": "0xc38d02557a670f66a12937818336cd8da7caa20c6090aa264a4170a2af3a9880",
          "transactionIndex": "0x12",
          "logIndex": "0x42",
          "removed": false
        }
      ],
      "logsBloom": "0x00000000400000000000000000000000000000000000000400000000200000000000000000000000000000000200000000000000000000008000000000000000000000000000000000000000000000000000000000000000000000000000000000000000000000000000000000000000000000000000000000000000000000000000000000000000000000000000000000000000000000000000000000000000000000000000000000000000000000000000000000000000000000000000000000000000000000000000000000000000000800000000000000000000000800000000002000000000000000000000000000000000000002000000000000000000",
      "type": "0x2",
      "transactionHash": "0xc38d02557a670f66a12937818336cd8da7caa20c6090aa264a4170a2af3a9880",
      "transactionIndex": "0x12",
      "blockHash": "0x0000000000000000000000000000000000000000000000000000000000000000",
      "blockNumber": "0x26e9352",
      "gasUsed": "0x1f0a5",
      "effectiveGasPrice": "0x5b8d80",
      "blobGasUsed": "0x39d0",
      "from": "0xff6bdef4fb646ee44e29fe8fc0862b02f0ba8a33",
      "to": "0x8714b91da03c8df7c1cc26464b306d3ee6286f7b",
      "contractAddress": null,
      "daFootprintGasScalar": "0x94",
      "l1BaseFeeScalar": "0x44d",
      "l1BlobBaseFee": "0x418323",
      "l1BlobBaseFeeScalar": "0xa118b",
      "l1Fee": "0x82547e61",
      "l1GasPrice": "0x43b5bc8",
      "l1GasUsed": "0x640"
    },
    {
      "status": "0x1",
      "cumulativeGasUsed": "0x25fdf9",
      "logs": [
        {
          "address": "0xbe08bbb2b048dfb58be5e6f34a841a37f65aedd0",
          "topics": [
            "0x8c5be1e5ebec7d5bd14f71427d1e84f3dd0314c0f7b2291e5b200ac8c7c3b925",
            "0x000000000000000000000000ff6bdef4fb646ee44e29fe8fc0862b02f0ba8a33",
            "0x0000000000000000000000008714b91da03c8df7c1cc26464b306d3ee6286f7b"
          ],
          "data": "0xffffffffffffffffffffffffffffffffffffffffffffffffffffffffffffffff",
          "blockHash": "0x0000000000000000000000000000000000000000000000000000000000000000",
          "blockNumber": "0x26e9353",
          "blockTimestamp": "0x69f08586",
          "transactionHash": "0x6748f4e9ade04ad69bce260fab3a15ba95719b4fa160d13626a6f2afb731fd5a",
          "transactionIndex": "0xc",
          "logIndex": "0x79",
          "removed": false
        }
      ],
      "logsBloom": "0x00000000000000000000100000000000000000000000000000000000000000000000000000000000000000000000000000000000000000000000000000200000000000000000000000000002000000000000000000000001000000000000040000000000000000000000000000000000000000000000000000000000000000000000000010000000000000000000000000000000000000000000000000000000020000000000000000000000000000000000000000080000000000000000000000000000000000000000100000010000000000000000000000000000400000000010000000000000000000000000000000000000000000000000000000000000",
      "type": "0x2",
      "transactionHash": "0x6748f4e9ade04ad69bce260fab3a15ba95719b4fa160d13626a6f2afb731fd5a",
      "transactionIndex": "0xc",
      "blockHash": "0x0000000000000000000000000000000000000000000000000000000000000000",
      "blockNumber": "0x26e9353",
      "gasUsed": "0xb4cb",
      "effectiveGasPrice": "0x5b8d80",
      "blobGasUsed": "0x39d0",
      "from": "0xff6bdef4fb646ee44e29fe8fc0862b02f0ba8a33",
      "to": "0xbe08bbb2b048dfb58be5e6f34a841a37f65aedd0",
      "contractAddress": null,
      "daFootprintGasScalar": "0x94",
      "l1BaseFeeScalar": "0x44d",
      "l1BlobBaseFee": "0x427fdc",
      "l1BlobBaseFeeScalar": "0xa118b",
      "l1Fee": "0x82feff54",
      "l1GasPrice": "0x40ce675",
      "l1GasUsed": "0x640"
    },
    {
      "status": "0x1",
      "cumulativeGasUsed": "0x215385",
      "logs": [
        {
          "address": "0xbe08bbb2b048dfb58be5e6f34a841a37f65aedd0",
          "topics": [
            "0xddf252ad1be2c89b69c2b068fc378daa952ba7f163c4a11628f55a4df523b3ef",
            "0x000000000000000000000000ff6bdef4fb646ee44e29fe8fc0862b02f0ba8a33",
            "0x0000000000000000000000008714b91da03c8df7c1cc26464b306d3ee6286f7b"
          ],
          "data": "0x0000000000000000000000000000000000000000000000000000000405f7e000",
          "blockHash": "0x0000000000000000000000000000000000000000000000000000000000000000",
          "blockNumber": "0x26e9354",
          "blockTimestamp": "0x69f08588",
          "transactionHash": "0xc6e51127eeb1a702022e4c1021c5b9a123d65ca0069f549641d69c131426c490",
          "transactionIndex": "0x9",
          "logIndex": "0x56",
          "removed": false
        },
        {
          "address": "0xbe08bbb2b048dfb58be5e6f34a841a37f65aedd0",
          "topics": [
            "0xddf252ad1be2c89b69c2b068fc378daa952ba7f163c4a11628f55a4df523b3ef",
            "0x0000000000000000000000008714b91da03c8df7c1cc26464b306d3ee6286f7b",
            "0x000000000000000000000000ff6bdef4fb646ee44e29fe8fc0862b02f0ba8a33"
          ],
          "data": "0x000000000000000000000000000000000000000000000000000000001ee62800",
          "blockHash": "0x0000000000000000000000000000000000000000000000000000000000000000",
          "blockNumber": "0x26e9354",
          "blockTimestamp": "0x69f08588",
          "transactionHash": "0xc6e51127eeb1a702022e4c1021c5b9a123d65ca0069f549641d69c131426c490",
          "transactionIndex": "0x9",
          "logIndex": "0x57",
          "removed": false
        },
        {
          "address": "0x8714b91da03c8df7c1cc26464b306d3ee6286f7b",
          "topics": [
            "0x4dd12c0ecba594b5bb7a4e3ec05ef19e1135fed23711a1fe4b1c9e6c9b40391b",
            "0x000000000000000000000000ff6bdef4fb646ee44e29fe8fc0862b02f0ba8a33",
            "0x000000000000000000000000be08bbb2b048dfb58be5e6f34a841a37f65aedd0"
          ],
          "data": "0x000000000000000000000000000000000000000000000000000000001ee62800",
          "blockHash": "0x0000000000000000000000000000000000000000000000000000000000000000",
          "blockNumber": "0x26e9354",
          "blockTimestamp": "0x69f08588",
          "transactionHash": "0xc6e51127eeb1a702022e4c1021c5b9a123d65ca0069f549641d69c131426c490",
          "transactionIndex": "0x9",
          "logIndex": "0x58",
          "removed": false
        },
        {
          "address": "0x4419ae7b501161e71f7b754a201e1b8928cdb568",
          "topics": [
            "0xddf252ad1be2c89b69c2b068fc378daa952ba7f163c4a11628f55a4df523b3ef",
            "0x0000000000000000000000000000000000000000000000000000000000000000",
            "0x000000000000000000000000ff6bdef4fb646ee44e29fe8fc0862b02f0ba8a33"
          ],
          "data": "0x000000000000000000000000000000000000000000001969368974c05b000000",
          "blockHash": "0x0000000000000000000000000000000000000000000000000000000000000000",
          "blockNumber": "0x26e9354",
          "blockTimestamp": "0x69f08588",
          "transactionHash": "0xc6e51127eeb1a702022e4c1021c5b9a123d65ca0069f549641d69c131426c490",
          "transactionIndex": "0x9",
          "logIndex": "0x59",
          "removed": false
        },
        {
          "address": "0x8714b91da03c8df7c1cc26464b306d3ee6286f7b",
          "topics": [
            "0x0b9c8304b83df3d2827b952a8e4c87faef3556dddcde57a47cb80f0c755606a5",
            "0x000000000000000000000000ff6bdef4fb646ee44e29fe8fc0862b02f0ba8a33",
            "0x000000000000000000000000be08bbb2b048dfb58be5e6f34a841a37f65aedd0"
          ],
          "data": "0x0000000000000000000000000000000000000000000000000000000405f7e000000000000000000000000000000000000000000000001969368974c05b0000000000000000000000000000000000000000000000000000000000000000000000000000000000000000000000000000000000000000001969368974c05b000000",
          "blockHash": "0x0000000000000000000000000000000000000000000000000000000000000000",
          "blockNumber": "0x26e9354",
          "blockTimestamp": "0x69f08588",
          "transactionHash": "0xc6e51127eeb1a702022e4c1021c5b9a123d65ca0069f549641d69c131426c490",
          "transactionIndex": "0x9",
          "logIndex": "0x5a",
          "removed": false
        },
        {
          "address": "0xbe08bbb2b048dfb58be5e6f34a841a37f65aedd0",
          "topics": [
            "0xddf252ad1be2c89b69c2b068fc378daa952ba7f163c4a11628f55a4df523b3ef",
            "0x0000000000000000000000008714b91da03c8df7c1cc26464b306d3ee6286f7b",
            "0x000000000000000000000000ff6bdef4fb646ee44e29fe8fc0862b02f0ba8a33"
          ],
          "data": "0x00000000000000000000000000000000000000000000000000000003e711b800",
          "blockHash": "0x0000000000000000000000000000000000000000000000000000000000000000",
          "blockNumber": "0x26e9354",
          "blockTimestamp": "0x69f08588",
          "transactionHash": "0xc6e51127eeb1a702022e4c1021c5b9a123d65ca0069f549641d69c131426c490",
          "transactionIndex": "0x9",
          "logIndex": "0x5b",
          "removed": false
        },
        {
          "address": "0x8714b91da03c8df7c1cc26464b306d3ee6286f7b",
          "topics": [
            "0x120bfc1de29621f7872a5b3129b6524ceb18df8c689a37496b8ee4007235dbc8"
          ],
          "data": "0x00000000000000000000000000000000000000000000000000000000000000000000000000000000000000000000000000000000000000000000000000000001",
          "blockHash": "0x0000000000000000000000000000000000000000000000000000000000000000",
          "blockNumber": "0x26e9354",
          "blockTimestamp": "0x69f08588",
          "transactionHash": "0xc6e51127eeb1a702022e4c1021c5b9a123d65ca0069f549641d69c131426c490",
          "transactionIndex": "0x9",
          "logIndex": "0x5c",
          "removed": false
        },
        {
          "address": "0x8714b91da03c8df7c1cc26464b306d3ee6286f7b",
          "topics": [
            "0xccb4518c7bb9cdee893961401854c0ac29fad869f3338dc3087c9215fa4ab9e1"
          ],
          "data": "0x0000000000000000000000000000000000000000000000000000000000000000000000000000000000000000000000000000000000001969368974c05b000000",
          "blockHash": "0x0000000000000000000000000000000000000000000000000000000000000000",
          "blockNumber": "0x26e9354",
          "blockTimestamp": "0x69f08588",
          "transactionHash": "0xc6e51127eeb1a702022e4c1021c5b9a123d65ca0069f549641d69c131426c490",
          "transactionIndex": "0x9",
          "logIndex": "0x5d",
          "removed": false
        }
      ],
      "logsBloom": "0x0000000040000000000010000000000000000000000040008000000020000800000000000000000000000000020000000000000000000000000000000000000000000000020000000000000a000010000000000000800001000000000000040000000000020000000000000000000800000000000000000000000010001000000002000010000000000000000000000000000000000000000000000000000000000000000000000000108020000000000000000000080000000000000000000000400002000000000000100000012000000800000000004000000000400820000000002002000000000000000000000000000000000000000000000000000000",
      "type": "0x2",
      "transactionHash": "0xc6e51127eeb1a702022e4c1021c5b9a123d65ca0069f549641d69c131426c490",
      "transactionIndex": "0x9",
      "blockHash": "0x0000000000000000000000000000000000000000000000000000000000000000",
      "blockNumber": "0x26e9354",
      "gasUsed": "0x495c7",
      "effectiveGasPrice": "0x5b8d80",
      "blobGasUsed": "0x39d0",
      "from": "0xff6bdef4fb646ee44e29fe8fc0862b02f0ba8a33",
      "to": "0x8714b91da03c8df7c1cc26464b306d3ee6286f7b",
      "contractAddress": null,
      "daFootprintGasScalar": "0x94",
      "l1BaseFeeScalar": "0x44d",
      "l1BlobBaseFee": "0x427fdc",
      "l1BlobBaseFeeScalar": "0xa118b",
      "l1Fee": "0x8506d8c1",
      "l1GasPrice": "0x40ce675",
      "l1GasUsed": "0x640"
    },
    {
      "status": "0x1",
      "cumulativeGasUsed": "0x282827",
      "logs": [
        {
          "address": "0xbe08bbb2b048dfb58be5e6f34a841a37f65aedd0",
          "topics": [
            "0xddf252ad1be2c89b69c2b068fc378daa952ba7f163c4a11628f55a4df523b3ef",
            "0x000000000000000000000000ff6bdef4fb646ee44e29fe8fc0862b02f0ba8a33",
            "0x0000000000000000000000008714b91da03c8df7c1cc26464b306d3ee6286f7b"
          ],
          "data": "0x000000000000000000000000000000000000000000000000000000037e11d600",
          "blockHash": "0x0000000000000000000000000000000000000000000000000000000000000000",
          "blockNumber": "0x26e9355",
          "blockTimestamp": "0x69f0858a",
          "transactionHash": "0x0a1da729845084511774258ecb2aed28a3f5a43d360d3c0f7187f548914cf681",
          "transactionIndex": "0xe",
          "logIndex": "0x42",
          "removed": false
        },
        {
          "address": "0x8714b91da03c8df7c1cc26464b306d3ee6286f7b",
          "topics": [
            "0xaff82f4178df227ea409be11c927e414a908fb01481236913cec80ea866b2468",
            "0x000000000000000000000000ff6bdef4fb646ee44e29fe8fc0862b02f0ba8a33"
          ],
          "data": "0x000000000000000000000000000000000000000000000000000000037e11d600000000000000000000000000000000000000000000000000000000037e11d600",
          "blockHash": "0x0000000000000000000000000000000000000000000000000000000000000000",
          "blockNumber": "0x26e9355",
          "blockTimestamp": "0x69f0858a",
          "transactionHash": "0x0a1da729845084511774258ecb2aed28a3f5a43d360d3c0f7187f548914cf681",
          "transactionIndex": "0xe",
          "logIndex": "0x43",
          "removed": false
        }
      ],
      "logsBloom": "0x0000000000000000000010000000000000000000000000000000000000000000000000000000000000000000000000000000000000000000000000000000000000000000000000000000000a000000000000000000000001000000000000040000000000000000000000000000000000000000000000000000000010000000000000000010000002000000000000000000000000000000000000000000000000000000000000000000000000000000000000000000080000000000000000000001008002000000000000100000010000000800000000000000000000400800000000002000000000000000000000000000000000000000000000000000000000",
      "type": "0x2",
      "transactionHash": "0x0a1da729845084511774258ecb2aed28a3f5a43d360d3c0f7187f548914cf681",
      "transactionIndex": "0xe",
      "blockHash": "0x0000000000000000000000000000000000000000000000000000000000000000",
      "blockNumber": "0x26e9355",
      "gasUsed": "0x17b2c",
      "effectiveGasPrice": "0x5b8d80",
      "blobGasUsed": "0x39d0",
      "from": "0xff6bdef4fb646ee44e29fe8fc0862b02f0ba8a33",
      "to": "0x8714b91da03c8df7c1cc26464b306d3ee6286f7b",
      "contractAddress": null,
      "daFootprintGasScalar": "0x94",
      "l1BaseFeeScalar": "0x44d",
      "l1BlobBaseFee": "0x427fdc",
      "l1BlobBaseFeeScalar": "0xa118b",
      "l1Fee": "0x81fb129e",
      "l1GasPrice": "0x40ce675",
      "l1GasUsed": "0x640"
    },
    {
      "status": "0x1",
      "cumulativeGasUsed": "0x44738f",
      "logs": [
        {
          "address": "0x198a064f315e48165eb2b6f3dce795b90cfa14fc",
          "topics": [
            "0x8d160eff266df162107c57259a1f1e71787bd4ab800800826bd189d6f2f3e83c",
            "0x0000000000000000000000000000000000000000000000000000000000000001"
          ],
          "data": "0x0000000000000000000000000000000000000000000000000000000069f0858c",
          "blockHash": "0x0000000000000000000000000000000000000000000000000000000000000000",
          "blockNumber": "0x26e9356",
          "blockTimestamp": "0x69f0858c",
          "transactionHash": "0x022df5fd18f3d4fe1791d81d8fb9678e94895276b4ef51abb5326c48754e6f29",
          "transactionIndex": "0xf",
          "logIndex": "0xbc",
          "removed": false
        }
      ],
      "logsBloom": "0x00002000800000000000000000000000000000000000000000000000000000000000000000000000000000000000000000000000000000000000000000040000000000000000000000000000000000000000000000040000000000000000000000000000000000000000000000000000000000000000000000000000000010000000000000000000000000000000000000000000000000000000000000000000000000000000000000000000080000000000000000000000000000000000000000000000000000000000000000000000000000000000000000000000000040000000000200000000000000000000000000000000000000000000000000000000",
      "type": "0x2",
      "transactionHash": "0x022df5fd18f3d4fe1791d81d8fb9678e94895276b4ef51abb5326c48754e6f29",
      "transactionIndex": "0xf",
      "blockHash": "0x0000000000000000000000000000000000000000000000000000000000000000",
      "blockNumber": "0x26e9356",
      "gasUsed": "0x24982",
      "effectiveGasPrice": "0x5b8d80",
      "blobGasUsed": "0x39d0",
      "from": "0xff6bdef4fb646ee44e29fe8fc0862b02f0ba8a33",
      "to": "0x8714b91da03c8df7c1cc26464b306d3ee6286f7b",
      "contractAddress": null,
      "daFootprintGasScalar": "0x94",
      "l1BaseFeeScalar": "0x44d",
      "l1BlobBaseFee": "0x427fdc",
      "l1BlobBaseFeeScalar": "0xa118b",
      "l1Fee": "0x808f2d9f",
      "l1GasPrice": "0x40ce675",
      "l1GasUsed": "0x640"
    },
    {
      "status": "0x1",
      "cumulativeGasUsed": "0x22f32e",
      "logs": [
        {
          "address": "0x4419ae7b501161e71f7b754a201e1b8928cdb568",
          "topics": [
            "0x8c5be1e5ebec7d5bd14f71427d1e84f3dd0314c0f7b2291e5b200ac8c7c3b925",
            "0x000000000000000000000000ff6bdef4fb646ee44e29fe8fc0862b02f0ba8a33",
            "0x000000000000000000000000198a064f315e48165eb2b6f3dce795b90cfa14fc"
          ],
          "data": "0xffffffffffffffffffffffffffffffffffffffffffffffffffffffffffffffff",
          "blockHash": "0x0000000000000000000000000000000000000000000000000000000000000000",
          "blockNumber": "0x26e9357",
          "blockTimestamp": "0x69f0858e",
          "transactionHash": "0xb4e37a9122e11b5fb6a7f8030aac73fa7ad0e8aef184d6cb963072479418f4db",
          "transactionIndex": "0x7",
          "logIndex": "0xf",
          "removed": false
        }
      ],
      "logsBloom": "0x00000000000000000000100000000000000000000000000000000000000000000000000000000000000000000000000000000000000000000000000000200000000000000200000000000000000000000000000000000001000000000000000000000000000000000000000000000000000000000000000000000000000000000002000000000000000000000000000000000000000000000000000000000200020000000000000000008000000000000000000000000000000000000000000000000000000000000000000000010000000000000000000000000000000000000010000000000000000000000000000000020000000000000000000002000000",
      "type": "0x2",
      "transactionHash": "0xb4e37a9122e11b5fb6a7f8030aac73fa7ad0e8aef184d6cb963072479418f4db",
      "transactionIndex": "0x7",
      "blockHash": "0x0000000000000000000000000000000000000000000000000000000000000000",
      "blockNumber": "0x26e9357",
      "gasUsed": "0xc841",
      "effectiveGasPrice": "0x5b8d80",
      "blobGasUsed": "0x39d0",
      "from": "0xff6bdef4fb646ee44e29fe8fc0862b02f0ba8a33",
      "to": "0x4419ae7b501161e71f7b754a201e1b8928cdb568",
      "contractAddress": null,
      "daFootprintGasScalar": "0x94",
      "l1BaseFeeScalar": "0x44d",
      "l1BlobBaseFee": "0x427fdc",
      "l1BlobBaseFeeScalar": "0xa118b",
      "l1Fee": "0x82630ae7",
      "l1GasPrice": "0x40ce675",
      "l1GasUsed": "0x640"
    },
    {
      "status": "0x1",
      "cumulativeGasUsed": "0x11beee",
      "logs": [
        {
          "address": "0x4419ae7b501161e71f7b754a201e1b8928cdb568",
          "topics": [
            "0xddf252ad1be2c89b69c2b068fc378daa952ba7f163c4a11628f55a4df523b3ef",
            "0x000000000000000000000000ff6bdef4fb646ee44e29fe8fc0862b02f0ba8a33",
            "0x000000000000000000000000198a064f315e48165eb2b6f3dce795b90cfa14fc"
          ],
          "data": "0x000000000000000000000000000000000000000000001969368974c05b000000",
          "blockHash": "0x0000000000000000000000000000000000000000000000000000000000000000",
          "blockNumber": "0x26e9358",
          "blockTimestamp": "0x69f08590",
          "transactionHash": "0x20639aa997fe6c91d594cf9806ef3a2ad7a27373ed197a3050d8a4b640f021a7",
          "transactionIndex": "0x5",
          "logIndex": "0x18",
          "removed": false
        },
        {
          "address": "0x198a064f315e48165eb2b6f3dce795b90cfa14fc",
          "topics": [
            "0x9cfd25589d1eb8ad71e342a86a8524e83522e3936c0803048c08f6d9ad974f40",
            "0x000000000000000000000000ff6bdef4fb646ee44e29fe8fc0862b02f0ba8a33",
            "0x0000000000000000000000000000000000000000000000000000000000000000"
          ],
          "data": "0x000000000000000000000000000000000000000000001969368974c05b000000000000000000000000000000000000000000000000001969368974c05b000000000000000000000000000000000000000000000000000000325b467d4221b6dc",
          "blockHash": "0x0000000000000000000000000000000000000000000000000000000000000000",
          "blockNumber": "0x26e9358",
          "blockTimestamp": "0x69f08590",
          "transactionHash": "0x20639aa997fe6c91d594cf9806ef3a2ad7a27373ed197a3050d8a4b640f021a7",
          "transactionIndex": "0x5",
          "logIndex": "0x19",
          "removed": false
        },
        {
          "address": "0x198a064f315e48165eb2b6f3dce795b90cfa14fc",
          "topics": [
            "0x875894a489de1b1b13bf2e6c03981e3ddabcf1794b4b94dc5ba5d8e855a1e2f9"
          ],
          "data": "0x000000000000000000000000000000000000000000000000325b467d4221b6dc000000000000000000000000000000000000000000001969368974c05b000000000000000000000000000000000000000000000000004a1d89bb94865ec00000",
          "blockHash": "0x0000000000000000000000000000000000000000000000000000000000000000",
          "blockNumber": "0x26e9358",
          "blockTimestamp": "0x69f08590",
          "transactionHash": "0x20639aa997fe6c91d594cf9806ef3a2ad7a27373ed197a3050d8a4b640f021a7",
          "transactionIndex": "0x5",
          "logIndex": "0x1a",
          "removed": false
        }
      ],
      "logsBloom": "0x00002000000000000000100000000000000000000000000000000000000000000000000000000000000000000000000000000000000000000008000000040000000000000200000000000008000000000000000000000001000000000000000000000000020000000000000000000800000000000000000000000010000010000002000000000000000000000000000000000000000000000000000000000200000000000000000000008010000000000000000000000000000000000000200000800002000000000000000000010000000000000000000000000000000020000000000000800000000000000000000000020000000000000000000002100000",
      "type": "0x2",
      "transactionHash": "0x20639aa997fe6c91d594cf9806ef3a2ad7a27373ed197a3050d8a4b640f021a7",
      "transactionIndex": "0x5",
      "blockHash": "0x0000000000000000000000000000000000000000000000000000000000000000",
      "blockNumber": "0x26e9358",
      "gasUsed": "0x47cb2",
      "effectiveGasPrice": "0x5b8d80",
      "blobGasUsed": "0x39d0",
      "from": "0xff6bdef4fb646ee44e29fe8fc0862b02f0ba8a33",
      "to": "0x198a064f315e48165eb2b6f3dce795b90cfa14fc",
      "contractAddress": null,
      "daFootprintGasScalar": "0x94",
      "l1BaseFeeScalar": "0x44d",
      "l1BlobBaseFee": "0x427fdc",
      "l1BlobBaseFeeScalar": "0xa118b",
      "l1Fee": "0x85d6c953",
      "l1GasPrice": "0x40ce675",
      "l1GasUsed": "0x640"
    },
    {
      "status": "0x1",
      "cumulativeGasUsed": "0x28b834",
      "logs": [
        {
          "address": "0xbe08bbb2b048dfb58be5e6f34a841a37f65aedd0",
          "topics": [
            "0xddf252ad1be2c89b69c2b068fc378daa952ba7f163c4a11628f55a4df523b3ef",
            "0x0000000000000000000000000000000000000000000000000000000000000000",
            "0x000000000000000000000000455ab6723ccab4cb62983710c33f6311cc85bc97"
          ],
          "data": "0x00000000000000000000000000000000000000000000000000000002540be400",
          "blockHash": "0x0000000000000000000000000000000000000000000000000000000000000000",
          "blockNumber": "0x26e9359",
          "blockTimestamp": "0x69f08592",
          "transactionHash": "0xb5725a9983d3c7280bc9beea3b0e85dc52211ae620cb66b34904d3694dc27462",
          "transactionIndex": "0xc",
          "logIndex": "0x88",
          "removed": false
        }
      ],
      "logsBloom": "0x0000000000000000000000000000000000000000000000000000000000000000000000000000000000000000000000000000000000000000000000000000000000000000000000000000000a000000000000000000000000000000000000000000000000020000000000000000000800000000000000000000000010000100000000000010000000000000000002000000000000000000000000000000000000000000000000000000000000000000000000000000080000000000000000000000000002000000000000000000000000000000000000000000000000000020000000000000000000000000000000000000000000000000008000000000000000",
      "type": "0x2",
      "transactionHash": "0xb5725a9983d3c7280bc9beea3b0e85dc52211ae620cb66b34904d3694dc27462",
      "transactionIndex": "0xc",
      "blockHash": "0x0000000000000000000000000000000000000000000000000000000000000000",
      "blockNumber": "0x26e9359",
      "gasUsed": "0xc734",
      "effectiveGasPrice": "0x5b8d80",
      "blobGasUsed": "0x39d0",
      "from": "0xff6bdef4fb646ee44e29fe8fc0862b02f0ba8a33",
      "to": "0xbe08bbb2b048dfb58be5e6f34a841a37f65aedd0",
      "contractAddress": null,
      "daFootprintGasScalar": "0x94",
      "l1BaseFeeScalar": "0x44d",
      "l1BlobBaseFee": "0x3f94e3",
      "l1BlobBaseFeeScalar": "0xa118b",
      "l1Fee": "0x17c7dc97",
      "l1GasPrice": "0x43243b1",
      "l1GasUsed": "0x640"
    },
    {
      "status": "0x1",
      "cumulativeGasUsed": "0x16949",
      "logs": [
        {
          "address": "0xbe08bbb2b048dfb58be5e6f34a841a37f65aedd0",
          "topics": [
            "0x8c5be1e5ebec7d5bd14f71427d1e84f3dd0314c0f7b2291e5b200ac8c7c3b925",
            "0x000000000000000000000000455ab6723ccab4cb62983710c33f6311cc85bc97",
            "0x0000000000000000000000008714b91da03c8df7c1cc26464b306d3ee6286f7b"
          ],
          "data": "0xffffffffffffffffffffffffffffffffffffffffffffffffffffffffffffffff",
          "blockHash": "0x0000000000000000000000000000000000000000000000000000000000000000",
          "blockNumber": "0x26e935a",
          "blockTimestamp": "0x69f08594",
          "transactionHash": "0xe9c9d60f07ada2a947ed7472d79dea89aa893393479447f28a50a50b907e5c18",
          "transactionIndex": "0x1",
          "logIndex": "0x0",
          "removed": false
        }
      ],
      "logsBloom": "0x00000000000000000000000000000000000000000000000000000000000000000000000000000000000000000000000000000000000000000000000000200000000000000000000000000002000000000000000000000000000000000000040000000000000000000000000000000000000000000000000000000000000100000000000010000000000000000002000000000000000000000000000000000000020000000000000000000000000000000000000000080000000000000000000000000000000000000000100000000000000000000000000000000000400000000010000000000000000000000000000000000000000000008000000000000000",
      "type": "0x2",
      "transactionHash": "0xe9c9d60f07ada2a947ed7472d79dea89aa893393479447f28a50a50b907e5c18",
      "transactionIndex": "0x1",
      "blockHash": "0x0000000000000000000000000000000000000000000000000000000000000000",
      "blockNumber": "0x26e935a",
      "gasUsed": "0xb4cb",
      "effectiveGasPrice": "0x5b8d80",
      "blobGasUsed": "0x39d0",
      "from": "0x455ab6723ccab4cb62983710c33f6311cc85bc97",
      "to": "0xbe08bbb2b048dfb58be5e6f34a841a37f65aedd0",
      "contractAddress": null,
      "daFootprintGasScalar": "0x94",
      "l1BaseFeeScalar": "0x44d",
      "l1BlobBaseFee": "0x3f94e3",
      "l1BlobBaseFeeScalar": "0xa118b",
      "l1Fee": "0x17c7dc97",
      "l1GasPrice": "0x43243b1",
      "l1GasUsed": "0x640"
    },
    {
      "status": "0x1",
      "cumulativeGasUsed": "0x30465f",
      "logs": [
        {
          "address": "0xbe08bbb2b048dfb58be5e6f34a841a37f65aedd0",
          "topics": [
            "0xddf252ad1be2c89b69c2b068fc378daa952ba7f163c4a11628f55a4df523b3ef",
            "0x000000000000000000000000455ab6723ccab4cb62983710c33f6311cc85bc97",
            "0x0000000000000000000000008714b91da03c8df7c1cc26464b306d3ee6286f7b"
          ],
          "data": "0x00000000000000000000000000000000000000000000000000000001ad274800",
          "blockHash": "0x6d95bcb7ea4f5fc8cfa2568f0de932273fa955db80fe85c6cf0377b834ba3887",
          "blockNumber": "0x26e935b",
          "blockTimestamp": "0x69f08596",
          "transactionHash": "0x5a2583c8cb22fc8dbba1596b8f706d566e2c098907acf3b8711324780881278b",
          "transactionIndex": "0xe",
          "logIndex": "0x55",
          "removed": false
        },
        {
          "address": "0xbe08bbb2b048dfb58be5e6f34a841a37f65aedd0",
          "topics": [
            "0xddf252ad1be2c89b69c2b068fc378daa952ba7f163c4a11628f55a4df523b3ef",
            "0x0000000000000000000000008714b91da03c8df7c1cc26464b306d3ee6286f7b",
            "0x000000000000000000000000ff6bdef4fb646ee44e29fe8fc0862b02f0ba8a33"
          ],
          "data": "0x000000000000000000000000000000000000000000000000000000000cdfe600",
          "blockHash": "0x6d95bcb7ea4f5fc8cfa2568f0de932273fa955db80fe85c6cf0377b834ba3887",
          "blockNumber": "0x26e935b",
          "blockTimestamp": "0x69f08596",
          "transactionHash": "0x5a2583c8cb22fc8dbba1596b8f706d566e2c098907acf3b8711324780881278b",
          "transactionIndex": "0xe",
          "logIndex": "0x56",
          "removed": false
        },
        {
          "address": "0x8714b91da03c8df7c1cc26464b306d3ee6286f7b",
          "topics": [
            "0x4dd12c0ecba594b5bb7a4e3ec05ef19e1135fed23711a1fe4b1c9e6c9b40391b",
            "0x000000000000000000000000455ab6723ccab4cb62983710c33f6311cc85bc97",
            "0x000000000000000000000000be08bbb2b048dfb58be5e6f34a841a37f65aedd0"
          ],
          "data": "0x000000000000000000000000000000000000000000000000000000000cdfe600",
          "blockHash": "0x6d95bcb7ea4f5fc8cfa2568f0de932273fa955db80fe85c6cf0377b834ba3887",
          "blockNumber": "0x26e935b",
          "blockTimestamp": "0x69f08596",
          "transactionHash": "0x5a2583c8cb22fc8dbba1596b8f706d566e2c098907acf3b8711324780881278b",
          "transactionIndex": "0xe",
          "logIndex": "0x57",
          "removed": false
        },
        {
          "address": "0xbe08bbb2b048dfb58be5e6f34a841a37f65aedd0",
          "topics": [
            "0xddf252ad1be2c89b69c2b068fc378daa952ba7f163c4a11628f55a4df523b3ef",
            "0x0000000000000000000000008714b91da03c8df7c1cc26464b306d3ee6286f7b",
            "0x000000000000000000000000ff6bdef4fb646ee44e29fe8fc0862b02f0ba8a33"
          ],
          "data": "0x00000000000000000000000000000000000000000000000000000001a0476200",
          "blockHash": "0x6d95bcb7ea4f5fc8cfa2568f0de932273fa955db80fe85c6cf0377b834ba3887",
          "blockNumber": "0x26e935b",
          "blockTimestamp": "0x69f08596",
          "transactionHash": "0x5a2583c8cb22fc8dbba1596b8f706d566e2c098907acf3b8711324780881278b",
          "transactionIndex": "0xe",
          "logIndex": "0x58",
          "removed": false
        },
        {
          "address": "0x4419ae7b501161e71f7b754a201e1b8928cdb568",
          "topics": [
            "0xddf252ad1be2c89b69c2b068fc378daa952ba7f163c4a11628f55a4df523b3ef",
            "0x0000000000000000000000000000000000000000000000000000000000000000",
            "0x000000000000000000000000455ab6723ccab4cb62983710c33f6311cc85bc97"
          ],
          "data": "0x000000000000000000000000000000000000000000000a968163f0a57b400000",
          "blockHash": "0x6d95bcb7ea4f5fc8cfa2568f0de932273fa955db80fe85c6cf0377b834ba3887",
          "blockNumber": "0x26e935b",
          "blockTimestamp": "0x69f08596",
          "transactionHash": "0x5a2583c8cb22fc8dbba1596b8f706d566e2c098907acf3b8711324780881278b",
          "transactionIndex": "0xe",
          "logIndex": "0x59",
          "removed": false
        },
        {
          "address": "0x8714b91da03c8df7c1cc26464b306d3ee6286f7b",
          "topics": [
            "0x0b9c8304b83df3d2827b952a8e4c87faef3556dddcde57a47cb80f0c755606a5",
            "0x000000000000000000000000455ab6723ccab4cb62983710c33f6311cc85bc97",
            "0x000000000000000000000000be08bbb2b048dfb58be5e6f34a841a37f65aedd0"
          ],
          "data": "0x00000000000000000000000000000000000000000000000000000001ad274800000000000000000000000000000000000000000000000a968163f0a57b40000000000000000000000000000000000000000000000000000000000000000000000000000000000000000000000000000000000000000023ffb7ed6565d6400000",
          "blockHash": "0x6d95bcb7ea4f5fc8cfa2568f0de932273fa955db80fe85c6cf0377b834ba3887",
          "blockNumber": "0x26e935b",
          "blockTimestamp": "0x69f08596",
          "transactionHash": "0x5a2583c8cb22fc8dbba1596b8f706d566e2c098907acf3b8711324780881278b",
          "transactionIndex": "0xe",
          "logIndex": "0x5a",
          "removed": false
        }
      ],
      "logsBloom": "0x0000000040000000000010000000000000000000000000008000000020000000000000000000000000000000020000000000000000000000000000000000000000000000020000000000000a000010000000000000000001000000000000040000000000020000000000000000000800000000000000000000000010001100000002000010000000000000000002000000000000000000000000000000000000000000000000000000008000000000000000000000080000000000000000000000400002000000000000100000010000000800000000004000000000400820000000002002000000000000000000000000000000000000008000000000000000",
      "type": "0x2",
      "transactionHash": "0x5a2583c8cb22fc8dbba1596b8f706d566e2c098907acf3b8711324780881278b",
      "transactionIndex": "0xe",
      "blockHash": "0x6d95bcb7ea4f5fc8cfa2568f0de932273fa955db80fe85c6cf0377b834ba3887",
      "blockNumber": "0x26e935b",
      "gasUsed": "0x2923b",
      "effectiveGasPrice": "0x5b8d80",
      "blobGasUsed": "0x39d0",
      "from": "0x455ab6723ccab4cb62983710c33f6311cc85bc97",
      "to": "0x8714b91da03c8df7c1cc26464b306d3ee6286f7b",
      "contractAddress": null,
      "daFootprintGasScalar": "0x94",
      "l1BaseFeeScalar": "0x44d",
      "l1BlobBaseFee": "0x3f94e3",
      "l1BlobBaseFeeScalar": "0xa118b",
      "l1Fee": "0x17c7dc97",
      "l1GasPrice": "0x43243b1",
      "l1GasUsed": "0x640"
    },
    {
      "status": "0x1",
      "cumulativeGasUsed": "0x32f660",
      "logs": [
        {
          "address": "0x4419ae7b501161e71f7b754a201e1b8928cdb568",
          "topics": [
            "0x8c5be1e5ebec7d5bd14f71427d1e84f3dd0314c0f7b2291e5b200ac8c7c3b925",
            "0x000000000000000000000000455ab6723ccab4cb62983710c33f6311cc85bc97",
            "0x000000000000000000000000198a064f315e48165eb2b6f3dce795b90cfa14fc"
          ],
          "data": "0xffffffffffffffffffffffffffffffffffffffffffffffffffffffffffffffff",
          "blockHash": "0x0000000000000000000000000000000000000000000000000000000000000000",
          "blockNumber": "0x26e935c",
          "blockTimestamp": "0x69f08598",
          "transactionHash": "0x7b91aa67d3be0e6c24cd4fefcef7168aabe184939af0b89ae067b9402e9b6964",
          "transactionIndex": "0xf",
          "logIndex": "0x7a",
          "removed": false
        }
      ],
      "logsBloom": "0x00000000000000000000000000000000000000000000000000000000000000000000000000000000000000000000000000000000000000000000000000200000000000000200000000000000000000000000000000000000000000000000000000000000000000000000000000000000000000000000000000000000000100000002000000000000000000000002000000000000000000000000000000000200020000000000000000008000000000000000000000000000000000000000000000000000000000000000000000000000000000000000000000000000000000000010000000000000000000000000000000020000000000008000000002000000",
      "type": "0x2",
      "transactionHash": "0x7b91aa67d3be0e6c24cd4fefcef7168aabe184939af0b89ae067b9402e9b6964",
      "transactionIndex": "0xf",
      "blockHash": "0x0000000000000000000000000000000000000000000000000000000000000000",
      "blockNumber": "0x26e935c",
      "gasUsed": "0xc841",
      "effectiveGasPrice": "0x5b8d80",
      "blobGasUsed": "0x39d0",
      "from": "0x455ab6723ccab4cb62983710c33f6311cc85bc97",
      "to": "0x4419ae7b501161e71f7b754a201e1b8928cdb568",
      "contractAddress": null,
      "daFootprintGasScalar": "0x94",
      "l1BaseFeeScalar": "0x44d",
      "l1BlobBaseFee": "0x3f94e3",
      "l1BlobBaseFeeScalar": "0xa118b",
      "l1Fee": "0x17c7dc97",
      "l1GasPrice": "0x43243b1",
      "l1GasUsed": "0x640"
    },
    {
      "status": "0x1",
      "cumulativeGasUsed": "0x6cdb20",
      "logs": [
        {
          "address": "0x4419ae7b501161e71f7b754a201e1b8928cdb568",
          "topics": [
            "0xddf252ad1be2c89b69c2b068fc378daa952ba7f163c4a11628f55a4df523b3ef",
            "0x000000000000000000000000455ab6723ccab4cb62983710c33f6311cc85bc97",
            "0x000000000000000000000000198a064f315e48165eb2b6f3dce795b90cfa14fc"
          ],
          "data": "0x000000000000000000000000000000000000000000000a968163f0a57b400000",
          "blockHash": "0x0000000000000000000000000000000000000000000000000000000000000000",
          "blockNumber": "0x26e935d",
          "blockTimestamp": "0x69f0859a",
          "transactionHash": "0x87f2e4725fe7c9abf5fcd1717d90fe7113b68183755a015cc5d6c5413e2c1bb6",
          "transactionIndex": "0xf",
          "logIndex": "0x5c",
          "removed": false
        },
        {
          "address": "0x198a064f315e48165eb2b6f3dce795b90cfa14fc",
          "topics": [
            "0x9cfd25589d1eb8ad71e342a86a8524e83522e3936c0803048c08f6d9ad974f40",
            "0x000000000000000000000000455ab6723ccab4cb62983710c33f6311cc85bc97",
            "0x0000000000000000000000000000000000000000000000000000000000000001"
          ],
          "data": "0x000000000000000000000000000000000000000000000a968163f0a57b4000000000000000000000000000000000000000000000000023ffb7ed6565d64000000000000000000000000000000000000000000000000000002a6d273b2b9f6db8",
          "blockHash": "0x0000000000000000000000000000000000000000000000000000000000000000",
          "blockNumber": "0x26e935d",
          "blockTimestamp": "0x69f0859a",
          "transactionHash": "0x87f2e4725fe7c9abf5fcd1717d90fe7113b68183755a015cc5d6c5413e2c1bb6",
          "transactionIndex": "0xf",
          "logIndex": "0x5d",
          "removed": false
        },
        {
          "address": "0x198a064f315e48165eb2b6f3dce795b90cfa14fc",
          "topics": [
            "0x875894a489de1b1b13bf2e6c03981e3ddabcf1794b4b94dc5ba5d8e855a1e2f9"
          ],
          "data": "0x0000000000000000000000000000000000000000000000002a6d273b2b9f6db80000000000000000000000000000000000000000000023ffb7ed6565d6400000000000000000000000000000000000000000000000004a1d89bb94865ec00000",
          "blockHash": "0x0000000000000000000000000000000000000000000000000000000000000000",
          "blockNumber": "0x26e935d",
          "blockTimestamp": "0x69f0859a",
          "transactionHash": "0x87f2e4725fe7c9abf5fcd1717d90fe7113b68183755a015cc5d6c5413e2c1bb6",
          "transactionIndex": "0xf",
          "logIndex": "0x5e",
          "removed": false
        }
      ],
      "logsBloom": "0x00002000000000000000000000000000000000000000000000000000000000000000000000000000000000000000000000000000000000000008000000040000000000000200000000000008000000000000000000040000000000000000000000000000000000000000000000000000000000000000000000000010000110000002000000000000000000000002000000000000000000000000000000000200000000000000000000008010000000000000000000000000000000000000200000800002000000000000000000000000000000000000000000000000000040000000000000800000000000000000000000020000000000008000000002100000",
      "type": "0x2",
      "transactionHash": "0x87f2e4725fe7c9abf5fcd1717d90fe7113b68183755a015cc5d6c5413e2c1bb6",
      "transactionIndex": "0xf",
      "blockHash": "0x0000000000000000000000000000000000000000000000000000000000000000",
      "blockNumber": "0x26e935d",
      "gasUsed": "0x4adf5",
      "effectiveGasPrice": "0x5b8d80",
      "blobGasUsed": "0x39d0",
      "from": "0x455ab6723ccab4cb62983710c33f6311cc85bc97",
      "to": "0x198a064f315e48165eb2b6f3dce795b90cfa14fc",
      "contractAddress": null,
      "daFootprintGasScalar": "0x94",
      "l1BaseFeeScalar": "0x44d",
      "l1BlobBaseFee": "0x3f94e3",
      "l1BlobBaseFeeScalar": "0xa118b",
      "l1Fee": "0x17c7dc97",
      "l1GasPrice": "0x43243b1",
      "l1GasUsed": "0x640"
    }
  ],
  "libraries": [],
  "pending": [],
  "returns": {},
  "timestamp": 1777370521148,
  "chain": 84532,
  "commit": "0fb027b"
}