{
  "transactions": [
    {
      "hash": "0xac66d0cf864d4b1cc1bc193c43a6ed700a4f504f3cd4c5aafa134e49000fb1e3",
      "transactionType": "CALL",
      "contractName": null,
      "contractAddress": "0x26dfae1d399a737708aab1f9a116eb814e98ee87",
      "function": "setMinSeasonDuration(uint256)",
      "arguments": [
        "1800"
      ],
      "transaction": {
        "from": "0xff6bdef4fb646ee44e29fe8fc0862b02f0ba8a33",
        "to": "0x26dfae1d399a737708aab1f9a116eb814e98ee87",
        "gas": "0xbc5e",
        "value": "0x0",
        "input": "0x4cd9c82d0000000000000000000000000000000000000000000000000000000000000708",
        "nonce": "0x122",
        "chainId": "0x14a34"
      },
      "additionalContracts": [],
      "isFixedGasLimit": false
    },
    {
      "hash": "0xfc7286c340a4c7d37d8697dbf7e5e64a8ef4f8fbf013f0cd561497b130843330",
      "transactionType": "CALL",
      "contractName": null,
      "contractAddress": "0x26dfae1d399a737708aab1f9a116eb814e98ee87",
      "function": "createCampaign((address,string,string,string,string,uint256,uint256,uint256,uint256,uint256,uint256,uint256,uint256,uint256,uint256))",
      "arguments": [
        "(0xFF6bdef4fB646EE44e29FE8FC0862B02F0Ba8a33, Olive IGP Sicily, OLIVE, Olive Yield, oYIELD, 144000000000000000, 100000000000000000000000, 350000000000000000000000, 1777490222, 1800, 1000000000000000000, 5000000000000000000000, 250000000000000000000, 2030, 3)"
      ],
      "transaction": {
        "from": "0xff6bdef4fb646ee44e29fe8fc0862b02f0ba8a33",
        "to": "0x26dfae1d399a737708aab1f9a116eb814e98ee87",
        "gas": "0x552610",
        "value": "0x0",
        "input": "0xdd6f93a10000000000000000000000000000000000000000000000000000000000000020000000000000000000000000ff6bdef4fb646ee44e29fe8fc0862b02f0ba8a3300000000000000000000000000000000000000000000000000000000000001e00000000000000000000000000000000000000000000000000000000000000220000000000000000000000000000000000000000000000000000000000000026000000000000000000000000000000000000000000000000000000000000002a000000000000000000000000000000000000000000000000001ff973cafa8000000000000000000000000000000000000000000000000152d02c7e14af6800000000000000000000000000000000000000000000000004a1d89bb94865ec000000000000000000000000000000000000000000000000000000000000069f2592e00000000000000000000000000000000000000000000000000000000000007080000000000000000000000000000000000000000000000000de0b6b3a764000000000000000000000000000000000000000000000000010f0cf064dd5920000000000000000000000000000000000000000000000000000d8d726b7177a8000000000000000000000000000000000000000000000000000000000000000007ee000000000000000000000000000000000000000000000000000000000000000300000000000000000000000000000000000000000000000000000000000000104f6c6976652049475020536963696c790000000000000000000000000000000000000000000000000000000000000000000000000000000000000000000000054f4c495645000000000000000000000000000000000000000000000000000000000000000000000000000000000000000000000000000000000000000000000b4f6c697665205969656c6400000000000000000000000000000000000000000000000000000000000000000000000000000000000000000000000000000000066f5949454c440000000000000000000000000000000000000000000000000000",
        "nonce": "0x123",
        "chainId": "0x14a34"
      },
      "additionalContracts": [
        {
          "transactionType": "CREATE",
          "contractName": "TransparentUpgradeableProxy",
          "address": "0xeeca254825e78e995d630701d26c7356887ec6c9",
          "initCode": "0x604060a08152610aac8038038061001581610268565b9283398101906060818303126102645761002e8161028d565b60209161003c83820161028d565b8582015190916001600160401b039190828211610264570185601f82011215610264578051908282116101ef5761007b601f8301601f19168701610268565b968288528683830101116102645785905f5b8381106102505750505f918701015284511561023f57823b1561021f577f360894a13ba1a3210667c828492db98dca3e2076cc3735a920a3ca505d382bbc80546001600160a01b03199081166001600160a01b03868116918217909355885192979195907fbc7cd75a20ee27fd9adebab32041f755214dbc6bffa90cc0225b39da2e5c2d3b5f80a28151156102035761012692506102a1565b505b85519161048391828401908111848210176101ef57868492879461062985391681520301905ff080156101e557831691826080527f7e644d79422f17c01e4894b5f4f588d331ebfa28653d42ae832dc59e38c9798f857fb53127684a568b3173ae13b9f8a6016e243e63b6e8ee1178d6a717850b5d6103958587549483519286168352820152a182156101ce5716179055516102f69081610333823960805181600f0152f35b8451633173bdd160e11b81525f6004820152602490fd5b84513d5f823e3d90fd5b634e487b7160e01b5f52604160045260245ffd5b5050346102105750610128565b63b398979f60e01b8152600490fd5b8551634c9c8ce360e01b81526001600160a01b0384166004820152602490fd5b85516330a289cf60e21b8152600490fd5b81810183015189820184015287920161008d565b5f80fd5b6040519190601f01601f191682016001600160401b038111838210176101ef57604052565b51906001600160a01b038216820361026457565b905f8091602081519101845af4808061031f575b156102d55750506040513d81523d5f602083013e60203d82010160405290565b156102fc57604051639996b31560e01b81526001600160a01b039091166004820152602490fd5b3d1561030d576040513d5f823e3d90fd5b60405163d6bda27560e01b8152600490fd5b503d1515806102b55750813b15156102b556fe60806040526001600160a01b03337f000000000000000000000000000000000000000000000000000000000000000082160361006a575f356001600160e01b03191663278f794360e11b14610060576040516334ad5dbb60e21b8152600490fd5b6100686100be565b005b5f80917f360894a13ba1a3210667c828492db98dca3e2076cc3735a920a3ca505d382bbc5416368280378136915af43d5f803e156100a6573d5ff35b3d5ffd5b634e487b7160e01b5f52604160045260245ffd5b3660041161015f57604036600319011261015f576004356001600160a01b0381169081900361015f576024359067ffffffffffffffff9081831161015f573660238401121561015f5782600401358281116101635760405192601f8201601f19908116603f011684019081118482101761016357604052808352366024828601011161015f576020815f92602461015d97018387013784010152610168565b565b5f80fd5b6100aa565b90813b156101ff577f360894a13ba1a3210667c828492db98dca3e2076cc3735a920a3ca505d382bbc80546001600160a01b0319166001600160a01b0384169081179091557fbc7cd75a20ee27fd9adebab32041f755214dbc6bffa90cc0225b39da2e5c2d3b5f80a28051156101e4576101e191610220565b50565b5050346101ed57565b60405163b398979f60e01b8152600490fd5b604051634c9c8ce360e01b81526001600160a01b0383166004820152602490fd5b905f8091602081519101845af48080610289575b156102465750506102436102a7565b90565b1561026e57604051639996b31560e01b81526001600160a01b03919091166004820152602490fd5b3d15155f0361029c5760405163d6bda27560e01b8152600490fd5b503d1515806102345750813b1515610234565b6040513d5f823e3d90fd5b604051903d82523d5f602084013e60203d83010160405256fea2646970667358221220371437a14d55b0192ed17af74450cdb0b22bf1f3d480185986e4348c96e968d064736f6c634300081800336080346100b957601f61048338819003918201601f19168301916001600160401b038311848410176100bd578084926020946040528339810103126100b957516001600160a01b0390818116908190036100b95780156100a1575f80546001600160a01b03198116831782556040519316907f8be0079c531659141344cd1fd0a4f28419497f9722a3daafe3b4186f6b6457e09080a36103b190816100d28239f35b604051631e4fbdf760e01b81525f6004820152602490fd5b5f80fd5b634e487b7160e01b5f52604160045260245ffdfe604060808152600480361015610013575f80fd5b5f915f3560e01c8063715018a6146102bb5780638da5cb5b146102945780639623609d1461015c578063ad3cb1cc146100eb5763f2fde38b14610054575f80fd5b346100e75760203660031901126100e7576001600160a01b038235818116939192908490036100e357610085610350565b83156100cd5750505f54826bffffffffffffffffffffffff60a01b8216175f55167f8be0079c531659141344cd1fd0a4f28419497f9722a3daafe3b4186f6b6457e05f80a380f35b51631e4fbdf760e01b8152908101849052602490fd5b5f80fd5b8280fd5b5082346101595780600319360112610159575080519080820182811067ffffffffffffffff821117610146576101429350815260058252640352e302e360dc1b602083015251918291602083526020830190610312565b0390f35b604184634e487b7160e01b5f525260245ffd5b80fd5b5060603660031901126100e3576001600160a01b03823581811693908490036100e35760249182359081168091036100e35767ffffffffffffffff906044358281116100e357366023820112156100e3578084013583811161028257865191601f8201601f19908116603f0116830185811184821017610270578852818352368783830101116100e357815f92886020930183860137830101526101fe610350565b863b156100e357610230965f92875180998194829363278f794360e11b8452898401528a8a8401526044830190610312565b039134905af1801561026657610244578580f35b909192938095501161025557505052005b604190634e487b7160e01b5f52525ffd5b84513d5f823e3d90fd5b87604188634e487b7160e01b5f52525ffd5b85604186634e487b7160e01b5f52525ffd5b50346100e3575f3660031901126100e3575f5490516001600160a01b039091168152602090f35b346100e3575f3660031901126100e3576102d3610350565b5f80546001600160a01b0319811682556001600160a01b03167f8be0079c531659141344cd1fd0a4f28419497f9722a3daafe3b4186f6b6457e08280a3005b91908251928382525f5b84811061033c575050825f602080949584010152601f8019910116010190565b60208183018101518483018201520161031c565b5f546001600160a01b0316330361036357565b60405163118cdaa760e01b8152336004820152602490fdfea26469706673582212202992a71449476404159c12582e1f3d5c014ae92bc1369e2e03b37152567a3c7d64736f6c634300081800330000000000000000000000007350cc5b192f9f03eaa40fafb206f15b9be5e282000000000000000000000000ff6bdef4fb646ee44e29fe8fc0862b02f0ba8a3300000000000000000000000000000000000000000000000000000000000000600000000000000000000000000000000000000000000000000000000000000204e1e228ab000000000000000000000000ff6bdef4fb646ee44e29fe8fc0862b02f0ba8a3300000000000000000000000026dfae1d399a737708aab1f9a116eb814e98ee8700000000000000000000000000000000000000000000000001ff973cafa8000000000000000000000000000000000000000000000000152d02c7e14af6800000000000000000000000000000000000000000000000004a1d89bb94865ec000000000000000000000000000000000000000000000000000000000000069f2592e000000000000000000000000000000000000000000000000000000000000070800000000000000000000000000000000000000000000000000000000000000c8000000000000000000000000000000000000000000000000000000000000012c00000000000000000000000000000000000000000000010f0cf064dd5920000000000000000000000000000000000000000000000000000d8d726b7177a8000000000000000000000000000000000000000000000000000000000000000007ee0000000000000000000000000000000000000000000000000000000000000003000000000000000000000000ff6bdef4fb646ee44e29fe8fc0862b02f0ba8a3300000000000000000000000000000000000000000000000000000000000000000000000000000000000000009c92c69a92173548a8e62a412e963f4b93ee2a1300000000000000000000000000000000000000000000000000000000"
        },
        {
          "transactionType": "CREATE",
          "contractName": "ProxyAdmin",
          "address": "0xd6970535b48a840460002796cb9f56f70bd6dc1c",
          "initCode": "0x6080346100b957601f61048338819003918201601f19168301916001600160401b038311848410176100bd578084926020946040528339810103126100b957516001600160a01b0390818116908190036100b95780156100a1575f80546001600160a01b03198116831782556040519316907f8be0079c531659141344cd1fd0a4f28419497f9722a3daafe3b4186f6b6457e09080a36103b190816100d28239f35b604051631e4fbdf760e01b81525f6004820152602490fd5b5f80fd5b634e487b7160e01b5f52604160045260245ffdfe604060808152600480361015610013575f80fd5b5f915f3560e01c8063715018a6146102bb5780638da5cb5b146102945780639623609d1461015c578063ad3cb1cc146100eb5763f2fde38b14610054575f80fd5b346100e75760203660031901126100e7576001600160a01b038235818116939192908490036100e357610085610350565b83156100cd5750505f54826bffffffffffffffffffffffff60a01b8216175f55167f8be0079c531659141344cd1fd0a4f28419497f9722a3daafe3b4186f6b6457e05f80a380f35b51631e4fbdf760e01b8152908101849052602490fd5b5f80fd5b8280fd5b5082346101595780600319360112610159575080519080820182811067ffffffffffffffff821117610146576101429350815260058252640352e302e360dc1b602083015251918291602083526020830190610312565b0390f35b604184634e487b7160e01b5f525260245ffd5b80fd5b5060603660031901126100e3576001600160a01b03823581811693908490036100e35760249182359081168091036100e35767ffffffffffffffff906044358281116100e357366023820112156100e3578084013583811161028257865191601f8201601f19908116603f0116830185811184821017610270578852818352368783830101116100e357815f92886020930183860137830101526101fe610350565b863b156100e357610230965f92875180998194829363278f794360e11b8452898401528a8a8401526044830190610312565b039134905af1801561026657610244578580f35b909192938095501161025557505052005b604190634e487b7160e01b5f52525ffd5b84513d5f823e3d90fd5b87604188634e487b7160e01b5f52525ffd5b85604186634e487b7160e01b5f52525ffd5b50346100e3575f3660031901126100e3575f5490516001600160a01b039091168152602090f35b346100e3575f3660031901126100e3576102d3610350565b5f80546001600160a01b0319811682556001600160a01b03167f8be0079c531659141344cd1fd0a4f28419497f9722a3daafe3b4186f6b6457e08280a3005b91908251928382525f5b84811061033c575050825f602080949584010152601f8019910116010190565b60208183018101518483018201520161031c565b5f546001600160a01b0316330361036357565b60405163118cdaa760e01b8152336004820152602490fdfea26469706673582212202992a71449476404159c12582e1f3d5c014ae92bc1369e2e03b37152567a3c7d64736f6c63430008180033000000000000000000000000ff6bdef4fb646ee44e29fe8fc0862b02f0ba8a33"
        },
        {
          "transactionType": "CREATE",
          "contractName": "TransparentUpgradeableProxy",
          "address": "0xf1b7115a7f6aeb778318cb70dafd91da9901cc77",
          "initCode": "0x604060a08152610aac8038038061001581610268565b9283398101906060818303126102645761002e8161028d565b60209161003c83820161028d565b8582015190916001600160401b039190828211610264570185601f82011215610264578051908282116101ef5761007b601f8301601f19168701610268565b968288528683830101116102645785905f5b8381106102505750505f918701015284511561023f57823b1561021f577f360894a13ba1a3210667c828492db98dca3e2076cc3735a920a3ca505d382bbc80546001600160a01b03199081166001600160a01b03868116918217909355885192979195907fbc7cd75a20ee27fd9adebab32041f755214dbc6bffa90cc0225b39da2e5c2d3b5f80a28151156102035761012692506102a1565b505b85519161048391828401908111848210176101ef57868492879461062985391681520301905ff080156101e557831691826080527f7e644d79422f17c01e4894b5f4f588d331ebfa28653d42ae832dc59e38c9798f857fb53127684a568b3173ae13b9f8a6016e243e63b6e8ee1178d6a717850b5d6103958587549483519286168352820152a182156101ce5716179055516102f69081610333823960805181600f0152f35b8451633173bdd160e11b81525f6004820152602490fd5b84513d5f823e3d90fd5b634e487b7160e01b5f52604160045260245ffd5b5050346102105750610128565b63b398979f60e01b8152600490fd5b8551634c9c8ce360e01b81526001600160a01b0384166004820152602490fd5b85516330a289cf60e21b8152600490fd5b81810183015189820184015287920161008d565b5f80fd5b6040519190601f01601f191682016001600160401b038111838210176101ef57604052565b51906001600160a01b038216820361026457565b905f8091602081519101845af4808061031f575b156102d55750506040513d81523d5f602083013e60203d82010160405290565b156102fc57604051639996b31560e01b81526001600160a01b039091166004820152602490fd5b3d1561030d576040513d5f823e3d90fd5b60405163d6bda27560e01b8152600490fd5b503d1515806102b55750813b15156102b556fe60806040526001600160a01b03337f000000000000000000000000000000000000000000000000000000000000000082160361006a575f356001600160e01b03191663278f794360e11b14610060576040516334ad5dbb60e21b8152600490fd5b6100686100be565b005b5f80917f360894a13ba1a3210667c828492db98dca3e2076cc3735a920a3ca505d382bbc5416368280378136915af43d5f803e156100a6573d5ff35b3d5ffd5b634e487b7160e01b5f52604160045260245ffd5b3660041161015f57604036600319011261015f576004356001600160a01b0381169081900361015f576024359067ffffffffffffffff9081831161015f573660238401121561015f5782600401358281116101635760405192601f8201601f19908116603f011684019081118482101761016357604052808352366024828601011161015f576020815f92602461015d97018387013784010152610168565b565b5f80fd5b6100aa565b90813b156101ff577f360894a13ba1a3210667c828492db98dca3e2076cc3735a920a3ca505d382bbc80546001600160a01b0319166001600160a01b0384169081179091557fbc7cd75a20ee27fd9adebab32041f755214dbc6bffa90cc0225b39da2e5c2d3b5f80a28051156101e4576101e191610220565b50565b5050346101ed57565b60405163b398979f60e01b8152600490fd5b604051634c9c8ce360e01b81526001600160a01b0383166004820152602490fd5b905f8091602081519101845af48080610289575b156102465750506102436102a7565b90565b1561026e57604051639996b31560e01b81526001600160a01b03919091166004820152602490fd5b3d15155f0361029c5760405163d6bda27560e01b8152600490fd5b503d1515806102345750813b1515610234565b6040513d5f823e3d90fd5b604051903d82523d5f602084013e60203d83010160405256fea2646970667358221220371437a14d55b0192ed17af74450cdb0b22bf1f3d480185986e4348c96e968d064736f6c634300081800336080346100b957601f61048338819003918201601f19168301916001600160401b038311848410176100bd578084926020946040528339810103126100b957516001600160a01b0390818116908190036100b95780156100a1575f80546001600160a01b03198116831782556040519316907f8be0079c531659141344cd1fd0a4f28419497f9722a3daafe3b4186f6b6457e09080a36103b190816100d28239f35b604051631e4fbdf760e01b81525f6004820152602490fd5b5f80fd5b634e487b7160e01b5f52604160045260245ffdfe604060808152600480361015610013575f80fd5b5f915f3560e01c8063715018a6146102bb5780638da5cb5b146102945780639623609d1461015c578063ad3cb1cc146100eb5763f2fde38b14610054575f80fd5b346100e75760203660031901126100e7576001600160a01b038235818116939192908490036100e357610085610350565b83156100cd5750505f54826bffffffffffffffffffffffff60a01b8216175f55167f8be0079c531659141344cd1fd0a4f28419497f9722a3daafe3b4186f6b6457e05f80a380f35b51631e4fbdf760e01b8152908101849052602490fd5b5f80fd5b8280fd5b5082346101595780600319360112610159575080519080820182811067ffffffffffffffff821117610146576101429350815260058252640352e302e360dc1b602083015251918291602083526020830190610312565b0390f35b604184634e487b7160e01b5f525260245ffd5b80fd5b5060603660031901126100e3576001600160a01b03823581811693908490036100e35760249182359081168091036100e35767ffffffffffffffff906044358281116100e357366023820112156100e3578084013583811161028257865191601f8201601f19908116603f0116830185811184821017610270578852818352368783830101116100e357815f92886020930183860137830101526101fe610350565b863b156100e357610230965f92875180998194829363278f794360e11b8452898401528a8a8401526044830190610312565b039134905af1801561026657610244578580f35b909192938095501161025557505052005b604190634e487b7160e01b5f52525ffd5b84513d5f823e3d90fd5b87604188634e487b7160e01b5f52525ffd5b85604186634e487b7160e01b5f52525ffd5b50346100e3575f3660031901126100e3575f5490516001600160a01b039091168152602090f35b346100e3575f3660031901126100e3576102d3610350565b5f80546001600160a01b0319811682556001600160a01b03167f8be0079c531659141344cd1fd0a4f28419497f9722a3daafe3b4186f6b6457e08280a3005b91908251928382525f5b84811061033c575050825f602080949584010152601f8019910116010190565b60208183018101518483018201520161031c565b5f546001600160a01b0316330361036357565b60405163118cdaa760e01b8152336004820152602490fdfea26469706673582212202992a71449476404159c12582e1f3d5c014ae92bc1369e2e03b37152567a3c7d64736f6c63430008180033000000000000000000000000b21a38294fbf740d7c66054c1a288a3c68ff6f96000000000000000000000000ff6bdef4fb646ee44e29fe8fc0862b02f0ba8a33000000000000000000000000000000000000000000000000000000000000006000000000000000000000000000000000000000000000000000000000000000e4077f224a000000000000000000000000000000000000000000000000000000000000006000000000000000000000000000000000000000000000000000000000000000a0000000000000000000000000eeca254825e78e995d630701d26c7356887ec6c900000000000000000000000000000000000000000000000000000000000000104f6c6976652049475020536963696c790000000000000000000000000000000000000000000000000000000000000000000000000000000000000000000000054f4c49564500000000000000000000000000000000000000000000000000000000000000000000000000000000000000000000000000000000000000"
        },
        {
          "transactionType": "CREATE",
          "contractName": "ProxyAdmin",
          "address": "0x8f199c21ea87576f4c3f1078704a84a3d720e969",
          "initCode": "0x6080346100b957601f61048338819003918201601f19168301916001600160401b038311848410176100bd578084926020946040528339810103126100b957516001600160a01b0390818116908190036100b95780156100a1575f80546001600160a01b03198116831782556040519316907f8be0079c531659141344cd1fd0a4f28419497f9722a3daafe3b4186f6b6457e09080a36103b190816100d28239f35b604051631e4fbdf760e01b81525f6004820152602490fd5b5f80fd5b634e487b7160e01b5f52604160045260245ffdfe604060808152600480361015610013575f80fd5b5f915f3560e01c8063715018a6146102bb5780638da5cb5b146102945780639623609d1461015c578063ad3cb1cc146100eb5763f2fde38b14610054575f80fd5b346100e75760203660031901126100e7576001600160a01b038235818116939192908490036100e357610085610350565b83156100cd5750505f54826bffffffffffffffffffffffff60a01b8216175f55167f8be0079c531659141344cd1fd0a4f28419497f9722a3daafe3b4186f6b6457e05f80a380f35b51631e4fbdf760e01b8152908101849052602490fd5b5f80fd5b8280fd5b5082346101595780600319360112610159575080519080820182811067ffffffffffffffff821117610146576101429350815260058252640352e302e360dc1b602083015251918291602083526020830190610312565b0390f35b604184634e487b7160e01b5f525260245ffd5b80fd5b5060603660031901126100e3576001600160a01b03823581811693908490036100e35760249182359081168091036100e35767ffffffffffffffff906044358281116100e357366023820112156100e3578084013583811161028257865191601f8201601f19908116603f0116830185811184821017610270578852818352368783830101116100e357815f92886020930183860137830101526101fe610350565b863b156100e357610230965f92875180998194829363278f794360e11b8452898401528a8a8401526044830190610312565b039134905af1801561026657610244578580f35b909192938095501161025557505052005b604190634e487b7160e01b5f52525ffd5b84513d5f823e3d90fd5b87604188634e487b7160e01b5f52525ffd5b85604186634e487b7160e01b5f52525ffd5b50346100e3575f3660031901126100e3575f5490516001600160a01b039091168152602090f35b346100e3575f3660031901126100e3576102d3610350565b5f80546001600160a01b0319811682556001600160a01b03167f8be0079c531659141344cd1fd0a4f28419497f9722a3daafe3b4186f6b6457e08280a3005b91908251928382525f5b84811061033c575050825f602080949584010152601f8019910116010190565b60208183018101518483018201520161031c565b5f546001600160a01b0316330361036357565b60405163118cdaa760e01b8152336004820152602490fdfea26469706673582212202992a71449476404159c12582e1f3d5c014ae92bc1369e2e03b37152567a3c7d64736f6c63430008180033000000000000000000000000ff6bdef4fb646ee44e29fe8fc0862b02f0ba8a33"
        },
        {
          "transactionType": "CREATE",
          "contractName": "TransparentUpgradeableProxy",
          "address": "0xe5dea9f61bed9f7de6830dc82ee395993c81300b",
          "initCode": "0x604060a08152610aac8038038061001581610268565b9283398101906060818303126102645761002e8161028d565b60209161003c83820161028d565b8582015190916001600160401b039190828211610264570185601f82011215610264578051908282116101ef5761007b601f8301601f19168701610268565b968288528683830101116102645785905f5b8381106102505750505f918701015284511561023f57823b1561021f577f360894a13ba1a3210667c828492db98dca3e2076cc3735a920a3ca505d382bbc80546001600160a01b03199081166001600160a01b03868116918217909355885192979195907fbc7cd75a20ee27fd9adebab32041f755214dbc6bffa90cc0225b39da2e5c2d3b5f80a28151156102035761012692506102a1565b505b85519161048391828401908111848210176101ef57868492879461062985391681520301905ff080156101e557831691826080527f7e644d79422f17c01e4894b5f4f588d331ebfa28653d42ae832dc59e38c9798f857fb53127684a568b3173ae13b9f8a6016e243e63b6e8ee1178d6a717850b5d6103958587549483519286168352820152a182156101ce5716179055516102f69081610333823960805181600f0152f35b8451633173bdd160e11b81525f6004820152602490fd5b84513d5f823e3d90fd5b634e487b7160e01b5f52604160045260245ffd5b5050346102105750610128565b63b398979f60e01b8152600490fd5b8551634c9c8ce360e01b81526001600160a01b0384166004820152602490fd5b85516330a289cf60e21b8152600490fd5b81810183015189820184015287920161008d565b5f80fd5b6040519190601f01601f191682016001600160401b038111838210176101ef57604052565b51906001600160a01b038216820361026457565b905f8091602081519101845af4808061031f575b156102d55750506040513d81523d5f602083013e60203d82010160405290565b156102fc57604051639996b31560e01b81526001600160a01b039091166004820152602490fd5b3d1561030d576040513d5f823e3d90fd5b60405163d6bda27560e01b8152600490fd5b503d1515806102b55750813b15156102b556fe60806040526001600160a01b03337f000000000000000000000000000000000000000000000000000000000000000082160361006a575f356001600160e01b03191663278f794360e11b14610060576040516334ad5dbb60e21b8152600490fd5b6100686100be565b005b5f80917f360894a13ba1a3210667c828492db98dca3e2076cc3735a920a3ca505d382bbc5416368280378136915af43d5f803e156100a6573d5ff35b3d5ffd5b634e487b7160e01b5f52604160045260245ffd5b3660041161015f57604036600319011261015f576004356001600160a01b0381169081900361015f576024359067ffffffffffffffff9081831161015f573660238401121561015f5782600401358281116101635760405192601f8201601f19908116603f011684019081118482101761016357604052808352366024828601011161015f576020815f92602461015d97018387013784010152610168565b565b5f80fd5b6100aa565b90813b156101ff577f360894a13ba1a3210667c828492db98dca3e2076cc3735a920a3ca505d382bbc80546001600160a01b0319166001600160a01b0384169081179091557fbc7cd75a20ee27fd9adebab32041f755214dbc6bffa90cc0225b39da2e5c2d3b5f80a28051156101e4576101e191610220565b50565b5050346101ed57565b60405163b398979f60e01b8152600490fd5b604051634c9c8ce360e01b81526001600160a01b0383166004820152602490fd5b905f8091602081519101845af48080610289575b156102465750506102436102a7565b90565b1561026e57604051639996b31560e01b81526001600160a01b03919091166004820152602490fd5b3d15155f0361029c5760405163d6bda27560e01b8152600490fd5b503d1515806102345750813b1515610234565b6040513d5f823e3d90fd5b604051903d82523d5f602084013e60203d83010160405256fea2646970667358221220371437a14d55b0192ed17af74450cdb0b22bf1f3d480185986e4348c96e968d064736f6c634300081800336080346100b957601f61048338819003918201601f19168301916001600160401b038311848410176100bd578084926020946040528339810103126100b957516001600160a01b0390818116908190036100b95780156100a1575f80546001600160a01b03198116831782556040519316907f8be0079c531659141344cd1fd0a4f28419497f9722a3daafe3b4186f6b6457e09080a36103b190816100d28239f35b604051631e4fbdf760e01b81525f6004820152602490fd5b5f80fd5b634e487b7160e01b5f52604160045260245ffdfe604060808152600480361015610013575f80fd5b5f915f3560e01c8063715018a6146102bb5780638da5cb5b146102945780639623609d1461015c578063ad3cb1cc146100eb5763f2fde38b14610054575f80fd5b346100e75760203660031901126100e7576001600160a01b038235818116939192908490036100e357610085610350565b83156100cd5750505f54826bffffffffffffffffffffffff60a01b8216175f55167f8be0079c531659141344cd1fd0a4f28419497f9722a3daafe3b4186f6b6457e05f80a380f35b51631e4fbdf760e01b8152908101849052602490fd5b5f80fd5b8280fd5b5082346101595780600319360112610159575080519080820182811067ffffffffffffffff821117610146576101429350815260058252640352e302e360dc1b602083015251918291602083526020830190610312565b0390f35b604184634e487b7160e01b5f525260245ffd5b80fd5b5060603660031901126100e3576001600160a01b03823581811693908490036100e35760249182359081168091036100e35767ffffffffffffffff906044358281116100e357366023820112156100e3578084013583811161028257865191601f8201601f19908116603f0116830185811184821017610270578852818352368783830101116100e357815f92886020930183860137830101526101fe610350565b863b156100e357610230965f92875180998194829363278f794360e11b8452898401528a8a8401526044830190610312565b039134905af1801561026657610244578580f35b909192938095501161025557505052005b604190634e487b7160e01b5f52525ffd5b84513d5f823e3d90fd5b87604188634e487b7160e01b5f52525ffd5b85604186634e487b7160e01b5f52525ffd5b50346100e3575f3660031901126100e3575f5490516001600160a01b039091168152602090f35b346100e3575f3660031901126100e3576102d3610350565b5f80546001600160a01b0319811682556001600160a01b03167f8be0079c531659141344cd1fd0a4f28419497f9722a3daafe3b4186f6b6457e08280a3005b91908251928382525f5b84811061033c575050825f602080949584010152601f8019910116010190565b60208183018101518483018201520161031c565b5f546001600160a01b0316330361036357565b60405163118cdaa760e01b8152336004820152602490fdfea26469706673582212202992a71449476404159c12582e1f3d5c014ae92bc1369e2e03b37152567a3c7d64736f6c634300081800330000000000000000000000005ec4bd275d878b33a31be0d5798949033727f38d000000000000000000000000ff6bdef4fb646ee44e29fe8fc0862b02f0ba8a33000000000000000000000000000000000000000000000000000000000000006000000000000000000000000000000000000000000000000000000000000000a4a6b63eb8000000000000000000000000f1b7115a7f6aeb778318cb70dafd91da9901cc77000000000000000000000000eeca254825e78e995d630701d26c7356887ec6c900000000000000000000000026dfae1d399a737708aab1f9a116eb814e98ee87000000000000000000000000000000000000000000004a1d89bb94865ec00000000000000000000000000000000000000000000000000000000000000000070800000000000000000000000000000000000000000000000000000000"
        },
        {
          "transactionType": "CREATE",
          "contractName": "ProxyAdmin",
          "address": "0x96749ec9955d1588331d1a4d789acfacb2d9d154",
          "initCode": "0x6080346100b957601f61048338819003918201601f19168301916001600160401b038311848410176100bd578084926020946040528339810103126100b957516001600160a01b0390818116908190036100b95780156100a1575f80546001600160a01b03198116831782556040519316907f8be0079c531659141344cd1fd0a4f28419497f9722a3daafe3b4186f6b6457e09080a36103b190816100d28239f35b604051631e4fbdf760e01b81525f6004820152602490fd5b5f80fd5b634e487b7160e01b5f52604160045260245ffdfe604060808152600480361015610013575f80fd5b5f915f3560e01c8063715018a6146102bb5780638da5cb5b146102945780639623609d1461015c578063ad3cb1cc146100eb5763f2fde38b14610054575f80fd5b346100e75760203660031901126100e7576001600160a01b038235818116939192908490036100e357610085610350565b83156100cd5750505f54826bffffffffffffffffffffffff60a01b8216175f55167f8be0079c531659141344cd1fd0a4f28419497f9722a3daafe3b4186f6b6457e05f80a380f35b51631e4fbdf760e01b8152908101849052602490fd5b5f80fd5b8280fd5b5082346101595780600319360112610159575080519080820182811067ffffffffffffffff821117610146576101429350815260058252640352e302e360dc1b602083015251918291602083526020830190610312565b0390f35b604184634e487b7160e01b5f525260245ffd5b80fd5b5060603660031901126100e3576001600160a01b03823581811693908490036100e35760249182359081168091036100e35767ffffffffffffffff906044358281116100e357366023820112156100e3578084013583811161028257865191601f8201601f19908116603f0116830185811184821017610270578852818352368783830101116100e357815f92886020930183860137830101526101fe610350565b863b156100e357610230965f92875180998194829363278f794360e11b8452898401528a8a8401526044830190610312565b039134905af1801561026657610244578580f35b909192938095501161025557505052005b604190634e487b7160e01b5f52525ffd5b84513d5f823e3d90fd5b87604188634e487b7160e01b5f52525ffd5b85604186634e487b7160e01b5f52525ffd5b50346100e3575f3660031901126100e3575f5490516001600160a01b039091168152602090f35b346100e3575f3660031901126100e3576102d3610350565b5f80546001600160a01b0319811682556001600160a01b03167f8be0079c531659141344cd1fd0a4f28419497f9722a3daafe3b4186f6b6457e08280a3005b91908251928382525f5b84811061033c575050825f602080949584010152601f8019910116010190565b60208183018101518483018201520161031c565b5f546001600160a01b0316330361036357565b60405163118cdaa760e01b8152336004820152602490fdfea26469706673582212202992a71449476404159c12582e1f3d5c014ae92bc1369e2e03b37152567a3c7d64736f6c63430008180033000000000000000000000000ff6bdef4fb646ee44e29fe8fc0862b02f0ba8a33"
        },
        {
          "transactionType": "CREATE",
          "contractName": "TransparentUpgradeableProxy",
          "address": "0x1d4b65c048b80538c97c54b63827ea0aa77eaf41",
          "initCode": "0x604060a08152610aac8038038061001581610268565b9283398101906060818303126102645761002e8161028d565b60209161003c83820161028d565b8582015190916001600160401b039190828211610264570185601f82011215610264578051908282116101ef5761007b601f8301601f19168701610268565b968288528683830101116102645785905f5b8381106102505750505f918701015284511561023f57823b1561021f577f360894a13ba1a3210667c828492db98dca3e2076cc3735a920a3ca505d382bbc80546001600160a01b03199081166001600160a01b03868116918217909355885192979195907fbc7cd75a20ee27fd9adebab32041f755214dbc6bffa90cc0225b39da2e5c2d3b5f80a28151156102035761012692506102a1565b505b85519161048391828401908111848210176101ef57868492879461062985391681520301905ff080156101e557831691826080527f7e644d79422f17c01e4894b5f4f588d331ebfa28653d42ae832dc59e38c9798f857fb53127684a568b3173ae13b9f8a6016e243e63b6e8ee1178d6a717850b5d6103958587549483519286168352820152a182156101ce5716179055516102f69081610333823960805181600f0152f35b8451633173bdd160e11b81525f6004820152602490fd5b84513d5f823e3d90fd5b634e487b7160e01b5f52604160045260245ffd5b5050346102105750610128565b63b398979f60e01b8152600490fd5b8551634c9c8ce360e01b81526001600160a01b0384166004820152602490fd5b85516330a289cf60e21b8152600490fd5b81810183015189820184015287920161008d565b5f80fd5b6040519190601f01601f191682016001600160401b038111838210176101ef57604052565b51906001600160a01b038216820361026457565b905f8091602081519101845af4808061031f575b156102d55750506040513d81523d5f602083013e60203d82010160405290565b156102fc57604051639996b31560e01b81526001600160a01b039091166004820152602490fd5b3d1561030d576040513d5f823e3d90fd5b60405163d6bda27560e01b8152600490fd5b503d1515806102b55750813b15156102b556fe60806040526001600160a01b03337f000000000000000000000000000000000000000000000000000000000000000082160361006a575f356001600160e01b03191663278f794360e11b14610060576040516334ad5dbb60e21b8152600490fd5b6100686100be565b005b5f80917f360894a13ba1a3210667c828492db98dca3e2076cc3735a920a3ca505d382bbc5416368280378136915af43d5f803e156100a6573d5ff35b3d5ffd5b634e487b7160e01b5f52604160045260245ffd5b3660041161015f57604036600319011261015f576004356001600160a01b0381169081900361015f576024359067ffffffffffffffff9081831161015f573660238401121561015f5782600401358281116101635760405192601f8201601f19908116603f011684019081118482101761016357604052808352366024828601011161015f576020815f92602461015d97018387013784010152610168565b565b5f80fd5b6100aa565b90813b156101ff577f360894a13ba1a3210667c828492db98dca3e2076cc3735a920a3ca505d382bbc80546001600160a01b0319166001600160a01b0384169081179091557fbc7cd75a20ee27fd9adebab32041f755214dbc6bffa90cc0225b39da2e5c2d3b5f80a28051156101e4576101e191610220565b50565b5050346101ed57565b60405163b398979f60e01b8152600490fd5b604051634c9c8ce360e01b81526001600160a01b0383166004820152602490fd5b905f8091602081519101845af48080610289575b156102465750506102436102a7565b90565b1561026e57604051639996b31560e01b81526001600160a01b03919091166004820152602490fd5b3d15155f0361029c5760405163d6bda27560e01b8152600490fd5b503d1515806102345750813b1515610234565b6040513d5f823e3d90fd5b604051903d82523d5f602084013e60203d83010160405256fea2646970667358221220371437a14d55b0192ed17af74450cdb0b22bf1f3d480185986e4348c96e968d064736f6c634300081800336080346100b957601f61048338819003918201601f19168301916001600160401b038311848410176100bd578084926020946040528339810103126100b957516001600160a01b0390818116908190036100b95780156100a1575f80546001600160a01b03198116831782556040519316907f8be0079c531659141344cd1fd0a4f28419497f9722a3daafe3b4186f6b6457e09080a36103b190816100d28239f35b604051631e4fbdf760e01b81525f6004820152602490fd5b5f80fd5b634e487b7160e01b5f52604160045260245ffdfe604060808152600480361015610013575f80fd5b5f915f3560e01c8063715018a6146102bb5780638da5cb5b146102945780639623609d1461015c578063ad3cb1cc146100eb5763f2fde38b14610054575f80fd5b346100e75760203660031901126100e7576001600160a01b038235818116939192908490036100e357610085610350565b83156100cd5750505f54826bffffffffffffffffffffffff60a01b8216175f55167f8be0079c531659141344cd1fd0a4f28419497f9722a3daafe3b4186f6b6457e05f80a380f35b51631e4fbdf760e01b8152908101849052602490fd5b5f80fd5b8280fd5b5082346101595780600319360112610159575080519080820182811067ffffffffffffffff821117610146576101429350815260058252640352e302e360dc1b602083015251918291602083526020830190610312565b0390f35b604184634e487b7160e01b5f525260245ffd5b80fd5b5060603660031901126100e3576001600160a01b03823581811693908490036100e35760249182359081168091036100e35767ffffffffffffffff906044358281116100e357366023820112156100e3578084013583811161028257865191601f8201601f19908116603f0116830185811184821017610270578852818352368783830101116100e357815f92886020930183860137830101526101fe610350565b863b156100e357610230965f92875180998194829363278f794360e11b8452898401528a8a8401526044830190610312565b039134905af1801561026657610244578580f35b909192938095501161025557505052005b604190634e487b7160e01b5f52525ffd5b84513d5f823e3d90fd5b87604188634e487b7160e01b5f52525ffd5b85604186634e487b7160e01b5f52525ffd5b50346100e3575f3660031901126100e3575f5490516001600160a01b039091168152602090f35b346100e3575f3660031901126100e3576102d3610350565b5f80546001600160a01b0319811682556001600160a01b03167f8be0079c531659141344cd1fd0a4f28419497f9722a3daafe3b4186f6b6457e08280a3005b91908251928382525f5b84811061033c575050825f602080949584010152601f8019910116010190565b60208183018101518483018201520161031c565b5f546001600160a01b0316330361036357565b60405163118cdaa760e01b8152336004820152602490fdfea26469706673582212202992a71449476404159c12582e1f3d5c014ae92bc1369e2e03b37152567a3c7d64736f6c634300081800330000000000000000000000004f9efaf3df08cc7090aff6a64cee1ec2c316d790000000000000000000000000ff6bdef4fb646ee44e29fe8fc0862b02f0ba8a33000000000000000000000000000000000000000000000000000000000000006000000000000000000000000000000000000000000000000000000000000000c4d7c41c790000000000000000000000009c92c69a92173548a8e62a412e963f4b93ee2a13000000000000000000000000ff6bdef4fb646ee44e29fe8fc0862b02f0ba8a3300000000000000000000000026dfae1d399a737708aab1f9a116eb814e98ee87000000000000000000000000ff6bdef4fb646ee44e29fe8fc0862b02f0ba8a3300000000000000000000000000000000000000000000000000000000000000c80000000000000000000000000000000000000000000000000de0b6b3a764000000000000000000000000000000000000000000000000000000000000"
        },
        {
          "transactionType": "CREATE",
          "contractName": "ProxyAdmin",
          "address": "0xda4d17e5ccc10b451f162317f06d7a897fd6f772",
          "initCode": "0x6080346100b957601f61048338819003918201601f19168301916001600160401b038311848410176100bd578084926020946040528339810103126100b957516001600160a01b0390818116908190036100b95780156100a1575f80546001600160a01b03198116831782556040519316907f8be0079c531659141344cd1fd0a4f28419497f9722a3daafe3b4186f6b6457e09080a36103b190816100d28239f35b604051631e4fbdf760e01b81525f6004820152602490fd5b5f80fd5b634e487b7160e01b5f52604160045260245ffdfe604060808152600480361015610013575f80fd5b5f915f3560e01c8063715018a6146102bb5780638da5cb5b146102945780639623609d1461015c578063ad3cb1cc146100eb5763f2fde38b14610054575f80fd5b346100e75760203660031901126100e7576001600160a01b038235818116939192908490036100e357610085610350565b83156100cd5750505f54826bffffffffffffffffffffffff60a01b8216175f55167f8be0079c531659141344cd1fd0a4f28419497f9722a3daafe3b4186f6b6457e05f80a380f35b51631e4fbdf760e01b8152908101849052602490fd5b5f80fd5b8280fd5b5082346101595780600319360112610159575080519080820182811067ffffffffffffffff821117610146576101429350815260058252640352e302e360dc1b602083015251918291602083526020830190610312565b0390f35b604184634e487b7160e01b5f525260245ffd5b80fd5b5060603660031901126100e3576001600160a01b03823581811693908490036100e35760249182359081168091036100e35767ffffffffffffffff906044358281116100e357366023820112156100e3578084013583811161028257865191601f8201601f19908116603f0116830185811184821017610270578852818352368783830101116100e357815f92886020930183860137830101526101fe610350565b863b156100e357610230965f92875180998194829363278f794360e11b8452898401528a8a8401526044830190610312565b039134905af1801561026657610244578580f35b909192938095501161025557505052005b604190634e487b7160e01b5f52525ffd5b84513d5f823e3d90fd5b87604188634e487b7160e01b5f52525ffd5b85604186634e487b7160e01b5f52525ffd5b50346100e3575f3660031901126100e3575f5490516001600160a01b039091168152602090f35b346100e3575f3660031901126100e3576102d3610350565b5f80546001600160a01b0319811682556001600160a01b03167f8be0079c531659141344cd1fd0a4f28419497f9722a3daafe3b4186f6b6457e08280a3005b91908251928382525f5b84811061033c575050825f602080949584010152601f8019910116010190565b60208183018101518483018201520161031c565b5f546001600160a01b0316330361036357565b60405163118cdaa760e01b8152336004820152602490fdfea26469706673582212202992a71449476404159c12582e1f3d5c014ae92bc1369e2e03b37152567a3c7d64736f6c63430008180033000000000000000000000000ff6bdef4fb646ee44e29fe8fc0862b02f0ba8a33"
        },
        {
          "transactionType": "CREATE",
          "contractName": "TransparentUpgradeableProxy",
          "address": "0x19297e945005b8885570858b93a23ded43a468b0",
          "initCode": "0x604060a08152610aac8038038061001581610268565b9283398101906060818303126102645761002e8161028d565b60209161003c83820161028d565b8582015190916001600160401b039190828211610264570185601f82011215610264578051908282116101ef5761007b601f8301601f19168701610268565b968288528683830101116102645785905f5b8381106102505750505f918701015284511561023f57823b1561021f577f360894a13ba1a3210667c828492db98dca3e2076cc3735a920a3ca505d382bbc80546001600160a01b03199081166001600160a01b03868116918217909355885192979195907fbc7cd75a20ee27fd9adebab32041f755214dbc6bffa90cc0225b39da2e5c2d3b5f80a28151156102035761012692506102a1565b505b85519161048391828401908111848210176101ef57868492879461062985391681520301905ff080156101e557831691826080527f7e644d79422f17c01e4894b5f4f588d331ebfa28653d42ae832dc59e38c9798f857fb53127684a568b3173ae13b9f8a6016e243e63b6e8ee1178d6a717850b5d6103958587549483519286168352820152a182156101ce5716179055516102f69081610333823960805181600f0152f35b8451633173bdd160e11b81525f6004820152602490fd5b84513d5f823e3d90fd5b634e487b7160e01b5f52604160045260245ffd5b5050346102105750610128565b63b398979f60e01b8152600490fd5b8551634c9c8ce360e01b81526001600160a01b0384166004820152602490fd5b85516330a289cf60e21b8152600490fd5b81810183015189820184015287920161008d565b5f80fd5b6040519190601f01601f191682016001600160401b038111838210176101ef57604052565b51906001600160a01b038216820361026457565b905f8091602081519101845af4808061031f575b156102d55750506040513d81523d5f602083013e60203d82010160405290565b156102fc57604051639996b31560e01b81526001600160a01b039091166004820152602490fd5b3d1561030d576040513d5f823e3d90fd5b60405163d6bda27560e01b8152600490fd5b503d1515806102b55750813b15156102b556fe60806040526001600160a01b03337f000000000000000000000000000000000000000000000000000000000000000082160361006a575f356001600160e01b03191663278f794360e11b14610060576040516334ad5dbb60e21b8152600490fd5b6100686100be565b005b5f80917f360894a13ba1a3210667c828492db98dca3e2076cc3735a920a3ca505d382bbc5416368280378136915af43d5f803e156100a6573d5ff35b3d5ffd5b634e487b7160e01b5f52604160045260245ffd5b3660041161015f57604036600319011261015f576004356001600160a01b0381169081900361015f576024359067ffffffffffffffff9081831161015f573660238401121561015f5782600401358281116101635760405192601f8201601f19908116603f011684019081118482101761016357604052808352366024828601011161015f576020815f92602461015d97018387013784010152610168565b565b5f80fd5b6100aa565b90813b156101ff577f360894a13ba1a3210667c828492db98dca3e2076cc3735a920a3ca505d382bbc80546001600160a01b0319166001600160a01b0384169081179091557fbc7cd75a20ee27fd9adebab32041f755214dbc6bffa90cc0225b39da2e5c2d3b5f80a28051156101e4576101e191610220565b50565b5050346101ed57565b60405163b398979f60e01b8152600490fd5b604051634c9c8ce360e01b81526001600160a01b0383166004820152602490fd5b905f8091602081519101845af48080610289575b156102465750506102436102a7565b90565b1561026e57604051639996b31560e01b81526001600160a01b03919091166004820152602490fd5b3d15155f0361029c5760405163d6bda27560e01b8152600490fd5b503d1515806102345750813b1515610234565b6040513d5f823e3d90fd5b604051903d82523d5f602084013e60203d83010160405256fea2646970667358221220371437a14d55b0192ed17af74450cdb0b22bf1f3d480185986e4348c96e968d064736f6c634300081800336080346100b957601f61048338819003918201601f19168301916001600160401b038311848410176100bd578084926020946040528339810103126100b957516001600160a01b0390818116908190036100b95780156100a1575f80546001600160a01b03198116831782556040519316907f8be0079c531659141344cd1fd0a4f28419497f9722a3daafe3b4186f6b6457e09080a36103b190816100d28239f35b604051631e4fbdf760e01b81525f6004820152602490fd5b5f80fd5b634e487b7160e01b5f52604160045260245ffdfe604060808152600480361015610013575f80fd5b5f915f3560e01c8063715018a6146102bb5780638da5cb5b146102945780639623609d1461015c578063ad3cb1cc146100eb5763f2fde38b14610054575f80fd5b346100e75760203660031901126100e7576001600160a01b038235818116939192908490036100e357610085610350565b83156100cd5750505f54826bffffffffffffffffffffffff60a01b8216175f55167f8be0079c531659141344cd1fd0a4f28419497f9722a3daafe3b4186f6b6457e05f80a380f35b51631e4fbdf760e01b8152908101849052602490fd5b5f80fd5b8280fd5b5082346101595780600319360112610159575080519080820182811067ffffffffffffffff821117610146576101429350815260058252640352e302e360dc1b602083015251918291602083526020830190610312565b0390f35b604184634e487b7160e01b5f525260245ffd5b80fd5b5060603660031901126100e3576001600160a01b03823581811693908490036100e35760249182359081168091036100e35767ffffffffffffffff906044358281116100e357366023820112156100e3578084013583811161028257865191601f8201601f19908116603f0116830185811184821017610270578852818352368783830101116100e357815f92886020930183860137830101526101fe610350565b863b156100e357610230965f92875180998194829363278f794360e11b8452898401528a8a8401526044830190610312565b039134905af1801561026657610244578580f35b909192938095501161025557505052005b604190634e487b7160e01b5f52525ffd5b84513d5f823e3d90fd5b87604188634e487b7160e01b5f52525ffd5b85604186634e487b7160e01b5f52525ffd5b50346100e3575f3660031901126100e3575f5490516001600160a01b039091168152602090f35b346100e3575f3660031901126100e3576102d3610350565b5f80546001600160a01b0319811682556001600160a01b03167f8be0079c531659141344cd1fd0a4f28419497f9722a3daafe3b4186f6b6457e08280a3005b91908251928382525f5b84811061033c575050825f602080949584010152601f8019910116010190565b60208183018101518483018201520161031c565b5f546001600160a01b0316330361036357565b60405163118cdaa760e01b8152336004820152602490fdfea26469706673582212202992a71449476404159c12582e1f3d5c014ae92bc1369e2e03b37152567a3c7d64736f6c63430008180033000000000000000000000000f7d9376b75ed66f16f5891b195451a80bc4cf715000000000000000000000000ff6bdef4fb646ee44e29fe8fc0862b02f0ba8a33000000000000000000000000000000000000000000000000000000000000006000000000000000000000000000000000000000000000000000000000000001048f15b414000000000000000000000000000000000000000000000000000000000000008000000000000000000000000000000000000000000000000000000000000000c0000000000000000000000000e5dea9f61bed9f7de6830dc82ee395993c81300b0000000000000000000000001d4b65c048b80538c97c54b63827ea0aa77eaf41000000000000000000000000000000000000000000000000000000000000000b4f6c697665205969656c6400000000000000000000000000000000000000000000000000000000000000000000000000000000000000000000000000000000066f5949454c44000000000000000000000000000000000000000000000000000000000000000000000000000000000000000000000000000000000000"
        },
        {
          "transactionType": "CREATE",
          "contractName": "ProxyAdmin",
          "address": "0x9919bedb5dbb8a2f44e6517d1a1a664d804e7ba8",
          "initCode": "0x6080346100b957601f61048338819003918201601f19168301916001600160401b038311848410176100bd578084926020946040528339810103126100b957516001600160a01b0390818116908190036100b95780156100a1575f80546001600160a01b03198116831782556040519316907f8be0079c531659141344cd1fd0a4f28419497f9722a3daafe3b4186f6b6457e09080a36103b190816100d28239f35b604051631e4fbdf760e01b81525f6004820152602490fd5b5f80fd5b634e487b7160e01b5f52604160045260245ffdfe604060808152600480361015610013575f80fd5b5f915f3560e01c8063715018a6146102bb5780638da5cb5b146102945780639623609d1461015c578063ad3cb1cc146100eb5763f2fde38b14610054575f80fd5b346100e75760203660031901126100e7576001600160a01b038235818116939192908490036100e357610085610350565b83156100cd5750505f54826bffffffffffffffffffffffff60a01b8216175f55167f8be0079c531659141344cd1fd0a4f28419497f9722a3daafe3b4186f6b6457e05f80a380f35b51631e4fbdf760e01b8152908101849052602490fd5b5f80fd5b8280fd5b5082346101595780600319360112610159575080519080820182811067ffffffffffffffff821117610146576101429350815260058252640352e302e360dc1b602083015251918291602083526020830190610312565b0390f35b604184634e487b7160e01b5f525260245ffd5b80fd5b5060603660031901126100e3576001600160a01b03823581811693908490036100e35760249182359081168091036100e35767ffffffffffffffff906044358281116100e357366023820112156100e3578084013583811161028257865191601f8201601f19908116603f0116830185811184821017610270578852818352368783830101116100e357815f92886020930183860137830101526101fe610350565b863b156100e357610230965f92875180998194829363278f794360e11b8452898401528a8a8401526044830190610312565b039134905af1801561026657610244578580f35b909192938095501161025557505052005b604190634e487b7160e01b5f52525ffd5b84513d5f823e3d90fd5b87604188634e487b7160e01b5f52525ffd5b85604186634e487b7160e01b5f52525ffd5b50346100e3575f3660031901126100e3575f5490516001600160a01b039091168152602090f35b346100e3575f3660031901126100e3576102d3610350565b5f80546001600160a01b0319811682556001600160a01b03167f8be0079c531659141344cd1fd0a4f28419497f9722a3daafe3b4186f6b6457e08280a3005b91908251928382525f5b84811061033c575050825f602080949584010152601f8019910116010190565b60208183018101518483018201520161031c565b5f546001600160a01b0316330361036357565b60405163118cdaa760e01b8152336004820152602490fdfea26469706673582212202992a71449476404159c12582e1f3d5c014ae92bc1369e2e03b37152567a3c7d64736f6c63430008180033000000000000000000000000ff6bdef4fb646ee44e29fe8fc0862b02f0ba8a33"
        }
      ],
      "isFixedGasLimit": false
    },
    {
      "hash": "0x4c88ed67b958bfbc0f5099b08d2eedd70f031a8cc11961ddab891cd3bd8fe3da",
      "transactionType": "CALL",
      "contractName": "TransparentUpgradeableProxy",
      "contractAddress": "0xeeca254825e78e995d630701d26c7356887ec6c9",
      "function": null,
      "arguments": null,
      "transaction": {
        "from": "0xff6bdef4fb646ee44e29fe8fc0862b02f0ba8a33",
        "to": "0xeeca254825e78e995d630701d26c7356887ec6c9",
        "gas": "0x2addc",
        "value": "0x0",
        "input": "0x666033e60000000000000000000000009c92c69a92173548a8e62a412e963f4b93ee2a13000000000000000000000000000000000000000000000000000000000000000000000000000000000000000000000000000000000000000000000000000232800000000000000000000000000000000000000000000000000000000000000000",
        "nonce": "0x124",
        "chainId": "0x14a34"
      },
      "additionalContracts": [],
      "isFixedGasLimit": false
    },
    {
      "hash": "0xb80affb7bbac554d9f2ae2315e599e32deb46f550fcdb553ca11c16d603af008",
      "transactionType": "CALL",
      "contractName": null,
      "contractAddress": "0x9c92c69a92173548a8e62a412e963f4b93ee2a13",
      "function": "approve(address,uint256)",
      "arguments": [
        "0xEECa254825e78e995D630701D26c7356887Ec6c9",
        "115792089237316195423570985008687907853269984665640564039457584007913129639935"
      ],
      "transaction": {
        "from": "0xff6bdef4fb646ee44e29fe8fc0862b02f0ba8a33",
        "to": "0x9c92c69a92173548a8e62a412e963f4b93ee2a13",
        "gas": "0x10868",
        "value": "0x0",
        "input": "0x095ea7b3000000000000000000000000eeca254825e78e995d630701d26c7356887ec6c9ffffffffffffffffffffffffffffffffffffffffffffffffffffffffffffffff",
        "nonce": "0x125",
        "chainId": "0x14a34"
      },
      "additionalContracts": [],
      "isFixedGasLimit": false
    },
    {
      "hash": "0xf8dc135f6a086c4d0e9a8cd36f79a6ed074e7eef1c71f2ddd1d3f6f9889a8d45",
      "transactionType": "CALL",
      "contractName": "TransparentUpgradeableProxy",
      "contractAddress": "0xeeca254825e78e995d630701d26c7356887ec6c9",
      "function": null,
      "arguments": null,
      "transaction": {
        "from": "0xff6bdef4fb646ee44e29fe8fc0862b02f0ba8a33",
        "to": "0xeeca254825e78e995d630701d26c7356887ec6c9",
        "gas": "0x65547",
        "value": "0x0",
        "input": "0xcce7ec130000000000000000000000009c92c69a92173548a8e62a412e963f4b93ee2a130000000000000000000000000000000000000000000000000000000405f7e000",
        "nonce": "0x126",
        "chainId": "0x14a34"
      },
      "additionalContracts": [],
      "isFixedGasLimit": false
    },
    {
      "hash": "0xf8d2c842c16c7197f87faab9d9984ec4104f7dddcaab3dbcbab44bdcd2f26944",
      "transactionType": "CALL",
      "contractName": "TransparentUpgradeableProxy",
      "contractAddress": "0xeeca254825e78e995d630701d26c7356887ec6c9",
      "function": null,
      "arguments": null,
      "transaction": {
        "from": "0xff6bdef4fb646ee44e29fe8fc0862b02f0ba8a33",
        "to": "0xeeca254825e78e995d630701d26c7356887ec6c9",
        "gas": "0x2241f",
        "value": "0x0",
        "input": "0xe2233cbd000000000000000000000000000000000000000000000000000000037e11d600",
        "nonce": "0x127",
        "chainId": "0x14a34"
      },
      "additionalContracts": [],
      "isFixedGasLimit": false
    },
    {
      "hash": "0x4f6ef11392926ef9ff6e57679b2dc4472faa7663005c0e2919d444d39e7a503a",
      "transactionType": "CALL",
      "contractName": "TransparentUpgradeableProxy",
      "contractAddress": "0xeeca254825e78e995d630701d26c7356887ec6c9",
      "function": null,
      "arguments": null,
      "transaction": {
        "from": "0xff6bdef4fb646ee44e29fe8fc0862b02f0ba8a33",
        "to": "0xeeca254825e78e995d630701d26c7356887ec6c9",
        "gas": "0x328d9",
        "value": "0x0",
        "input": "0x703dbfe40000000000000000000000000000000000000000000000000000000000000001",
        "nonce": "0x128",
        "chainId": "0x14a34"
      },
      "additionalContracts": [],
      "isFixedGasLimit": false
    },
    {
      "hash": "0x8780c31d81e5561b2e89cd9b5637d1a2811c4dbcd001af4f6954b96cab1198a2",
      "transactionType": "CALL",
      "contractName": "TransparentUpgradeableProxy",
      "contractAddress": "0xf1b7115a7f6aeb778318cb70dafd91da9901cc77",
      "function": null,
      "arguments": null,
      "transaction": {
        "from": "0xff6bdef4fb646ee44e29fe8fc0862b02f0ba8a33",
        "to": "0xf1b7115a7f6aeb778318cb70dafd91da9901cc77",
        "gas": "0x124de",
        "value": "0x0",
        "input": "0x095ea7b3000000000000000000000000e5dea9f61bed9f7de6830dc82ee395993c81300bffffffffffffffffffffffffffffffffffffffffffffffffffffffffffffffff",
        "nonce": "0x129",
        "chainId": "0x14a34"
      },
      "additionalContracts": [],
      "isFixedGasLimit": false
    },
    {
      "hash": "0x20e34c12b338abb8855d9d84caba39bf5f44d9f287935879fef0af4e78953893",
      "transactionType": "CALL",
      "contractName": "TransparentUpgradeableProxy",
      "contractAddress": "0xe5dea9f61bed9f7de6830dc82ee395993c81300b",
      "function": null,
      "arguments": null,
      "transaction": {
        "from": "0xff6bdef4fb646ee44e29fe8fc0862b02f0ba8a33",
        "to": "0xe5dea9f61bed9f7de6830dc82ee395993c81300b",
        "gas": "0x67ff8",
        "value": "0x0",
        "input": "0xa694fc3a000000000000000000000000000000000000000000001969368974c05b000000",
        "nonce": "0x12a",
        "chainId": "0x14a34"
      },
      "additionalContracts": [],
      "isFixedGasLimit": false
    },
    {
      "hash": "0x587ed1cca7316898f9dc34ddab5973cc59208e7bfa7ae8b4d0cc55e6fdd53972",
      "transactionType": "CALL",
      "contractName": null,
      "contractAddress": "0x9c92c69a92173548a8e62a412e963f4b93ee2a13",
      "function": "mint(address,uint256)",
      "arguments": [
        "0x455aB6723CCab4cb62983710C33f6311cc85Bc97",
        "10000000000"
      ],
      "transaction": {
        "from": "0xff6bdef4fb646ee44e29fe8fc0862b02f0ba8a33",
        "to": "0x9c92c69a92173548a8e62a412e963f4b93ee2a13",
        "gas": "0x11325",
        "value": "0x0",
        "input": "0x40c10f19000000000000000000000000455ab6723ccab4cb62983710c33f6311cc85bc9700000000000000000000000000000000000000000000000000000002540be400",
        "nonce": "0x12b",
        "chainId": "0x14a34"
      },
      "additionalContracts": [],
      "isFixedGasLimit": false
    },
    {
      "hash": "0x8f1e832c584bdf01886e4f62ea6d66ee5fcf28b31b6b23bb3ae430df1b7d77d1",
      "transactionType": "CALL",
      "contractName": null,
      "contractAddress": "0x9c92c69a92173548a8e62a412e963f4b93ee2a13",
      "function": "approve(address,uint256)",
      "arguments": [
        "0xEECa254825e78e995D630701D26c7356887Ec6c9",
        "115792089237316195423570985008687907853269984665640564039457584007913129639935"
      ],
      "transaction": {
        "from": "0x455ab6723ccab4cb62983710c33f6311cc85bc97",
        "to": "0x9c92c69a92173548a8e62a412e963f4b93ee2a13",
        "gas": "0x10868",
        "value": "0x0",
        "input": "0x095ea7b3000000000000000000000000eeca254825e78e995d630701d26c7356887ec6c9ffffffffffffffffffffffffffffffffffffffffffffffffffffffffffffffff",
        "nonce": "0x24",
        "chainId": "0x14a34"
      },
      "additionalContracts": [],
      "isFixedGasLimit": false
    },
    {
      "hash": "0x6930a9e2e5901574101f11f6f4431ce57576335bf7b4ebff08382db2f3dc4ec2",
      "transactionType": "CALL",
      "contractName": "TransparentUpgradeableProxy",
      "contractAddress": "0xeeca254825e78e995d630701d26c7356887ec6c9",
      "function": null,
      "arguments": null,
      "transaction": {
        "from": "0x455ab6723ccab4cb62983710c33f6311cc85bc97",
        "to": "0xeeca254825e78e995d630701d26c7356887ec6c9",
        "gas": "0x313dd",
        "value": "0x0",
        "input": "0xcce7ec130000000000000000000000009c92c69a92173548a8e62a412e963f4b93ee2a1300000000000000000000000000000000000000000000000000000001ad274800",
        "nonce": "0x25",
        "chainId": "0x14a34"
      },
      "additionalContracts": [],
      "isFixedGasLimit": false
    },
    {
      "hash": "0xaad7ec7921126b05848c10d0c82f12043739b7a506ff337d40022fa5fed4826d",
      "transactionType": "CALL",
      "contractName": "TransparentUpgradeableProxy",
      "contractAddress": "0xf1b7115a7f6aeb778318cb70dafd91da9901cc77",
      "function": null,
      "arguments": null,
      "transaction": {
        "from": "0x455ab6723ccab4cb62983710c33f6311cc85bc97",
        "to": "0xf1b7115a7f6aeb778318cb70dafd91da9901cc77",
        "gas": "0x124de",
        "value": "0x0",
        "input": "0x095ea7b3000000000000000000000000e5dea9f61bed9f7de6830dc82ee395993c81300bffffffffffffffffffffffffffffffffffffffffffffffffffffffffffffffff",
        "nonce": "0x26",
        "chainId": "0x14a34"
      },
      "additionalContracts": [],
      "isFixedGasLimit": false
    },
    {
      "hash": "0x5888348f00c67dff16ace6ec57c25fce480c7778e2a7ede3dae5665e46f4ab6a",
      "transactionType": "CALL",
      "contractName": "TransparentUpgradeableProxy",
      "contractAddress": "0xe5dea9f61bed9f7de6830dc82ee395993c81300b",
      "function": null,
      "arguments": null,
      "transaction": {
        "from": "0x455ab6723ccab4cb62983710c33f6311cc85bc97",
        "to": "0xe5dea9f61bed9f7de6830dc82ee395993c81300b",
        "gas": "0x5149c",
        "value": "0x0",
        "input": "0xa694fc3a000000000000000000000000000000000000000000000a968163f0a57b400000",
        "nonce": "0x27",
        "chainId": "0x14a34"
      },
      "additionalContracts": [],
      "isFixedGasLimit": false
    }
  ],
  "receipts": [
    {
      "status": "0x1",
      "cumulativeGasUsed": "0x98dbe7",
      "logs": [
        {
          "address": "0x26dfae1d399a737708aab1f9a116eb814e98ee87",
          "topics": [
            "0xa53bb861f8980ad56ca8ad0ba10cc5ef7a8a6af7fa4ca26f876580318c82f719"
          ],
          "data": "0x0000000000000000000000000000000000000000000000000000000000278d000000000000000000000000000000000000000000000000000000000000000708",
          "blockHash": "0xcbdea1f83c7389d989d0809f27fed6b14f85a37141ac0afe0cf95bc39f6da40e",
          "blockNumber": "0x26ed474",
          "blockTimestamp": "0x69f107c8",
          "transactionHash": "0xac66d0cf864d4b1cc1bc193c43a6ed700a4f504f3cd4c5aafa134e49000fb1e3",
          "transactionIndex": "0x55",
          "logIndex": "0x130",
          "removed": false
        }
      ],
      "logsBloom": "0x00000000000000000000000000000000000000010000000000000000000000000000000000000000000000000000000000000000000000000000000000000000000000000000000000000000000000000000000000000001000000000000000000000000000000000000000000000000000000000000000000000000000010000000000000000000000000000000000000000000000000000000000000000000000000000000000000100000000000000000000000000000000000000000000040000000000000000000001000000000000000000000000000000000000000000000000000000000000000000000000000000000000000000000000000000000",
      "type": "0x2",
      "transactionHash": "0xac66d0cf864d4b1cc1bc193c43a6ed700a4f504f3cd4c5aafa134e49000fb1e3",
      "transactionIndex": "0x55",
      "blockHash": "0xcbdea1f83c7389d989d0809f27fed6b14f85a37141ac0afe0cf95bc39f6da40e",
      "blockNumber": "0x26ed474",
      "gasUsed": "0x8860",
      "effectiveGasPrice": "0x5b8d80",
      "blobGasUsed": "0x39d0",
      "from": "0xff6bdef4fb646ee44e29fe8fc0862b02f0ba8a33",
      "to": "0x26dfae1d399a737708aab1f9a116eb814e98ee87",
      "contractAddress": null,
      "daFootprintGasScalar": "0x94",
      "l1BaseFeeScalar": "0x44d",
      "l1BlobBaseFee": "0x456af6f",
      "l1BlobBaseFeeScalar": "0xa118b",
      "l1Fee": "0x19c28ff40",
      "l1GasPrice": "0x4774a43b",
      "l1GasUsed": "0x640"
    },
    {
      "status": "0x1",
      "cumulativeGasUsed": "0x4c4f88",
      "logs": [
        {
          "address": "0xeeca254825e78e995d630701d26c7356887ec6c9",
          "topics": [
            "0xbc7cd75a20ee27fd9adebab32041f755214dbc6bffa90cc0225b39da2e5c2d3b",
            "0x0000000000000000000000007350cc5b192f9f03eaa40fafb206f15b9be5e282"
          ],
          "data": "0x",
          "blockHash": "0x6e79c8148491cf13431e8021b0fcf6628eb6ebef57e59c1ce3442d588785de98",
          "blockNumber": "0x26ed476",
          "blockTimestamp": "0x69f107cc",
          "transactionHash": "0xfc7286c340a4c7d37d8697dbf7e5e64a8ef4f8fbf013f0cd561497b130843330",
          "transactionIndex": "0x3",
          "logIndex": "0x41",
          "removed": false
        },
        {
          "address": "0xeeca254825e78e995d630701d26c7356887ec6c9",
          "topics": [
            "0xc7f505b2f371ae2175ee4913f4499e1f2633a7b5936321eed1cdaeb6115181d2"
          ],
          "data": "0x0000000000000000000000000000000000000000000000000000000000000001",
          "blockHash": "0x6e79c8148491cf13431e8021b0fcf6628eb6ebef57e59c1ce3442d588785de98",
          "blockNumber": "0x26ed476",
          "blockTimestamp": "0x69f107cc",
          "transactionHash": "0xfc7286c340a4c7d37d8697dbf7e5e64a8ef4f8fbf013f0cd561497b130843330",
          "transactionIndex": "0x3",
          "logIndex": "0x42",
          "removed": false
        },
        {
          "address": "0xd6970535b48a840460002796cb9f56f70bd6dc1c",
          "topics": [
            "0x8be0079c531659141344cd1fd0a4f28419497f9722a3daafe3b4186f6b6457e0",
            "0x0000000000000000000000000000000000000000000000000000000000000000",
            "0x000000000000000000000000ff6bdef4fb646ee44e29fe8fc0862b02f0ba8a33"
          ],
          "data": "0x",
          "blockHash": "0x6e79c8148491cf13431e8021b0fcf6628eb6ebef57e59c1ce3442d588785de98",
          "blockNumber": "0x26ed476",
          "blockTimestamp": "0x69f107cc",
          "transactionHash": "0xfc7286c340a4c7d37d8697dbf7e5e64a8ef4f8fbf013f0cd561497b130843330",
          "transactionIndex": "0x3",
          "logIndex": "0x43",
          "removed": false
        },
        {
          "address": "0xeeca254825e78e995d630701d26c7356887ec6c9",
          "topics": [
            "0x7e644d79422f17c01e4894b5f4f588d331ebfa28653d42ae832dc59e38c9798f"
          ],
          "data": "0x0000000000000000000000000000000000000000000000000000000000000000000000000000000000000000d6970535b48a840460002796cb9f56f70bd6dc1c",
          "blockHash": "0x6e79c8148491cf13431e8021b0fcf6628eb6ebef57e59c1ce3442d588785de98",
          "blockNumber": "0x26ed476",
          "blockTimestamp": "0x69f107cc",
          "transactionHash": "0xfc7286c340a4c7d37d8697dbf7e5e64a8ef4f8fbf013f0cd561497b130843330",
          "transactionIndex": "0x3",
          "logIndex": "0x44",
          "removed": false
        },
        {
          "address": "0xf1b7115a7f6aeb778318cb70dafd91da9901cc77",
          "topics": [
            "0xbc7cd75a20ee27fd9adebab32041f755214dbc6bffa90cc0225b39da2e5c2d3b",
            "0x000000000000000000000000b21a38294fbf740d7c66054c1a288a3c68ff6f96"
          ],
          "data": "0x",
          "blockHash": "0x6e79c8148491cf13431e8021b0fcf6628eb6ebef57e59c1ce3442d588785de98",
          "blockNumber": "0x26ed476",
          "blockTimestamp": "0x69f107cc",
          "transactionHash": "0xfc7286c340a4c7d37d8697dbf7e5e64a8ef4f8fbf013f0cd561497b130843330",
          "transactionIndex": "0x3",
          "logIndex": "0x45",
          "removed": false
        },
        {
          "address": "0xf1b7115a7f6aeb778318cb70dafd91da9901cc77",
          "topics": [
            "0xc7f505b2f371ae2175ee4913f4499e1f2633a7b5936321eed1cdaeb6115181d2"
          ],
          "data": "0x0000000000000000000000000000000000000000000000000000000000000001",
          "blockHash": "0x6e79c8148491cf13431e8021b0fcf6628eb6ebef57e59c1ce3442d588785de98",
          "blockNumber": "0x26ed476",
          "blockTimestamp": "0x69f107cc",
          "transactionHash": "0xfc7286c340a4c7d37d8697dbf7e5e64a8ef4f8fbf013f0cd561497b130843330",
          "transactionIndex": "0x3",
          "logIndex": "0x46",
          "removed": false
        },
        {
          "address": "0x8f199c21ea87576f4c3f1078704a84a3d720e969",
          "topics": [
            "0x8be0079c531659141344cd1fd0a4f28419497f9722a3daafe3b4186f6b6457e0",
            "0x0000000000000000000000000000000000000000000000000000000000000000",
            "0x000000000000000000000000ff6bdef4fb646ee44e29fe8fc0862b02f0ba8a33"
          ],
          "data": "0x",
          "blockHash": "0x6e79c8148491cf13431e8021b0fcf6628eb6ebef57e59c1ce3442d588785de98",
          "blockNumber": "0x26ed476",
          "blockTimestamp": "0x69f107cc",
          "transactionHash": "0xfc7286c340a4c7d37d8697dbf7e5e64a8ef4f8fbf013f0cd561497b130843330",
          "transactionIndex": "0x3",
          "logIndex": "0x47",
          "removed": false
        },
        {
          "address": "0xf1b7115a7f6aeb778318cb70dafd91da9901cc77",
          "topics": [
            "0x7e644d79422f17c01e4894b5f4f588d331ebfa28653d42ae832dc59e38c9798f"
          ],
          "data": "0x00000000000000000000000000000000000000000000000000000000000000000000000000000000000000008f199c21ea87576f4c3f1078704a84a3d720e969",
          "blockHash": "0x6e79c8148491cf13431e8021b0fcf6628eb6ebef57e59c1ce3442d588785de98",
          "blockNumber": "0x26ed476",
          "blockTimestamp": "0x69f107cc",
          "transactionHash": "0xfc7286c340a4c7d37d8697dbf7e5e64a8ef4f8fbf013f0cd561497b130843330",
          "transactionIndex": "0x3",
          "logIndex": "0x48",
          "removed": false
        },
        {
          "address": "0xe5dea9f61bed9f7de6830dc82ee395993c81300b",
          "topics": [
            "0xbc7cd75a20ee27fd9adebab32041f755214dbc6bffa90cc0225b39da2e5c2d3b",
            "0x0000000000000000000000005ec4bd275d878b33a31be0d5798949033727f38d"
          ],
          "data": "0x",
          "blockHash": "0x6e79c8148491cf13431e8021b0fcf6628eb6ebef57e59c1ce3442d588785de98",
          "blockNumber": "0x26ed476",
          "blockTimestamp": "0x69f107cc",
          "transactionHash": "0xfc7286c340a4c7d37d8697dbf7e5e64a8ef4f8fbf013f0cd561497b130843330",
          "transactionIndex": "0x3",
          "logIndex": "0x49",
          "removed": false
        },
        {
          "address": "0xe5dea9f61bed9f7de6830dc82ee395993c81300b",
          "topics": [
            "0xc7f505b2f371ae2175ee4913f4499e1f2633a7b5936321eed1cdaeb6115181d2"
          ],
          "data": "0x0000000000000000000000000000000000000000000000000000000000000001",
          "blockHash": "0x6e79c8148491cf13431e8021b0fcf6628eb6ebef57e59c1ce3442d588785de98",
          "blockNumber": "0x26ed476",
          "blockTimestamp": "0x69f107cc",
          "transactionHash": "0xfc7286c340a4c7d37d8697dbf7e5e64a8ef4f8fbf013f0cd561497b130843330",
          "transactionIndex": "0x3",
          "logIndex": "0x4a",
          "removed": false
        },
        {
          "address": "0x96749ec9955d1588331d1a4d789acfacb2d9d154",
          "topics": [
            "0x8be0079c531659141344cd1fd0a4f28419497f9722a3daafe3b4186f6b6457e0",
            "0x0000000000000000000000000000000000000000000000000000000000000000",
            "0x000000000000000000000000ff6bdef4fb646ee44e29fe8fc0862b02f0ba8a33"
          ],
          "data": "0x",
          "blockHash": "0x6e79c8148491cf13431e8021b0fcf6628eb6ebef57e59c1ce3442d588785de98",
          "blockNumber": "0x26ed476",
          "blockTimestamp": "0x69f107cc",
          "transactionHash": "0xfc7286c340a4c7d37d8697dbf7e5e64a8ef4f8fbf013f0cd561497b130843330",
          "transactionIndex": "0x3",
          "logIndex": "0x4b",
          "removed": false
        },
        {
          "address": "0xe5dea9f61bed9f7de6830dc82ee395993c81300b",
          "topics": [
            "0x7e644d79422f17c01e4894b5f4f588d331ebfa28653d42ae832dc59e38c9798f"
          ],
          "data": "0x000000000000000000000000000000000000000000000000000000000000000000000000000000000000000096749ec9955d1588331d1a4d789acfacb2d9d154",
          "blockHash": "0x6e79c8148491cf13431e8021b0fcf6628eb6ebef57e59c1ce3442d588785de98",
          "blockNumber": "0x26ed476",
          "blockTimestamp": "0x69f107cc",
          "transactionHash": "0xfc7286c340a4c7d37d8697dbf7e5e64a8ef4f8fbf013f0cd561497b130843330",
          "transactionIndex": "0x3",
          "logIndex": "0x4c",
          "removed": false
        },
        {
          "address": "0x1d4b65c048b80538c97c54b63827ea0aa77eaf41",
          "topics": [
            "0xbc7cd75a20ee27fd9adebab32041f755214dbc6bffa90cc0225b39da2e5c2d3b",
            "0x0000000000000000000000004f9efaf3df08cc7090aff6a64cee1ec2c316d790"
          ],
          "data": "0x",
          "blockHash": "0x6e79c8148491cf13431e8021b0fcf6628eb6ebef57e59c1ce3442d588785de98",
          "blockNumber": "0x26ed476",
          "blockTimestamp": "0x69f107cc",
          "transactionHash": "0xfc7286c340a4c7d37d8697dbf7e5e64a8ef4f8fbf013f0cd561497b130843330",
          "transactionIndex": "0x3",
          "logIndex": "0x4d",
          "removed": false
        },
        {
          "address": "0x1d4b65c048b80538c97c54b63827ea0aa77eaf41",
          "topics": [
            "0xc7f505b2f371ae2175ee4913f4499e1f2633a7b5936321eed1cdaeb6115181d2"
          ],
          "data": "0x0000000000000000000000000000000000000000000000000000000000000001",
          "blockHash": "0x6e79c8148491cf13431e8021b0fcf6628eb6ebef57e59c1ce3442d588785de98",
          "blockNumber": "0x26ed476",
          "blockTimestamp": "0x69f107cc",
          "transactionHash": "0xfc7286c340a4c7d37d8697dbf7e5e64a8ef4f8fbf013f0cd561497b130843330",
          "transactionIndex": "0x3",
          "logIndex": "0x4e",
          "removed": false
        },
        {
          "address": "0xda4d17e5ccc10b451f162317f06d7a897fd6f772",
          "topics": [
            "0x8be0079c531659141344cd1fd0a4f28419497f9722a3daafe3b4186f6b6457e0",
            "0x0000000000000000000000000000000000000000000000000000000000000000",
            "0x000000000000000000000000ff6bdef4fb646ee44e29fe8fc0862b02f0ba8a33"
          ],
          "data": "0x",
          "blockHash": "0x6e79c8148491cf13431e8021b0fcf6628eb6ebef57e59c1ce3442d588785de98",
          "blockNumber": "0x26ed476",
          "blockTimestamp": "0x69f107cc",
          "transactionHash": "0xfc7286c340a4c7d37d8697dbf7e5e64a8ef4f8fbf013f0cd561497b130843330",
          "transactionIndex": "0x3",
          "logIndex": "0x4f",
          "removed": false
        },
        {
          "address": "0x1d4b65c048b80538c97c54b63827ea0aa77eaf41",
          "topics": [
            "0x7e644d79422f17c01e4894b5f4f588d331ebfa28653d42ae832dc59e38c9798f"
          ],
          "data": "0x0000000000000000000000000000000000000000000000000000000000000000000000000000000000000000da4d17e5ccc10b451f162317f06d7a897fd6f772",
          "blockHash": "0x6e79c8148491cf13431e8021b0fcf6628eb6ebef57e59c1ce3442d588785de98",
          "blockNumber": "0x26ed476",
          "blockTimestamp": "0x69f107cc",
          "transactionHash": "0xfc7286c340a4c7d37d8697dbf7e5e64a8ef4f8fbf013f0cd561497b130843330",
          "transactionIndex": "0x3",
          "logIndex": "0x50",
          "removed": false
        },
        {
          "address": "0x19297e945005b8885570858b93a23ded43a468b0",
          "topics": [
            "0xbc7cd75a20ee27fd9adebab32041f755214dbc6bffa90cc0225b39da2e5c2d3b",
            "0x000000000000000000000000f7d9376b75ed66f16f5891b195451a80bc4cf715"
          ],
          "data": "0x",
          "blockHash": "0x6e79c8148491cf13431e8021b0fcf6628eb6ebef57e59c1ce3442d588785de98",
          "blockNumber": "0x26ed476",
          "blockTimestamp": "0x69f107cc",
          "transactionHash": "0xfc7286c340a4c7d37d8697dbf7e5e64a8ef4f8fbf013f0cd561497b130843330",
          "transactionIndex": "0x3",
          "logIndex": "0x51",
          "removed": false
        },
        {
          "address": "0x19297e945005b8885570858b93a23ded43a468b0",
          "topics": [
            "0xc7f505b2f371ae2175ee4913f4499e1f2633a7b5936321eed1cdaeb6115181d2"
          ],
          "data": "0x0000000000000000000000000000000000000000000000000000000000000001",
          "blockHash": "0x6e79c8148491cf13431e8021b0fcf6628eb6ebef57e59c1ce3442d588785de98",
          "blockNumber": "0x26ed476",
          "blockTimestamp": "0x69f107cc",
          "transactionHash": "0xfc7286c340a4c7d37d8697dbf7e5e64a8ef4f8fbf013f0cd561497b130843330",
          "transactionIndex": "0x3",
          "logIndex": "0x52",
          "removed": false
        },
        {
          "address": "0x9919bedb5dbb8a2f44e6517d1a1a664d804e7ba8",
          "topics": [
            "0x8be0079c531659141344cd1fd0a4f28419497f9722a3daafe3b4186f6b6457e0",
            "0x0000000000000000000000000000000000000000000000000000000000000000",
            "0x000000000000000000000000ff6bdef4fb646ee44e29fe8fc0862b02f0ba8a33"
          ],
          "data": "0x",
          "blockHash": "0x6e79c8148491cf13431e8021b0fcf6628eb6ebef57e59c1ce3442d588785de98",
          "blockNumber": "0x26ed476",
          "blockTimestamp": "0x69f107cc",
          "transactionHash": "0xfc7286c340a4c7d37d8697dbf7e5e64a8ef4f8fbf013f0cd561497b130843330",
          "transactionIndex": "0x3",
          "logIndex": "0x53",
          "removed": false
        },
        {
          "address": "0x19297e945005b8885570858b93a23ded43a468b0",
          "topics": [
            "0x7e644d79422f17c01e4894b5f4f588d331ebfa28653d42ae832dc59e38c9798f"
          ],
          "data": "0x00000000000000000000000000000000000000000000000000000000000000000000000000000000000000009919bedb5dbb8a2f44e6517d1a1a664d804e7ba8",
          "blockHash": "0x6e79c8148491cf13431e8021b0fcf6628eb6ebef57e59c1ce3442d588785de98",
          "blockNumber": "0x26ed476",
          "blockTimestamp": "0x69f107cc",
          "transactionHash": "0xfc7286c340a4c7d37d8697dbf7e5e64a8ef4f8fbf013f0cd561497b130843330",
          "transactionIndex": "0x3",
          "logIndex": "0x54",
          "removed": false
        },
        {
          "address": "0x26dfae1d399a737708aab1f9a116eb814e98ee87",
          "topics": [
            "0x3d0d0506c8fbb4fe692d4bb7a08d56876fec8ff877b533d59f460ce6e1658c69",
            "0x000000000000000000000000eeca254825e78e995d630701d26c7356887ec6c9",
            "0x000000000000000000000000ff6bdef4fb646ee44e29fe8fc0862b02f0ba8a33"
          ],
          "data": "0x000000000000000000000000f1b7115a7f6aeb778318cb70dafd91da9901cc7700000000000000000000000019297e945005b8885570858b93a23ded43a468b0000000000000000000000000e5dea9f61bed9f7de6830dc82ee395993c81300b0000000000000000000000001d4b65c048b80538c97c54b63827ea0aa77eaf4100000000000000000000000000000000000000000000000001ff973cafa8000000000000000000000000000000000000000000000000152d02c7e14af6800000000000000000000000000000000000000000000000004a1d89bb94865ec000000000000000000000000000000000000000000000000000000000000069f2592e00000000000000000000000000000000000000000000000000000000000007080000000000000000000000000000000000000000000000000de0b6b3a76400000000000000000000000000000000000000000000000000000000000069f107cc00000000000000000000000000000000000000000000010f0cf064dd5920000000000000000000000000000000000000000000000000000d8d726b7177a8000000000000000000000000000000000000000000000000000000000000000007ee0000000000000000000000000000000000000000000000000000000000000003",
          "blockHash": "0x6e79c8148491cf13431e8021b0fcf6628eb6ebef57e59c1ce3442d588785de98",
          "blockNumber": "0x26ed476",
          "blockTimestamp": "0x69f107cc",
          "transactionHash": "0xfc7286c340a4c7d37d8697dbf7e5e64a8ef4f8fbf013f0cd561497b130843330",
          "transactionIndex": "0x3",
          "logIndex": "0x55",
          "removed": false
        }
      ],
      "logsBloom": "0x00000006004000000000100000000000400000810000040000800400000000000008200000000000000000000000000000000000000000000000002000000000001000090000000000840200400002000401000001008001000080000010000000000004020000000000100000000800000000800000000000800000800000428000000000000000000800400000004000000000000080800000000001900000000800000000100200000000000000000000020000000000008800000000000040000020020030108000001000010000000040000404008000000000000020000000000000000000000002100000000000080000000000020000000000002010",
      "type": "0x2",
      "transactionHash": "0xfc7286c340a4c7d37d8697dbf7e5e64a8ef4f8fbf013f0cd561497b130843330",
      "transactionIndex": "0x3",
      "blockHash": "0x6e79c8148491cf13431e8021b0fcf6628eb6ebef57e59c1ce3442d588785de98",
      "blockNumber": "0x26ed476",
      "gasUsed": "0x3a38a9",
      "effectiveGasPrice": "0x5b8d80",
      "blobGasUsed": "0x9af0",
      "from": "0xff6bdef4fb646ee44e29fe8fc0862b02f0ba8a33",
      "to": "0x26dfae1d399a737708aab1f9a116eb814e98ee87",
      "contractAddress": null,
      "daFootprintGasScalar": "0x94",
      "l1BaseFeeScalar": "0x44d",
      "l1BlobBaseFee": "0x47cb2cb",
      "l1BlobBaseFeeScalar": "0xa118b",
      "l1Fee": "0x46cb8a2ba",
      "l1GasPrice": "0x4752c00a",
      "l1GasUsed": "0x10c9"
    },
    {
      "status": "0x1",
      "cumulativeGasUsed": "0x117d74",
      "logs": [
        {
          "address": "0xeeca254825e78e995d630701d26c7356887ec6c9",
          "topics": [
            "0x1809803edc7f4d0a1c400a8f95cac12ace860d60e118b6c9b491082a623963df",
            "0x0000000000000000000000009c92c69a92173548a8e62a412e963f4b93ee2a13"
          ],
          "data": "0x00000000000000000000000000000000000000000000000000000000000000800000000000000000000000000000000000000000000000000000000000000000000000000000000000000000000000000000000000000000000000000002328000000000000000000000000000000000000000000000000000000000000000000000000000000000000000000000000000000000000000000000000000000000",
          "blockHash": "0xb2663c3862ff44a3bfb0418ccc8f71f515ebe0e5add81a8d82cb30ec2f465eec",
          "blockNumber": "0x26ed478",
          "blockTimestamp": "0x69f107d0",
          "transactionHash": "0x4c88ed67b958bfbc0f5099b08d2eedd70f031a8cc11961ddab891cd3bd8fe3da",
          "transactionIndex": "0x3",
          "logIndex": "0x15",
          "removed": false
        }
      ],
      "logsBloom": "0x00000000000000000000000000000000000000000000000400000000000000000000200000000000000000000000000000000000000000008000000000000000000000000000000000000000000000000000000000000000000000000000000000000000000000000000000000000000000000000000000000000000000000008000000000000000000000000000000000000000000000000000000000000000000000000000000000000000000000000000000000000000000020000000000000000000000000100000000000000000000000000000000000000000000000000000002000000000000000000000000000000000000002020000000000000000",
      "type": "0x2",
      "transactionHash": "0x4c88ed67b958bfbc0f5099b08d2eedd70f031a8cc11961ddab891cd3bd8fe3da",
      "transactionIndex": "0x3",
      "blockHash": "0xb2663c3862ff44a3bfb0418ccc8f71f515ebe0e5add81a8d82cb30ec2f465eec",
      "blockNumber": "0x26ed478",
      "gasUsed": "0x1f08e",
      "effectiveGasPrice": "0x5b8d80",
      "blobGasUsed": "0x39d0",
      "from": "0xff6bdef4fb646ee44e29fe8fc0862b02f0ba8a33",
      "to": "0xeeca254825e78e995d630701d26c7356887ec6c9",
      "contractAddress": null,
      "daFootprintGasScalar": "0x94",
      "l1BaseFeeScalar": "0x44d",
      "l1BlobBaseFee": "0x47cb2cb",
      "l1BlobBaseFeeScalar": "0xa118b",
      "l1Fee": "0x1a5b997fe",
      "l1GasPrice": "0x4752c00a",
      "l1GasUsed": "0x640"
    },
    {
      "status": "0x1",
      "cumulativeGasUsed": "0x129fb4",
      "logs": [
        {
          "address": "0x9c92c69a92173548a8e62a412e963f4b93ee2a13",
          "topics": [
            "0x8c5be1e5ebec7d5bd14f71427d1e84f3dd0314c0f7b2291e5b200ac8c7c3b925",
            "0x000000000000000000000000ff6bdef4fb646ee44e29fe8fc0862b02f0ba8a33",
            "0x000000000000000000000000eeca254825e78e995d630701d26c7356887ec6c9"
          ],
          "data": "0xffffffffffffffffffffffffffffffffffffffffffffffffffffffffffffffff",
          "blockHash": "0xce8943fafd808c2f9534f74ff04c844ef77f3749d8744407dc256fe097168173",
          "blockNumber": "0x26ed47a",
          "blockTimestamp": "0x69f107d4",
          "transactionHash": "0xb80affb7bbac554d9f2ae2315e599e32deb46f550fcdb553ca11c16d603af008",
          "transactionIndex": "0x3",
          "logIndex": "0x41",
          "removed": false
        }
      ],
      "logsBloom": "0x00000000000000000000100000000000000000000000000000000000000000000000000000000000000000100000000000000000000000000000000000200000000000000000000000000000000000000000000000000001000080000000000000000000000000000000000000000000000080000000000000000000000000000000000000000000000000000000000000000000000000000000000000000000020000000000000000000000000000000000020000000000000000000000000000000000000000000000000000010000000000000000000000000000000000000010000004000000000000000000000000080000000000000000000000000000",
      "type": "0x2",
      "transactionHash": "0xb80affb7bbac554d9f2ae2315e599e32deb46f550fcdb553ca11c16d603af008",
      "transactionIndex": "0x3",
      "blockHash": "0xce8943fafd808c2f9534f74ff04c844ef77f3749d8744407dc256fe097168173",
      "blockNumber": "0x26ed47a",
      "gasUsed": "0xb4cb",
      "effectiveGasPrice": "0x5b8d80",
      "blobGasUsed": "0x39d0",
      "from": "0xff6bdef4fb646ee44e29fe8fc0862b02f0ba8a33",
      "to": "0x9c92c69a92173548a8e62a412e963f4b93ee2a13",
      "contractAddress": null,
      "daFootprintGasScalar": "0x94",
      "l1BaseFeeScalar": "0x44d",
      "l1BlobBaseFee": "0x47cb2cb",
      "l1BlobBaseFeeScalar": "0xa118b",
      "l1Fee": "0x1a5b997fe",
      "l1GasPrice": "0x4752c00a",
      "l1GasUsed": "0x640"
    },
    {
      "status": "0x1",
      "cumulativeGasUsed": "0x10beab",
      "logs": [
        {
          "address": "0x9c92c69a92173548a8e62a412e963f4b93ee2a13",
          "topics": [
            "0xddf252ad1be2c89b69c2b068fc378daa952ba7f163c4a11628f55a4df523b3ef",
            "0x000000000000000000000000ff6bdef4fb646ee44e29fe8fc0862b02f0ba8a33",
            "0x000000000000000000000000eeca254825e78e995d630701d26c7356887ec6c9"
          ],
          "data": "0x0000000000000000000000000000000000000000000000000000000405f7e000",
          "blockHash": "0x551ede3dbd0c8a78538534445cf3a90b3329d1ea605d68773fa2ed8afbab6cd1",
          "blockNumber": "0x26ed47c",
          "blockTimestamp": "0x69f107d8",
          "transactionHash": "0xf8dc135f6a086c4d0e9a8cd36f79a6ed074e7eef1c71f2ddd1d3f6f9889a8d45",
          "transactionIndex": "0x2",
          "logIndex": "0x36",
          "removed": false
        },
        {
          "address": "0x9c92c69a92173548a8e62a412e963f4b93ee2a13",
          "topics": [
            "0xddf252ad1be2c89b69c2b068fc378daa952ba7f163c4a11628f55a4df523b3ef",
            "0x000000000000000000000000eeca254825e78e995d630701d26c7356887ec6c9",
            "0x000000000000000000000000ff6bdef4fb646ee44e29fe8fc0862b02f0ba8a33"
          ],
          "data": "0x000000000000000000000000000000000000000000000000000000001ee62800",
          "blockHash": "0x551ede3dbd0c8a78538534445cf3a90b3329d1ea605d68773fa2ed8afbab6cd1",
          "blockNumber": "0x26ed47c",
          "blockTimestamp": "0x69f107d8",
          "transactionHash": "0xf8dc135f6a086c4d0e9a8cd36f79a6ed074e7eef1c71f2ddd1d3f6f9889a8d45",
          "transactionIndex": "0x2",
          "logIndex": "0x37",
          "removed": false
        },
        {
          "address": "0xeeca254825e78e995d630701d26c7356887ec6c9",
          "topics": [
            "0x4dd12c0ecba594b5bb7a4e3ec05ef19e1135fed23711a1fe4b1c9e6c9b40391b",
            "0x000000000000000000000000ff6bdef4fb646ee44e29fe8fc0862b02f0ba8a33",
            "0x0000000000000000000000009c92c69a92173548a8e62a412e963f4b93ee2a13"
          ],
          "data": "0x000000000000000000000000000000000000000000000000000000001ee62800",
          "blockHash": "0x551ede3dbd0c8a78538534445cf3a90b3329d1ea605d68773fa2ed8afbab6cd1",
          "blockNumber": "0x26ed47c",
          "blockTimestamp": "0x69f107d8",
          "transactionHash": "0xf8dc135f6a086c4d0e9a8cd36f79a6ed074e7eef1c71f2ddd1d3f6f9889a8d45",
          "transactionIndex": "0x2",
          "logIndex": "0x38",
          "removed": false
        },
        {
          "address": "0xf1b7115a7f6aeb778318cb70dafd91da9901cc77",
          "topics": [
            "0xddf252ad1be2c89b69c2b068fc378daa952ba7f163c4a11628f55a4df523b3ef",
            "0x0000000000000000000000000000000000000000000000000000000000000000",
            "0x000000000000000000000000ff6bdef4fb646ee44e29fe8fc0862b02f0ba8a33"
          ],
          "data": "0x000000000000000000000000000000000000000000001969368974c05b000000",
          "blockHash": "0x551ede3dbd0c8a78538534445cf3a90b3329d1ea605d68773fa2ed8afbab6cd1",
          "blockNumber": "0x26ed47c",
          "blockTimestamp": "0x69f107d8",
          "transactionHash": "0xf8dc135f6a086c4d0e9a8cd36f79a6ed074e7eef1c71f2ddd1d3f6f9889a8d45",
          "transactionIndex": "0x2",
          "logIndex": "0x39",
          "removed": false
        },
        {
          "address": "0xeeca254825e78e995d630701d26c7356887ec6c9",
          "topics": [
            "0x0b9c8304b83df3d2827b952a8e4c87faef3556dddcde57a47cb80f0c755606a5",
            "0x000000000000000000000000ff6bdef4fb646ee44e29fe8fc0862b02f0ba8a33",
            "0x0000000000000000000000009c92c69a92173548a8e62a412e963f4b93ee2a13"
          ],
          "data": "0x0000000000000000000000000000000000000000000000000000000405f7e000000000000000000000000000000000000000000000001969368974c05b0000000000000000000000000000000000000000000000000000000000000000000000000000000000000000000000000000000000000000001969368974c05b000000",
          "blockHash": "0x551ede3dbd0c8a78538534445cf3a90b3329d1ea605d68773fa2ed8afbab6cd1",
          "blockNumber": "0x26ed47c",
          "blockTimestamp": "0x69f107d8",
          "transactionHash": "0xf8dc135f6a086c4d0e9a8cd36f79a6ed074e7eef1c71f2ddd1d3f6f9889a8d45",
          "transactionIndex": "0x2",
          "logIndex": "0x3a",
          "removed": false
        },
        {
          "address": "0x9c92c69a92173548a8e62a412e963f4b93ee2a13",
          "topics": [
            "0xddf252ad1be2c89b69c2b068fc378daa952ba7f163c4a11628f55a4df523b3ef",
            "0x000000000000000000000000eeca254825e78e995d630701d26c7356887ec6c9",
            "0x000000000000000000000000ff6bdef4fb646ee44e29fe8fc0862b02f0ba8a33"
          ],
          "data": "0x00000000000000000000000000000000000000000000000000000003e711b800",
          "blockHash": "0x551ede3dbd0c8a78538534445cf3a90b3329d1ea605d68773fa2ed8afbab6cd1",
          "blockNumber": "0x26ed47c",
          "blockTimestamp": "0x69f107d8",
          "transactionHash": "0xf8dc135f6a086c4d0e9a8cd36f79a6ed074e7eef1c71f2ddd1d3f6f9889a8d45",
          "transactionIndex": "0x2",
          "logIndex": "0x3b",
          "removed": false
        },
        {
          "address": "0xeeca254825e78e995d630701d26c7356887ec6c9",
          "topics": [
            "0x120bfc1de29621f7872a5b3129b6524ceb18df8c689a37496b8ee4007235dbc8"
          ],
          "data": "0x00000000000000000000000000000000000000000000000000000000000000000000000000000000000000000000000000000000000000000000000000000001",
          "blockHash": "0x551ede3dbd0c8a78538534445cf3a90b3329d1ea605d68773fa2ed8afbab6cd1",
          "blockNumber": "0x26ed47c",
          "blockTimestamp": "0x69f107d8",
          "transactionHash": "0xf8dc135f6a086c4d0e9a8cd36f79a6ed074e7eef1c71f2ddd1d3f6f9889a8d45",
          "transactionIndex": "0x2",
          "logIndex": "0x3c",
          "removed": false
        },
        {
          "address": "0xeeca254825e78e995d630701d26c7356887ec6c9",
          "topics": [
            "0xccb4518c7bb9cdee893961401854c0ac29fad869f3338dc3087c9215fa4ab9e1"
          ],
          "data": "0x0000000000000000000000000000000000000000000000000000000000000000000000000000000000000000000000000000000000001969368974c05b000000",
          "blockHash": "0x551ede3dbd0c8a78538534445cf3a90b3329d1ea605d68773fa2ed8afbab6cd1",
          "blockNumber": "0x26ed47c",
          "blockTimestamp": "0x69f107d8",
          "transactionHash": "0xf8dc135f6a086c4d0e9a8cd36f79a6ed074e7eef1c71f2ddd1d3f6f9889a8d45",
          "transactionIndex": "0x2",
          "logIndex": "0x3d",
          "removed": false
        }
      ],
      "logsBloom": "0x00000000000000000000100000000000000000000000400080000000000008000000200000000000000000100000000000000000000000000000000000000000000000010000000000000008000010000000000000800001000080000000000000000000020000000000000000000800000080000000000000000010001000008000000000000000000000000000000000000000000000000000000000000000000000000000000200100020000000000000020000000000000020000000000000400002000000100000000000012000000000000000004000000000000020000000002006000000000000100000000000080000000000020000000000000000",
      "type": "0x2",
      "transactionHash": "0xf8dc135f6a086c4d0e9a8cd36f79a6ed074e7eef1c71f2ddd1d3f6f9889a8d45",
      "transactionIndex": "0x2",
      "blockHash": "0x551ede3dbd0c8a78538534445cf3a90b3329d1ea605d68773fa2ed8afbab6cd1",
      "blockNumber": "0x26ed47c",
      "gasUsed": "0x495c7",
      "effectiveGasPrice": "0x5b8d80",
      "blobGasUsed": "0x39d0",
      "from": "0xff6bdef4fb646ee44e29fe8fc0862b02f0ba8a33",
      "to": "0xeeca254825e78e995d630701d26c7356887ec6c9",
      "contractAddress": null,
      "daFootprintGasScalar": "0x94",
      "l1BaseFeeScalar": "0x44d",
      "l1BlobBaseFee": "0x402cee7",
      "l1BlobBaseFeeScalar": "0xa118b",
      "l1Fee": "0x181799c6a",
      "l1GasPrice": "0x44948587",
      "l1GasUsed": "0x640"
    },
    {
      "status": "0x1",
      "cumulativeGasUsed": "0x7cb314",
      "logs": [
        {
          "address": "0x9c92c69a92173548a8e62a412e963f4b93ee2a13",
          "topics": [
            "0xddf252ad1be2c89b69c2b068fc378daa952ba7f163c4a11628f55a4df523b3ef",
            "0x000000000000000000000000ff6bdef4fb646ee44e29fe8fc0862b02f0ba8a33",
            "0x000000000000000000000000eeca254825e78e995d630701d26c7356887ec6c9"
          ],
          "data": "0x000000000000000000000000000000000000000000000000000000037e11d600",
          "blockHash": "0x4fb6f8ccf2ee330d2385d74f9d171e5d49cbfebadd377c4f0b900efb758515bc",
          "blockNumber": "0x26ed47d",
          "blockTimestamp": "0x69f107da",
          "transactionHash": "0xf8d2c842c16c7197f87faab9d9984ec4104f7dddcaab3dbcbab44bdcd2f26944",
          "transactionIndex": "0x4d",
          "logIndex": "0xc1",
          "removed": false
        },
        {
          "address": "0xeeca254825e78e995d630701d26c7356887ec6c9",
          "topics": [
            "0xaff82f4178df227ea409be11c927e414a908fb01481236913cec80ea866b2468",
            "0x000000000000000000000000ff6bdef4fb646ee44e29fe8fc0862b02f0ba8a33"
          ],
          "data": "0x000000000000000000000000000000000000000000000000000000037e11d600000000000000000000000000000000000000000000000000000000037e11d600",
          "blockHash": "0x4fb6f8ccf2ee330d2385d74f9d171e5d49cbfebadd377c4f0b900efb758515bc",
          "blockNumber": "0x26ed47d",
          "blockTimestamp": "0x69f107da",
          "transactionHash": "0xf8d2c842c16c7197f87faab9d9984ec4104f7dddcaab3dbcbab44bdcd2f26944",
          "transactionIndex": "0x4d",
          "logIndex": "0xc2",
          "removed": false
        }
      ],
      "logsBloom": "0x00000000000000000000100000000000000000000000000000000000000000000000200000000000000000100000000000000000000000000000000000000000000000000000000000000008000000000000000000000001000080000000000000000000000000000000000000000000000080000000000000000010000000008000000000000002000000000000000000000000000000000000000000000000000000000000000000000000000000000000020000000000000000000000000001008002000000000000000000010000000000000000000000000000000000000000000004000000000000000000000000080000000000020000000000000000",
      "type": "0x2",
      "transactionHash": "0xf8d2c842c16c7197f87faab9d9984ec4104f7dddcaab3dbcbab44bdcd2f26944",
      "transactionIndex": "0x4d",
      "blockHash": "0x4fb6f8ccf2ee330d2385d74f9d171e5d49cbfebadd377c4f0b900efb758515bc",
      "blockNumber": "0x26ed47d",
      "gasUsed": "0x18cd5",
      "effectiveGasPrice": "0x5b8d80",
      "blobGasUsed": "0x39d0",
      "from": "0xff6bdef4fb646ee44e29fe8fc0862b02f0ba8a33",
      "to": "0xeeca254825e78e995d630701d26c7356887ec6c9",
      "contractAddress": null,
      "daFootprintGasScalar": "0x94",
      "l1BaseFeeScalar": "0x44d",
      "l1BlobBaseFee": "0x402cee7",
      "l1BlobBaseFeeScalar": "0xa118b",
      "l1Fee": "0x181799c6a",
      "l1GasPrice": "0x44948587",
      "l1GasUsed": "0x640"
    },
    {
      "status": "0x1",
      "cumulativeGasUsed": "0xa5710f",
      "logs": [
        {
          "address": "0xe5dea9f61bed9f7de6830dc82ee395993c81300b",
          "topics": [
            "0x8d160eff266df162107c57259a1f1e71787bd4ab800800826bd189d6f2f3e83c",
            "0x0000000000000000000000000000000000000000000000000000000000000001"
          ],
          "data": "0x0000000000000000000000000000000000000000000000000000000069f107dc",
          "blockHash": "0xc45f0b87ae23f2e8acc10a7974aa1723664b7d9b1b5bdd6758d0fa23d59dc662",
          "blockNumber": "0x26ed47e",
          "blockTimestamp": "0x69f107dc",
          "transactionHash": "0x4f6ef11392926ef9ff6e57679b2dc4472faa7663005c0e2919d444d39e7a503a",
          "transactionIndex": "0x59",
          "logIndex": "0xd6",
          "removed": false
        }
      ],
      "logsBloom": "0x00000000800000000000000000000000000000000000000000000000000000000008000000000000000000000000000000000000000000000000000000040000000000000000000000000000000000000000000000040000000000000000000000000000000000000000000000000000000000000000000000000000000000000000000000000000000000000000000000000000000000000000000000100000000000000000000000000000080000000000000000000000000000000000000000000000000020000000000000000000000000000000000000000000000040000000000200000000000000000000000000000000000000000000000000000000",
      "type": "0x2",
      "transactionHash": "0x4f6ef11392926ef9ff6e57679b2dc4472faa7663005c0e2919d444d39e7a503a",
      "transactionIndex": "0x59",
      "blockHash": "0xc45f0b87ae23f2e8acc10a7974aa1723664b7d9b1b5bdd6758d0fa23d59dc662",
      "blockNumber": "0x26ed47e",
      "gasUsed": "0x24998",
      "effectiveGasPrice": "0x5b8d80",
      "blobGasUsed": "0x39d0",
      "from": "0xff6bdef4fb646ee44e29fe8fc0862b02f0ba8a33",
      "to": "0xeeca254825e78e995d630701d26c7356887ec6c9",
      "contractAddress": null,
      "daFootprintGasScalar": "0x94",
      "l1BaseFeeScalar": "0x44d",
      "l1BlobBaseFee": "0x402cee7",
      "l1BlobBaseFeeScalar": "0xa118b",
      "l1Fee": "0x181799c6a",
      "l1GasPrice": "0x44948587",
      "l1GasUsed": "0x640"
    },
    {
      "status": "0x1",
      "cumulativeGasUsed": "0xab14ea",
      "logs": [
        {
          "address": "0xf1b7115a7f6aeb778318cb70dafd91da9901cc77",
          "topics": [
            "0x8c5be1e5ebec7d5bd14f71427d1e84f3dd0314c0f7b2291e5b200ac8c7c3b925",
            "0x000000000000000000000000ff6bdef4fb646ee44e29fe8fc0862b02f0ba8a33",
            "0x000000000000000000000000e5dea9f61bed9f7de6830dc82ee395993c81300b"
          ],
          "data": "0xffffffffffffffffffffffffffffffffffffffffffffffffffffffffffffffff",
          "blockHash": "0xe571fe5ddf6eafe3aed80f150d3f10f4d69c06ea1afee6bd4b15cb962d47a8eb",
          "blockNumber": "0x26ed47f",
          "blockTimestamp": "0x69f107de",
          "transactionHash": "0x8780c31d81e5561b2e89cd9b5637d1a2811c4dbcd001af4f6954b96cab1198a2",
          "transactionIndex": "0x5b",
          "logIndex": "0x177",
          "removed": false
        }
      ],
      "logsBloom": "0x00000000000000000000100000000000000000000000000000000000000000000000000000000000000000000000000000000000000000000000000000200000000000010000000000000000000000000000000000000001000000000000000000000000000000000000000000000000000000000000000000000400000000000000000000000000000000000000000010000000000000000000000000000000020000000000000200000000000000000000000000000001000000000000000000000000000000000000000000010000000000000000000000000000000000000010000000000000000000100000000000000000000000000000000000000000",
      "type": "0x2",
      "transactionHash": "0x8780c31d81e5561b2e89cd9b5637d1a2811c4dbcd001af4f6954b96cab1198a2",
      "transactionIndex": "0x5b",
      "blockHash": "0xe571fe5ddf6eafe3aed80f150d3f10f4d69c06ea1afee6bd4b15cb962d47a8eb",
      "blockNumber": "0x26ed47f",
      "gasUsed": "0xc841",
      "effectiveGasPrice": "0x5b8d80",
      "blobGasUsed": "0x39d0",
      "from": "0xff6bdef4fb646ee44e29fe8fc0862b02f0ba8a33",
      "to": "0xf1b7115a7f6aeb778318cb70dafd91da9901cc77",
      "contractAddress": null,
      "daFootprintGasScalar": "0x94",
      "l1BaseFeeScalar": "0x44d",
      "l1BlobBaseFee": "0x402cee7",
      "l1BlobBaseFeeScalar": "0xa118b",
      "l1Fee": "0x181799c6a",
      "l1GasPrice": "0x44948587",
      "l1GasUsed": "0x640"
    },
    {
      "status": "0x1",
      "cumulativeGasUsed": "0x948f2f",
      "logs": [
        {
          "address": "0xf1b7115a7f6aeb778318cb70dafd91da9901cc77",
          "topics": [
            "0xddf252ad1be2c89b69c2b068fc378daa952ba7f163c4a11628f55a4df523b3ef",
            "0x000000000000000000000000ff6bdef4fb646ee44e29fe8fc0862b02f0ba8a33",
            "0x000000000000000000000000e5dea9f61bed9f7de6830dc82ee395993c81300b"
          ],
          "data": "0x000000000000000000000000000000000000000000001969368974c05b000000",
          "blockHash": "0xbb4eaa2e58fd47a637df325a500184baab5edd4aac188105ae4ed8134ea53598",
          "blockNumber": "0x26ed480",
          "blockTimestamp": "0x69f107e0",
          "transactionHash": "0x20e34c12b338abb8855d9d84caba39bf5f44d9f287935879fef0af4e78953893",
          "transactionIndex": "0x4a",
          "logIndex": "0x136",
          "removed": false
        },
        {
          "address": "0xe5dea9f61bed9f7de6830dc82ee395993c81300b",
          "topics": [
            "0x9cfd25589d1eb8ad71e342a86a8524e83522e3936c0803048c08f6d9ad974f40",
            "0x000000000000000000000000ff6bdef4fb646ee44e29fe8fc0862b02f0ba8a33",
            "0x0000000000000000000000000000000000000000000000000000000000000000"
          ],
          "data": "0x000000000000000000000000000000000000000000001969368974c05b000000000000000000000000000000000000000000000000001969368974c05b000000000000000000000000000000000000000000000000000000325b467d4221b6dc",
          "blockHash": "0xbb4eaa2e58fd47a637df325a500184baab5edd4aac188105ae4ed8134ea53598",
          "blockNumber": "0x26ed480",
          "blockTimestamp": "0x69f107e0",
          "transactionHash": "0x20e34c12b338abb8855d9d84caba39bf5f44d9f287935879fef0af4e78953893",
          "transactionIndex": "0x4a",
          "logIndex": "0x137",
          "removed": false
        },
        {
          "address": "0xe5dea9f61bed9f7de6830dc82ee395993c81300b",
          "topics": [
            "0x875894a489de1b1b13bf2e6c03981e3ddabcf1794b4b94dc5ba5d8e855a1e2f9"
          ],
          "data": "0x000000000000000000000000000000000000000000000000325b467d4221b6dc000000000000000000000000000000000000000000001969368974c05b000000000000000000000000000000000000000000000000004a1d89bb94865ec00000",
          "blockHash": "0xbb4eaa2e58fd47a637df325a500184baab5edd4aac188105ae4ed8134ea53598",
          "blockNumber": "0x26ed480",
          "blockTimestamp": "0x69f107e0",
          "transactionHash": "0x20e34c12b338abb8855d9d84caba39bf5f44d9f287935879fef0af4e78953893",
          "transactionIndex": "0x4a",
          "logIndex": "0x138",
          "removed": false
        }
      ],
      "logsBloom": "0x00000000000000000000100000000000000000000000000000000000000000000008000000000000000000000000000000000000000000000008000000000000000000010000000000000008000000000000000000000001000000000000000000000000020000000000000000000800000000000000000000000410000000000000000000000000000000000000000010000000000000000000000000100000000000000000000200000010000000000000000000000001000000000000200000800002000020000000000000010000000000000000000000000000000020000000000000800000000000100000000000000000000000000000000000100000",
      "type": "0x2",
      "transactionHash": "0x20e34c12b338abb8855d9d84caba39bf5f44d9f287935879fef0af4e78953893",
      "transactionIndex": "0x4a",
      "blockHash": "0xbb4eaa2e58fd47a637df325a500184baab5edd4aac188105ae4ed8134ea53598",
      "blockNumber": "0x26ed480",
      "gasUsed": "0x47cb2",
      "effectiveGasPrice": "0x5b8d80",
      "blobGasUsed": "0x39d0",
      "from": "0xff6bdef4fb646ee44e29fe8fc0862b02f0ba8a33",
      "to": "0xe5dea9f61bed9f7de6830dc82ee395993c81300b",
      "contractAddress": null,
      "daFootprintGasScalar": "0x94",
      "l1BaseFeeScalar": "0x44d",
      "l1BlobBaseFee": "0x402cee7",
      "l1BlobBaseFeeScalar": "0xa118b",
      "l1Fee": "0x181799c6a",
      "l1GasPrice": "0x44948587",
      "l1GasUsed": "0x640"
    },
    {
      "status": "0x1",
      "cumulativeGasUsed": "0x7aa2a6",
      "logs": [
        {
          "address": "0x9c92c69a92173548a8e62a412e963f4b93ee2a13",
          "topics": [
            "0xddf252ad1be2c89b69c2b068fc378daa952ba7f163c4a11628f55a4df523b3ef",
            "0x0000000000000000000000000000000000000000000000000000000000000000",
            "0x000000000000000000000000455ab6723ccab4cb62983710c33f6311cc85bc97"
          ],
          "data": "0x00000000000000000000000000000000000000000000000000000002540be400",
          "blockHash": "0xcedefddcd5f374a54462160acccaf07117c35efc8be894e869e0e0eedb7f2d7d",
          "blockNumber": "0x26ed481",
          "blockTimestamp": "0x69f107e2",
          "transactionHash": "0x587ed1cca7316898f9dc34ddab5973cc59208e7bfa7ae8b4d0cc55e6fdd53972",
          "transactionIndex": "0x4a",
          "logIndex": "0xb9",
          "removed": false
        }
      ],
      "logsBloom": "0x00000000000000000000000000000000000000000000000000000000000000000000000000000000000000100000000000000000000000000000000000000000000000000000000000000008000000000000000000000000000000000000000000000000020000000000000000000800000080000000000000000010000100000000000000000000000000000002000000000000000000000000000000000000000000000000000000000000000000000000000000000000000000000000000000000002000000000000000000000000000000000000000000000000000020000000000004000000000000000000000000000000000000008000000000000000",
      "type": "0x2",
      "transactionHash": "0x587ed1cca7316898f9dc34ddab5973cc59208e7bfa7ae8b4d0cc55e6fdd53972",
      "transactionIndex": "0x4a",
      "blockHash": "0xcedefddcd5f374a54462160acccaf07117c35efc8be894e869e0e0eedb7f2d7d",
      "blockNumber": "0x26ed481",
      "gasUsed": "0xc734",
      "effectiveGasPrice": "0x5b8d80",
      "blobGasUsed": "0x39d0",
      "from": "0xff6bdef4fb646ee44e29fe8fc0862b02f0ba8a33",
      "to": "0x9c92c69a92173548a8e62a412e963f4b93ee2a13",
      "contractAddress": null,
      "daFootprintGasScalar": "0x94",
      "l1BaseFeeScalar": "0x44d",
      "l1BlobBaseFee": "0x402cee7",
      "l1BlobBaseFeeScalar": "0xa118b",
      "l1Fee": "0x181799c6a",
      "l1GasPrice": "0x44948587",
      "l1GasUsed": "0x640"
    },
    {
      "status": "0x1",
      "cumulativeGasUsed": "0x89c67c",
      "logs": [
        {
          "address": "0x9c92c69a92173548a8e62a412e963f4b93ee2a13",
          "topics": [
            "0x8c5be1e5ebec7d5bd14f71427d1e84f3dd0314c0f7b2291e5b200ac8c7c3b925",
            "0x000000000000000000000000455ab6723ccab4cb62983710c33f6311cc85bc97",
            "0x000000000000000000000000eeca254825e78e995d630701d26c7356887ec6c9"
          ],
          "data": "0xffffffffffffffffffffffffffffffffffffffffffffffffffffffffffffffff",
          "blockHash": "0xfc952b1d08ebf0d50e139f2eb4d8a34816bc8dbdb395ae75aecfd343a6b01a7a",
          "blockNumber": "0x26ed482",
          "blockTimestamp": "0x69f107e4",
          "transactionHash": "0x8f1e832c584bdf01886e4f62ea6d66ee5fcf28b31b6b23bb3ae430df1b7d77d1",
          "transactionIndex": "0x50",
          "logIndex": "0x11a",
          "removed": false
        }
      ],
      "logsBloom": "0x00000000000000000000000000000000000000000000000000000000000000000000000000000000000000100000000000000000000000000000000000200000000000000000000000000000000000000000000000000000000080000000000000000000000000000000000000000000000080000000000000000000000100000000000000000000000000000002000000000000000000000000000000000000020000000000000000000000000000000000020000000000000000000000000000000000000000000000000000000000000000000000000000000000000000000010000004000000000000000000000000080000000000008000000000000000",
      "type": "0x2",
      "transactionHash": "0x8f1e832c584bdf01886e4f62ea6d66ee5fcf28b31b6b23bb3ae430df1b7d77d1",
      "transactionIndex": "0x50",
      "blockHash": "0xfc952b1d08ebf0d50e139f2eb4d8a34816bc8dbdb395ae75aecfd343a6b01a7a",
      "blockNumber": "0x26ed482",
      "gasUsed": "0xb4cb",
      "effectiveGasPrice": "0x5b8d80",
      "blobGasUsed": "0x39d0",
      "from": "0x455ab6723ccab4cb62983710c33f6311cc85bc97",
      "to": "0x9c92c69a92173548a8e62a412e963f4b93ee2a13",
      "contractAddress": null,
      "daFootprintGasScalar": "0x94",
      "l1BaseFeeScalar": "0x44d",
      "l1BlobBaseFee": "0x41e09e5",
      "l1BlobBaseFeeScalar": "0xa118b",
      "l1Fee": "0x187fd2556",
      "l1GasPrice": "0x444b23f0",
      "l1GasUsed": "0x640"
    },
    {
      "status": "0x1",
      "cumulativeGasUsed": "0xa28f2f",
      "logs": [
        {
          "address": "0x9c92c69a92173548a8e62a412e963f4b93ee2a13",
          "topics": [
            "0xddf252ad1be2c89b69c2b068fc378daa952ba7f163c4a11628f55a4df523b3ef",
            "0x000000000000000000000000455ab6723ccab4cb62983710c33f6311cc85bc97",
            "0x000000000000000000000000eeca254825e78e995d630701d26c7356887ec6c9"
          ],
          "data": "0x00000000000000000000000000000000000000000000000000000001ad274800",
          "blockHash": "0xeb5a13c422dadc388b30afad483d285c37be08b80c3d1192cfb974625f79445e",
          "blockNumber": "0x26ed483",
          "blockTimestamp": "0x69f107e6",
          "transactionHash": "0x6930a9e2e5901574101f11f6f4431ce57576335bf7b4ebff08382db2f3dc4ec2",
          "transactionIndex": "0x4c",
          "logIndex": "0x111",
          "removed": false
        },
        {
          "address": "0x9c92c69a92173548a8e62a412e963f4b93ee2a13",
          "topics": [
            "0xddf252ad1be2c89b69c2b068fc378daa952ba7f163c4a11628f55a4df523b3ef",
            "0x000000000000000000000000eeca254825e78e995d630701d26c7356887ec6c9",
            "0x000000000000000000000000ff6bdef4fb646ee44e29fe8fc0862b02f0ba8a33"
          ],
          "data": "0x000000000000000000000000000000000000000000000000000000000cdfe600",
          "blockHash": "0xeb5a13c422dadc388b30afad483d285c37be08b80c3d1192cfb974625f79445e",
          "blockNumber": "0x26ed483",
          "blockTimestamp": "0x69f107e6",
          "transactionHash": "0x6930a9e2e5901574101f11f6f4431ce57576335bf7b4ebff08382db2f3dc4ec2",
          "transactionIndex": "0x4c",
          "logIndex": "0x112",
          "removed": false
        },
        {
          "address": "0xeeca254825e78e995d630701d26c7356887ec6c9",
          "topics": [
            "0x4dd12c0ecba594b5bb7a4e3ec05ef19e1135fed23711a1fe4b1c9e6c9b40391b",
            "0x000000000000000000000000455ab6723ccab4cb62983710c33f6311cc85bc97",
            "0x0000000000000000000000009c92c69a92173548a8e62a412e963f4b93ee2a13"
          ],
          "data": "0x000000000000000000000000000000000000000000000000000000000cdfe600",
          "blockHash": "0xeb5a13c422dadc388b30afad483d285c37be08b80c3d1192cfb974625f79445e",
          "blockNumber": "0x26ed483",
          "blockTimestamp": "0x69f107e6",
          "transactionHash": "0x6930a9e2e5901574101f11f6f4431ce57576335bf7b4ebff08382db2f3dc4ec2",
          "transactionIndex": "0x4c",
          "logIndex": "0x113",
          "removed": false
        },
        {
          "address": "0x9c92c69a92173548a8e62a412e963f4b93ee2a13",
          "topics": [
            "0xddf252ad1be2c89b69c2b068fc378daa952ba7f163c4a11628f55a4df523b3ef",
            "0x000000000000000000000000eeca254825e78e995d630701d26c7356887ec6c9",
            "0x000000000000000000000000ff6bdef4fb646ee44e29fe8fc0862b02f0ba8a33"
          ],
          "data": "0x00000000000000000000000000000000000000000000000000000001a0476200",
          "blockHash": "0xeb5a13c422dadc388b30afad483d285c37be08b80c3d1192cfb974625f79445e",
          "blockNumber": "0x26ed483",
          "blockTimestamp": "0x69f107e6",
          "transactionHash": "0x6930a9e2e5901574101f11f6f4431ce57576335bf7b4ebff08382db2f3dc4ec2",
          "transactionIndex": "0x4c",
          "logIndex": "0x114",
          "removed": false
        },
        {
          "address": "0xf1b7115a7f6aeb778318cb70dafd91da9901cc77",
          "topics": [
            "0xddf252ad1be2c89b69c2b068fc378daa952ba7f163c4a11628f55a4df523b3ef",
            "0x0000000000000000000000000000000000000000000000000000000000000000",
            "0x000000000000000000000000455ab6723ccab4cb62983710c33f6311cc85bc97"
          ],
          "data": "0x000000000000000000000000000000000000000000000a968163f0a57b400000",
          "blockHash": "0xeb5a13c422dadc388b30afad483d285c37be08b80c3d1192cfb974625f79445e",
          "blockNumber": "0x26ed483",
          "blockTimestamp": "0x69f107e6",
          "transactionHash": "0x6930a9e2e5901574101f11f6f4431ce57576335bf7b4ebff08382db2f3dc4ec2",
          "transactionIndex": "0x4c",
          "logIndex": "0x115",
          "removed": false
        },
        {
          "address": "0xeeca254825e78e995d630701d26c7356887ec6c9",
          "topics": [
            "0x0b9c8304b83df3d2827b952a8e4c87faef3556dddcde57a47cb80f0c755606a5",
            "0x000000000000000000000000455ab6723ccab4cb62983710c33f6311cc85bc97",
            "0x0000000000000000000000009c92c69a92173548a8e62a412e963f4b93ee2a13"
          ],
          "data": "0x00000000000000000000000000000000000000000000000000000001ad274800000000000000000000000000000000000000000000000a968163f0a57b40000000000000000000000000000000000000000000000000000000000000000000000000000000000000000000000000000000000000000023ffb7ed6565d6400000",
          "blockHash": "0xeb5a13c422dadc388b30afad483d285c37be08b80c3d1192cfb974625f79445e",
          "blockNumber": "0x26ed483",
          "blockTimestamp": "0x69f107e6",
          "transactionHash": "0x6930a9e2e5901574101f11f6f4431ce57576335bf7b4ebff08382db2f3dc4ec2",
          "transactionIndex": "0x4c",
          "logIndex": "0x116",
          "removed": false
        }
      ],
      "logsBloom": "0x00000000000000000000100000000000000000000000000080000000000000000000200000000000000000100000000000000000000000000000000000000000000000010000000000000008000010000000000000000001000080000000000000000000020000000000000000000800000080000000000000000010001100008000000000000000000000000002000000000000000000000000000000000000000000000000000200000000000000000000020000000000000020000000000000400002000000100000000000010000000000000000004000000000000020000000002006000000000000100000000000080000000000028000000000000000",
      "type": "0x2",
      "transactionHash": "0x6930a9e2e5901574101f11f6f4431ce57576335bf7b4ebff08382db2f3dc4ec2",
      "transactionIndex": "0x4c",
      "blockHash": "0xeb5a13c422dadc388b30afad483d285c37be08b80c3d1192cfb974625f79445e",
      "blockNumber": "0x26ed483",
      "gasUsed": "0x2923b",
      "effectiveGasPrice": "0x5b8d80",
      "blobGasUsed": "0x39d0",
      "from": "0x455ab6723ccab4cb62983710c33f6311cc85bc97",
      "to": "0xeeca254825e78e995d630701d26c7356887ec6c9",
      "contractAddress": null,
      "daFootprintGasScalar": "0x94",
      "l1BaseFeeScalar": "0x44d",
      "l1BlobBaseFee": "0x41e09e5",
      "l1BlobBaseFeeScalar": "0xa118b",
      "l1Fee": "0x187fd2556",
      "l1GasPrice": "0x444b23f0",
      "l1GasUsed": "0x640"
    },
    {
      "status": "0x1",
      "cumulativeGasUsed": "0x738f83",
      "logs": [
        {
          "address": "0xf1b7115a7f6aeb778318cb70dafd91da9901cc77",
          "topics": [
            "0x8c5be1e5ebec7d5bd14f71427d1e84f3dd0314c0f7b2291e5b200ac8c7c3b925",
            "0x000000000000000000000000455ab6723ccab4cb62983710c33f6311cc85bc97",
            "0x000000000000000000000000e5dea9f61bed9f7de6830dc82ee395993c81300b"
          ],
          "data": "0xffffffffffffffffffffffffffffffffffffffffffffffffffffffffffffffff",
          "blockHash": "0xd9e15eb1efcc66859a39718759e203ea33820a8d294be3bf1490843af0051e93",
          "blockNumber": "0x26ed484",
          "blockTimestamp": "0x69f107e8",
          "transactionHash": "0xaad7ec7921126b05848c10d0c82f12043739b7a506ff337d40022fa5fed4826d",
          "transactionIndex": "0x47",
          "logIndex": "0xb0",
          "removed": false
        }
      ],
      "logsBloom": "0x00000000000000000000000000000000000000000000000000000000000000000000000000000000000000000000000000000000000000000000000000200000000000010000000000000000000000000000000000000000000000000000000000000000000000000000000000000000000000000000000000000400000100000000000000000000000000000002000010000000000000000000000000000000020000000000000200000000000000000000000000000001000000000000000000000000000000000000000000000000000000000000000000000000000000000010000000000000000000100000000000000000000000008000000000000000",
      "type": "0x2",
      "transactionHash": "0xaad7ec7921126b05848c10d0c82f12043739b7a506ff337d40022fa5fed4826d",
      "transactionIndex": "0x47",
      "blockHash": "0xd9e15eb1efcc66859a39718759e203ea33820a8d294be3bf1490843af0051e93",
      "blockNumber": "0x26ed484",
      "gasUsed": "0xc841",
      "effectiveGasPrice": "0x5b8d80",
      "blobGasUsed": "0x39d0",
      "from": "0x455ab6723ccab4cb62983710c33f6311cc85bc97",
      "to": "0xf1b7115a7f6aeb778318cb70dafd91da9901cc77",
      "contractAddress": null,
      "daFootprintGasScalar": "0x94",
      "l1BaseFeeScalar": "0x44d",
      "l1BlobBaseFee": "0x41e09e5",
      "l1BlobBaseFeeScalar": "0xa118b",
      "l1Fee": "0x187fd2556",
      "l1GasPrice": "0x444b23f0",
      "l1GasUsed": "0x640"
    },
    {
      "status": "0x1",
      "cumulativeGasUsed": "0x7c0e1d",
      "logs": [
        {
          "address": "0xf1b7115a7f6aeb778318cb70dafd91da9901cc77",
          "topics": [
            "0xddf252ad1be2c89b69c2b068fc378daa952ba7f163c4a11628f55a4df523b3ef",
            "0x000000000000000000000000455ab6723ccab4cb62983710c33f6311cc85bc97",
            "0x000000000000000000000000e5dea9f61bed9f7de6830dc82ee395993c81300b"
          ],
          "data": "0x000000000000000000000000000000000000000000000a968163f0a57b400000",
          "blockHash": "0x6a3173c66ebfb06dd98d4892fdbfaee1fe390034fd7e2a386763f5405e506fbe",
          "blockNumber": "0x26ed485",
          "blockTimestamp": "0x69f107ea",
          "transactionHash": "0x5888348f00c67dff16ace6ec57c25fce480c7778e2a7ede3dae5665e46f4ab6a",
          "transactionIndex": "0x40",
          "logIndex": "0x12d",
          "removed": false
        },
        {
          "address": "0xe5dea9f61bed9f7de6830dc82ee395993c81300b",
          "topics": [
            "0x9cfd25589d1eb8ad71e342a86a8524e83522e3936c0803048c08f6d9ad974f40",
            "0x000000000000000000000000455ab6723ccab4cb62983710c33f6311cc85bc97",
            "0x0000000000000000000000000000000000000000000000000000000000000001"
          ],
          "data": "0x000000000000000000000000000000000000000000000a968163f0a57b4000000000000000000000000000000000000000000000000023ffb7ed6565d64000000000000000000000000000000000000000000000000000002a6d273b2b9f6db8",
          "blockHash": "0x6a3173c66ebfb06dd98d4892fdbfaee1fe390034fd7e2a386763f5405e506fbe",
          "blockNumber": "0x26ed485",
          "blockTimestamp": "0x69f107ea",
          "transactionHash": "0x5888348f00c67dff16ace6ec57c25fce480c7778e2a7ede3dae5665e46f4ab6a",
          "transactionIndex": "0x40",
          "logIndex": "0x12e",
          "removed": false
        },
        {
          "address": "0xe5dea9f61bed9f7de6830dc82ee395993c81300b",
          "topics": [
            "0x875894a489de1b1b13bf2e6c03981e3ddabcf1794b4b94dc5ba5d8e855a1e2f9"
          ],
          "data": "0x0000000000000000000000000000000000000000000000002a6d273b2b9f6db80000000000000000000000000000000000000000000023ffb7ed6565d6400000000000000000000000000000000000000000000000004a1d89bb94865ec00000",
          "blockHash": "0x6a3173c66ebfb06dd98d4892fdbfaee1fe390034fd7e2a386763f5405e506fbe",
          "blockNumber": "0x26ed485",
          "blockTimestamp": "0x69f107ea",
          "transactionHash": "0x5888348f00c67dff16ace6ec57c25fce480c7778e2a7ede3dae5665e46f4ab6a",
          "transactionIndex": "0x40",
          "logIndex": "0x12f",
          "removed": false
        }
      ],
      "logsBloom": "0x00000000000000000000000000000000000000000000000000000000000000000008000000000000000000000000000000000000000000000008000000040000000000010000000000000008000000000000000000040000000000000000000000000000000000000000000000000000000000000000000000000410000100000000000000000000000000000002000010000000000000000000000000100000000000000000000200000010000000000000000000000001000000000000200000800002000020000000000000000000000000000000000000000000000040000000000000800000000000100000000000000000000000008000000000100000",
      "type": "0x2",
      "transactionHash": "0x5888348f00c67dff16ace6ec57c25fce480c7778e2a7ede3dae5665e46f4ab6a",
      "transactionIndex": "0x40",
      "blockHash": "0x6a3173c66ebfb06dd98d4892fdbfaee1fe390034fd7e2a386763f5405e506fbe",
      "blockNumber": "0x26ed485",
      "gasUsed": "0x4adf5",
      "effectiveGasPrice": "0x5b8d80",
      "blobGasUsed": "0x39d0",
      "from": "0x455ab6723ccab4cb62983710c33f6311cc85bc97",
      "to": "0xe5dea9f61bed9f7de6830dc82ee395993c81300b",
      "contractAddress": null,
      "daFootprintGasScalar": "0x94",
      "l1BaseFeeScalar": "0x44d",
      "l1BlobBaseFee": "0x41e09e5",
      "l1BlobBaseFeeScalar": "0xa118b",
      "l1Fee": "0x187fd2556",
      "l1GasPrice": "0x444b23f0",
      "l1GasUsed": "0x640"
    }
  ],
  "libraries": [],
  "pending": [],
  "returns": {},
  "timestamp": 1777403882744,
  "chain": 84532,
  "commit": "a47eb50"
}